:020000040800F2
:100000000000012091550008553B0008573B0008AF
:10001000593B00085B3B00085D3B00080000000006
:100020000000000000000000000000005F3B00082E
:10003000613B000800000000633B0008653B0008CE
:10004000E1550008E1550008E1550008E1550008B8
:10005000E1550008E1550008E1550008E1550008A8
:10006000E1550008E1550008E1550008E155000898
:10007000E1550008E1550008E1550008E155000888
:10008000E1550008E1550008E155000800000000B6
:10009000000000000000000000000000E155000822
:1000A000E1550008E1550008E1550008E155000858
:1000B0006D3B00087D3B00088D3B0008E1550008C2
:1000C000E1550008E1550008E1550008E155000838
:1000D000E1550008E1550008E15500080000000066
:1000E000E1550008E1550008E15500080000000056
:1000F000000000000000000000000000E1550008C2
:1001000000000000E1550008E1550008E155000835
:1001100000000000000000000000000000000000DF
:100120009D3B0008E1550008E1550008E155000835
:10013000E155000800000000000000000000000081
:10014000000000000000000000000000E155000871
:10015000E1550008E1550008E1550008E1550008A7
:10016000E1550008E1550008000000000000000013
:10017000000000000000000000000000000000007F
:1001800000000000E1550008000000000000000031
:04019000E15500082D
:1001C00010B5054C237833B9044B13B10448AFF391
:1001D00000800123237010BDF00900200000000002
:1001E000DCF3000808B5034B1BB103490348AFF328
:1001F000008008BD00000000F4090020DCF30008C6
:1002000081F0004102E000BF83F0004330B54FEAC7
:1002100041044FEA430594EA050F08BF90EA020F34
:100220001FBF54EA000C55EA020C7FEA645C7FEAC7
:10023000655C00F0E2804FEA5454D4EB5555B8BFEA
:100240006D420CDD2C4480EA020281EA030382EA5B
:10025000000083EA010180EA020281EA0303362DED
:1002600088BF30BD11F0004F4FEA01314FF4801CC0
:100270004CEA113102D0404261EB410113F0004FD2
:100280004FEA03334CEA133302D0524263EB430389
:1002900094EA050F00F0A780A4F10104D5F1200E27
:1002A0000DDB02FA0EFC22FA05F2801841F1000182
:1002B00003FA0EF2801843FA05F359410EE0A5F156
:1002C00020050EF1200E012A03FA0EFC28BF4CF087
:1002D000020C43FA05F3C01851EBE37101F000453D
:1002E00007D54FF0000EDCF1000C7EEB00006EEB4A
:1002F0000101B1F5801F1BD3B1F5001F0CD34908D4
:100300005FEA30004FEA3C0C04F101044FEA44522A
:1003100012F5800F80F09A80BCF1004F08BF5FEAB1
:10032000500C50F1000041EB045141EA050130BD91
:100330005FEA4C0C404141EB0101013C28BFB1F5A3
:10034000801FE9D291F0000F04BF01460020B1FAEE
:1003500081F308BF2033A3F10B03B3F120020CDAC1
:100360000C3208DD02F1140CC2F10C0201FA0CF09F
:1003700021FA02F10CE002F11402D8BFC2F1200C04
:1003800001FA02F120FA0CFCDCBF41EA0C019040BA
:10039000E41AA2BF01EB0451294330BD6FEA040403
:1003A0001F3C1CDA0C340EDC04F11404C4F12002EE
:1003B00020FA04F001FA02F340EA030021FA04F300
:1003C00045EA030130BDC4F10C04C4F1200220FA57
:1003D00002F001FA04F340EA0300294630BD21FA95
:1003E00004F0294630BD94F0000F83F4801306BF5B
:1003F00081F480110134013D4EE77FEA645C18BF4F
:100400007FEA655C29D094EA050F08BF90EA020FE5
:1004100005D054EA000C04BF1946104630BD91EADD
:10042000030F1EBF0021002030BD5FEA545C05D1E0
:100430004000494128BF41F0004130BD14F580041F
:100440003CBF01F5801130BD01F0004545F0FE4193
:1004500041F470014FF0000030BD7FEA645C1ABFC8
:10046000194610467FEA655C1CBF0B46024650EAFF
:10047000013406BF52EA033591EA030F41F400212B
:1004800030BD00BF90F0000F04BF0021704730B5B1
:100490004FF4806404F132044FF000054FF0000186
:1004A00050E700BF90F0000F04BF0021704730B547
:1004B0004FF4806404F1320410F0004548BF40421C
:1004C0004FF000013EE700BF42004FEAE2014FEA71
:1004D00031014FEA02701FBF12F07F4393F07F4F4C
:1004E00081F06051704732F07F4208BF704793F04F
:1004F0007F4F04BF41F40021704730B54FF4607462
:1005000001F0004521F000411CE700BF50EA010264
:1005100008BF704730B54FF000050AE050EA01020D
:1005200008BF704730B511F0004502D5404261EB7D
:1005300041014FF4806404F132045FEA915C3FF4BE
:10054000D8AE4FF003025FEADC0C18BF03325FEA5B
:10055000DC0C18BF033202EBDC02C2F1200300FA0C
:1005600003FC20FA02F001FA03FE40EA0E0021FA31
:1005700002F11444BDE600BF4FF0FF3C06E000BFAF
:100580004FF0010C02E000BF4FF0010C4DF804CD1C
:100590004FEA410C7FEA6C5C4FEA430C18BF7FEADC
:1005A0006C5C1BD001B050EA410C0CBF52EA430C0A
:1005B00091EA030F02BF90EA020F0020704710F18A
:1005C000000F91EA030F58BF994208BF90422CBF19
:1005D000D8176FEAE37040F0010070474FEA410C12
:1005E0007FEA6C5C02D150EA013C07D14FEA430C30
:1005F0007FEA6C5CD6D152EA033CD3D05DF8040BA1
:10060000704700BF8446104662468C4619466346D2
:1006100000E000BF01B5FFF7B7FF002848BF10F1A9
:10062000000F01BD4DF808EDFFF7F4FF0CBF0120EE
:1006300000205DF808FB00BF4DF808EDFFF7EAFF6A
:1006400034BF012000205DF808FB00BF4DF808ED25
:10065000FFF7E0FF94BF012000205DF808FB00BF1A
:100660004DF808EDFFF7CEFF94BF012000205DF8A4
:1006700008FB00BF4DF808EDFFF7C4FF34BF0120B1
:1006800000205DF808FB00BF80F0004002E000BFE2
:1006900081F0004142001FBF5FEA410392EA030F6D
:1006A0007FEA226C7FEA236C6AD04FEA1262D2EBB7
:1006B0001363C1BFD218414048404140B8BF5B42BC
:1006C000192B88BF704710F0004F40F4000020F055
:1006D0007F4018BF404211F0004F41F4000121F06B
:1006E0007F4118BF494292EA030F3FD0A2F10102B5
:1006F00041FA03FC10EB0C00C3F1200301FA03F1F3
:1007000000F0004302D5494260EB4000B0F5000F15
:1007100013D3B0F1807F06D340084FEA310102F1D4
:100720000102FE2A51D2B1F1004F40EBC25008BF86
:1007300020F0010040EA03007047490040EB000050
:10074000013A28BFB0F5000FEDD2B0FA80FCACF151
:10075000080CB2EB0C0200FA0CF0AABF00EBC2507E
:1007600052421843BCBFD0401843704792F0000F6C
:1007700081F4000106BF80F400000132013BB5E7BF
:100780004FEA41037FEA226C18BF7FEA236C21D035
:1007900092EA030F04D092F0000F08BF084670479A
:1007A00090EA010F1CBF0020704712F07F4F04D168
:1007B000400028BF40F00040704712F100723CBF7B
:1007C00000F50000704700F0004343F0FE4040F4A5
:1007D000000070477FEA226216BF08467FEA236363
:1007E0000146420206BF5FEA412390EA010F40F44E
:1007F000800070474FF0000304E000BF10F000439A
:1008000048BF40425FEA000C08BF704743F0964380
:1008100001464FF000001CE050EA010208BF70479B
:100820004FF000030AE000BF50EA010208BF704722
:1008300011F0004302D5404261EB41015FEA010C37
:1008400002BF84460146002043F0B64308BFA3F12F
:100850008053A3F50003BCFA8CF2083AA3EBC25311
:1008600010DB01FA02FC634400FA02FCC2F1200230
:10087000BCF1004F20FA02F243EB020008BF20F067
:100880000100704702F1200201FA02FCC2F12002CD
:1008900050EA4C0021FA02F243EB020008BF20EAC2
:1008A000DC7070474FF0FF0C1CEAD0521EBF1CEAF0
:1008B000D15392EA0C0F93EA0C0F6FD01A4480EADE
:1008C000010C400218BF5FEA41211ED04FF00063C7
:1008D00043EA501043EA5111A0FB01310CF00040F3
:1008E000B1F5000F3EBF490041EAD3715B0040EA19
:1008F000010062F17F02FD2A1DD8B3F1004F40EBE9
:10090000C25008BF20F00100704790F0000F0CF0BB
:10091000004C08BF49024CEA502040EA51207F3A7F
:10092000C2BFD2F1FF0340EAC250704740F400005A
:100930004FF00003013A5DDC12F1190FDCBF00F04B
:1009400000407047C2F10002410021FA02F1C2F1F9
:10095000200200FA02FC5FEA310040F1000053EA95
:100960004C0308BF20EADC70704792F0000F00F0E3
:10097000004C02BF400010F4000F013AF9D040EAE9
:100980000C0093F0000F01F0004C02BF490011F47D
:10099000000F013BF9D041EA0C018FE70CEAD1537B
:1009A00092EA0C0F18BF93EA0C0F0AD030F0004CFB
:1009B00018BF31F0004CD8D180EA010000F00040AF
:1009C000704790F0000F17BF90F0004F084691F06D
:1009D000000F91F0004F14D092EA0C0F01D14202A7
:1009E0000FD193EA0C0F03D14B0218BF084608D170
:1009F00080EA010000F0004040F0FE4040F40000BA
:100A0000704740F0FE4040F4400070474FF0FF0C4C
:100A10001CEAD0521EBF1CEAD15392EA0C0F93EA93
:100A20000C0F69D0A2EB030280EA010C49024FEAE5
:100A3000402037D04FF0805343EA111143EA10139E
:100A40000CF000408B4238BF5B0042F17D024FF456
:100A5000000C8B4224BF5B1A40EA0C00B3EB510F31
:100A600024BFA3EB510340EA5C00B3EB910F24BF1A
:100A7000A3EB910340EA9C00B3EBD10F24BFA3EB9F
:100A8000D10340EADC001B0118BF5FEA1C1CE0D167
:100A9000FD2A3FF650AF8B4240EBC25008BF20F01A
:100AA000010070470CF0004C4CEA50207F32C2BF6E
:100AB000D2F1FF0340EAC250704740F400004FF00B
:100AC0000003013A37E792F0000F00F0004C02BF3C
:100AD000400010F4000F013AF9D040EA0C0093F006
:100AE000000F01F0004C02BF490011F4000F013B60
:100AF000F9D041EA0C0195E70CEAD15392EA0C0FC8
:100B000008D142027FF47DAF93EA0C0F7FF470AFFF
:100B1000084676E793EA0C0F04D14B023FF44CAF42
:100B200008466EE730F0004C18BF31F0004CCAD1D7
:100B300030F000427FF45CAF31F000437FF43CAF13
:100B40005FE700BF4FF0FF3C06E000BF4FF0010C35
:100B500002E000BF4FF0010C4DF804CD4FEA400217
:100B60004FEA41037FEA226C18BF7FEA236C11D061
:100B700001B052EA530C18BF90EA010F58BFB2EB14
:100B8000030088BFC81738BF6FEAE17018BF40F094
:100B9000010070477FEA226C02D15FEA402C05D148
:100BA0007FEA236CE4D15FEA412CE1D05DF8040BCD
:100BB000704700BF844608466146FFE70FB5FFF760
:100BC000C9FF002848BF10F1000F0FBD4DF808ED18
:100BD000FFF7F4FF0CBF012000205DF808FB00BF09
:100BE0004DF808EDFFF7EAFF34BF012000205DF863
:100BF00008FB00BF4DF808EDFFF7E0FF94BF0120B0
:100C000000205DF808FB00BF4DF808EDFFF7D2FFAC
:100C100094BF012000205DF808FB00BF4DF808EDEF
:100C2000FFF7C8FF34BF012000205DF808FB00BFBC
:100C300042000ED2B2F1FE4F0BD34FF09E03B3EB46
:100C4000126209D44FEA002343F0004323FA02F072
:100C500070474FF00000704712F1610F01D142025E
:100C600002D14FF0FF3070474FF00000704700BFD7
:100C700053B94AB9002908BF00281CBF4FF0FF3103
:100C80004FF0FF3000F094B9ADF1080C6DE904CEDF
:100C900000F026F8DDF804E0DDE9022304B0704737
:100CA000D0B5FFF711FC0C4B002206460F4600F0B2
:100CB00001FB00F07FF90446FFF7E4FB074B00223D
:100CC00000F0F8FA02460B4630463946FFF79CFA28
:100CD00000F070F92146D0BD0000F03D0000F04169
:100CE0002DE9F047089E0D4604468846002B4DD15D
:100CF0008A42944668D9B2FA82F252B101FA02F3FA
:100D0000C2F1200120FA01F10CFA02FC41EA0308C9
:100D100094404FEA1C45210CB8FBF5FE1FFA8CF7F6
:100D200005FB1E8341EA03430EFB07F199420BD9F1
:100D30001CEB03030EF1FF3080F01E81994240F25C
:100D40001B81AEF1020E63445B1AA4B2B3FBF5F053
:100D500005FB103344EA034400FB07F7A7420AD916
:100D60001CEB040400F1FF3380F00881A74240F23D
:100D7000058164440238E41B40EA0E4000211EB1A4
:100D8000D4400023C6E90043BDE8F0878B4208D970
:100D9000002E00F0EE800021C6E900050846BDE8FF
:100DA000F087B3FA83F100294AD1AB4202D38242E1
:100DB00000F2F980841A65EB030301209846002EA7
:100DC000E2D0C6E90048DFE702B9FFDEB2FA82F2FC
:100DD000002A40F09180A1EB0C054FEA1C471FFA56
:100DE0008CFE0121B5FBF7F307FB1350250C45EAF8
:100DF00000450EFB03F0A84208D91CEB050503F1E2
:100E0000FF3802D2A84200F2CB8043462D1AA4B28A
:100E1000B5FBF7F007FB105544EA05440EFB00FE56
:100E2000A64508D91CEB040400F1FF3502D2A64503
:100E300000F2BB802846A4EB0E0440EA03409EE784
:100E4000C1F120078B4022FA07FC4CEA030C20FA80
:100E500007F405FA01F31C43FD404FEA1C4900FA70
:100E600001F3B5FBF9F8200C1FFA8CFE09FB1855AD
:100E700040EA054508FB0EF0A84202FA01F20BD940
:100E80001CEB050508F1FF3A80F08880A84240F28B
:100E90008580A8F1020865442D1AA4B2B5FBF9F0CB
:100EA00009FB105544EA054500FB0EFEAE4508D986
:100EB0001CEB050500F1FF346CD2AE456AD902384F
:100EC000654440EA0840A0FB0294A5EB0E05A5424C
:100ED000C846A64656D353D05EB1B3EB080265EBC5
:100EE0000E0505FA07F722FA01F3CD401F43C6E9C4
:100EF00000750021BDE8F087C2F1200320FA03F15C
:100F00000CFA02FC25FA03F395400D434FEA1C4707
:100F10001FFA8CFEB3FBF7F107FB11302B0C43EAF1
:100F2000004301FB0EF0984204FA02F408D91CEBCE
:100F3000030301F1FF382FD298422DD902396344BF
:100F40001B1AADB2B3FBF7F007FB103345EA0345BC
:100F500000FB0EF3AB4208D91CEB050500F1FF388E
:100F600016D2AB4214D902386544ED1A40EA014169
:100F700038E73146304607E78646E5E61846FAE6A2
:100F80004B45A9D2B9EB020864EB0C0E0138A3E77C
:100F90004046EAE7204694E74146D1E7D0467BE762
:100FA000023B654432E7084609E76444023842E7F9
:100FB000704700BF4A0011D212F5001211D20DD5B0
:100FC0006FF47873B3EB62520ED44FEAC12343F04F
:100FD000004343EA505323FA02F070474FF00000F9
:100FE000704750EA013002D14FF0FF3070474FF0A8
:100FF000000070470000000000000000000000003A
:1010000090F800F06DE9024520F007016FF0000C48
:1010100010F0070491F820F040F049804FF00004F0
:101020006FF00700D1E9002391F840F000F10800CB
:1010300082FA4CF2A4FA8CF283FA4CF3A2FA8CF303
:101040004BBBD1E9022382FA4CF200F10800A4FA6A
:101050008CF283FA4CF3A2FA8CF3E3B9D1E90423BE
:1010600082FA4CF200F10800A4FA8CF283FA4CF3F5
:10107000A2FA8CF37BB9D1E9062301F1200182FAAF
:101080004CF200F10800A4FA8CF283FA4CF3A2FAB5
:101090008CF3002BC6D0002A04BF04301A4612BAC3
:1010A000B2FA82F2FDE8024500EBD2007047D1E9C6
:1010B000002304F00305C4F100004FEAC50514F055
:1010C000040F91F840F00CFA05F562EA05021CBF26
:1010D00063EA050362464FF00004A9E70000000040
:1010E00001F0FF01102A2BDB10F0070F08D010F8D9
:1010F000013B013A8B422DD010F0070F42B3F6D1DD
:10110000F0B441EA012141EA014122F007047FF0F5
:1011100000070023F0E80256083C85EA010586EA4C
:10112000010685FA47F5A3FA87F586FA47F6A5FA88
:1011300087F68EB9EED1F0BC01F0FF0102F0070294
:1011400032B110F8013B013A83EA010313B1F8D13F
:101150000020704701387047002D06BF3546033820
:10116000073815F0010F07D1013015F4807F02BF59
:10117000013015F4C03F0130F0BC0138704700BFAA
:10118000844641EA000313F003036DD1403A41D392
:1011900051F8043B40F8043B51F8043B40F8043B51
:1011A00051F8043B40F8043B51F8043B40F8043B41
:1011B00051F8043B40F8043B51F8043B40F8043B31
:1011C00051F8043B40F8043B51F8043B40F8043B21
:1011D00051F8043B40F8043B51F8043B40F8043B11
:1011E00051F8043B40F8043B51F8043B40F8043B01
:1011F00051F8043B40F8043B51F8043B40F8043BF1
:1012000051F8043B40F8043B51F8043B40F8043BE0
:10121000403ABDD2303211D351F8043B40F8043B80
:1012200051F8043B40F8043B51F8043B40F8043BC0
:1012300051F8043B40F8043B103AEDD20C3205D390
:1012400051F8043B40F8043B043AF9D2043208D088
:10125000D2071CBF11F8013B00F8013B01D30B88FA
:1012600003806046704700BF082A13D38B078DD0D8
:1012700010F003038AD0C3F10403D21ADB071CBFAA
:1012800011F8013B00F8013B80D331F8023B20F814
:10129000023B7BE7043AD9D3013A11F8013B00F84D
:1012A000013BF9D20B7803704B7843708B788370D5
:1012B0006046704770B54FF0FF0C4CF4E06C1CEAD0
:1012C00011541DBF1CEA135594EA0C0F95EA0C0F3C
:1012D00000F0DEF82C4481EA030621EA4C5123EAAF
:1012E0004C5350EA013518BF52EA033541F48011DE
:1012F00043F4801338D0A0FB02CE4FF00005E1FB91
:1013000002E506F00042E0FB03E54FF00006E1FBDA
:1013100003569CF0000F18BF4EF0010EA4F1FF041D
:10132000B6F5007F64F5407404D25FEA4E0E6D415D
:1013300046EB060642EAC62141EA55514FEAC5206E
:1013400040EA5E504FEACE2EB4F1FD0C88BFBCF5EA
:10135000E06F1ED8BEF1004F08BF5FEA500E50F19B
:10136000000041EB045170BD06F0004646EA010161
:1013700040EA020081EA0301B4EB5C04C2BFD4EB93
:101380000C0541EA045170BD41F480114FF0000E8C
:10139000013C00F3AB8014F1360FDEBF002001F0FA
:1013A000004170BDC4F10004203C35DA0C341BDC74
:1013B00004F11404C4F1200500FA05F320FA04F046
:1013C00001FA05F240EA020001F0004221F000417A
:1013D00010EBD37021FA04F642EB06015EEA430EED
:1013E00008BF20EAD37070BDC4F10C04C4F120051D
:1013F00000FA04F320FA05F001FA04F240EA0200D0
:1014000001F0004110EBD37041F100015EEA430EA0
:1014100008BF20EAD37070BDC4F1200500FA05F2C0
:101420004EEA020E20FA04F301FA05F243EA02033F
:1014300021FA04F001F0004121FA04F220EA02004E
:1014400000EBD3705EEA430E08BF20EAD37070BD94
:1014500094F0000F0FD101F00046400041EB010174
:1014600011F4801F08BF013CF7D041EA060195F056
:10147000000F18BF704703F00046520043EB030310
:1014800013F4801F08BF013DF7D043EA06037047FD
:1014900094EA0C0F0CEA135518BF95EA0C0F0CD008
:1014A00050EA410618BF52EA4306D1D181EA03014E
:1014B00001F000414FF0000070BD50EA410606BF48
:1014C0001046194652EA430619D094EA0C0F02D18D
:1014D00050EA013613D195EA0C0F05D152EA0336D2
:1014E0001CBF104619460AD181EA030101F00041F0
:1014F00041F0FE4141F470014FF0000070BD41F039
:10150000FE4141F4780170BD70B54FF0FF0C4CF412
:10151000E06C1CEA11541DBF1CEA135594EA0C0F31
:1015200095EA0C0F00F0A7F8A4EB050481EA030E7E
:1015300052EA03354FEA013100F088804FEA033365
:101540004FF0805545EA131343EA12634FEA022233
:1015500045EA111545EA10654FEA00260EF00041F4
:101560009D4208BF964244F1FD0404F5407402D246
:101570005B084FEA3202B61A65EB03055B084FEAD7
:1015800032024FF480104FF4002CB6EB020E75EBD4
:10159000030E22BFB61A754640EA0C005B084FEAFC
:1015A0003202B6EB020E75EB030E22BFB61A754679
:1015B00040EA5C005B084FEA3202B6EB020E75EBC4
:1015C000030E22BFB61A754640EA9C005B084FEA3C
:1015D0003202B6EB020E75EB030E22BFB61A754649
:1015E00040EADC0055EA060E18D04FEA051545EA38
:1015F00016754FEA06164FEAC30343EA52734FEAE1
:10160000C2025FEA1C1CC0D111F4801F0BD141EA59
:1016100000014FF000004FF0004CB6E711F4801FBE
:1016200004BF01430020B4F1FD0C88BFBCF5E06F9E
:101630003FF6AFAEB5EB030C04BFB6EB020C5FEAAE
:10164000500C50F1000041EB045170BD0EF0004E03
:101650004EEA113114EB5C04C2BFD4EB0C0541EA35
:10166000045170BD41F480114FF0000E013C90E632
:1016700045EA060E8DE60CEA135594EA0C0F08BFF6
:1016800095EA0C0F3FF43BAF94EA0C0F0AD150EAF5
:1016900001347FF434AF95EA0C0F7FF425AF104688
:1016A00019462CE795EA0C0F06D152EA03353FF4B0
:1016B000FDAE1046194622E750EA410618BF52EA2D
:1016C00043067FF4C5AE50EA41047FF40DAF52EA01
:1016D00043057FF4EBAE12E74FEA410C7FEA6C5C06
:1016E00002D150EA013C0AD14FEA430C7FEA6C5C1C
:1016F00002D152EA033C02D14FF0000070474FF094
:10170000010070474FEA410212F5001215D211D5BF
:101710006FF47873B3EB625212D94FEAC12343F0EE
:10172000004343EA505311F0004F23FA02F018BF70
:10173000404270474FF00000704750EA013005D139
:1017400011F0004008BF6FF0004070474FF00000FC
:10175000704700BF10B582B08DF807000E4C002214
:101760004FF40061204604F0A6FF00224FF48051A0
:10177000204604F0A0FF4FF0FF3301220DF10701D6
:10178000064805F0C8FB01224FF48051204604F0C2
:1017900092FF02B010BD00BF00000240480B0020C5
:1017A00010B582B08DF807000E4C01224FF4006195
:1017B000204604F080FF00224FF48051204604F0C0
:1017C0007AFF4FF0FF3301220DF10701064805F0C3
:1017D000A2FB01224FF48051204604F06CFF02B0BE
:1017E00010BD00BF00000240480B002008B5024BAE
:1017F000187AFFF7AFFF08BD100A002010B582B0BD
:10180000030A8DF804308DF805000E4C00224FF4C9
:101810008051204604F04FFF01224FF40061204622
:1018200004F049FF4FF0FF33022201A9064805F0FA
:1018300072FB01224FF48051204604F03CFF02B0BD
:1018400010BD00BF00000240480B002070B50546E7
:101850000C460A4EB07AFFF77DFF280AFFF7A0FF7B
:10186000E8B2FFF79DFF307BFFF774FF200AFFF718
:1018700097FFE0B2FFF794FF70BD00BF100A002091
:1018800010B50C46C0B2FFF765FF2046FFF7B6FF64
:1018900010BD000008B5FFF7D9FFFFF7A7FF024B07
:1018A0001888FFF7ABFF08BD0C0A002010B51446DE
:1018B000FFF7CCFF2146024B1889FFF7E1FF10BD6F
:1018C000100A002070B50646094B1A885D8802FB95
:1018D00005F500210846FFF7B9FFFFF787FF002451
:1018E00003E03046FFF78AFF0134AC42F9D370BD04
:1018F000100A002010B5714C01224FF4807120466F
:1019000004F0D9FE012003F0BFFE00224FF48071E5
:10191000204604F0D0FE0A2003F0B6FE01224FF468
:101920008071204604F0C7FE782003F0ADFE7820D9
:1019300003F0AAFE1120FFF70DFF782003F0A4FEAC
:10194000F020FFF707FFC320FFF72AFFF020FFF783
:1019500001FF9620FFF724FF3620FFF7FBFE48200B
:10196000FFF71EFF3A20FFF7F5FE5520FFF718FF9F
:10197000B420FFF7EFFE0120FFF712FFB720FFF7BB
:10198000E9FEC620FFF70CFFE820FFF7E3FE40204A
:10199000FFF706FF8A20FFF703FF0020FFF700FF95
:1019A0000020FFF7FDFE2920FFF7FAFE1920FFF7C0
:1019B000F7FEA520FFF7F4FE3320FFF7F1FEC1206C
:1019C000FFF7C8FE0620FFF7EBFEC220FFF7C2FEBE
:1019D000A720FFF7E5FEC520FFF7BCFE1820FFF7A4
:1019E000DFFEE020FFF7B6FEF020FFF7D9FE09206A
:1019F000FFF7D6FE0B20FFF7D3FE0620FFF7D0FE41
:101A00000420FFF7CDFE1520FFF7CAFE2F20FFF7B9
:101A1000C7FE5420FFF7C4FE4220FFF7C1FE3C2062
:101A2000FFF7BEFE1720FFF7BBFE1420FFF7B8FE3E
:101A30001820FFF7B5FE1B20FFF7B2FEE120FFF7ED
:101A400089FEF020FFF7ACFE0920FFF7A9FE0B206E
:101A5000FFF7A6FE0620FFF7A3FE0420FFF7A0FE77
:101A60000320FFF79DFE2D20FFF79AFE4320FFF78E
:101A700097FE4220FFF794FE3B20FFF791FE1620D1
:101A8000FFF78EFE1420FFF78BFE1720FFF788FE6E
:101A90001B20FFF785FEF020FFF75CFE3C20FFF7E0
:101AA0007FFEF020FFF756FE6920FFF779FE7820D1
:101AB00003F0EAFD2920FFF74DFE10BD00000240B3
:101AC00010B501282DD9831EDBB2012B47D9334C29
:101AD000A07AFFF73FFE0020FFF762FE0020FFF72D
:101AE0005FFE20880138C0F30720FFF759FE2078F9
:101AF0000138C0B2FFF754FE207BFFF72BFE002019
:101B0000FFF74EFE0020FFF74BFE60880138C0F360
:101B10000720FFF745FEA0780138C0B2FFF740FE6E
:101B200010BD1E4B00229A714FF4A0721A804FF420
:101B3000F0725A802C221A812A225A812B229A81F1
:101B400030B93620FFF706FE4820FFF729FEBEE732
:101B50003620FFF7FFFD8820FFF722FEB7E70F4B87
:101B600001229A714FF4F0721A804FF4A0725A80D9
:101B70002C221A812A225A812B229A81022806D0ED
:101B80003620FFF7E7FD2820FFF70AFE9FE7362003
:101B9000FFF7E0FDE820FFF703FE98E7100A0020BA
:101BA00008B501224FF40071014804F084FD08BD1E
:101BB000000802402DE9F04F83B08046A2EB000AF6
:101BC0008946A3EB010BBAF1000F0DDD0122009253
:101BD000BBF1000F14DD01230193DA451CDD5646ED
:101BE00000252F462C461BE0BAF1000F05D0A0EBD4
:101BF000020A4FF0FF320092EAE7CDF800A0E7E7D3
:101C0000BBF1000F05D0A1EB030B4FF0FF330193A5
:101C1000E3E7CDF804B0E0E75E46E1E70134A4B2C3
:101C2000731C9C4212DC1FFA89F11FFA88F0FFF73F
:101C300031FE57445D44BE4202DABF1B009B98440C
:101C4000AE42EBDAAD1B019B9944E7E703B0BDE878
:101C5000F08FF8B507460E4615461C460B46FFF7B3
:101C6000A9FF23463A4631463846FFF7A3FF2346ED
:101C70002A4621463846FFF79DFF23462A4631462D
:101C80002846FFF797FFF8BD2DE9F04383B0804663
:101C90000F469946BDF82860204B998846F6040304
:101CA000994205D0A2EB0805ADB20135ADB22BE0EB
:101CB0001A4B9B79012BF5D1184C2388991A89B2BC
:101CC00001391B1A9BB2013B0022A2712A256581B2
:101CD0004FF02B08A4F80C8000969BB24A4689B2BC
:101CE0003846FFF7D1FF0123A371A4F80A80A5812C
:101CF00003B0BDE8F0833046FFF780FD0134A4B2A5
:101D0000AC42F8D30137BFB24F45F1D8394640460F
:101D1000FFF79CFDFFF76AFD0024F1E7100A0020A1
:101D20002DE9F84307468846A2F12E032C2B00F23A
:101D30008C80DFE803F08481178D1A1E2124272A66
:101D40002D30878A8A8A8A8A8A3336393C3F4245CF
:101D5000484B4E5154575A5D606366696C6F72759B
:101D6000787B7E004FF0000901E04FF00209002669
:101D70008EE04FF00309FAE74FF00409F7E74FF060
:101D80000509F4E74FF00609F1E74FF00709EEE720
:101D90004FF00809EBE74FF00909E8E74FF00A09AF
:101DA000E5E74FF00B09E2E74FF00C09DFE74FF0F2
:101DB0000D09DCE74FF00E09D9E74FF00F09D6E720
:101DC0004FF01009D3E74FF01109D0E74FF0120997
:101DD000CDE74FF01309CAE74FF01409C7E74FF0FA
:101DE0001509C4E74FF01609C1E74FF01709BEE720
:101DF0004FF01809BBE74FF01909B8E74FF01A097F
:101E0000B5E74FF01B09B2E74FF01C09AFE74FF001
:101E10001D09ACE74FF01E09A9E74FF01F09A6E71F
:101E20004FF02009A3E74FF02109A0E74FF0220966
:101E30009DE74FF023099AE74FF0240997E74FF009
:101E4000250994E74FF0260991E74FF0FF098EE747
:101E50004FF001098BE708EB06013819184B1A8877
:101E600089B280B2FFF722FD6D080134E4B2092C7B
:101E70000CD815F0010FEED008EB06013819114B04
:101E80001A8889B280B2FFF711FDEDE70136F6B28C
:101E9000132E12D8720001320B4B09EB890103EBB0
:101EA000C1018A5C09EB890103EBC10313F81650E9
:101EB00005EB0225ADB20024D9E7BDE8F88300BFE9
:101EC000000000200C0A0020F8F3000870B504465A
:101ED0000E46154606E031462046FFF721FF0A343C
:101EE000A4B201352A78002AF5D170BD2DE9F0475A
:101EF000804689461F46A2F12E03462B00F29F80A2
:101F0000DFE803F0918E24A0272B2E3134373A3DA1
:101F1000949D9D9D9D9D9D404346494C4F525558D3
:101F20005B5E6164676A6D707376797C7F82858899
:101F30008B9D9D9D9D9D9D9D9D9D9D9D9D9D9D9DE3
:101F40009D9D9D9D979D9D9D9D9D9A004FF0000A92
:101F500001E04FF0020A002698E04FF0030AFAE78A
:101F60004FF0040AF7E74FF0050AF4E74FF0060ACE
:101F7000F1E74FF0070AEEE74FF0080AEBE74FF002
:101F8000090AE8E74FF00A0AE5E74FF00B0AE2E733
:101F90004FF00C0ADFE74FF00D0ADCE74FF00E0AB6
:101FA000D9E74FF00F0AD6E74FF0100AD3E74FF00A
:101FB000110AD0E74FF0120ACDE74FF0130ACAE733
:101FC0004FF0140AC7E74FF0150AC4E74FF0160A9E
:101FD000C1E74FF0170ABEE74FF0180ABBE74FF012
:101FE000190AB8E74FF01A0AB5E74FF01B0AB2E733
:101FF0004FF01C0AAFE74FF01D0AACE74FF01E0A86
:10200000A9E74FF01F0AA6E74FF0200AA3E74FF019
:10201000210AA0E74FF0220A9DE74FF0230A9AE732
:102020004FF0240A97E74FF0250A94E74FF0260A6D
:1020300091E74FF0270A8EE74FF0280A8BE74FF021
:10204000FF0A88E74FF0010A85E709EB060108EB74
:1020500004001A4B1A8889B280B2FFF727FC6D087A
:102060000134E4B2092C0FD815F0010FEDD1002F87
:10207000F5D009EB060108EB0400114B1A8889B270
:1020800080B2FFF713FCEAE70136F6B2132E12D83E
:10209000720001320B4B0AEB8A0103EBC1018A5C2F
:1020A0000AEB8A0103EBC10313F8165005EB022576
:1020B000ADB20024D6E7BDE8F08700BF0C0A0020CF
:1020C00000000020D0FD0008F8B504460F46154674
:1020D0001E4607E0334639462046FFF707FF0A341D
:1020E000A4B201352A78002AF4D1F8BD2DE9F843CD
:1020F00007468846312A05D0322A06D14FF0010919
:10210000002619E04FF00009FAE74FF0FF09F7E762
:102110006D080134E4B2072C0CD815F0010FF7D08C
:1021200008EB060138190A4B1A8889B280B2FFF70A
:10213000BDFBEDE70136F6B20B2E07D809EB4903DC
:10214000044A02EB83039D5D0024E4E7BDE8F883C5
:102150000C0A002010FD00082DE9F84307468846C8
:10216000A2F12E03282B38D8DFE803F031372E15E3
:102170003A181C1F2225282B373737373737373780
:1021800037373737373737373737373737373737DF
:102190003737373734004FF0000901E04FF00209BC
:1021A00000263DE04FF00309FAE74FF00409F7E796
:1021B0004FF00509F4E74FF00609F1E74FF0070982
:1021C000EEE74FF00809EBE74FF00909E8E74FF0B9
:1021D0000A09E5E74FF00B09E2E74FF0FF09DFE7F7
:1021E0004FF00109DCE708EB06013819124B1A8899
:1021F00089B280B2FFF75AFB6D080134E4B2062CB5
:102200000CD815F0010FEED008EB060138190B4B76
:102210001A8889B280B2FFF749FBEDE70136F6B2C2
:102220000D2E07D8C9EBC903054A02EB43039D5D98
:102230000024E4E7BDE8F883000000200C0A002039
:1022400028FD000870B504460E46154606E03146E6
:102250002046FFF781FF0834A4B201352A78002A0E
:10226000F5D170BD2DE9F84307468846A2F1200359
:10227000362B42D8DFE803F03E4141414141414124
:102280004141414141413841351C441F2326292CFD
:102290002F3241414141414141414141414141414F
:1022A00041414141414141414141414141413B0065
:1022B0004FF0000901E04FF00209002640E04FF026
:1022C0000309FAE74FF00409F7E74FF00509F4E7CF
:1022D0004FF00609F1E74FF00709EEE74FF0080964
:1022E000EBE74FF00909E8E74FF00A09E5E74FF09F
:1022F0000B09E2E74FF00C09DFE74FF0FF09DCE7DD
:102300004FF00109D9E708EB06013819154B1A8877
:1023100089B280B2FFF7CAFA6D080134E4B20D2C1D
:102320000CD815F0010FEED008EB060138190E4B52
:102330001A8889B280B2FFF7B9FAEDE70136F6B232
:102340001B2E0CD872000132084B03EB89139A5CE8
:1023500013F8165005EB0225ADB20024DFE7BDE807
:10236000F88300BF000000200C0A002010FA0008CB
:1023700070B504460E46154606E031462046FFF786
:1023800071FF0E34A4B201352A78002AF5D170BD50
:1023900000B585B0002300930193029303932E4868
:1023A0002E4A02604FF48032426083600122026153
:1023B000027680F82030C36229498162C360052318
:1023C000C36180F83020426103F00CFA002831D15B
:1023D00003230093012301930723029369461E48B8
:1023E00003F02AFB48BB04230093022301936946B0
:1023F000194803F021FB18BB052300930323019325
:102400006946154803F018FBE8B906230093042336
:1024100001936946104803F00FFBB8B907230093F6
:102420000523019369460C4803F006FB88B905B003
:102430005DF804FB01F0C6F9CAE701F0C3F9D2E781
:1024400001F0C0F9D8E701F0BDF9DEE701F0BAF913
:10245000E4E701F0B7F9EAE7200A00200020014094
:102460000100000F30B589B0002303930493059356
:1024700006930793026803F1804303F590339A4271
:1024800001D009B030BD04460025019503F58C3319
:102490005A6C42F480725A645A6C02F4807201924F
:1024A000019A02951A6B42F001021A631B6B03F04A
:1024B00001030293029BF82303930323049303A9CC
:1024C000104804F011F81048104B03604560856017
:1024D000C5604FF4806303614FF4805343614FF450
:1024E000804383614FF48073C3610562456203F0EA
:1024F0008DFC18B9044BA3639C63C2E701F062F939
:10250000F8E700BF00000240680A002010640240A3
:1025100008B50548054B036003F0C6FB00B908BDCC
:1025200001F050F9FBE700BFC80A0020003002406C
:102530000268094B9A4200D0704782B00023019391
:10254000064B1A6B42F480521A631B6B03F48053E0
:102550000193019B02B070470030024000380240F6
:1025600000B583B000210191094B1A6B42F480023F
:102570001A631B6B03F480030193019B0A46382006
:1025800003F038FB382003F06DFB03B05DF804FB6B
:1025900000380240002318462C33B3F5003F08D81A
:1025A00000F1006202F500321168034A9142F2D054
:1025B00070474FF40030FBE72FCB040008B501460D
:1025C0000A22024803F07FFB08BD00BFC80A0020B2
:1025D0002DE9F04F8FB083464FF00008CDF804800E
:1025E0004646444615E003A8FFF7E8FF874204D0BB
:1025F00074B9314805F03AFA0AE0049BB34207D9AE
:1026000001941E464FF0010802E02C4805F0CCF979
:102610002C4604F12C05B5F5003F2AD804F10063DF
:1026200003F500339E460DF10C0C03F1200AE14640
:10263000DEF80000DEF80410DEF80820DEF80C30CA
:10264000A9E80F000EF1100ECC46D645EFD14B464F
:10265000DEF80000DEF80410DEF8082007C3059F4E
:10266000002305930399164B9942BCD0002CCFD17F
:10267000CBE7B8F1000F03D140460FB0BDE8F08FB3
:10268000019B03F1006707F50037584607F1200565
:102690003C687968BA68FB68046041608260C36026
:1026A00010371030AF42F3D139687A68BB680160E7
:1026B00042608360E0E700BF380401084804010875
:1026C0002FCB040010B58CB0044601A8FFF780FFA3
:1026D000049B2360059B6360069BA360079BE360EC
:1026E000089B2361099B63610A9BA3610B9BE361C8
:1026F0000CB010BD10B586B0124805F0B7F903F064
:10270000ADFD0023019305230393012304930222CB
:1027100005920293694601A803F09CFE044603F06B
:10272000B5FD54B12146084805F03EF90023074A9B
:102730001360074A136006B010BD064805F096F90D
:10274000F4E700BF5804010874040108D00A00200F
:10275000D40A00208804010810B58CB001A8FFF746
:1027600037FF90B1029C0E4B1C60FFF713FF03462E
:102770000C4A1060A0F12C0221460B4805F014F918
:102780000A4B01221A700CB010BD0023044A1360DA
:10279000044A1360064805F069F9FFF7ABFFEFE75D
:1027A000D00A0020D40A00209C040108D80A002086
:1027B000E804010884B030B58DB010AC84E80F0097
:1027C000354B1B78002B3DD0344B1B682C33B3F5B5
:1027D000003F3AD8324B0193324B1B6801330293CE
:1027E00000230393109B0493119B0593129B069364
:1027F000139B0793149B0893159B0993169B0A93AD
:10280000179B0B9301A8FFF7D9FE039003F026FD59
:10281000014600BB214B1D6805F1006505F500353B
:1028200000240A2C24D80CAB03EB840353F82C2C83
:10283000002305EB8401022003F062FD024678B913
:102840000134EEE7FFF788FFBEE7174805F00EF901
:10285000FFF750FFBEE7154805F0A6F8002015E089
:102860002146134805F0A0F803F010FD00200DE00C
:1028700003F00CFD0B4B196801311960074B1A6806
:102880002C321A600B4805F08FF801200DB0BDE81E
:10289000304004B0704700BFD80A0020D40A00209E
:1028A0002FCB0400D00A00200C05010828050108E0
:1028B000440501086C0501082DE9F0418AB00024A7
:1028C000059406940794089409940194384B1A6B64
:1028D00042F004021A631A6B02F004020192019A98
:1028E00002941A6B42F080021A631A6B02F08002A3
:1028F0000292029A03941A6B42F001021A631A6B55
:1029000002F001020392039A04941A6B42F002024D
:102910001A631B6B03F002030493049B254E2246AB
:1029200042F21121304603F0C6FE234F224646F202
:10293000F111384603F0BFFEDFF8808022464FF4E5
:10294000C851404603F0B7FE42F21123059301251A
:1029500006950794089405A9304603F0C5FD46F294
:10296000F113059306950794089405A9384603F0DA
:10297000BBFD4FF4124305930694079505A938460D
:1029800003F0B2FD4FF4E07305930694079505A993
:10299000304603F0A9FD4FF4C853059306950794FC
:1029A000089405A9404603F09FFD0AB0BDE8F081F8
:1029B00000380240000802400004024000000240CB
:1029C00000B58DB02A492B4B1868FDF76BFF4FF00F
:1029D0007C51FDF75FFEFEF72BF904902649274B4B
:1029E0001868FDF75FFF4FF07C51FDF753FEFEF7CF
:1029F0001FF905902049224B1868FDF753FF4FF04F
:102A00007C51FDF747FEFEF713F906901A491D4B5E
:102A10001868FDF747FF4FF07C51FDF73BFEFEF7CE
:102A200007F907901449184B1868FDF73BFF4FF062
:102A30007C51FDF72FFEFEF7FBF80890134B1B7837
:102A40000993134B1B680A9343F239030B930CABA6
:102A500013E90F008DE80F0004AB0FCBFFF7AAFEC0
:102A60000C4A1368013313600DB05DF804FB00BF1E
:102A70000000C84208000020000020411C00002087
:102A80000C00002018000020100000201A0B00206D
:102A9000100B0020DC0A002000B583B001904FF03D
:102AA000FF33012201A9034804F095FE019803B009
:102AB0005DF804FB7C0C0020044B1968044A126882
:102AC000506A1B688B42F7D1704700BF400B002053
:102AD000A40B002008B5024804F026FB08BD00BF87
:102AE000EC0B002038B504460368B3F1804F08D0E2
:102AF00022689E4B9A4209D022689D4B9A4217D079
:102B000038BD9C4A136801331360F1E710219A48DD
:102B100003F0D7FD994A13780133DBB21370232BEE
:102B2000EAD9134600221A70954804F039FBE3E70E
:102B30004FF40041934803F0B7FD002800F0D8801F
:102B40004FF0FF31904A13780B4413704FF48051CB
:102B50008C4803F0A9FD002800F0CC804FF0FF3135
:102B60008A4A13780B4413704FF40071854803F0C0
:102B70009BFD002800F0C0804FF0FF31844A13789D
:102B80000B4413704FF480717B4803F08DFD0028D7
:102B900000F0B4804FF0FF317E4A13780B4413707D
:102BA0008021754803F080FD002800F0A9800121F4
:102BB000794A13780B44137040216F4803F074FD79
:102BC000002800F0A0800121744A13780B445BB206
:102BD00013706D4A92F900C0BCF1000FC0F29680EC
:102BE000BCF1140FA8BF4FF0140C674A82F800C064
:102BF000664A92F90040002CC0F28B80142CA8BFCA
:102C00001424624A1470624A92F900000028C0F24B
:102C100082801428A8BF14205D4A10705D4A92F982
:102C20000010002979DB1429A8BF1421594A11701A
:102C3000594A92F90020002A71DB142AA8BF1422F5
:102C4000554D2A70002B6CDB142BA8BF1423534A5C
:102C50001370534B1B78022B65D0524A1368013B0B
:102C6000136042F2107293426DDC23EAE3734D4A23
:102C700013604D4A127852B94C4D2A68013A2A60C5
:102C80004B4DAA4262DC22EAE272484D2A60BCF156
:102C90000A0F09DD474A126832B9414A002515700A
:102CA000444A42F2107515600A2C09DD414A126847
:102CB00032B93B4A012414703E4A42F21074146047
:102CC0000A2808DD394A12682AB9374A01201070EB
:102CD000364A374810600A2901DD002B38D02E4BC8
:102CE00093F900300A2B6BDD334B01221A7007E792
:102CF000012127E7012133E701213FE701214BE7CC
:102D00004FF0FF3154E74FF0FF315DE74FF0000C1B
:102D10006BE7002475E700207EE7002186E70022AC
:102D20008EE7002393E7234A1368013B136042F2C6
:102D30001072934202DC23EAE37301E042F2107363
:102D40001C4A136089E742F2107390E7184A9CE727
:102D5000FFF7C0FE194B01221A700E4B00221A70A9
:102D6000104B42F210721A60B9E700BF0004004035
:102D700000080040400B002000080240D90A002053
:102D8000EC0B002000040240E10A0020E20A0020CF
:102D9000E50A0020E40A0020E00A0020E30A0020FF
:102DA0003000002004000020310B00202000002013
:102DB000A08601002C000020300B0020040B002016
:102DC0000C4B93F9003053B10B4B93F900300A2BA5
:102DD00009DDFFF77FFE094A1368013B1360054BCD
:102DE00000221A708CE6FFF775FE044A136801335F
:102DF0001360F4E7300B0020E30A002014000020E9
:102E000010B5FFF759FE144A13685268134C1B198A
:102E100042F10002834272EB010301D3002010BD96
:102E20000D4B186059600E4B1A8840F2DB539A42E2
:102E300006D90B4B1B88B3F5E16F07D80120EEE7ED
:102E400001221146074803F036FCF2E70022012177
:102E5000044803F030FCF1E7380B002040420F003B
:102E6000180B002000080240F8B54FF07C512C4BA5
:102E70001868FDF717FD2B49FDF714FDFDF7D8FE87
:102E8000294B1880294B1868FDF7B4FC2849FDF739
:102E900009FD4FF06651FDF705FDFDF7C9FE254B15
:102EA000188000241BE0FDF7A9FC2349FDF7FAFC7C
:102EB00007463046FDF7A2FC2049FDF7F3FC01462A
:102EC0003846FDF7E7FBFDF7B3FE1D4B23F8140072
:102ED0001B4B33F814201B4B23F814202C46032CD7
:102EE0001DDC651C114B53F82500FDF783FC1649CA
:102EF000FDF7D8FC4FF06651FDF7D4FC1349FDF700
:102F0000D1FC0849FDF7CEFCFDF792FE80B20C4BD8
:102F100033F81460002EC6D123F81400D8E7F8BDAA
:102F20000800002000007A44160B0020F00A002060
:102F300000404E45180B0020CDCCCC3D6666663F68
:102F4000E80A0020080B002033335340CDCCCC3F9F
:102F500008B50268034B9A4200D008BDFFF784FF12
:102F6000FBE700BF002001402DE9F04182B00026C0
:102F700030464FF6FF743546334603E0104480B2C6
:102F80000133DBB2032B0AD88B4A32F81320AA4252
:102F900001D91E461546A242F0D21446EEE7870834
:102FA000864B1B78042B07D8DFE803F003093E8724
:102FB000BE00824B01221A7002B0BDE8F081804C45
:102FC00001224FF48071204603F075FB002210218E
:102FD000204603F070FB00222021204603F06BFB0B
:102FE00000224021204603F066FB0022802120467B
:102FF00003F061FB3846FDF755FA04460D46714B68
:103000001888FDF74FFA68A3D3E90023FEF752F9B9
:1030100002460B4620462946FDF72CFB0028CBD064
:10302000664B02221A70C7E701224FF48071644890
:1030300003F041FB00230193A8462C1B142C04DD54
:1030400002AB1E44012306F8043C5D4C9DF80420AD
:103050001021204603F02FFB9DF80520202120465B
:1030600003F029FB9DF806204021204603F023FBB6
:103070009DF807208021204603F01DFB4046FDF708
:1030800011FA04460D464F4B1E883046FDF70AFAEA
:1030900047A3D3E90023FEF70DF902460B4620466D
:1030A0002946FDF7C9FA10B1444B01221A70BE42FD
:1030B00082D2424B03221A707EE700224FF48071C5
:1030C0003F4803F0F8FA002301932B1B142B04DD77
:1030D00002AB1E44012306F8043C394E9DF804203F
:1030E0001021304603F0E7FA9DF8052020213046F4
:1030F00003F0E1FA9DF806204021304603F0DBFAA8
:103100009DF807208021304603F0D5FA2D4B1B880F
:10311000AB4202D9294A02211170A342BFF44CAF3D
:10312000264B04221A7047E700224FF4807124488E
:1031300003F0C1FA00230193012401E00133DBB263
:10314000032B11D818461C4A32F813201D49098850
:103150008A42F3D3521A142AF0DD02AA1044012243
:1031600000F8042C0024E9E7154D9DF804201021F7
:10317000284603F0A0FA9DF805202021284603F0F8
:103180009AFA9DF806204021284603F094FA9DF80B
:1031900007208021284603F08EFA002C3FF40CAF64
:1031A000064B03221A7007E7333333333333D33FED
:1031B0009A9999999999E93F080B0020140B0020DE
:1031C00000040240160B002038B5FFF775FC1B4ABF
:1031D000136852681A4C1B1942F10002834272EBC9
:1031E000010300D338BDFFF7BFFEFFF765FC134BAB
:1031F000C3E90001134C2088FDF7FCFA1249FDF7E2
:1032000005FC05466088FDF7F5FA0F49FDF7FEFB62
:103210000146284601F094FDA088FDF7EBFA0A4923
:10322000FDF7F4FB0546E088FDF7E4FA0649FDF7F3
:10323000EDFB0146284601F0E1FDD3E7280B002015
:10324000A0860100080B002000007A4408B5094858
:1032500004F00CFCFF2002F0F3F8074B1B7803B9D5
:1032600008BD064804F002FCFFF7AAFB024B00224F
:103270001A70F5E798050108440B0020A80501081D
:1032800008B50C4B1B78012B03D00A4B00221A7097
:1032900008BD094804F0EAFB084B1B78002BF4D06A
:1032A000074804F0E3FBFFF78BFB044B00221A7086
:1032B000EBE700BF310B0020B8050108440B0020EC
:1032C000C405010808B5072809D8DFE800F004099B
:1032D0000E1318081D22114B186801F035FE08BDA9
:1032E0000F4B186801F06EFEF9E70E4B186801F0FD
:1032F000B9FEF4E70C4B186801F0F0FEEFE70B4B5A
:10330000186801F0D9FDEAE7094B187801F056FF7B
:10331000E5E7074B187801F051FFE0E71C000020BB
:103320000C000020180000201000002008000020E1
:103330001A0B002070B5FFF7BFFB04460D468A4B01
:103340001A785AB189490B684968E31A65EB01019B
:10335000874898424FF000038B4114D3854B19687E
:10336000854B1B68CB1A8548007801282CD04BB1BF
:103370007E480460456080480160002A56D17A4B3F
:1033800001221A7070BD022A0FD0012AFAD1764BA1
:1033900000221A70FFF75AFF794B09221A70794BF5
:1033A000744A1360744A1360ECE7754E002130785C
:1033B000FFF788FF6C4B01221A70307802F040F85A
:1033C0006A4B1C605D60DDE76F4804F04FFB674BA4
:1033D0001C605D60644B1B781BB1012B05D0022B78
:1033E00018D0664B00221A70CCE7654B1878062877
:1033F00008D007280AD00121FFF764FF5A4B0222A8
:103400001A70EEE7614B00221A70F4E75F4B01225D
:103410001A70F0E7544B01221A70594C00212078A1
:10342000FFF750FF207802F00BF8DAE7012A0FD0FF
:10343000022AA7D1524A1278072A50D8DFE812F0A0
:10344000330055007400C000DF004F00FE0005018E
:10345000002B12DD4A480378013302F1663282FB09
:10346000031202F0FC0101EBA202A3EB4203037082
:10347000434B187801F0E4FF84E7414B1B7873B9A4
:103480003F4B09221A703E490A78414BA3FB0203C5
:10349000DB0803EB8303A2EB43030B70E8E7013B7C
:1034A000374A1370EFE7002B1DDD3A483A4D296883
:1034B000FDF7F0F8044628603849FDF7AFFB00B18E
:1034C000364C354B1C6036492046FDF789FB00B170
:1034D000304C314B1C600121204601F035FD314B51
:1034E00001221A704EE73048E0E7002B1ADD294828
:1034F0002E4D2968FDF7CEF8044628602C49FDF7CB
:103500008DFB00B12A4C294B1C6025492046FDF754
:1035100067FB00B11F4C254B1C600121204601F0C8
:1035200051FDDCE72048E3E7002B1BDD1948214D66
:103530002968FDF7AFF8044628601F49FDF76EFBC8
:1035400000B11D4C1B4B1C601C492046FDF748FB7D
:1035500008B14FF07E54174B1C600121204601F04A
:1035600081FDBCE71048E2E7E60A0020200B0020BE
:10357000C0C62D001400002024000020040B0020F1
:103580002800002000943577D80501081A0B002088
:10359000CDCCCCCCCDCCCC3D1C0000200000A0403C
:1035A000AE47E13D440B0020CDCCCCBD0C0000204B
:1035B0000000C8411800002066661E41AE47813FEA
:1035C000002B1ADD2448254D2968FDF763F80446D1
:1035D00028602349FDF722FB00B1214C1F4B1C60E2
:1035E00020492046FDF7FCFA00B11B4C1B4B1C6028
:1035F0000121204601F072FD71E71B48E3E7002B33
:103600001ADD1A481A4D2968FDF744F80446286067
:103610001849FDF703FB00B1164C154B1C60164909
:103620002046FDF7DDFA00B10024114B1C6001219A
:10363000204601F041FC52E71048E3E70020104B20
:103640001870012101F0BAFD49E701200C4B1870F8
:10365000014601F0B3FD42E7CDCCCC3D1000002087
:103660000000C841AE47E13DCDCCCCBD0AD7A33C5C
:10367000080000200000C0400AD7233C0AD7A3BCA2
:103680001A0B0020F8B5434B1A78434B1B789A422B
:1036900003D0414B02221A70F8BD404804F0E6F90D
:1036A000FFF70AFA06460F46FFF706FA05460C46EC
:1036B0003B493C4B1868FDF7F5F8FDF7F1FA831923
:1036C00047EB01029D4274EB0203EDD3FFF7F4F9DF
:1036D00006460F4601224FF40051334802F0EBFF3B
:1036E000FFF7EAF905460C463049314B1868FDF7FB
:1036F000D9F8FDF7D5FA831947EB01029D4274EB27
:103700000203EDD300224FF40051274802F0D3FF0B
:10371000FFF7D2F906460F46FFF7CEF905460C46ED
:103720002249244B1868FDF7BDF8FDF7B9FA831953
:1037300047EB01029D4274EB0203EDD3FFF7BCF9A6
:1037400006460F4601224FF48041174802F0B3FFAE
:10375000FFF7B2F905460C461449174B1868FDF7F8
:10376000A1F8FDF79DFA831947EB01029D4274EB26
:103770000203EDD300224FF480410B4802F09BFF7F
:103780000E4B18680130186001F0BAFA0C4B012298
:103790001A707EE71A0B002030000020E0050108B7
:1037A000002474491C0000200004024000007A44F8
:1037B0000C0000201800002010000020100B00203A
:1037C000440B002072B6FEE700B595B03022002110
:1037D00008A804F097F80023039304930593069335
:1037E000079301931F4A116C41F080511164126CD0
:1037F00002F080520192019A02931B490A6822F456
:10380000404242F400420A600A6802F440420292D6
:10381000029A0222089201210B9110210C910E9222
:103820000F9308231093542311931292042313939C
:1038300008A802F04FFF80B90F23039302210491DF
:10384000002305934FF480520692079303A803F0D8
:103850008FF920B915B05DF804FBFFF7B3FFFFF750
:10386000B1FF00BF0038024000700040F0B589B0E1
:1038700001F0DEFEFFF7A8FFFFF71EF8FEF770FE6F
:1038800000F0F4F9FEF784FD00F0F0F801F02CFEF2
:10389000FEF73EFE00F022FA00F058FA05226249D7
:1038A000624801F0CBFF624803F03EFC614803F040
:1038B0003BFCFEF751FF604C00224FF48071204624
:1038C00002F0F9FE00221021204602F0F4FE002250
:1038D0002021204602F0EFFE00224021204602F087
:1038E000EAFE00228021204602F0E5FE6846FEF74F
:1038F000E9FE002876D0009B13F0010F01D00133C0
:1039000000930098FCF776FF4C49FDF77FF84C4B8D
:1039100018600198FCF76EFF4A49FDF777F80446F6
:10392000494B18600298FCF765FF4649FDF76EF8B1
:10393000464B18600398FCF75DFF4249FDF766F8B7
:10394000434B18600498FCF755FF3E49FDF75EF8BD
:10395000404B18609DF814203F4B1A70069A3F4B5D
:103960001A602046FCF7B0FD02460B463C4804F0C6
:103970001BF8FDF7BFFF0220FEF7A2F84FF6FF701D
:10398000FDF7A0FF01F050FC344B186801F0B8F9C6
:103990000021314B187801F011FC0021284B1868E8
:1039A00001F08AFA0021284B186801F0CDFA0021B5
:1039B000264B186801F006FB0021254B186801F022
:1039C00051FB0021234B186801F088FB41F21D10C8
:1039D00001F0DAFBFF2001F033FDFEF7E1F80026ED
:1039E00037460FE01F4804F041F8FEF7E9FFC0E753
:1039F000FFF7A0FCFFF746FEFFF7E6FBFFF740FCF2
:103A00002E462746FFF7FCF9FFF756F805460C4609
:103A1000154BF31847F10002834272EB0103E7D321
:103A200035463C46E4E700BFF00A0020200A0020AB
:103A3000A40B0020340C0020000402400000C84207
:103A400008000020000020411C0000200C00002085
:103A500018000020100000201A0B0020100B00207E
:103A6000EC05010808060108A086010008B50D480C
:103A70000D4B03604FF48273436000238360C36087
:103A8000036143614FF400728261C3610362436268
:103A900083620A23C36203F0DFF900B908BDFFF7B0
:103AA00091FEFBE7480B0020003C004000B589B0C8
:103AB0000023039304930593069307930268154B21
:103AC0009A4202D009B05DF804FB0021019103F590
:103AD000FE331A6C42F400421A641A6C02F400427B
:103AE0000192019A02911A6B42F004021A631B6B55
:103AF00003F004030293029B4FF4E0530393022369
:103B00000493032306930623079303A9024802F0B4
:103B1000EBFCD7E7003C00400008024082B00021E7
:103B200000910B4B5A6C42F480425A645A6C02F476
:103B300080420092009A01911A6C42F080521A64FD
:103B40001B6C03F080530193019B02B0704700BFD0
:103B500000380240FEE7FEE7FEE7FEE7FEE77047BB
:103B60007047704708B501F07DFD08BD08B50248F3
:103B700003F033FB08BD00BFA40B002008B50248CA
:103B800003F02BFB08BD00BFEC0B002008B502487A
:103B900003F023FB08BD00BF340C002008B5024829
:103BA00002F0D0F908BD00BF680A0020012070476C
:103BB00008B503F07DFE162303604FF0FF3008BD0B
:103BC00008B54FF0FF31FFF7F3FFFEE770B50C4685
:103BD0001646002506E0AFF30080214601F8010BF0
:103BE00001350C46B542F6DB304670BD70B50C466B
:103BF0001646002504E014F8010BFEF74DFF0135D1
:103C0000B542F8DB304670BD4FF0FF3070474FF4DF
:103C100000534B6000207047012070470020704720
:103C200010B503460C4A0D490D48006840B10C48D8
:103C300000680344521A934206D8094A136010BD23
:103C40000748084C0460F2E703F032FE0C230360DF
:103C50004FF0FF30F3E700BF000001200004000038
:103C6000A00B0020300D00207047000000B587B089
:103C70000023029303930493059300930193164842
:103C80004FF0804202605322426083604FF0FF3267
:103C9000C26003618023836103F0AAFB90B94FF4F3
:103CA0008053029302A90C4803F0DAFB68B90023A1
:103CB000009301936946084803F052FC40B907B0ED
:103CC0005DF804FBFFF77EFDE9E7FFF77BFDEEE71C
:103CD000FFF778FDF3E700BFA40B002000B587B025
:103CE00000230293039304930593009301931548D3
:103CF000154A0260532242608360F922C260036168
:103D00008023836103F074FB90B94FF480530293D6
:103D100002A90C4803F0A4FB68B9002300930193A7
:103D20006946084803F01CFC40B907B05DF804FB85
:103D3000FFF748FDE9E7FFF745FDEEE7FFF742FD36
:103D4000F3E700BFEC0B00200004004000B587B093
:103D50000023029303930493059300930193154862
:103D6000154A02605322426083603122C2600361BF
:103D70008023836103F03CFB90B94FF4805302939E
:103D800002A90C4803F06CFB68B90023009301936F
:103D90006946084803F0E4FB40B907B05DF804FB4E
:103DA000FFF710FDE9E7FFF70DFDEEE7FFF70AFD6E
:103DB000F3E700BF340C00200008004000B585B0D8
:103DC0000368B3F1804F08D0224A93421AD0224AA6
:103DD00093422BD005B05DF804FB0021019103F55F
:103DE0000E331A6C42F001021A641B6C03F00103DB
:103DF0000193019B0A461C2001F0FCFE1C2001F0EF
:103E000031FFE7E700210291144B1A6C42F00202E5
:103E10001A641B6C03F002030293029B0A461D20E6
:103E200001F0E8FE1D2001F01DFFD3E70021039102
:103E30000A4B1A6C42F004021A641B6C03F0040370
:103E40000393039B0A461E2001F0D4FE1E2001F0BE
:103E500009FFBFE7000400400008004000380240AE
:103E60002DE9F04F97B080460D4600F10C031FFA84
:103E700083F901F1030A1FFA8AFA00F151031FFACC
:103E800083FB01F130039BB24BF2AB4400940593EA
:103E90005A4651464846FDF7F7FE08F1030398B22B
:103EA00005F10C06B6B205F127039FB200943B461C
:103EB0004A4631460690FDF7E7FE08F15A039AB2EA
:103EC000009402973B46079231465846FDF7DCFEC8
:103ED00008F106031FFA83FCAB1D99B20094334628
:103EE0004A460491CDF80CC06046FDF7CDFE6F1D2B
:103EF000BFB208F107031FFA83FE00943B46CDF8DA
:103F000024E0724639460398FDF7BEFE08F1080327
:103F10001FFA83FC2B1D1FFA83FE08F1090399B2D7
:103F200000943B460C910A46CDF82CE07146CDF842
:103F300028C06046FDF7A8FE08F10A031FFA83FCBB
:103F400000943B46CDF820904A465146CDF834C007
:103F50006046FDF799FE08F105031FFA83F9EB1D92
:103F60001FFA83FC0094CDF83CC063464A4604998E
:103F70004846FDF789FE08F104031FFA83FE05F1A8
:103F800008031FFA83FC05F1090399B2009412910A
:103F90000B464A46CDF844C06146CDF840E0704635
:103FA000FDF772FE05F10A031FFA83FE0094334603
:103FB000CDF838904A46CDF84CE071460698FDF7AA
:103FC00063FE08F157091FFA89F9009433464A46FF
:103FD00004995846FDF758FE08F153031FFA83FE73
:103FE00000943B46CDF850E0724651465846FDF7E6
:103FF0004BFE08F154031FFA83FA08F155031FFA28
:1040000083FC00943B46CDF854C062460B99CDF832
:104010002CA05046FDF738FE08F1560A1FFA8AFA1E
:1040200000943B464A4639465046FDF72DFE08F1BE
:104030005807BFB200940F9B3A4604993846FDF7E3
:1040400023FE08F159081FFA88F80094129BCDF856
:104050001080424611993846FDF716FE009433460B
:10406000079A13993846FDF70FFE05F12D081FFA40
:1040700088F8009443464A4602995846FDF704FEE4
:1040800005F12E06B6B20094059B149A31465846A7
:10409000FDF7FAFD05F12F031FFA83FB0094CDF81D
:1040A0003CB05B46159A31460B98FDF7EDFD009448
:1040B00033464A4631465046FDF7E6FD05F12C09E8
:1040C0001FFA89F9009443463A4649463846FDF7B7
:1040D000DBFD05F12A0A1FFA8AFA05F12B0B1FFAFC
:1040E0008BFB00945B46049A51463846FDF7CCFDA5
:1040F0002935ADB200942B46079A02993846FDF750
:10410000C3FD00944346089F3A4602990398FDF781
:10411000BBFD00942B460E9D2A4602990698FDF79A
:10412000B3FD00945B462A4651461098FDF7ACFD5E
:10413000009443462A4649462846FDF7A5FD0094CB
:104140003346099A31460398FDF79EFD00940F9B74
:104150000C9A31460A98FDF797FD0094059B3A4664
:1041600031460D98FDF790FD17B0BDE8F08F2DE9B1
:10417000F04F9DB006460D46144600F10C031FFAA1
:1041800083F900F150081FFA88F801F1020B1FFAB9
:104190008BFB00925B4642464846FDF775FD05F1F4
:1041A0000C0399B2B31C1FFA83FA05F12607BFB2BC
:1041B00000943B46524603913046FDF765FD05F1FC
:1041C00031031FFA83FC05F133039BB200940A9379
:1041D0004246CDF810C06146CDF824904846FDF720
:1041E00053FD06F15B031FFA83F906F15D039AB2F2
:1041F00000943B460B92039F3946CDF814904846F5
:10420000FDF742FD05F10A031FFA83FE00940397B0
:104210003B465246CDF838E071463046FDF734FD56
:10422000731C1FFA83FCEB1D1FFA83F8F31C9FB26B
:1042300005F109031FFA83FE0094CDF844E07346AC
:1042400006973A464146CDF83CC06046FDF71CFD56
:1042500005F105091FFA89F9331D9FB2AB1D1FFA3D
:1042600083FC0094CDF84CC063463A464946CDF8ED
:1042700034A05046FDF708FD009443463A46CDF879
:1042800040804146B8463846FDF7FEFC2F1DBFB2C0
:1042900000943B46424639460698FDF7F5FC05F189
:1042A000030A1FFA8AFA0094534642465146CDF853
:1042B00048804046FDF7E8FC731D1FFA83FCE0468A
:1042C00000944B46624649466046FDF7DDFCB31D4F
:1042D0009AB200943B4615925946CDF8508040461C
:1042E000FDF7D2FCF31D1FFA83FC00943B466246A7
:1042F0003946CDF830C06046FDF7C6FC05F101082F
:104300001FFA88F806F109031FFA83FE009453464A
:10431000CDF858E0724641460C98FDF7B5FC06F121
:104320000A031FFA83FC00945B46099A2946CDF8DC
:104330005CC06046FDF7A8FC06F151031FFA83FE3E
:1043400006F1530399B200945B4618910A46294638
:10435000CDF86CE07046FDF797FC06F154031FFAA8
:1043600083FE06F156031FFA83FC00945346CDF8F2
:104370001CC062464146CDF864E07046FDF784FCFF
:1043800000943B46DDF81CC0624639466046FDF7A6
:104390007BFC06F157031FFA83F8C44606F1580365
:1043A0001FFA83FEF04600943B4672465946CDF80C
:1043B00068C06046FDF768FC00944B46424649469B
:1043C000CDF820804046FDF75FFC06F159081FFA42
:1043D00088F800943B46424651464046FDF754FC5F
:1043E0000094139BDDF814A0524649464046FDF761
:1043F0004BFC06F15A0B1FFA8BFB00943B465A46C6
:1044000039465846FDF740FC0094DDF840904B4695
:10441000424649464046FDF737FC06F15C07BFB20D
:104420000094119B3A4649465846FDF72DFC0094EE
:10443000039B0B9A0E99D1465046FDF725FC05F1DA
:1044400027031FFA83FA05F129039BB20094039313
:104450000B9ACDF838A05146CDF814904846FDF798
:1044600013FC05F12A031FFA83F905F12C0A1FFA40
:104470008AFA009453463A46CDF82C90494658465D
:10448000FDF702FC00945346424651464046FDF774
:10449000FBFB05F12D039FB205F12E091FFA89F9E7
:1044A00000944B46059A059739464046FDF7ECFBCC
:1044B00000944B46089F3A4649463846FDF7E4FBD0
:1044C00005F12F07BFB200943B465A463946404695
:1044D000FDF7DAFB05F1300B1FFA8BFB00945B460E
:1044E000424659464046FDF7CFFB0094049B089A8C
:1044F00039461A98FDF7C8FB00943B46DDF81C804E
:10450000424639464046FDF7BFFB3235ADB2009416
:104510002B46424659461998FDF7B6FB00940A9B74
:10452000189A04991B98FDF7AFFB0094039BDDF8E4
:10453000348042460E993046FDF7A6FB0094534660
:10454000069A0B990F98FDF79FFB00945346129E15
:10455000324651463046FDF797FB00944B463246B3
:1045600005994046FDF790FB00944B46DDF85080DE
:10457000424649464046FDF787FB00943B46DDF83E
:1045800018C0624639466046FDF77EFB00945B46E4
:10459000324639463046FDF777FB0094DDF810903F
:1045A0004B46159A39464046FDF76EFB00943B4654
:1045B0000C9E324639463046FDF766FB00942B468A
:1045C000169A59463046FDF75FFB00940A9B099AFC
:1045D00049461798FDF758FB1DB0BDE8F08F2DE94F
:1045E000F04F89B006460C4615464F1CBFB201F18C
:1045F000090B1FFA8BFB00925B4602463946FDF71A
:1046000043FB731C9AB204F106081FFA88F8009560
:104610004346214603921046FDF736FB06F1020998
:104620001FFA89F906F109039BB21A460095234641
:10463000049221464846FDF727FBB31D99B2009529
:104640003B4605910A4639464846FDF71DFB06F1F3
:1046500054031FFA83FC06F15C0A1FFA8AFA0095DC
:10466000234652462146CDF818C06046FDF70CFBA4
:1046700006F157031FFA83FE06F15D091FFA89F957
:1046800000953B464A463946CDF81CE07046FDF79A
:10469000FBFAA71CBFB20095434652463946504626
:1046A000FDF7F2FA00955B464A4639464846FDF763
:1046B000EBFA04F13307BFB206F15B0B1FFA8BFB79
:1046C00000953B465A4639460698FDF7DDFA04F157
:1046D00032081FFA88F8009543465A464146079823
:1046E000FDF7D2FA04F12D0B1FFA8BFB00953B4628
:1046F000524659465046FDF7C7FA04F12A0A1FFAF6
:104700008AFA009543464A4651464846FDF7BCFAA8
:104710003134A4B200952346324651463046FDF767
:10472000B3FA00952346039C224659462046FDF7DE
:10473000ABFA00954346059A41463046FDF7A4FA88
:1047400000953B46049A39462046FDF79DFA09B08C
:10475000BDE8F08F38B504460D4643F20822FFF756
:1047600006FD29462046FFF77BFB4BF6F75229460C
:104770002046FFF734FF38BD10B582B047F27C14F5
:1047800000949923B92298216420FDF77DFA0094C2
:104790009A23632299216220FDF776FA00949A23E6
:1047A000BB229921BA20FDF76FFA00949B23612266
:1047B0009A216020FDF768FA00949A236422194632
:1047C0001046FDF761FA00949A23B9221946104663
:1047D000FDF75AFA00949C23BC229A211046FDF75B
:1047E00053FA00949E235F229B211046FDF74CFA5A
:1047F00000949B23622219461046FDF745FA009467
:104800009B23BB2219461046FDF73EFA00949E23D7
:10481000BD229B211046FDF737FA00949D236022AC
:104820009C211046FDF730FA0094A123BE229C2162
:104830001046FDF729FA0094A1235E229D2110461F
:10484000FDF722FA0094AF235D229E211046FDF76A
:104850001BFA0094AE23BF229E211046FDF714FAE6
:104860000094B023C022A0211046FDF70DFA009459
:10487000B0235C22A1211046FDF706FA0094AB2379
:104880005E22A3211046FDF7FFF90094B123C12257
:10489000AD211046FDF7F8F90094B1235B22AF215A
:1048A0001046FDF7F1F90094B82340F27712AF21DA
:1048B0004FF4BA70FDF7E8F90094B8230D22B02147
:1048C0000820FDF7E1F90094B2235A22B0211046E6
:1048D000FDF7DAF90094B223C222B0211046FDF7A9
:1048E000D3F90094B72340F27312B0214FF4B9709A
:1048F000FDF7CAF90094B7234FF4BC72B0211046FB
:10490000FDF7C2F90094B7230722B1211046FDF745
:10491000BBF90094B7230E22B1211046FDF7B4F97C
:104920000094B3235922B1211046FDF7ADF900944C
:10493000B323C322B1211046FDF7A6F90094B62394
:1049400040F27112B1211046FDF79EF90094B72391
:1049500040F27912B1211046FDF796F90094B32385
:104960005822B2211046FDF78FF90094B423C522D6
:10497000B221C420FDF788F90094B5234FF4BD722D
:10498000B2211046FDF780F90094B7230622B32127
:104990001046FDF779F90094B6230F22B321104693
:1049A000FDF772F90094B4235722B3215520FDF787
:1049B0006BF90094B423C722B321C620FDF764F934
:1049C0000094B5235422B4211020FDF75DF9009422
:1049D000B5234FF48C72B421C820FDF755F900942B
:1049E000B523562219465520FDF74EF90094B523FC
:1049F000C72219461046FDF747F90094B6234FF435
:104A00008D72B52140F21910FDF73EF90094B623DE
:104A10004FF48C7219461046FDF736F90094B8230E
:104A20004FF48E72B62140F21B10FDF72DF9009461
:104A3000B7234FF48D7219461046FDF725F90094FF
:104A4000BB2340F21D12B7211046FDF71DF900945B
:104A5000B9230C2219460920FDF716F90094B92351
:104A60004FF48E7219461046FDF70EF90094C023DC
:104A70004FF48F72B9211046FDF706F90094C22356
:104A80004FF4BB72B92140F27510FDF7FDF80094A8
:104A9000C42340F21F12BA211046FDF7F5F8009426
:104AA000C5234FF49072BF211046FDF7EDF8009436
:104AB000C5234FF4BA72C0211046FDF7E5F8009403
:104AC000C62340F22112C3211046FDF7DDF8009401
:104AD000C62340F27312C3211046FDF7D5F80094A7
:104AE000C42340F27512C3211046FDF7CDF800949F
:104AF000C7234FF49172C5211046FDF7C5F8009405
:104B0000C7234FF4B972C5211046FDF7BDF80094D4
:104B1000C82340F22312C6211046FDF7B5F80094D1
:104B2000C82340F27112C6211046FDF7ADF800947B
:104B3000C8234FF49372C7214FF49270FDF7A4F885
:104B40000094C8234FF4B872C72140F26F10FDF7EC
:104B50009BF80094C9234FF4B772C82140F2271084
:104B6000FDF792F80094C9234FF49372194640F26E
:104B70002510FDF789F80094C92340F26F121946F9
:104B80001046FDF781F802B010BD000070B500249A
:104B9000474B1C80474D4FF6FF732B802346464AF8
:104BA00005211420FDF790FA2346444A05214FF4CD
:104BB000AA70FDF789FA40F2DF132B80404A2921C1
:104BC0000A20FDF783F94AF63F732B803D4A2E21D8
:104BD0004620FDF77BF93C4A2E21AA20FDF776F905
:104BE0003A4A2E214FF48C70FDF770F9384E234667
:104BF0003246482140F28310FDF766FA31224F21F8
:104C000040F28F10FDF772FA23463246842140F2BB
:104C10008310FDF759FA32228B2140F28F10FDF7F5
:104C200065FA23462B4AC0214FF4C370FDF74CFAB6
:104C30004BF2AB432B80284AE4212320FDF746F9B1
:104C4000264AE4218220FDF741F9254AE421DC20AF
:104C5000FDF73CF9234AE4214FF4A070FDF736F943
:104C6000214AE42140F29F10FDF730F91F4A40F23B
:104C70001B112120FDF72AF91D4A40F21B11822049
:104C8000FDF724F91B4A40F21B11DB20FDF71EF94A
:104C9000194A40F21B114FF49B70FDF717F9174AA0
:104CA00040F21B114FF4CD70FDF710F970BD00BF3D
:104CB0000C0A00200000002034060108400601080C
:104CC000480601084C060108500601085406010870
:104CD000580601085C060108600601086406010820
:104CE00068060108700601087406010878060108C4
:104CF0007C06010880060108880601089006010864
:104D000000B583B003460B4A002111800A4A4FF6D2
:104D1000FF711180094A0821684602F0AFFE0123A5
:104D20006A4605214FF4C370FDF7CEF903B05DF874
:104D300004FB00BF0C0A00200000002098060108B8
:104D4000F0B585B007460C46284B00221A80284B48
:104D50004BF25F621A80274EFBF7B6FBCDE90001EC
:104D6000324608210DEB010002F088FE02AA26213E
:104D70004FF4D270FDF766FA1F4D2A4626214FF4F4
:104D8000E470FDF75FFA2046FBF79EFBCDE90001DA
:104D9000324608210DEB010002F070FE02AA362116
:104DA0004FF4D270FDF74EFA2A4636214FF4E470E4
:104DB000FDF748FA21463846FBF76CFCFBF784FB0D
:104DC000CDE90001324608210DEB010002F056FE4C
:104DD00002AA46214FF4D270FDF734FA2A46462142
:104DE0004FF4E470FDF72EFA05B0F0BD0C0A002078
:104DF00000000020A00601085C060108F0B585B09F
:104E000007460C46284B00221A80284B4EF671723A
:104E10001A80274EFBF758FBCDE9000132460821E6
:104E20000DEB010002F02AFE02AA62214FF4D270BB
:104E3000FDF708FA1F4D2A4662214FF4E470FDF792
:104E400001FA2046FBF740FBCDE90001324608217C
:104E50000DEB010002F012FE02AA72214FF4D27093
:104E6000FDF7F0F92A4672214FF4E470FDF7EAF9F4
:104E700021463846FBF70EFCFBF726FBCDE9000187
:104E8000324608210DEB010002F0F8FD02AA822152
:104E90004FF4D270FDF7D6F92A4682214FF4E47020
:104EA000FDF7D0F905B0F0BD0C0A0020000000208D
:104EB000A00601085C06010830B585B00C46FBF77A
:104EC00003FBCDE900011C4A08210DEB010002F0B3
:104ED000D5FD1A4D4AF63F732B8002AA2E21D2200F
:104EE000FCF7F4FF45F69D732B80C4B1C2234FF449
:104EF000E472A2214FF4C770FCF7ABFE104B002206
:104F00001A8002AAA4214FF4C870FDF731FA0D4AA5
:104F1000A4214FF4E670FDF72BFA05B030BD084B25
:104F200045F69D721A80C2234FF4E472A2214FF419
:104F3000C770FCF78EFEE1E7A00601080000002024
:104F40000C0A00205C06010810B584B00446194B19
:104F500000221A80184B4AF63F721A80F9B1962344
:104F6000382276210C20FCF774FE124B00221A80A6
:104F70002046FBF7A9FACDE90001104A08210DEB04
:104F8000010002F07BFD02AA78210E20FDF7F0F966
:104F90000B4A80213C20FCF799FF04B010BD054B63
:104FA0004AF63F721A809623382276210C20FCF7AD
:104FB00050FEDAE70C0A002000000020A8060108D5
:104FC000B006010810B584B00446204B4AF63F7283
:104FD0001A8021B396239C2276216220FCF739FEA9
:104FE0001B4B00221A801B492046FBF70DFE08B31D
:104FF0002046FBF769FACDE90001174A08210DEBBD
:10500000010002F03BFD02AA78216420FDF7B0F90F
:10501000124A8021A020FCF759FF04B010BD0C4BB0
:105020004AF63F721A8096239C2276216220FCF772
:1050300010FED5E72046FBF747FACDE90001084A04
:1050400008210DEB010002F019FDDCE70000002053
:105050000C0A002000002041A8060108B40601083F
:10506000A006010810B584B00446184B4AF63F72FA
:105070001A80F9B19623F2227621C620FCF7E9FDC9
:10508000134B00221A802046FBF71EFACDE90001DF
:10509000104A08210DEB010002F0F0FC02AA782171
:1050A000C820FDF765F90C4A8021F620FCF70EFFB9
:1050B00004B010BD064B4AF63F721A809623F222C6
:1050C0007621C620FCF7C5FDDAE700BF000000200E
:1050D0000C0A0020A8060108B406010810B584B027
:1050E0000446234B4AF63F721A8041B396234FF48D
:1050F000AE7276214FF49070FCF7ABFD1D4B002291
:105100001A801D492046FBF77FFD28B32046FBF798
:10511000DBF9CDE90001194A08210DEB010002F08D
:10512000ADFC02AA78214FF49170FDF721F9144AE1
:1051300080214FF4AF70FCF7C9FE04B010BD0D4BD9
:105140004AF63F721A8096234FF4AE7276214FF4DE
:105150009070FCF77EFDD1E72046FBF7B5F9CDE96D
:105160000001084A08210DEB010002F087FCD8E796
:10517000000000200C0A002000002041A8060108C1
:10518000B4060108A006010800B585B00346094A27
:105190004AF63F711180084A1021684602F06EFC01
:1051A0006A462E214FF4A070FCF790FE05B05DF822
:1051B00004FB00BF00000020B806010810B504463B
:1051C000154B00221A80154B4AF63F721A8061B1C6
:1051D00042238C222C216220FCF73BFD0E4B002247
:1051E0001A806CB1012C11D010BD0B4B4AF63F72E6
:1051F0001A8042238C222C216220FCF72AFDEDE745
:10520000074A2E216420FCF761FEEDE7054A2E21B6
:105210006420FCF75BFEE7E70C0A0020000000209A
:10522000C00601088006010870B582B04FF4857190
:105230000020FFF78FFA4FF485716020FFF78AFA9C
:105240004FF48571C020FFF785FA4FF485714FF454
:105250009070FFF77FFA4FF485714FF4C070FFF73D
:1052600079FAD4210020FFF775FAD4216020FFF7E6
:1052700071FAD421C020FFF76DFAD4214FF4907059
:10528000FFF768FAD4214FF4C070FFF763FA4AF6CB
:105290003F730093D2234FF4C0721E210020FCF70D
:1052A000F3FC664D40F2DF142C80D2234FF4C07221
:1052B0001E210020FCF7CDFCD12340F27F121F21DC
:1052C0000120FCF7C6FCD0234FF4BF72202102203E
:1052D000FCF7BFFC0094462336221E210020FCF779
:1052E000D3FC46F652332B809A234FF4BE721946F4
:1052F0000320FCF75FFCA8234FF4BE72194603207D
:10530000FCF758FCB5234FF4BE7219460320FCF796
:1053100051FCC2234FF4BE7219460320FCF74AFC2D
:105320004BF25F6300935A234FF4F0721E214FF447
:10533000C070FCF7A9FC4BF67F4600965A234FF449
:10534000CB724A214FF4C070FCF79EFC2E805A238A
:1053500022461E214FF4C070FCF77BFC59232246E5
:105360001F2140F28110FCF774FC58234FF4EF72B8
:1053700020214FF4C170FCF76CFC4EF67173009362
:1053800096234FF4F0725A214FF4C070FCF77CFC66
:105390004FF6AD56009696234FF4CB7286214FF40C
:1053A000C070FCF771FC2E80962322465A214FF4E0
:1053B000C070FCF74EFC952322465B2140F2811021
:1053C000FCF747FC94234FF4EF725C214FF4C1705B
:1053D000FCF73FFC45F69D730093D2234FF4F07227
:1053E00096214FF4C070FCF74FFC40F291460096B6
:1053F000D2234FF4CB72C2214FF4C070FCF744FCAF
:105400002E80D223224696214FF4C070FCF721FC57
:10541000D1232246972140F28110FCF71AFCD023B9
:105420004FF4EF7298214FF4C170FCF712FCFFF7B4
:10543000A3F9FFF7ABFB02B070BD00BF0C0A002060
:1054400010B50446FF2832D0264B1878A04214D05D
:10545000FF2809D0042813D800EB400043F20822AB
:10546000D4214001FEF783FE042C15D804EB440040
:105470000022D4214001FEF77AFE1A4B1C7010BDA9
:10548000053800EB4000400180B243F208224FF49F
:105490008571FEF76CFEE7E7601F00EB40004001FE
:1054A00080B200224FF48571FEF761FEE5E70D4BF7
:1054B0001878FF28E1D0042808D800EB400043F218
:1054C0000822D4214001FEF752FED6E7053800EB52
:1054D0004000400180B243F208224FF48571FEF78C
:1054E00046FECAE73800002008B50A480A4B0360A8
:1054F0004FF4E133436000238360C36003610C22F7
:1055000042618361C36102F037F900B908BDFEF75B
:1055100059F9FBE77C0C00200010014000B589B070
:10552000002303930493059306930793026803F102
:10553000804303F588339A4202D009B05DF804FB3A
:105540000021019103F594335A6C42F010025A6421
:105550005A6C02F010020192019A02911A6B42F009
:1055600001021A631B6B03F001030293029B4FF4C9
:10557000C063039302230493032306930723079333
:1055800003A9024800F0B0FFD7E700BF00000240C7
:10559000DFF834D00D480E490E4A002302E0D458FB
:1055A000C4500433C4188C42F9D30B4A0B4C00236B
:1055B00001E013600432A242FBD3FEF755FB02F078
:1055C0007DF9FEF753F9704700000120000000202C
:1055D000F0090020000B0108F00900202C0D00202C
:1055E000FEE7000010B504460E4B18784FF47A73AE
:1055F000B3FBF0F30C4A1068B0FBF3F000F040FB93
:1056000068B90F2C01D901200AE0002221464FF091
:10561000FF3000F0EFFA054B1C60002000E0012095
:1056200010BD00BF39000020340000203C000020E5
:1056300008B50B4B1A6842F400721A601A6842F4FB
:1056400080621A601A6842F480721A60032000F0C7
:10565000BFFA0020FFF7C6FFFEF760FA002008BD82
:10566000003C0240034A1168034B1B780B44136053
:10567000704700BFC00C002039000020014B1868A3
:10568000704700BFC00C002038B50446FFF7F6FF96
:105690000546B4F1FF3F02D0044B1B781C44FFF7D2
:1056A000EDFF401BA042FAD338BD00BF39000020F7
:1056B0004A4B5A6822F440325A605A6841680A4399
:1056C0005A600268536823F4807353600268536819
:1056D000016943EA012353600268536823F0407371
:1056E00053600268536881680B4353600268936893
:1056F00023F40063936002689368C1680B4393606E
:10570000826A374B9A4257D00268936823F07063DD
:10571000936002689368816A0B43936002689368A0
:1057200023F04053936002689368C16A0B4393600F
:105730000268936823F00203936002689368017E15
:1057400043EA4103936090F82030002B3FD0026879
:10575000536843F4006353600268536823F4604362
:10576000536001684B68426A013A43EA42334B6036
:105770000268D36A23F47003D3620168CB6AC269FA
:10578000013A43EA0253CB620268936823F4007340
:1057900093600268936890F8301043EA4123936065
:1057A0000268936823F48063936002689368416998
:1057B00043EA8123936070470268936823F0706323
:1057C00093600268936823F040539360B0E70268E7
:1057D000536823F400635360CAE700BF002301400D
:1057E0000100000F38B310B50446036C43B1236CBD
:1057F00013F0100F0BD00120002384F83C3010BDB3
:10580000FCF730FE0023636484F83C30EFE7236C40
:1058100023F4885323F0020343F002032364204659
:10582000FFF746FF00206064236C23F0030343F07E
:1058300001032364E0E701207047000010B582B047
:1058400013460022019290F83C20012A00F0948037
:105850000446012280F83C200268906810F0010F95
:1058600013D1906840F001009060464A1068464AA3
:10587000A2FB0020800C00EB4000019002E00198A8
:105880000138019001980028F9D12268906810F43D
:10589000807F03D0906820F48070906022689068C8
:1058A00010F0010F5DD0206C20F4E06020F00100CA
:1058B00040F480702064526812F4806F05D0226C2E
:1058C00022F4405242F480522264226C12F4805F2F
:1058D00034D0626C22F006026264002284F83C201C
:1058E000A26B2A48D063A26B29481064A26B294896
:1058F000D06422686FF0220010602068426842F095
:10590000806242602068826842F48072826020680F
:105910000A4600F14C01A06B00F0DEFA1E4B5B68FA
:1059200013F01F0F0DD123689A6812F0405F25D144
:105930009A6842F080429A6000201BE00022626474
:10594000CBE72368154A934201D0002012E09A6801
:1059500012F0405F14D19A6842F080429A600020B1
:1059600008E0236C43F010032364636C43F00103ED
:105970006364002002B010BD0220FBE70020F9E7BD
:105980000020F7E73400002083DE1B43C5590008E0
:10599000A3590008AF59000800230140002001402E
:1059A000704708B5806BFFF7FBFF08BD704708B56F
:1059B000806B40230364436C43F004034364FFF7AC
:1059C000F5FF08BD08B50346806B026C12F0500F5E
:1059D00025D1036C43F40073036403689A6812F0E2
:1059E000405F19D1027EBAB9DA6A12F4700F03D09F
:1059F0009A6812F4806F0FD15A6822F020025A6020
:105A0000036C23F480730364036C13F4805F03D18D
:105A1000036C43F001030364FDF79AFA08BD026CBE
:105A200012F0100F04D1826BD26C18469047F5E744
:105A3000FFF7BCFFF2E7000030B482B0002301930F
:105A400090F83C30012B00F0BB80012380F83C3003
:105A50000B68092B41D90468E2689BB203EB43034E
:105A60001E3B4FF0070C0CFA03F322EA0303E3603A
:105A70000468E2680B8803EB43031E3B8D6805FA5C
:105A800003F31343E3604B68062B3DD80468626B55
:105A900003EB8303053B4FF01F0C0CFA03F322EAE0
:105AA000030363630468626B4B6803EB8303053B8A
:105AB000B1F800C00CFA03F3134363630268414B6F
:105AC0009A4251D002683F4B9A4256D0002380F848
:105AD0003C30184602B030BC7047046822699BB263
:105AE00003EB43034FF0070C0CFA03F322EA030322
:105AF0002361046822690B8803EB43038D6805FA70
