:020000040800F2
:1000000000000120855900089D3E00089F3E000821
:10001000A13E0008A33E0008A53E00080000000025
:10002000000000000000000000000000A73E0008E3
:10003000A93E000800000000AB3E0008AD3E0008ED
:10004000D5590008D5590008D5590008D5590008D8
:10005000D5590008D5590008D5590008D5590008C8
:10006000D5590008D5590008D5590008D5590008B8
:10007000D5590008D5590008D5590008D5590008A8
:10008000D5590008D5590008D559000800000000CE
:10009000000000000000000000000000D55900082A
:1000A000D5590008D5590008D5590008D559000878
:1000B000B53E0008C53E0008D53E0008D5590008E9
:1000C000D5590008D5590008D5590008D559000858
:1000D000D5590008D5590008D5590008000000007E
:1000E000D5590008D5590008D5590008000000006E
:1000F000000000000000000000000000D5590008CA
:1001000000000000D5590008D5590008D55900084D
:1001100000000000000000000000000000000000DF
:10012000E53E0008D5590008D5590008D559000802
:10013000D559000800000000000000000000000089
:10014000000000000000000000000000D559000879
:10015000D5590008D5590008D5590008D5590008C7
:10016000D5590008D5590008000000000000000023
:10017000000000000000000000000000000000007F
:1001800000000000D5590008000000000000000039
:04019000D559000835
:1001C00010B5054C237833B9044B13B10448AFF391
:1001D00000800123237010BDF00900200000000002
:1001E000CCF7000808B5034B1BB103490348AFF334
:1001F000008008BD00000000F4090020CCF70008D2
:1002000081F0004102E000BF83F0004330B54FEAC7
:1002100041044FEA430594EA050F08BF90EA020F34
:100220001FBF54EA000C55EA020C7FEA645C7FEAC7
:10023000655C00F0E2804FEA5454D4EB5555B8BFEA
:100240006D420CDD2C4480EA020281EA030382EA5B
:10025000000083EA010180EA020281EA0303362DED
:1002600088BF30BD11F0004F4FEA01314FF4801CC0
:100270004CEA113102D0404261EB410113F0004FD2
:100280004FEA03334CEA133302D0524263EB430389
:1002900094EA050F00F0A780A4F10104D5F1200E27
:1002A0000DDB02FA0EFC22FA05F2801841F1000182
:1002B00003FA0EF2801843FA05F359410EE0A5F156
:1002C00020050EF1200E012A03FA0EFC28BF4CF087
:1002D000020C43FA05F3C01851EBE37101F000453D
:1002E00007D54FF0000EDCF1000C7EEB00006EEB4A
:1002F0000101B1F5801F1BD3B1F5001F0CD34908D4
:100300005FEA30004FEA3C0C04F101044FEA44522A
:1003100012F5800F80F09A80BCF1004F08BF5FEAB1
:10032000500C50F1000041EB045141EA050130BD91
:100330005FEA4C0C404141EB0101013C28BFB1F5A3
:10034000801FE9D291F0000F04BF01460020B1FAEE
:1003500081F308BF2033A3F10B03B3F120020CDAC1
:100360000C3208DD02F1140CC2F10C0201FA0CF09F
:1003700021FA02F10CE002F11402D8BFC2F1200C04
:1003800001FA02F120FA0CFCDCBF41EA0C019040BA
:10039000E41AA2BF01EB0451294330BD6FEA040403
:1003A0001F3C1CDA0C340EDC04F11404C4F12002EE
:1003B00020FA04F001FA02F340EA030021FA04F300
:1003C00045EA030130BDC4F10C04C4F1200220FA57
:1003D00002F001FA04F340EA0300294630BD21FA95
:1003E00004F0294630BD94F0000F83F4801306BF5B
:1003F00081F480110134013D4EE77FEA645C18BF4F
:100400007FEA655C29D094EA050F08BF90EA020FE5
:1004100005D054EA000C04BF1946104630BD91EADD
:10042000030F1EBF0021002030BD5FEA545C05D1E0
:100430004000494128BF41F0004130BD14F580041F
:100440003CBF01F5801130BD01F0004545F0FE4193
:1004500041F470014FF0000030BD7FEA645C1ABFC8
:10046000194610467FEA655C1CBF0B46024650EAFF
:10047000013406BF52EA033591EA030F41F400212B
:1004800030BD00BF90F0000F04BF0021704730B5B1
:100490004FF4806404F132044FF000054FF0000186
:1004A00050E700BF90F0000F04BF0021704730B547
:1004B0004FF4806404F1320410F0004548BF40421C
:1004C0004FF000013EE700BF42004FEAE2014FEA71
:1004D00031014FEA02701FBF12F07F4393F07F4F4C
:1004E00081F06051704732F07F4208BF704793F04F
:1004F0007F4F04BF41F40021704730B54FF4607462
:1005000001F0004521F000411CE700BF50EA010264
:1005100008BF704730B54FF000050AE050EA01020D
:1005200008BF704730B511F0004502D5404261EB7D
:1005300041014FF4806404F132045FEA915C3FF4BE
:10054000D8AE4FF003025FEADC0C18BF03325FEA5B
:10055000DC0C18BF033202EBDC02C2F1200300FA0C
:1005600003FC20FA02F001FA03FE40EA0E0021FA31
:1005700002F11444BDE600BF4FF0FF3C06E000BFAF
:100580004FF0010C02E000BF4FF0010C4DF804CD1C
:100590004FEA410C7FEA6C5C4FEA430C18BF7FEADC
:1005A0006C5C1BD001B050EA410C0CBF52EA430C0A
:1005B00091EA030F02BF90EA020F0020704710F18A
:1005C000000F91EA030F58BF994208BF90422CBF19
:1005D000D8176FEAE37040F0010070474FEA410C12
:1005E0007FEA6C5C02D150EA013C07D14FEA430C30
:1005F0007FEA6C5CD6D152EA033CD3D05DF8040BA1
:10060000704700BF8446104662468C4619466346D2
:1006100000E000BF01B5FFF7B7FF002848BF10F1A9
:10062000000F01BD4DF808EDFFF7F4FF0CBF0120EE
:1006300000205DF808FB00BF4DF808EDFFF7EAFF6A
:1006400034BF012000205DF808FB00BF4DF808ED25
:10065000FFF7E0FF94BF012000205DF808FB00BF1A
:100660004DF808EDFFF7CEFF94BF012000205DF8A4
:1006700008FB00BF4DF808EDFFF7C4FF34BF0120B1
:1006800000205DF808FB00BF80F0004002E000BFE2
:1006900081F0004142001FBF5FEA410392EA030F6D
:1006A0007FEA226C7FEA236C6AD04FEA1262D2EBB7
:1006B0001363C1BFD218414048404140B8BF5B42BC
:1006C000192B88BF704710F0004F40F4000020F055
:1006D0007F4018BF404211F0004F41F4000121F06B
:1006E0007F4118BF494292EA030F3FD0A2F10102B5
:1006F00041FA03FC10EB0C00C3F1200301FA03F1F3
:1007000000F0004302D5494260EB4000B0F5000F15
:1007100013D3B0F1807F06D340084FEA310102F1D4
:100720000102FE2A51D2B1F1004F40EBC25008BF86
:1007300020F0010040EA03007047490040EB000050
:10074000013A28BFB0F5000FEDD2B0FA80FCACF151
:10075000080CB2EB0C0200FA0CF0AABF00EBC2507E
:1007600052421843BCBFD0401843704792F0000F6C
:1007700081F4000106BF80F400000132013BB5E7BF
:100780004FEA41037FEA226C18BF7FEA236C21D035
:1007900092EA030F04D092F0000F08BF084670479A
:1007A00090EA010F1CBF0020704712F07F4F04D168
:1007B000400028BF40F00040704712F100723CBF7B
:1007C00000F50000704700F0004343F0FE4040F4A5
:1007D000000070477FEA226216BF08467FEA236363
:1007E0000146420206BF5FEA412390EA010F40F44E
:1007F000800070474FF0000304E000BF10F000439A
:1008000048BF40425FEA000C08BF704743F0964380
:1008100001464FF000001CE050EA010208BF70479B
:100820004FF000030AE000BF50EA010208BF704722
:1008300011F0004302D5404261EB41015FEA010C37
:1008400002BF84460146002043F0B64308BFA3F12F
:100850008053A3F50003BCFA8CF2083AA3EBC25311
:1008600010DB01FA02FC634400FA02FCC2F1200230
:10087000BCF1004F20FA02F243EB020008BF20F067
:100880000100704702F1200201FA02FCC2F12002CD
:1008900050EA4C0021FA02F243EB020008BF20EAC2
:1008A000DC7070474FF0FF0C1CEAD0521EBF1CEAF0
:1008B000D15392EA0C0F93EA0C0F6FD01A4480EADE
:1008C000010C400218BF5FEA41211ED04FF00063C7
:1008D00043EA501043EA5111A0FB01310CF00040F3
:1008E000B1F5000F3EBF490041EAD3715B0040EA19
:1008F000010062F17F02FD2A1DD8B3F1004F40EBE9
:10090000C25008BF20F00100704790F0000F0CF0BB
:10091000004C08BF49024CEA502040EA51207F3A7F
:10092000C2BFD2F1FF0340EAC250704740F400005A
:100930004FF00003013A5DDC12F1190FDCBF00F04B
:1009400000407047C2F10002410021FA02F1C2F1F9
:10095000200200FA02FC5FEA310040F1000053EA95
:100960004C0308BF20EADC70704792F0000F00F0E3
:10097000004C02BF400010F4000F013AF9D040EAE9
:100980000C0093F0000F01F0004C02BF490011F47D
:10099000000F013BF9D041EA0C018FE70CEAD1537B
:1009A00092EA0C0F18BF93EA0C0F0AD030F0004CFB
:1009B00018BF31F0004CD8D180EA010000F00040AF
:1009C000704790F0000F17BF90F0004F084691F06D
:1009D000000F91F0004F14D092EA0C0F01D14202A7
:1009E0000FD193EA0C0F03D14B0218BF084608D170
:1009F00080EA010000F0004040F0FE4040F40000BA
:100A0000704740F0FE4040F4400070474FF0FF0C4C
:100A10001CEAD0521EBF1CEAD15392EA0C0F93EA93
:100A20000C0F69D0A2EB030280EA010C49024FEAE5
:100A3000402037D04FF0805343EA111143EA10139E
:100A40000CF000408B4238BF5B0042F17D024FF456
:100A5000000C8B4224BF5B1A40EA0C00B3EB510F31
:100A600024BFA3EB510340EA5C00B3EB910F24BF1A
:100A7000A3EB910340EA9C00B3EBD10F24BFA3EB9F
:100A8000D10340EADC001B0118BF5FEA1C1CE0D167
:100A9000FD2A3FF650AF8B4240EBC25008BF20F01A
:100AA000010070470CF0004C4CEA50207F32C2BF6E
:100AB000D2F1FF0340EAC250704740F400004FF00B
:100AC0000003013A37E792F0000F00F0004C02BF3C
:100AD000400010F4000F013AF9D040EA0C0093F006
:100AE000000F01F0004C02BF490011F4000F013B60
:100AF000F9D041EA0C0195E70CEAD15392EA0C0FC8
:100B000008D142027FF47DAF93EA0C0F7FF470AFFF
:100B1000084676E793EA0C0F04D14B023FF44CAF42
:100B200008466EE730F0004C18BF31F0004CCAD1D7
:100B300030F000427FF45CAF31F000437FF43CAF13
:100B40005FE700BF4FF0FF3C06E000BF4FF0010C35
:100B500002E000BF4FF0010C4DF804CD4FEA400217
:100B60004FEA41037FEA226C18BF7FEA236C11D061
:100B700001B052EA530C18BF90EA010F58BFB2EB14
:100B8000030088BFC81738BF6FEAE17018BF40F094
:100B9000010070477FEA226C02D15FEA402C05D148
:100BA0007FEA236CE4D15FEA412CE1D05DF8040BCD
:100BB000704700BF844608466146FFE70FB5FFF760
:100BC000C9FF002848BF10F1000F0FBD4DF808ED18
:100BD000FFF7F4FF0CBF012000205DF808FB00BF09
:100BE0004DF808EDFFF7EAFF34BF012000205DF863
:100BF00008FB00BF4DF808EDFFF7E0FF94BF0120B0
:100C000000205DF808FB00BF4DF808EDFFF7D2FFAC
:100C100094BF012000205DF808FB00BF4DF808EDEF
:100C2000FFF7C8FF34BF012000205DF808FB00BFBC
:100C300042000ED2B2F1FE4F0BD34FF09E03B3EB46
:100C4000126209D44FEA002343F0004323FA02F072
:100C500070474FF00000704712F1610F01D142025E
:100C600002D14FF0FF3070474FF00000704700BFD7
:100C700053B94AB9002908BF00281CBF4FF0FF3103
:100C80004FF0FF3000F094B9ADF1080C6DE904CEDF
:100C900000F026F8DDF804E0DDE9022304B0704737
:100CA000D0B5FFF711FC0C4B002206460F4600F0B2
:100CB00007FB00F07FF90446FFF7E4FB074B002237
:100CC00000F0FEFA02460B4630463946FFF79CFA22
:100CD00000F070F92146D0BD0000F03D0000F04169
:100CE0002DE9F047089E0D4604468846002B4DD15D
:100CF0008A42944668D9B2FA82F252B101FA02F3FA
:100D0000C2F1200120FA01F10CFA02FC41EA0308C9
:100D100094404FEA1C45210CB8FBF5FE1FFA8CF7F6
:100D200005FB1E8341EA03430EFB07F199420BD9F1
:100D30001CEB03030EF1FF3080F01E81994240F25C
:100D40001B81AEF1020E63445B1AA4B2B3FBF5F053
:100D500005FB103344EA034400FB07F7A7420AD916
:100D60001CEB040400F1FF3380F00881A74240F23D
:100D7000058164440238E41B40EA0E4000211EB1A4
:100D8000D4400023C6E90043BDE8F0878B4208D970
:100D9000002E00F0EE800021C6E900050846BDE8FF
:100DA000F087B3FA83F100294AD1AB4202D38242E1
:100DB00000F2F980841A65EB030301209846002EA7
:100DC000E2D0C6E90048DFE702B9FFDEB2FA82F2FC
:100DD000002A40F09180A1EB0C054FEA1C471FFA56
:100DE0008CFE0121B5FBF7F307FB1350250C45EAF8
:100DF00000450EFB03F0A84208D91CEB050503F1E2
:100E0000FF3802D2A84200F2CB8043462D1AA4B28A
:100E1000B5FBF7F007FB105544EA05440EFB00FE56
:100E2000A64508D91CEB040400F1FF3502D2A64503
:100E300000F2BB802846A4EB0E0440EA03409EE784
:100E4000C1F120078B4022FA07FC4CEA030C20FA80
:100E500007F405FA01F31C43FD404FEA1C4900FA70
:100E600001F3B5FBF9F8200C1FFA8CFE09FB1855AD
:100E700040EA054508FB0EF0A84202FA01F20BD940
:100E80001CEB050508F1FF3A80F08880A84240F28B
:100E90008580A8F1020865442D1AA4B2B5FBF9F0CB
:100EA00009FB105544EA054500FB0EFEAE4508D986
:100EB0001CEB050500F1FF346CD2AE456AD902384F
:100EC000654440EA0840A0FB0294A5EB0E05A5424C
:100ED000C846A64656D353D05EB1B3EB080265EBC5
:100EE0000E0505FA07F722FA01F3CD401F43C6E9C4
:100EF00000750021BDE8F087C2F1200320FA03F15C
:100F00000CFA02FC25FA03F395400D434FEA1C4707
:100F10001FFA8CFEB3FBF7F107FB11302B0C43EAF1
:100F2000004301FB0EF0984204FA02F408D91CEBCE
:100F3000030301F1FF382FD298422DD902396344BF
:100F40001B1AADB2B3FBF7F007FB103345EA0345BC
:100F500000FB0EF3AB4208D91CEB050500F1FF388E
:100F600016D2AB4214D902386544ED1A40EA014169
:100F700038E73146304607E78646E5E61846FAE6A2
:100F80004B45A9D2B9EB020864EB0C0E0138A3E77C
:100F90004046EAE7204694E74146D1E7D0467BE762
:100FA000023B654432E7084609E76444023842E7F9
:100FB000704700BF4A0011D212F5001211D20DD5B0
:100FC0006FF47873B3EB62520ED44FEAC12343F04F
:100FD000004343EA505323FA02F070474FF00000F9
:100FE000704750EA013002D14FF0FF3070474FF0A8
:100FF00000007047844641EA000313F003036DD1FB
:10100000403A41D351F8043B40F8043B51F8043BCB
:1010100040F8043B51F8043B40F8043B51F8043BD2
:1010200040F8043B51F8043B40F8043B51F8043BC2
:1010300040F8043B51F8043B40F8043B51F8043BB2
:1010400040F8043B51F8043B40F8043B51F8043BA2
:1010500040F8043B51F8043B40F8043B51F8043B92
:1010600040F8043B51F8043B40F8043B51F8043B82
:1010700040F8043B51F8043B40F8043B51F8043B72
:1010800040F8043B403ABDD2303211D351F8043B12
:1010900040F8043B51F8043B40F8043B51F8043B52
:1010A00040F8043B51F8043B40F8043B103AEDD2C1
:1010B0000C3205D351F8043B40F8043B043AF9D212
:1010C000043208D0D2071CBF11F8013B00F8013BE5
:1010D00001D30B8803806046704700BF082A13D3F2
:1010E0008B078DD010F003038AD0C3F10403D21A0A
:1010F000DB071CBF11F8013B00F8013B80D331F83E
:10110000023B20F8023B7BE7043AD9D3013A11F8BD
:10111000013B00F8013BF9D20B7803704B78437028
:101120008B7883706046704700000000000000006C
:1011300000000000000000000000000000000000AF
:1011400090F800F06DE9024520F007016FF0000C07
:1011500010F0070491F820F040F049804FF00004AF
:101160006FF00700D1E9002391F840F000F108008A
:1011700082FA4CF2A4FA8CF283FA4CF3A2FA8CF3C2
:101180004BBBD1E9022382FA4CF200F10800A4FA29
:101190008CF283FA4CF3A2FA8CF3E3B9D1E904237D
:1011A00082FA4CF200F10800A4FA8CF283FA4CF3B4
:1011B000A2FA8CF37BB9D1E9062301F1200182FA6E
:1011C0004CF200F10800A4FA8CF283FA4CF3A2FA74
:1011D0008CF3002BC6D0002A04BF04301A4612BA82
:1011E000B2FA82F2FDE8024500EBD2007047D1E985
:1011F000002304F00305C4F100004FEAC50514F014
:10120000040F91F840F00CFA05F562EA05021CBFE4
:1012100063EA050362464FF00004A9E700000000FE
:1012200001F0FF01102A2BDB10F0070F08D010F897
:10123000013B013A8B422DD010F0070F42B3F6D19B
:10124000F0B441EA012141EA014122F007047FF0B4
:1012500000070023F0E80256083C85EA010586EA0B
:10126000010685FA47F5A3FA87F586FA47F6A5FA47
:1012700087F68EB9EED1F0BC01F0FF0102F0070253
:1012800032B110F8013B013A83EA010313B1F8D1FE
:101290000020704701387047002D06BF35460338DF
:1012A000073815F0010F07D1013015F4807F02BF18
:1012B000013015F4C03F0130F0BC0138704700BF69
:1012C00070B54FF0FF0C4CF4E06C1CEA11541DBFDC
:1012D0001CEA135594EA0C0F95EA0C0F00F0DEF8A7
:1012E0002C4481EA030621EA4C5123EA4C5350EA8C
:1012F000013518BF52EA033541F4801143F48013DD
:1013000038D0A0FB02CE4FF00005E1FB02E506F06D
:101310000042E0FB03E54FF00006E1FB03569CF0C2
:10132000000F18BF4EF0010EA4F1FF04B6F5007FC8
:1013300064F5407404D25FEA4E0E6D4146EB06063A
:1013400042EAC62141EA55514FEAC52040EA5E50C3
:101350004FEACE2EB4F1FD0C88BFBCF5E06F1ED86D
:10136000BEF1004F08BF5FEA500E50F1000041EBA4
:10137000045170BD06F0004646EA010140EA020051
:1013800081EA0301B4EB5C04C2BFD4EB0C0541EA73
:10139000045170BD41F480114FF0000E013C00F388
:1013A000AB8014F1360FDEBF002001F0004170BDAC
:1013B000C4F10004203C35DA0C341BDC04F11404C5
:1013C000C4F1200500FA05F320FA04F001FA05F251
:1013D00040EA020001F0004221F0004110EBD3701E
:1013E00021FA04F642EB06015EEA430E08BF20EA4A
:1013F000D37070BDC4F10C04C4F1200500FA04F3ED
:1014000020FA05F001FA04F240EA020001F000417E
:1014100010EBD37041F100015EEA430E08BF20EAF1
:10142000D37070BDC4F1200500FA05F24EEA020E39
:1014300020FA04F301FA05F243EA020321FA04F068
:1014400001F0004121FA04F220EA020000EBD3701F
:101450005EEA430E08BF20EAD37070BD94F0000F1F
:101460000FD101F00046400041EB010111F4801F53
:1014700008BF013CF7D041EA060195F0000F18BF04
:10148000704703F00046520043EB030313F4801F40
:1014900008BF013DF7D043EA0603704794EA0C0FFA
:1014A0000CEA135518BF95EA0C0F0CD050EA410610
:1014B00018BF52EA4306D1D181EA030101F000418D
:1014C0004FF0000070BD50EA410606BF10461946B5
:1014D00052EA430619D094EA0C0F02D150EA0136C1
:1014E00013D195EA0C0F05D152EA03361CBF104602
:1014F00019460AD181EA030101F0004141F0FE41A1
:1015000041F470014FF0000070BD41F0FE4141F424
:10151000780170BD70B54FF0FF0C4CF4E06C1CEA24
:1015200011541DBF1CEA135594EA0C0F95EA0C0FD9
:1015300000F0A7F8A4EB050481EA030E52EA033594
:101540004FEA013100F088804FEA03334FF08055B5
:1015500045EA131343EA12634FEA022245EA1115E2
:1015600045EA10654FEA00260EF000419D4208BF93
:10157000964244F1FD0404F5407402D25B084FEA40
:101580003202B61A65EB03055B084FEA32024FF4EC
:1015900080104FF4002CB6EB020E75EB030E22BF49
:1015A000B61A754640EA0C005B084FEA3202B6EB09
:1015B000020E75EB030E22BFB61A754640EA5C00B8
:1015C0005B084FEA3202B6EB020E75EB030E22BF48
:1015D000B61A754640EA9C005B084FEA3202B6EB49
:1015E000020E75EB030E22BFB61A754640EADC0008
:1015F00055EA060E18D04FEA051545EA16754FEA6A
:1016000006164FEAC30343EA52734FEAC2025FEA87
:101610001C1CC0D111F4801F0BD141EA00014FF016
:1016200000004FF0004CB6E711F4801F04BF0143E7
:101630000020B4F1FD0C88BFBCF5E06F3FF6AFAE03
:10164000B5EB030C04BFB6EB020C5FEA500C50F193
:10165000000041EB045170BD0EF0004E4EEA113116
:1016600014EB5C04C2BFD4EB0C0541EA045170BD1D
:1016700041F480114FF0000E013C90E645EA060E61
:101680008DE60CEA135594EA0C0F08BF95EA0C0F8F
:101690003FF43BAF94EA0C0F0AD150EA01347FF4D7
:1016A00034AF95EA0C0F7FF425AF104619462CE7AE
:1016B00095EA0C0F06D152EA03353FF4FDAE104611
:1016C000194622E750EA410618BF52EA43067FF462
:1016D000C5AE50EA41047FF40DAF52EA43057FF4F2
:1016E000EBAE12E74FEA410C7FEA6C5C02D150EAA4
:1016F000013C0AD14FEA430C7FEA6C5C02D152EA0A
:10170000033C02D14FF0000070474FF001007047DA
:101710004FEA410212F5001215D211D56FF4787319
:10172000B3EB625212D94FEAC12343F0004343EABC
:10173000505311F0004F23FA02F018BF4042704797
:101740004FF00000704750EA013005D111F0004021
:1017500008BF6FF0004070474FF00000704700BFB7
:1017600010B582B08DF807000E4C00224FF40061D6
:10177000204605F09AF900224FF48051204605F0EA
:1017800094F94FF0FF3301220DF10701064805F0EF
:10179000BCFD01224FF48051204605F086F902B0CD
:1017A00010BD00BF00000240D00B002010B582B079
:1017B0008DF807000E4C01224FF40061204605F021
:1017C00074F900224FF48051204605F06EF94FF075
:1017D000FF3301220DF10701064805F096FD0122B5
:1017E0004FF48051204605F060F902B010BD00BFF3
:1017F00000000240D00B002008B5024B187AFFF71A
:10180000AFFF08BD100A002010B582B0030A8DF8A2
:1018100004308DF805000E4C00224FF48051204614
:1018200005F043F901224FF40061204605F03DF92F
:101830004FF0FF33022201A9064805F066FD0122A0
:101840004FF48051204605F030F902B010BD00BFC2
:1018500000000240D00B002070B505460C460A4E31
:10186000B07AFFF77DFF280AFFF7A0FFE8B2FFF785
:101870009DFF307BFFF774FF200AFFF797FFE0B270
:10188000FFF794FF70BD00BF100A002010B50C4692
:10189000C0B2FFF765FF2046FFF7B6FF10BD00009E
:1018A00008B5FFF7D9FFFFF7A7FF024B1888FFF72E
:1018B000ABFF08BD0C0A002010B51446FFF7CCFFA3
:1018C0002146024B1889FFF7E1FF10BD100A0020E6
:1018D00070B50646094B1A885D8802FB05F50021A4
:1018E0000846FFF7B9FFFFF787FF002403E0304603
:1018F000FFF78AFF0134AC42F9D370BD100A002013
:1019000010B5714C01224FF48071204605F0CDF8DE
:10191000012004F0B3F800224FF48071204605F056
:10192000C4F80A2004F0AAF801224FF4807120467E
:1019300005F0BBF8782004F0A1F8782004F09EF8B8
:101940001120FFF70DFF782004F098F8F020FFF742
:1019500007FFC320FFF72AFFF020FFF701FF9620C3
:10196000FFF724FF3620FFF7FBFE4820FFF71EFF9E
:101970003A20FFF7F5FE5520FFF718FFB420FFF7D8
:10198000EFFE0120FFF712FFB720FFF7E9FEC620A8
:10199000FFF70CFFE820FFF7E3FE4020FFF706FF0C
:1019A0008A20FFF703FF0020FFF700FF0020FFF76A
:1019B000FDFE2920FFF7FAFE1920FFF7F7FEA5200C
:1019C000FFF7F4FE3320FFF7F1FEC120FFF7C8FE5A
:1019D0000620FFF7EBFEC220FFF7C2FEA720FFF7AD
:1019E000E5FEC520FFF7BCFE1820FFF7DFFEE02074
:1019F000FFF7B6FEF020FFF7D9FE0920FFF7D6FE6D
:101A00000B20FFF7D3FE0620FFF7D0FE0420FFF7E0
:101A1000CDFE1520FFF7CAFE2F20FFF7C7FE54208A
:101A2000FFF7C4FE4220FFF7C1FE3C20FFF7BEFED9
:101A30001720FFF7BBFE1420FFF7B8FE1820FFF7B2
:101A4000B5FE1B20FFF7B2FEE120FFF789FEF02074
:101A5000FFF7ACFE0920FFF7A9FE0B20FFF7A6FE5B
:101A60000620FFF7A3FE0420FFF7A0FE0320FFF7E8
:101A70009DFE2D20FFF79AFE4320FFF797FE4220A0
:101A8000FFF794FE3B20FFF791FE1620FFF78EFE36
:101A90001420FFF78BFE1720FFF788FE1B20FFF7AF
:101AA00085FEF020FFF75CFE3C20FFF77FFEF02074
:101AB000FFF756FE6920FFF779FE782003F0DEFF7E
:101AC0002920FFF74DFE10BD0000024010B501288F
:101AD0002DD9831EDBB2012B47D9334CA07AFFF7F7
:101AE0003FFE0020FFF762FE0020FFF75FFE208828
:101AF0000138C0F30720FFF759FE20780138C0B243
:101B0000FFF754FE207BFFF72BFE0020FFF74EFE71
:101B10000020FFF74BFE60880138C0F30720FFF775
:101B200045FEA0780138C0B2FFF740FE10BD1E4B45
:101B300000229A714FF4A0721A804FF4F0725A800A
:101B40002C221A812A225A812B229A8130B93620DE
:101B5000FFF706FE4820FFF729FEBEE73620FFF715
:101B6000FFFD8820FFF722FEB7E70F4B01229A7195
:101B70004FF4F0721A804FF4A0725A802C221A810E
:101B80002A225A812B229A81022806D03620FFF77A
:101B9000E7FD2820FFF70AFE9FE73620FFF7E0FD6C
:101BA000E820FFF703FE98E7100A002008B501229D
:101BB0004FF40071014804F078FF08BD00080240AE
:101BC0002DE9F04F83B08046A2EB000A8946A3EBD3
:101BD000010BBAF1000F0DDD01220092BBF1000FE5
:101BE00014DD01230193DA451CDD564600252F46FE
:101BF0002C461BE0BAF1000F05D0A0EB020A4FF013
:101C0000FF320092EAE7CDF800A0E7E7BBF1000F52
:101C100005D0A1EB030B4FF0FF330193E3E7CDF8C1
:101C200004B0E0E75E46E1E70134A4B2731C9C42D5
:101C300012DC1FFA89F11FFA88F0FFF731FE5744D2
:101C40005D44BE4202DABF1B009B9844AE42EBDA11
:101C5000AD1B019B9944E7E703B0BDE8F08FF8B5F1
:101C600007460E4615461C460B46FFF7A9FF2346BE
:101C70003A4631463846FFF7A3FF23462A46214617
:101C80003846FFF79DFF23462A4631462846FFF790
:101C900097FFF8BD2DE9F04383B080460F46994683
:101CA000BDF82860204B998846F60403994205D078
:101CB000A2EB0805ADB20135ADB22BE01A4B9B7912
:101CC000012BF5D1184C2388991A89B201391B1AB6
:101CD0009BB2013B0022A2712A2565814FF02B089F
:101CE000A4F80C8000969BB24A4689B23846FFF7AA
:101CF000D1FF0123A371A4F80A80A58103B0BDE838
:101D0000F0833046FFF780FD0134A4B2AC42F8D333
:101D10000137BFB24F45F1D839464046FFF79CFD29
:101D2000FFF76AFD0024F1E7100A00202DE9F843CF
:101D300007468846A2F12E032C2B00F28C80DFE8A8
:101D400003F08481178D1A1E2124272A2D30878ABB
:101D50008A8A8A8A8A3336393C3F4245484B4E51FB
:101D600054575A5D606366696C6F7275787B7E004C
:101D70004FF0000901E04FF0020900268EE04FF01D
:101D80000309FAE74FF00409F7E74FF00509F4E714
:101D90004FF00609F1E74FF00709EEE74FF00809A9
:101DA000EBE74FF00909E8E74FF00A09E5E74FF0E4
:101DB0000B09E2E74FF00C09DFE74FF00D09DCE714
:101DC0004FF00E09D9E74FF00F09D6E74FF0100991
:101DD000D3E74FF01109D0E74FF01209CDE74FF0EC
:101DE0001309CAE74FF01409C7E74FF01509C4E714
:101DF0004FF01609C1E74FF01709BEE74FF0180979
:101E0000BBE74FF01909B8E74FF01A09B5E74FF0F3
:101E10001B09B2E74FF01C09AFE74FF01D09ACE713
:101E20004FF01E09A9E74FF01F09A6E74FF0200960
:101E3000A3E74FF02109A0E74FF022099DE74FF0FB
:101E400023099AE74FF0240997E74FF0250994E713
:101E50004FF0260991E74FF0FF098EE74FF0010997
:101E60008BE708EB06013819184B1A8889B280B243
:101E7000FFF722FD6D080134E4B2092C0CD815F0EF
:101E8000010FEED008EB06013819114B1A8889B200
:101E900080B2FFF711FDEDE70136F6B2132E12D82E
:101EA000720001320B4B09EB890103EBC1018A5C23
:101EB00009EB890103EBC10313F8165005EB02256A
:101EC000ADB20024D9E7BDE8F88300BF00000020D0
:101ED0000C0A0020E8F7000870B504460E461546C7
:101EE00006E031462046FFF721FF0A34A4B201354F
:101EF0002A78002AF5D170BD2DE9F0478046894641
:101F00001F46A2F12E03462B00F29F80DFE803F06C
:101F1000918E24A0272B2E3134373A3D949D9D9DE0
:101F20009D9D9D404346494C4F5255585B5E6164B0
:101F3000676A6D707376797C7F8285888B9D9D9DA5
:101F40009D9D9D9D9D9D9D9D9D9D9D9D9D9D9D9DC1
:101F5000979D9D9D9D9D9A004FF0000A01E04FF0D6
:101F6000020A002698E04FF0030AFAE74FF0040A4D
:101F7000F7E74FF0050AF4E74FF0060AF1E74FF0F4
:101F8000070AEEE74FF0080AEBE74FF0090AE8E727
:101F90004FF00A0AE5E74FF00B0AE2E74FF00C0AB0
:101FA000DFE74FF00D0ADCE74FF00E0AD9E74FF0FC
:101FB0000F0AD6E74FF0100AD3E74FF0110AD0E727
:101FC0004FF0120ACDE74FF0130ACAE74FF0140A98
:101FD000C7E74FF0150AC4E74FF0160AC1E74FF004
:101FE000170ABEE74FF0180ABBE74FF0190AB8E727
:101FF0004FF01A0AB5E74FF01B0AB2E74FF01C0A80
:10200000AFE74FF01D0AACE74FF01E0AA9E74FF00B
:102010001F0AA6E74FF0200AA3E74FF0210AA0E726
:102020004FF0220A9DE74FF0230A9AE74FF0240A67
:1020300097E74FF0250A94E74FF0260A91E74FF013
:10204000270A8EE74FF0280A8BE74FF0FF0A88E750
:102050004FF0010A85E709EB060108EB04001A4B73
:102060001A8889B280B2FFF727FC6D080134E4B208
:10207000092C0FD815F0010FEDD1002FF5D009EB89
:10208000060108EB0400114B1A8889B280B2FFF7F1
:1020900013FCEAE70136F6B2132E12D872000132B1
:1020A0000B4B0AEB8A0103EBC1018A5C0AEB8A0144
:1020B00003EBC10313F8165005EB0225ADB2002463
:1020C000D6E7BDE8F08700BF0C0A00200000002022
:1020D000C0010108F8B504460F4615461E4607E044
:1020E000334639462046FFF707FF0A34A4B20135CC
:1020F0002A78002AF4D1F8BD2DE9F843074688462E
:10210000312A05D0322A06D14FF00109002619E004
:102110004FF00009FAE74FF0FF09F7E76D080134C7
:10212000E4B2072C0CD815F0010FF7D008EB06012C
:1021300038190A4B1A8889B280B2FFF7BDFBEDE768
:102140000136F6B20B2E07D809EB4903044A02EB1D
:1021500083039D5D0024E4E7BDE8F8830C0A0020BA
:10216000000101082DE9F84307468846A2F12E0335
:10217000282B38D8DFE803F031372E153A181C1F0A
:102180002225282B37373737373737373737373721
:1021900037373737373737373737373737373737CF
:1021A00034004FF0000901E04FF0020900263DE045
:1021B0004FF00309FAE74FF00409F7E74FF005097C
:1021C000F4E74FF00609F1E74FF00709EEE74FF0AB
:1021D0000809EBE74FF00909E8E74FF00A09E5E7DE
:1021E0004FF00B09E2E74FF0FF09DFE74FF001097D
:1021F000DCE708EB06013819124B1A8889B280B265
:10220000FFF75AFB6D080134E4B2062C0CD815F028
:10221000010FEED008EB060138190B4B1A8889B272
:1022200080B2FFF749FBEDE70136F6B20D2E07D875
:10223000C9EBC903054A02EB43039D5D0024E4E7B3
:10224000BDE8F883000000200C0A002018010108F6
:1022500070B504460E46154606E031462046FFF7A7
:1022600081FF0834A4B201352A78002AF5D170BD67
:102270002DE9F84307468846A2F12003362B42D8C1
:10228000DFE803F03E41414141414141414141418B
:1022900041413841351C441F2326292C2F3241410E
:1022A000414141414141414141414141414141411E
:1022B000414141414141414141413B004FF0000911
:1022C00001E04FF00209002640E04FF00309FAE771
:1022D0004FF00409F7E74FF00509F4E74FF006095E
:1022E000F1E74FF00709EEE74FF00809EBE74FF091
:1022F0000909E8E74FF00A09E5E74FF00B09E2E7C3
:102300004FF00C09DFE74FF0FF09DCE74FF0010960
:10231000D9E708EB06013819154B1A8889B280B243
:10232000FFF7CAFA6D080134E4B20D2C0CD815F091
:10233000010FEED008EB060138190E4B1A8889B24E
:1023400080B2FFF7B9FAEDE70136F6B21B2E0CD8D2
:1023500072000132084B03EB89139A5C13F8165094
:1023600005EB0225ADB20024DFE7BDE8F88300BF2E
:10237000000000200C0A002000FE000870B5044692
:102380000E46154606E031462046FFF771FF0E3433
:10239000A4B201352A78002AF5D170BD00B585B008
:1023A000002300930193029303932E482E4A026068
:1023B0004FF480324260836001220261027680F82D
:1023C0002030C36229498162C3600523C36180F85C
:1023D0003020426103F000FC002831D10323009338
:1023E000012301930723029369461E4803F01EFD53
:1023F00048BB04230093022301936946194803F064
:1024000015FD18BB05230093032301936946154866
:1024100003F00CFDE8B906230093042301936946F9
:10242000104803F003FDB8B9072300930523019377
:1024300069460C4803F0FAFC88B905B05DF804FB66
:1024400001F006FBCAE701F003FBD2E701F000FB55
:10245000D8E701F0FDFADEE701F0FAFAE4E701F06F
:10246000F7FAEAE7200A0020002001400100000FEF
:1024700030B589B000230393049305930693079323
:10248000026803F1804303F590339A4201D009B00A
:1024900030BD04460025019503F58C335A6C42F497
:1024A00080725A645A6C02F480720192019A029509
:1024B0001A6B42F001021A631B6B03F001030293D3
:1024C000029BF82303930323049303A9104804F009
:1024D00005FA1048104B036045608560C5604FF4F5
:1024E000806303614FF4805343614FF48043836101
:1024F0004FF48073C3610562456203F081FE18B931
:10250000044BA3639C63C2E701F0A2FAF8E700BFA3
:1025100000000240680A00201064024008B5054827
:10252000054B036003F0BAFD00B908BD01F090FA55
:10253000FBE700BFC80A0020003002400268094BD8
:102540009A4200D0704782B000230193064B1A6B69
:1025500042F480521A631B6B03F480530193019B76
:1025600002B07047003002400038024000B583B02E
:1025700000210191094B1A6B42F480021A631B6B14
:1025800003F480030193019B0A46382003F02CFDDD
:10259000382003F061FD03B05DF804FB0038024011
:1025A000002318468C33B3F5003F08D800F10062D1
:1025B00002F500321168034A9142F2D070474FF49D
:1025C0000030FBE72FCB040008B501462222024869
:1025D00003F073FD08BD00BFC80A00202DE9F047D5
:1025E000A4B082464FF00008C1464746444615E075
:1025F00001A8FFF7E9FF864204D074B91B4805F033
:102600002FFC0AE0029BBB4207D9A1461F464FF0B0
:10261000010802E0164805F0C1FB2C4604F18C05C8
:10262000B5F5003F11D88C2204F1006101F50031AD
:1026300001A8FEF7DFFC039E0023039301990D4BD5
:102640009942D5D0002CE8D1E4E7B8F1000F03D1CE
:10265000404624B0BDE8F0878C2209F1006101F505
:1026600000315046FEF7C6FCF2E700BF280801081B
:10267000380801082FCB040010B5A4B0044601A807
:10268000FFF7ACFF0146002848D01D9B63661E9BE8
:10269000A366002340E09A1C24A800EB820252F8B3
:1026A000882C44F8232003F1080200EB820252F840
:1026B0008C0C1A1D04EB8202506003F10C0224A85A
:1026C00000EB820252F8880C03F10A0244F822005F
:1026D00003F1120224A800EB820252F88C0C03F1E1
:1026E0000E0204EB8202506003F1160224A800EBF4
:1026F000820252F8880C03F1140244F8220003F11C
:102700001E0224A800EB820252F88C0C03F11A027C
:1027100004EB820250600133042BBCDD084624B078
:1027200010BD000010B586B0124805F099FB03F00B
:102730008FFF0023019305230393012304930222B7
:1027400005920293694601A804F07EF8044603F05E
:1027500097FF54B12146084805F020FB0023074AA3
:102760001360074A136006B010BD064805F078FBF9
:10277000F4E700BF4808010864080108D00A0020F7
:10278000D40A00207808010810B5A4B001A8FFF70A
:1027900025FF90B1029C0E4B1C60FFF701FF034622
:1027A0000C4A1060A0F18C0221460B4805F0F6FAA5
:1027B0000A4B01221A7024B010BD0023044A136092
:1027C000044A1360064805F04BFBFFF7ABFFEFE749
:1027D000D00A0020D40A00208C080108D80A002062
:1027E000D808010884B030B5A5B028AC84E80F0043
:1027F000514B1B7893B1514B1B688C33B3F5003FA1
:102800000FD84F4B01934F4B1B68013302930023AA
:102810000393419A1D92429A1E924BE0FFF7B4FF38
:10282000E9E7494805F01CFBFFF77CFFE9E728AA28
:1028300052F823109A1C24A800EB820242F8881C4C
:102840001A1D28A901EB8202516803F1080200EB6E
:10285000820242F88C1C03F10A0228A951F82210C6
:1028600003F10C0200EB820242F8881C03F10E0215
:1028700028A901EB8202516803F1120200EB8202E7
:1028800042F88C1C03F1140228A951F8221003F11C
:10289000160200EB820242F8881C03F11A0228A9F2
:1028A00001EB8202516803F11E0200EB820242F842
:1028B0008C1C0133042BBADD01A8FFF785FE0390C1
:1028C00003F0C6FE0146B8B91C4B1D6805F1006552
:1028D00005F500350024222C1FD824AB03EB84031C
:1028E00053F88C2C002305EB8401022003F002FF37
:1028F000024630B90134EEE7144805F04FFA0020E3
:1029000006E02146124805F049FA03F0B9FE00201E
:1029100025B0BDE8304004B0704703F0B1FE094B6C
:10292000196801311960054B1A688C321A60094820
:1029300005F034FA0120EBE7D80A0020D40A002081
:102940002FCB0400D00A0020FC0801081809010858
:10295000340901085C0901082DE9F0418AB000241E
:10296000059406940794089409940194384B1A6BC3
:1029700042F004021A631A6B02F004020192019AF7
:1029800002941A6B42F080021A631A6B02F0800202
:102990000292029A03941A6B42F001021A631A6BB4
:1029A00002F001020392039A04941A6B42F00202AD
:1029B0001A631B6B03F002030493049B254E22460B
:1029C00042F21121304604F070F8234F224646F2BD
:1029D000F111384604F069F8DFF8808022464FF4A0
:1029E000C851404604F061F842F2112305930125D5
:1029F00006950794089405A9304603F06FFF46F248
:102A0000F113059306950794089405A9384603F039
:102A100065FF4FF4124305930694079505A93846C0
:102A200003F05CFF4FF4E07305930694079505A946
:102A3000304603F053FF4FF4C853059306950794AF
:102A4000089405A9404603F049FF0AB0BDE8F081AB
:102A5000003802400008024000040240000002402A
:102A600030B59DB03349344B1868FDF71BFF4FF06C
:102A70007C51FDF70FFE314B1D68FEF7D9F8304C45
:102A800044F825002F49304B1868FDF70BFF4FF035
:102A90007C51FDF7FFFDFEF7CBF82B1D04EB830304
:102AA00058602849294B1868FDF7FCFE4FF07C510F
:102AB000FDF7F0FDFEF7BCF805F10A0344F823002A
:102AC0002049234B1868FDF7EDFE4FF07C51FDF7D0
:102AD000E1FDFEF7ADF805F10E0304EB830358604A
:102AE00018491C4B1868FDF7DDFE4FF07C51FDF7CF
:102AF000D1FDFEF79DF805F1140344F82300656647
:102B0000154B1B68A3661A3504EB850543F23903A0
:102B10006B60702204F110016846FEF76BFA94E8CE
:102B20000F00FFF75FFE0D4A1368013313601DB0FD
:102B300030BD00BF0000C84208000020940B0020F8
:102B4000140B0020000020411C0000200C0000207D
:102B50001800002010000020100B0020DC0A0020CC
:102B600000B583B001904FF0FF33012201A9034863
:102B700005F02BF8019803B05DF804FB040D00206C
:102B8000044B1968044A1268506A1B688B42F7D1DB
:102B9000704700BFC80B00202C0C002008B502486D
:102BA00004F0BCFC08BD00BF740C002038B504461E
:102BB0000368B3F1804F08D022689E4B9A4209D037
:102BC00022689D4B9A4217D038BD9C4A1368013346
:102BD0001360F1E710219A4803F06DFF994A1378CA
:102BE0000133DBB21370232BEAD9134600221A708B
:102BF000954804F0CFFCE3E74FF40041934803F01D
:102C00004DFF002800F0D8804FF0FF31904A137834
:102C10000B4413704FF480518C4803F03FFF0028A1
:102C200000F0CC804FF0FF318A4A13780B441370C8
:102C30004FF40071854803F031FF002800F0C08098
:102C40004FF0FF31844A13780B4413704FF48071B6
:102C50007B4803F023FF002800F0B4804FF0FF31E1
:102C60007E4A13780B4413708021754803F016FFD9
:102C7000002800F0A9800121794A13780B441370D1
:102C800040216F4803F00AFF002800F0A0800121D6
:102C9000744A13780B445BB213706D4A92F900C00A
:102CA000BCF1000FC0F29680BCF1140FA8BF4FF02A
:102CB000140C674A82F800C0664A92F90040002C62
:102CC000C0F28B80142CA8BF1424624A1470624A8C
:102CD00092F900000028C0F282801428A8BF1420B6
:102CE0005D4A10705D4A92F90010002979DB1429C1
:102CF000A8BF1421594A1170594A92F90020002A9C
:102D000071DB142AA8BF1422554D2A70002B6CDBEE
:102D1000142BA8BF1423534A1370534B1B78022B58
:102D200065D0524A1368013B136042F2107293421D
:102D30006DDC23EAE3734D4A13604D4A127852B9B1
:102D40004C4D2A68013A2A604B4DAA4262DC22EAC5
:102D5000E272484D2A60BCF10A0F09DD474A126849
:102D600032B9414A00251570444A42F21075156087
:102D70000A2C09DD414A126832B93B4A0124147019
:102D80003E4A42F2107414600A2808DD394A12687B
:102D90002AB9374A01201070364A374810600A298C
:102DA00001DD002B38D02E4B93F900300A2B6BDD60
:102DB000334B01221A7007E7012127E7012133E78E
:102DC00001213FE701214BE74FF0FF3154E74FF07E
:102DD000FF315DE74FF0000C6BE7002475E7002042
:102DE0007EE7002186E700228EE7002393E7234A4F
:102DF0001368013B136042F21072934202DC23EA33
:102E0000E37301E042F210731C4A136089E742F257
:102E1000107390E7184A9CE7FFF7C0FE194B012298
:102E20001A700E4B00221A70104B42F210721A6088
:102E3000B9E700BF0004004000080040C80B0020B4
:102E400000080240D90A0020740C0020000402404F
:102E5000E10A0020E20A0020E50A0020E40A00203E
:102E6000E00A0020E30A00203000002004000020D7
:102E7000B90B002020000020A08601002C000020BB
:102E8000B80B0020040B00200C4B93F9003053B119
:102E90000B4B93F900300A2B09DDFFF77FFE094A3F
:102EA0001368013B1360054B00221A708CE6FFF794
:102EB00075FE044A136801331360F4E7B80B002071
:102EC000E30A00201400002010B5FFF759FE144A51
:102ED00013685268134C1B1942F10002834272EBD3
:102EE000010301D3002010BD0D4B186059600E4B3B
:102EF0001A8840F2DB539A4206D90B4B1B88B3F574
:102F0000E16F07D80120EEE701221146074803F0E0
:102F1000CCFDF2E700220121044803F0C6FDF1E7F1
:102F2000C00B002040420F009C0B00200008024014
:102F30002DE9F84304462B4D55F82000FDF75AFCC7
:102F40002949FDF763FD294E3060231D05EB8303FE
:102F50005868FDF74FFC2649FDF758FDDFF89480CF
:102F6000C8F8000004F10A0355F82300FDF742FCFD
:102F70001F49FDF74BFD204F386004F10E0305EBB0
:102F800083035868FDF736FC1949FDF73FFDDFF86C
:102F90006C90C9F80000143455F82400FDF72AFCA1
:102FA0001349FDF733FD164C20600021154B1878AE
:102FB00002F0DEFA0021306802F022F90021D8F890
:102FC000000002F065F90021386802F09FF9002145
:102FD000D9F8000002F0EAF90021206802F022FA94
:102FE000BDE8F883140B00200000C8420800002050
:102FF000000020411C0000200C00002018000020D0
:1030000010000020940B0020F8B54FF07C512C4BA1
:103010001868FDF747FC2B49FDF744FCFDF708FE57
:10302000294B1880294B1868FDF7E4FB2849FDF768
:1030300039FC4FF06651FDF735FCFDF7F9FD254BE6
:10304000188000241BE0FDF7D9FB2349FDF72AFC7B
:1030500007463046FDF7D2FB2049FDF723FC014629
:103060003846FDF717FBFDF7E3FD1D4B23F8140071
:103070001B4B33F814201B4B23F814202C46032C35
:103080001DDC651C114B53F82500FDF7B3FB1649F9
:10309000FDF708FC4FF06651FDF704FC1349FDF7FE
:1030A00001FC0849FDF7FEFBFDF7C2FD80B20C4BA9
:1030B00033F81460002EC6D123F81400D8E7F8BD09
:1030C0000800002000007A449A0B0020F00A00203B
:1030D00000404E459C0B0020CDCCCC3D6666663F43
:1030E000E80A0020080B002033335340CDCCCC3FFE
:1030F00008B50268034B9A4200D008BDFFF784FF71
:10310000FBE700BF002001402DE9F04182B000261E
:1031100030464FF6FF743546334603E0104480B224
:103120000133DBB2032B0AD88B4A32F81320AA42B0
:1031300001D91E461546A242F0D21446EEE7870892
:10314000864B1B78042B07D8DFE803F003093E8782
:10315000BE00824B01221A7002B0BDE8F081804CA3
:1031600001224FF48071204603F09FFC00221021C1
:10317000204603F09AFC00222021204603F095FC13
:1031800000224021204603F090FC002280212046AE
:1031900003F08BFC3846FDF785F904460D46714B6C
:1031A0001888FDF77FF968A3D3E90023FEF788F8B4
:1031B00002460B4620462946FDF75CFA0028CBD094
:1031C000664B02221A70C7E701224FF480716448EF
:1031D00003F06BFC00230193A8462C1B142C04DD88
:1031E00002AB1E44012306F8043C5D4C9DF804200C
:1031F0001021204603F059FC9DF80520202120468F
:1032000003F053FC9DF806204021204603F04DFCBE
:103210009DF807208021204603F047FC4046FDF73B
:1032200041F904460D464F4B1E883046FDF73AF9EA
:1032300047A3D3E90023FEF743F802460B46204696
:103240002946FDF7F9F910B1444B01221A70BE422C
:1032500082D2424B03221A707EE700224FF4807123
:103260003F4803F022FC002301932B1B142B04DDA9
:1032700002AB1E44012306F8043C394E9DF804209D
:103280001021304603F011FC9DF805202021304626
:1032900003F00BFC9DF806204021304603F005FCAE
:1032A0009DF807208021304603F0FFFB2D4B1B8843
:1032B000AB4202D9294A02211170A342BFF44CAF9C
:1032C000264B04221A7047E700224FF480712448ED
:1032D00003F0EBFB00230193012401E00133DBB297
:1032E000032B11D818461C4A32F813201D490988AF
:1032F0008A42F3D3521A142AF0DD02AA10440122A2
:1033000000F8042C0024E9E7154D9DF80420102155
:10331000284603F0CAFB9DF805202021284603F02B
:10332000C4FB9DF806204021284603F0BEFB9DF813
:1033300007208021284603F0B8FB002C3FF40CAF97
:10334000064B03221A7007E7333333333333D33F4B
:103350009A9999999999E93F080B0020980B0020B8
:10336000000402409A0B002038B5FFF709FC1B4A05
:10337000136852681A4C1B1942F10002834272EB27
:10338000010300D338BDFFF7BFFEFFF7F9FB134B76
:10339000C3E90001134C2088FDF72CFA1249FDF710
:1033A00035FB05466088FDF725FA0F49FDF72EFB32
:1033B0000146284601F068FEA088FDF71BFA0A497D
:1033C000FDF724FB0546E088FDF714FA0649FDF7F2
:1033D0001DFB0146284601F0B5FED3E7B00B0020E7
:1033E000A0860100080B002000007A4408B50348BD
:1033F00004F036FDFF2002F019FA08BD8809010823
:10340000164B1B78012B03D0144B00221A70704707
:1034100010B59CB0124804F023FD124B1B7823B961
:103420000E4B00221A701CB010BD0F4804F018FD9E
:103430000E4C0F4B1B6863660E4B1B68A366702215
:1034400004F110016846FDF7D5FD94E80F00FFF781
:10345000C9F9044B00221A70E2E700BFB90B002043
:1034600098090108CC0B0020A4090108140B0020C6
:10347000940B0020100B002008B508280AD8DFE8BC
:1034800000F0050A0F1419091E232800134B1868B1
:1034900001F0FEFE08BD124B186801F037FFF9E796
:1034A000104B186801F082FFF4E70F4B186801F029
:1034B000B9FFEFE70D4B186801F0A2FEEAE70C4BED
:1034C000187802F055F8E5E70A4B187802F01AF878
:1034D000E0E7084B187802F015F8DBE71C00002045
:1034E0000C00002018000020100000200800002020
:1034F000940B00209E0B002070B5FFF741FB0446A3
:103500000D46954A1368526853EA020108D0E31A3F
:1035100065EB0202914999424FF00003934123D396
:103520008F4B1A785AB18F490B684968E31A65EBDB
:1035300001018D4898424FF000038B411DD38B4B06
:1035400019688B4B1B68CB1A8A480078012835D044
:103550004BB184480460456085480160002A7CD1F5
:103560007F4B01221A7070BD002002F033F87A4BB5
:1035700000200021C3E90001D2E7022A0FD0012A6E
:10358000F1D1774B00221A70FFF730FF7A4B0922F6
:103590001A707A4B754A1360754A1360E3E7764EEA
:1035A00000213078FFF768FF6D4B01221A703078E8
:1035B00002F03CF96B4B1C605D60D4E7704804F08E
:1035C0004FFC684B1C605D60654B1B781BB1012B89
:1035D00005D0022B35D0674B00221A70C3E7604B31
:1035E00002221A70644B1B78082B09D0072B0ED0CF
:1035F000052B13D00121604B1878FFF73DFFEAE758
:10360000604804F02DFC604B00221A70F2E75F481E
:1036100004F026FC5C4B01221A70EBE7012001F05C
:10362000D9FFFFF71DFA0021594B187801F0A0FFD0
:103630004B4B01221A70FFF7A3FA474BC3E9000175
:10364000D8E7474B01221A704B4C00212078FFF736
:1036500013FF207802F0EAF8BDE7012A10D0022A11
:1036600081D1454A1278082A51D8DFE812F0340097
:103670005600A500C500E4005000030124012B0101
:10368000002B12DD3C480378013302F1663282FBE5
:10369000031202F0FC0101EBA202A3EB4203037050
:1036A000354B187802F0C2F85DE7334B1B7873B9DD
:1036B000314B09221A7030490A78364BA3FB0203BA
:1036C000DB0803EB8303A2EB43030B70E8E7013B4A
:1036D000294A1370EFE7002B1DDD2F482F4D296875
:1036E000FCF7D8FF044628602D49FDF797FA00B192
:1036F0002B4C2A4B1C602B492046FDF771FA00B178
:10370000254C264B1C600121204601F0C1FD264BB3
:1037100001221A7027E72548E0E7002B1ADD1E4832
:10372000234D2968FCF7B6FF044628602149FDF7C0
:1037300075FA00B11F4C1E4B1C601A492046FDF75C
:103740004FFA00B1144C1A4B1C600121204601F0C5
:10375000DDFDDCE71548E3E7A80B002040420F0041
:10376000E60A0020A00B0020C0C62D001400002097
:1037700024000020040B002028000020009435774E
:10378000B8090108C00901089E0B0020D0090108F2
:10379000940B0020CDCCCCCCCDCCCC3D1C0000205B
:1037A0000000A040AE47E13DCC0B0020CDCCCCBD0D
:1037B0000C0000200000C841002B1BDD4548464D91
:1037C0002968FCF767FF044628604449FDF726FA9C
:1037D00000B1424C404B1C6041492046FDF700FAC5
:1037E00008B14FF07E543C4B1C600121204601F093
:1037F000DDFD8CE73B48E2E7002B1ADD35483A4D0A
:103800002968FCF747FF044628603849FDF706FAA7
:1038100000B1364C344B1C6035492046FDF7E0F9C9
:1038200000B12C4C304B1C600121204601F0FAFD08
:103830006DE72C48E3E7002B1ADD2E482E4D296852
:10384000FCF728FF044628602C49FDF7E7F900B192
:103850002A4C294B1C602A492046FDF7C1F900B1CA
:103860000024254B1C600121204601F0C9FC4EE7D5
:103870002448E3E7002B11DD234A1368013313606A
:10388000042B00D90023204A13601F4C2068FFF747
:103890004FFB0121207801F06BFE38E7002BF4DAB2
:1038A000194B1B681BB1013B174A1360EDE7164B20
:1038B00004221A60E9E70120144B1870014601F058
:1038C00021FE24E70020114B1870012101F01AFE9F
:1038D0001DE700BFCDCCCC3D1800002066661E4120
:1038E000AE47813FCDCCCCBD100000200000C841C8
:1038F000AE47E13D0AD7A33C080000200000C040CD
:103900000AD7233C0AD7A3BC940B00209E0B0020AF
:10391000F8B5434B1A78434B1B789A4203D0414B7E
:1039200002221A70F8BD404804F09AFAFFF728F90D
:1039300006460F46FFF724F905460C463B493C4B2B
:103940001868FCF7AFFFFDF7ABF9831947EB0102ED
:103950009D4274EB0203EDD3FFF712F906460F46C2
:1039600001224FF40051334803F09FF8FFF708F9A4
:1039700005460C463049314B1868FCF793FFFDF7BC
:103980008FF9831947EB01029D4274EB0203EDD3DB
:1039900000224FF40051274803F087F8FFF7F0F8B2
:1039A00006460F46FFF7ECF805460C462249244B25
:1039B0001868FCF777FFFDF773F9831947EB0102ED
:1039C0009D4274EB0203EDD3FFF7DAF806460F468B
:1039D00001224FF48041174803F067F8FFF7D0F851
:1039E00005460C461449174B1868FCF75BFFFDF7BA
:1039F00057F9831947EB01029D4274EB0203EDD3A3
:103A000000224FF480410B4803F04FF80E4B18682A
:103A10000130186001F018FB0C4B01221A707EE790
:103A20009E0B002030000020DC09010800247449AE
:103A30001C0000200004024000007A440C0000201A
:103A40001800002010000020100B0020CC0B0020DC
:103A500072B6FEE700B595B03022002108A804F048
:103A60004BF9002303930493059306930793019363
:103A70001F4A116C41F080511164126C02F08052A7
:103A80000192019A02931B490A6822F4404242F4CF
:103A900000420A600A6802F440420292029A02223C
:103AA000089201210B9110210C910E920F93082383
:103AB00010935423119312920423139308A803F034
:103AC00003F880B90F230393022104910023059387
:103AD0004FF480520692079303A803F043FA20B9EB
:103AE00015B05DF804FBFFF7B3FFFFF7B1FF00BFB0
:103AF0000038024000700040F8B501F093FFFFF776
:103B0000A9FFFEF729FFFEF731FD00F053FAFEF79B
:103B100045FC00F04FF901F0E1FEFEF7FFFC00F07C
:103B200081FA00F0B7FA05228C498D4802F080F83E
:103B30008C4803F0F3FC8C4803F0F0FCFEF724FE05
:103B40008A4C00224FF48071204602F0AEFF002222
:103B50001021204602F0A9FF00222021204602F079
:103B6000A4FF00224021204602F09FFF0022802176
:103B7000204602F09AFF7E48FEF77EFD002800F006
:103B800091807B4B5C6E7B4B1C60002300E001331B
:103B9000042B0ADC764A52F8232012F0010FF6D0EB
:103BA0000132734941F82320F1E7714D55F82400A3
:103BB000FCF720FE7049FCF729FF704B1860231DAD
:103BC00005EB83035868FCF715FE6D49FCF71EFFF3
:103BD0006C4B186004F10A0355F82300FCF70AFE49
:103BE0006749FCF713FF684B186004F10E0305EBFF
:103BF00083035868FCF7FEFD6149FCF707FF634B40
:103C00001860143455F82400FCF7F4FD5C49FCF707
:103C1000FDFE5F4B1860AA6E5E4B1A605E4B002281
:103C20001A705E4804F01CF9FDF76AFE0220FDF7E9
:103C30004DFF4FF6FF70FDF74BFE01F0EBFC554BCF
:103C4000186801F001FA00214A4B187801F090FC45
:103C50000021514B187801F055FC0021474B1868A2
:103C600001F0CEFA0021474B186801F011FB00214A
:103C7000454B186801F04AFB0021444B186801F0DD
:103C800095FB0021424B186801F0CCFB41F21D105E
:103C900001F01EFCFF2001F0C9FDFDF787FF0026A3
:103CA00037464AE03E4804F0DBF8344B3D4A1A60A0
:103CB000344B3D4A1A603D4B334A1360334A4FF050
:103CC00082411160324A136000232A4A1360314A4C
:103CD00013601FE0264A7B2142F82310191D02EBD6
:103CE00081010820486003F10A015F2042F82100A9
:103CF00003F10E0102EB810150244C6003F1140129
:103D000042F8210003F11A0102EB810243F239016A
:103D100051600133042BDDDD154B00225A669A6693
:103D2000FEF79EFE80E7FFF7E7FBFFF7F1FDFFF7E9
:103D30001BFBFFF765FB2E462746FFF7C5F8FEF78E
:103D40001FFF05460C461A4BF31847F10002834249
:103D500072EB0103E7D335463C46E4E7F00A002066
:103D6000200A00202C0C0020BC0C00200004024083
:103D7000140B0020940B00200000C8420800002013
:103D8000000020411C0000200C0000201800002032
:103D900010000020100B00209E0B0020E8090108F5
:103DA000040A0108A4709D3FCDCC4C3F000018418F
:103DB000A086010008B50D480D4B03604FF48273D7
:103DC000436000238360C360036143614FF400726A
:103DD0008261C3610362436283620A23C36203F0A8
:103DE00035FA00B908BDFFF733FEFBE7D00B002022
:103DF000003C004000B589B0002303930493059371
:103E0000069307930268154B9A4202D009B05DF8F9
:103E100004FB0021019103F5FE331A6C42F40042C9
:103E20001A641A6C02F400420192019A02911A6B10
:103E300042F004021A631B6B03F004030293029B1B
:103E40004FF4E053039302230493032306930623C2
:103E5000079303A9024802F041FDD7E7003C004068
:103E60000008024082B0002100910B4B5A6C42F4D2
:103E700080425A645A6C02F480420092009A019186
:103E80001A6C42F080521A641B6C03F08053019349
:103E9000019B02B0704700BF00380240FEE7FEE71A
:103EA000FEE7FEE7FEE770477047704708B501F090
:103EB000D3FD08BD08B5024803F089FB08BD00BF6B
:103EC0002C0C002008B5024803F081FB08BD00BFA0
:103ED000740C002008B5024803F079FB08BD00BF50
:103EE000BC0C002008B5024802F026FA08BD00BF4D
:103EF000680A00200120704708B503F0D3FE16239E
:103F000003604FF0FF3008BD08B54FF0FF31FFF7F9
:103F1000F3FFFEE770B50C461646002506E0AFF34A
:103F20000080214601F8010B01350C46B542F6DB55
:103F3000304670BD70B50C461646002504E014F8F6
:103F4000010BFEF70DFE0135B542F8DB304670BDC2
:103F50004FF0FF3070474FF400534B600020704724
:103F6000012070470020704710B503460C4A0D49E8
:103F70000D48006840B10C4800680344521A93424F
:103F800006D8094A136010BD0748084C0460F2E7E0
:103F900003F088FE0C2303604FF0FF30F3E700BF0F
:103FA0000000012000040000280C0020B80D0020B3
:103FB0007047000000B587B0002302930393049379
:103FC00005930093019316484FF0804202605322FC
:103FD000426083604FF0FF32C260036180238361DF
:103FE00003F000FC90B94FF48053029302A90C48EF
:103FF00003F030FC68B90023009301936946084838
:1040000003F0A8FC40B907B05DF804FBFFF720FD02
:10401000E9E7FFF71DFDEEE7FFF71AFDF3E700BF45
:104020002C0C002000B587B0002302930393049367
:104030000593009301931548154A0260532242608C
:104040008360F922C26003618023836103F0CAFBAD
:1040500090B94FF48053029302A90C4803F0FAFB85
:1040600068B90023009301936946084803F072FC85
:1040700040B907B05DF804FBFFF7EAFCE9E7FFF79A
:10408000E7FCEEE7FFF7E4FCF3E700BF740C002069
:104090000004004000B587B000230293039304930B
:1040A0000593009301931548154A0260532242601C
:1040B00083603122C26003618023836103F092FB3D
:1040C00090B94FF48053029302A90C4803F0C2FB4D
:1040D00068B90023009301936946084803F03AFC4D
:1040E00040B907B05DF804FBFFF7B2FCE9E7FFF762
:1040F000AFFCEEE7FFF7ACFCF3E700BFBC0C002021
:104100000008004000B585B00368B3F1804F08D0C7
:10411000224A93421AD0224A93422BD005B05DF82E
:1041200004FB0021019103F50E331A6C42F00102E9
:104130001A641B6C03F001030193019B0A461C20C7
:1041400001F052FF1C2001F087FFE7E700210291F8
:10415000144B1A6C42F002021A641B6C03F0020347
:104160000293029B0A461D2001F03EFF1D2001F034
:1041700073FFD3E7002103910A4B1A6C42F004024B
:104180001A641B6C03F004030393039B0A461E206E
:1041900001F02AFF1E2001F05FFFBFE7000400408E
:1041A00000080040003802402DE9F04F97B08046EB
:1041B0000D4600F10C031FFA83F901F1030A1FFAFF
:1041C0008AFA00F151031FFA83FB01F130039BB21D
:1041D0004BF2AB44009405935A4651464846FDF7CE
:1041E00059FD08F1030398B205F10C06B6B205F1CA
:1041F00027039FB200943B464A4631460690FDF79E
:1042000049FD08F15A039AB2009402973B4607927F
:1042100031465846FDF73EFD08F106031FFA83FCC0
:10422000AB1D99B2009433464A460491CDF80CC0B8
:104230006046FDF72FFD6F1DBFB208F107031FFA9F
:1042400083FE00943B46CDF824E07246394603983D
:10425000FDF720FD08F108031FFA83FC2B1D1FFA50
:1042600083FE08F1090399B200943B460C910A467B
:10427000CDF82CE07146CDF828C06046FDF70AFD68
:1042800008F10A031FFA83FC00943B46CDF8209006
:104290004A465146CDF834C06046FDF7FBFC08F1B4
:1042A00005031FFA83F9EB1D1FFA83FC0094CDF878
:1042B0003CC063464A4604994846FDF7EBFC08F1CA
:1042C00004031FFA83FE05F108031FFA83FC05F1BE
:1042D000090399B2009412910B464A46CDF844C0A6
:1042E0006146CDF840E07046FDF7D4FC05F10A03C5
:1042F0001FFA83FE00943346CDF838904A46CDF835
:104300004CE071460698FDF7C5FC08F157091FFA05
:1043100089F9009433464A4604995846FDF7BAFC99
:1043200008F153031FFA83FE00943B46CDF850E09A
:10433000724651465846FDF7ADFC08F154031FFA8A
:1043400083FA08F155031FFA83FC00943B46CDF82D
:1043500054C062460B99CDF82CA05046FDF79AFC4C
:1043600008F1560A1FFA8AFA00943B464A46394633
:104370005046FDF78FFC08F15807BFB200940F9B21
:104380003A4604993846FDF785FC08F159081FFAAA
:1043900088F80094129BCDF8108042461199384657
:1043A000FDF778FC00943346079A13993846FDF7D9
:1043B00071FC05F12D081FFA88F8009443464A461F
:1043C00002995846FDF766FC05F12E06B6B2009438
:1043D000059B149A31465846FDF75CFC05F12F0306
:1043E0001FFA83FB0094CDF83CB05B46159A31462A
:1043F0000B98FDF74FFC009433464A463146504631
:10440000FDF748FC05F12C091FFA89F90094434691
:104410003A4649463846FDF73DFC05F12A0A1FFA9F
:104420008AFA05F12B0B1FFA8BFB00945B46049A6A
:1044300051463846FDF72EFC2935ADB200942B4687
:10444000079A02993846FDF725FC00944346089FD9
:104450003A4602990398FDF71DFC00942B460E9DE9
:104460002A4602990698FDF715FC00945B462A46F9
:1044700051461098FDF70EFC009443462A464946E3
:104480002846FDF707FC00943346099A3146039805
:10449000FDF700FC00940F9B0C9A31460A98FDF73B
:1044A000F9FB0094059B3A4631460D98FDF7F2FB67
:1044B00017B0BDE8F08F2DE9F04F9DB006460D46D0
:1044C000144600F10C031FFA83F900F150081FFA9B
:1044D00088F801F1020B1FFA8BFB00925B46424603
:1044E0004846FDF7D7FB05F10C0399B2B31C1FFA40
:1044F00083FA05F12607BFB200943B46524603916A
:104500003046FDF7C7FB05F131031FFA83FC05F1C7
:1045100033039BB200940A934246CDF810C0614623
:10452000CDF824904846FDF7B5FB06F15B031FFA72
:1045300083F906F15D039AB200943B460B92039F08
:104540003946CDF814904846FDF7A4FB05F10A035F
:104550001FFA83FE009403973B465246CDF838E09D
:1045600071463046FDF796FB731C1FFA83FCEB1D6A
:104570001FFA83F8F31C9FB205F109031FFA83FEAB
:104580000094CDF844E0734606973A464146CDF88C
:104590003CC06046FDF77EFB05F105091FFA89F96D
:1045A000331D9FB2AB1D1FFA83FC0094CDF84CC0A5
:1045B00063463A464946CDF834A05046FDF76AFBBB
:1045C000009443463A46CDF840804146B8463846C6
:1045D000FDF760FB2F1DBFB200943B4642463946B3
:1045E0000698FDF757FB05F1030A1FFA8AFA0094B3
:1045F000534642465146CDF848804046FDF74AFBB7
:10460000731D1FFA83FCE04600944B466246494600
:104610006046FDF73FFBB31D9AB200943B461592EE
:104620005946CDF850804046FDF734FBF31D1FFA84
:1046300083FC00943B4662463946CDF830C0604664
:10464000FDF728FB05F101081FFA88F806F10903B8
:104650001FFA83FE00945346CDF858E07246414657
:104660000C98FDF717FB06F10A031FFA83FC009470
:104670005B46099A2946CDF85CC06046FDF70AFB07
:1046800006F151031FFA83FE06F1530399B2009419
:104690005B4618910A462946CDF86CE07046FDF756
:1046A000F9FA06F154031FFA83FE06F156031FFAC6
:1046B00083FC00945346CDF81CC062464146CDF8B9
:1046C00064E07046FDF7E6FA00943B46DDF81CC056
:1046D000624639466046FDF7DDFA06F157031FFAD8
:1046E00083F8C44606F158031FFA83FEF04600948F
:1046F0003B4672465946CDF868C06046FDF7CAFA97
:1047000000944B4642464946CDF820804046FDF78E
:10471000C1FA06F159081FFA88F800943B46424650
:1047200051464046FDF7B6FA0094139BDDF814A0FD
:10473000524649464046FDF7ADFA06F15A0B1FFABC
:104740008BFB00943B465A4639465846FDF7A2FA81
:104750000094DDF840904B46424649464046FDF7FE
:1047600099FA06F15C07BFB20094119B3A4649469C
:104770005846FDF78FFA0094039B0B9A0E99D14689
:104780005046FDF787FA05F127031FFA83FA05F172
:1047900029039BB2009403930B9ACDF838A051469D
:1047A000CDF814904846FDF775FA05F12A031FFA73
:1047B00083F905F12C0A1FFA8AFA009453463A4607
:1047C000CDF82C9049465846FDF764FA00945346BC
:1047D000424651464046FDF75DFA05F12D039FB272
:1047E00005F12E091FFA89F900944B46059A0597A1
:1047F00039464046FDF74EFA00944B46089F3A462C
:1048000049463846FDF746FA05F12F07BFB2009436
:104810003B465A4639464046FDF73CFA05F1300B17
:104820001FFA8BFB00945B46424659464046FDF713
:1048300031FA0094049B089A39461A98FDF72AFA2F
:1048400000943B46DDF81C80424639464046FDF761
:1048500021FA3235ADB200942B464246594619989A
:10486000FDF718FA00940A9B189A04991B98FDF713
:1048700011FA0094039BDDF8348042460E993046CD
:10488000FDF708FA00945346069A0B990F98FDF726
:1048900001FA00945346129E324651463046FDF7C7
:1048A000F9F900944B46324605994046FDF7F2F976
:1048B00000944B46DDF85080424649464046FDF79D
:1048C000E9F900943B46DDF818C062463946604677
:1048D000FDF7E0F900945B46324639463046FDF775
:1048E000D9F90094DDF810904B46159A39464046A8
:1048F000FDF7D0F900943B460C9E324639463046CF
:10490000FDF7C8F900942B46169A59463046FDF734
:10491000C1F900940A9B099A49461798FDF7BAF91C
:104920001DB0BDE8F08F2DE9F04F89B006460C466A
:1049300015464F1CBFB201F1090B1FFA8BFB009209
:104940005B4602463946FDF7A5F9731C9AB204F19D
:1049500006081FFA88F80095434621460392104640
:10496000FDF798F906F102091FFA89F906F1090322
:104970009BB21A4600952346049221464846FDF70D
:1049800089F9B31D99B200953B4605910A4639460F
:104990004846FDF77FF906F154031FFA83FC06F140
:1049A0005C0A1FFA8AFA0095234652462146CDF842
:1049B00018C06046FDF76EF906F157031FFA83FE33
:1049C00006F15D091FFA89F900953B464A463946CA
:1049D000CDF81CE07046FDF75DF9A71CBFB200954D
:1049E0004346524639465046FDF754F900955B461A
:1049F0004A4639464846FDF74DF904F13307BFB240
:104A000006F15B0B1FFA8BFB00953B465A46394675
:104A10000698FDF73FF904F132081FFA88F800956F
:104A200043465A4641460798FDF734F904F12D0BE9
:104A30001FFA8BFB00953B46524659465046FDF700
:104A400029F904F12A0A1FFA8AFA009543464A46D0
:104A500051464846FDF71EF93134A4B2009523466D
:104A6000324651463046FDF715F900952346039C22
:104A7000224659462046FDF70DF900954346059A12
:104A800041463046FDF706F900953B46049A394603
:104A90002046FDF7FFF809B0BDE8F08F38B50446B1
:104AA0000D4643F20822FFF706FD29462046FFF790
:104AB0007BFB4BF6F75229462046FFF734FF38BD03
:104AC00010B582B047F27C1400949923B922982142
:104AD0006420FDF7DFF800949A2363229921622075
:104AE000FDF7D8F800949A23BB229921BA20FDF74C
:104AF000D1F800949B2361229A216020FDF7CAF827
:104B000000949A23642219461046FDF7C3F80094D6
:104B10009A23B92219461046FDF7BCF800949C234D
:104B2000BC229A211046FDF7B5F800949E235F221F
:104B30009B211046FDF7AEF800949B236222194694
:104B40001046FDF7A7F800949B23BB221946104698
:104B5000FDF7A0F800949E23BD229B211046FDF78F
:104B600099F800949D2360229C211046FDF792F84D
:104B70000094A123BE229C211046FDF78BF80094DF
:104B8000A1235E229D211046FDF784F80094AF23F7
:104B90005D229E211046FDF77DF80094AE23BF22D2
:104BA0009E211046FDF776F80094B023C022A02184
:104BB0001046FDF76FF80094B0235C22A121104647
:104BC000FDF768F80094AB235E22A3211046FDF7A1
:104BD00061F80094B123C122AD211046FDF75AF8C7
:104BE0000094B1235B22AF211046FDF753F80094E7
:104BF000B82340F27712AF214FF4BA70FDF74AF8AC
:104C00000094B8230D22B0210820FDF743F800944A
:104C1000B2235A22B0211046FDF73CF80094B2238B
:104C2000C222B0211046FDF735F80094B72340F2B8
:104C30007312B0214FF4B970FDF72CF80094B7232C
:104C40004FF4BC72B0211046FDF724F80094B7234E
:104C50000722B1211046FDF71DF80094B7230E225C
:104C6000B1211046FDF716F80094B3235922B12163
:104C70001046FDF70FF80094B323C322B12110466C
:104C8000FDF708F80094B62340F27112B1211046E6
:104C9000FDF700F80094B72340F27912B1211046D5
:104CA000FCF7F8FF0094B3235822B2211046FCF71A
:104CB000F1FF0094B423C522B221C420FCF7EAFF1F
:104CC0000094B5234FF4BD72B2211046FCF7E2FF09
:104CD0000094B7230622B3211046FCF7DBFF0094B3
:104CE000B6230F22B3211046FCF7D4FF0094B4235F
:104CF0005722B3215520FCF7CDFF0094B423C722DF
:104D0000B321C620FCF7C6FF0094B5235422B4217A
:104D10001020FCF7BFFF0094B5234FF48C72B42130
:104D2000C820FCF7B7FF0094B5235622194655203A
:104D3000FCF7B0FF0094B523C72219461046FCF7D4
:104D4000A9FF0094B6234FF48D72B52140F21910DB
:104D5000FCF7A0FF0094B6234FF48C72194610465E
:104D6000FCF798FF0094B8234FF48E72B62140F2FE
:104D70001B10FCF78FFF0094B7234FF48D72194678
:104D80001046FCF787FF0094BB2340F21D12B721A9
:104D90001046FCF77FFF0094B9230C221946092026
:104DA000FCF778FF0094B9234FF48E721946104631
:104DB000FCF770FF0094C0234FF48F72B9211046A6
:104DC000FCF768FF0094C2234FF4BB72B92140F294
:104DD0007510FCF75FFF0094C42340F21F12BA2144
:104DE0001046FCF757FF0094C5234FF49072BF2183
:104DF0001046FCF74FFF0094C5234FF4BA72C02150
:104E00001046FCF747FF0094C62340F22112C3214D
:104E10001046FCF73FFF0094C62340F27312C321F3
:104E20001046FCF737FF0094C42340F27512C321EB
:104E30001046FCF72FFF0094C7234FF49172C52151
:104E40001046FCF727FF0094C7234FF4B972C52121
:104E50001046FCF71FFF0094C82340F22312C6211E
:104E60001046FCF717FF0094C82340F27112C621C8
:104E70001046FCF70FFF0094C8234FF49372C7212C
:104E80004FF49270FCF706FF0094C8234FF4B872F9
:104E9000C72140F26F10FCF7FDFE0094C9234FF4C8
:104EA000B772C82140F22710FCF7F4FE0094C92322
:104EB0004FF49372194640F22510FCF7EBFE009474
:104EC000C92340F26F1219461046FCF7E3FE02B008
:104ED00010BD000070B50024474B1C80474D4FF6B5
:104EE000FF732B802346464A05211420FDF7F2F874
:104EF0002346444A05214FF4AA70FDF7EBF840F22F
:104F0000DF132B80404A29210A20FCF7E5FF4AF6EF
:104F10003F732B803D4A2E214620FCF7DDFF3C4AA3
:104F20002E21AA20FCF7D8FF3A4A2E214FF48C708C
:104F3000FCF7D2FF384E23463246482140F2831018
:104F4000FDF7C8F831224F2140F28F10FDF7D4F859
:104F500023463246842140F28310FDF7BBF832220B
:104F60008B2140F28F10FDF7C7F823462B4AC02152
:104F70004FF4C370FDF7AEF84BF2AB432B80284AD9
:104F8000E4212320FCF7A8FF264AE4218220FCF735
:104F9000A3FF254AE421DC20FCF79EFF234AE421FD
:104FA0004FF4A070FCF798FF214AE42140F29F10D3
:104FB000FCF792FF1F4A40F21B112120FCF78CFFE7
:104FC0001D4A40F21B118220FCF786FF1B4A40F26B
:104FD0001B11DB20FCF780FF194A40F21B114FF434
:104FE0009B70FCF779FF174A40F21B114FF4CD700C
:104FF000FCF772FF70BD00BF0C0A0020000000200B
:105000004C0A0108580A0108600A0108640A0108EC
:10501000680A01086C0A0108700A0108740A01088C
:10502000780A01087C0A0108800A0108880A010838
:105030008C0A0108900A0108940A0108980A0108DC
:10504000A00A0108A80A010800B583B003460B4A6C
:10505000002111800A4A4FF6FF711180094A082188
:10506000684602F005FF01236A4605214FF4C3702C
:10507000FDF730F803B05DF804FB00BF0C0A002018
:1050800000000020B00A0108F0B585B007460C46C4
:10509000284B00221A80284B4BF25F621A80274E61
:1050A000FBF712FACDE90001324608210DEB0100B1
:1050B00002F0DEFE02AA26214FF4D270FDF7C8F8F6
:1050C0001F4D2A4626214FF4E470FDF7C1F8204613
:1050D000FBF7FAF9CDE90001324608210DEB01009A
:1050E00002F0C6FE02AA36214FF4D270FDF7B0F8E6
:1050F0002A4636214FF4E470FDF7AAF821463846D7
:10510000FBF7C8FAFBF7E0F9CDE9000132460821C8
:105110000DEB010002F0ACFE02AA46214FF4D27062
:10512000FDF796F82A4646214FF4E470FDF790F813
:1051300005B0F0BD0C0A002000000020B80A0108EC
:10514000740A0108F0B585B007460C46284B0022CA
:105150001A80284B4EF671721A80274EFBF7B4F96D
:10516000CDE90001324608210DEB010002F080FE7E
:1051700002AA62214FF4D270FDF76AF81F4D2A4649
:1051800062214FF4E470FDF763F82046FBF79CF9C9
:10519000CDE90001324608210DEB010002F068FE66
:1051A00002AA72214FF4D270FDF752F82A467221FA
:1051B0004FF4E470FDF74CF821463846FBF76AFAE5
:1051C000FBF782F9CDE90001324608210DEB010021
:1051D00002F04EFE02AA82214FF4D270FDF738F899
:1051E0002A4682214FF4E470FDF732F805B0F0BD95
:1051F0000C0A002000000020B80A0108740A010807
:1052000030B585B00C46FBF75FF9CDE900011C4ACB
:1052100008210DEB010002F02BFE1A4D4AF63F73F8
:105220002B8002AA2E21D220FCF756FE45F69D7354
:105230002B80C4B1C2234FF4E472A2214FF4C77093
:10524000FCF70DFD104B00221A8002AAA4214FF496
:10525000C870FDF793F80D4AA4214FF4E670FDF7EE
:105260008DF805B030BD084B45F69D721A80C223FB
:105270004FF4E472A2214FF4C770FCF7F0FCE1E7B1
:10528000B80A0108000000200C0A0020740A010876
:1052900010B584B00446194B00221A80184B4AF608
:1052A0003F721A80F9B19623382276210C20FCF740
:1052B000D6FC124B00221A802046FBF705F9CDE9F7
:1052C0000001104A08210DEB010002F0D1FD02AAF5
:1052D00078210E20FDF752F80B4A80213C20FCF784
:1052E000FBFD04B010BD054B4AF63F721A809623B1
:1052F000382276210C20FCF7B2FCDAE70C0A0020F9
:1053000000000020C00A0108C80A010810B584B0D6
:105310000446204B4AF63F721A8021B396239C2202
:1053200076216220FCF79BFC1B4B00221A801B4954
:105330002046FBF769FC08B32046FBF7C5F8CDE92A
:105340000001174A08210DEB010002F091FD02AAAD
:1053500078216420FDF712F8124A8021A020FCF782
:10536000BBFD04B010BD0C4B4AF63F721A80962369
:105370009C2276216220FCF772FCD5E72046FBF7E1
:10538000A3F8CDE90001084A08210DEB010002F065
:105390006FFDDCE7000000200C0A00200000204127
:1053A000C00A0108CC0A0108B80A010810B584B087
:1053B0000446184B4AF63F721A80F9B19623F2223E
:1053C0007621C620FCF74BFC134B00221A802046A6
:1053D000FBF77AF8CDE90001104A08210DEB010036
:1053E00002F046FD02AA7821C820FCF7C7FF0C4A4C
:1053F0008021F620FCF770FD04B010BD064B4AF684
:105400003F721A809623F2227621C620FCF727FCF1
:10541000DAE700BF000000200C0A0020C00A0108E3
:10542000CC0A010810B584B00446234B4AF63F72FB
:105430001A8041B396234FF4AE7276214FF49070E8
:10544000FCF70DFC1D4B00221A801D492046FBF77E
:10545000DBFB28B32046FBF737F8CDE90001194AFA
:1054600008210DEB010002F003FD02AA78214FF4A0
:105470009170FCF783FF144A80214FF4AF70FCF762
:105480002BFD04B010BD0D4B4AF63F721A809623D7
:105490004FF4AE7276214FF49070FCF7E0FBD1E749
:1054A0002046FBF711F8CDE90001084A08210DEB71
:1054B000010002F0DDFCD8E7000000200C0A00200B
:1054C00000002041C00A0108CC0A0108B80A0108FE
:1054D00000B585B00346094A4AF63F711180084A73
:1054E0001021684602F0C4FC6A462E214FF4A070D9
:1054F000FCF7F2FC05B05DF804FB00BF00000020E3
:10550000D00A010810B50446154B00221A80154B2D
:105510004AF63F721A8061B142238C222C2162200C
:10552000FCF79DFB0E4B00221A806CB1012C11D0B0
:1055300010BD0B4B4AF63F721A8042238C222C215D
:105540006220FCF78CFBEDE7074A2E216420FCF774
:10555000C3FCEDE7054A2E216420FCF7BDFCE7E71C
:105560000C0A002000000020D80A0108980A01084F
:1055700010B584B00446144B00221A80134B40F23D
:10558000DF121A80A9B13F232C2227211E20FCF70D
:1055900066FB0D4B00221A80631C0D4A10216846E1
:1055A00002F066FC6A4629212020FCF795FC04B035
:1055B00010BD054B40F2DF121A803F232C22272119
:1055C0001E20FCF74CFBE4E70C0A00200000002042
:1055D000E00A010808B50C4B4AF63F721A8048B140
:1055E0000A4B40F2FF721A80094A5021A020FCF7B2
:1055F00073FC08BD054B4AF63F721A80044A5021DD
:10560000A020FCF769FCF4E7000000200C0A002051
:10561000E40A010870B582B04FF485710020FFF7ED
:105620003DFA4FF485716020FFF738FA4FF4857129
:10563000C020FFF733FA4FF485714FF49070FFF7F5
:105640002DFA4FF485714FF4C070FFF727FAD4217B
:105650000020FFF723FAD4216020FFF71FFAD4219E
:10566000C020FFF71BFAD4214FF49070FFF716FA11
:10567000D4214FF4C070FFF711FA4AF63F7300933C
:10568000D2234FF4C0721E210020FCF703FB664DAD
:1056900040F2DF142C80D2234FF4C0721E21002070
:1056A000FCF7DDFAD12340F27F121F210120FCF725
:1056B000D6FAD0234FF4BF7220210220FCF7CFFA94
:1056C0000094462336221E210020FCF7E3FA46F61A
:1056D00052332B809A234FF4BE7219460320FCF7F5
:1056E0006FFAA8234FF4BE7219460320FCF768FA3C
:1056F000B5234FF4BE7219460320FCF761FAC223AA
:105700004FF4BE7219460320FCF75AFA4BF25F635E
:1057100000935A234FF4F0721E214FF4C070FCF72F
:10572000B9FA4BF67F4600965A234FF4CB724A21C2
:105730004FF4C070FCF7AEFA2E805A2322461E2189
:105740004FF4C070FCF78BFA592322461F2140F218
:105750008110FCF784FA58234FF4EF7220214FF4A4
:10576000C170FCF77CFA4EF67173009396234FF4E8
:10577000F0725A214FF4C070FCF78CFA4FF6AD5618
:10578000009696234FF4CB7286214FF4C070FCF73D
:1057900081FA2E80962322465A214FF4C070FCF7DE
:1057A0005EFA952322465B2140F28110FCF757FAFE
:1057B00094234FF4EF725C214FF4C170FCF74FFA61
:1057C00045F69D730093D2234FF4F07296214FF467
:1057D000C070FCF75FFA40F291460096D2234FF476
:1057E000CB72C2214FF4C070FCF754FA2E80D22342
:1057F000224696214FF4C070FCF731FAD12322469D
:10580000972140F28110FCF72AFAD0234FF4EF726F
:1058100098214FF4C170FCF722FAFFF751F9FFF716
:1058200059FB02B070BD00BF0C0A002010B5044641
:10583000FF2834D0284B1878A04214D0FF2809D074
:10584000042813D800EB400043F20822D421400181
:10585000FEF731FE042C16D804EB44000022D421BC
:105860004001FEF728FE1C4B1C7010BDC0F1090062
:1058700000EB4000400180B243F208224FF48571F2
:10588000FEF719FEE6E7C4F1090000EB4000400115
:1058900080B200224FF48571FEF70DFEE3E70E4B58
:1058A0001878FF28DFD0042808D800EB400043F226
:1058B0000822D4214001FEF7FEFDD4E7C0F1090023
:1058C00000EB4000400180B243F208224FF48571A2
:1058D000FEF7F1FDC7E700BF3800002008B50A4811
:1058E0000A4B03604FF4E133436000238360C360DD
:1058F00003610C2242618361C36102F037F900B990
:1059000008BDFEF7A5F8FBE7040D002000100140DC
:1059100000B589B00023039304930593069307937E
:10592000026803F1804303F588339A4202D009B03C
:105930005DF804FB0021019103F594335A6C42F0A9
:1059400010025A645A6C02F010020192019A0291FC
:105950001A6B42F001021A631B6B03F001030293FE
:10596000029B4FF4C0630393022304930323069323
:105970000723079303A9024800F0B0FFD7E700BF51
:1059800000000240DFF834D00D480E490E4A0023D3
:1059900002E0D458C4500433C4188C42F9D30B4AE3
:1059A0000B4C002301E013600432A242FBD3FEF74C
:1059B000FFFA02F07DF9FEF79FF870470000012022
:1059C00000000020F0090020240F0108F009002049
:1059D000B40D0020FEE7000010B504460E4B187809
:1059E0004FF47A73B3FBF0F30C4A1068B0FBF3F09A
:1059F00000F040FB68B90F2C01D901200AE0002219
:105A000021464FF0FF3000F0EFFA054B1C600020FC
:105A100000E0012010BD00BF39000020340000204C
:105A20003C00002008B50B4B1A6842F400721A6063
:105A30001A6842F480621A601A6842F480721A602E
:105A4000032000F0BFFA0020FFF7C6FFFEF70AFAB6
:105A5000002008BD003C0240034A1168034B1B783C
:105A60000B441360704700BF480D00203900002030
:105A7000014B1868704700BF480D002038B5044638
:105A8000FFF7F6FF0546B4F1FF3F02D0044B1B7849
:105A90001C44FFF7EDFF401BA042FAD338BD00BF06
:105AA000390000204A4B5A6822F440325A605A6842
:105AB00041680A435A600268536823F48073536054
:105AC00002685368016943EA01235360026853681E
:105AD00023F0407353600268536881680B4353603E
:105AE0000268936823F40063936002689368C16856
:105AF0000B439360826A374B9A4257D0026893688F
