:020000040800F2
:1000000000000120650B0008D5090008D709000889
:10001000D9090008DB090008DD090008000000001C
:10002000000000000000000000000000DF090008E0
:10003000E109000800000000E3090008E5090008E4
:10004000B50B0008B50B0008B50B0008B50B000890
:10005000B50B0008B50B0008B50B0008B50B000880
:10006000B50B0008B50B0008B50B0008B50B000870
:10007000B50B0008B50B0008B50B0008B50B000860
:10008000B50B0008B50B0008B50B00080000000018
:10009000000000000000000000000000B50B000898
:1000A000B50B0008B50B0008B50B0008B50B000830
:1000B000ED090008B50B0008B50B0008B50B0008EA
:1000C000B50B0008B50B0008B50B0008B50B000810
:1000D000B50B0008B50B0008B50B000800000000C8
:1000E000B50B0008B50B0008B50B000800000000B8
:1000F000000000000000000000000000B50B000838
:1001000000000000B50B0008B50B0008B50B000897
:1001100000000000000000000000000000000000DF
:10012000FD090008B50B0008B50B0008B50B000869
:10013000B50B0008000000000000000000000000F7
:10014000000000000000000000000000B50B0008E7
:10015000B50B0008B50B0008B50B0008B50B00087F
:10016000B50B0008B50B00080000000000000000FF
:10017000000000000000000000000000000000007F
:1001800000000000B50B00080000000000000000A7
:04019000B50B0008A3
:1001940010B5054C237833B9044B13B10448AFF3BD
:1001A40000800123237010BD4004002000000000E3
:1001B400D424000808B5034B1BB103490348AFF32B
:1001C400008008BD0000000044040020D42400087E
:1001D40053B94AB9002908BF00281CBF4FF0FF31AA
:1001E4004FF0FF3000F074B9ADF1080C6DE904CEA6
:1001F40000F006F8DDF804E0DDE9022304B07047FE
:100204002DE9F047089E0D4604468846002B4DD143
:100214008A42944668D9B2FA82F252B101FA02F3E0
:10022400C2F1200120FA01F10CFA02FC41EA0308B0
:1002340094404FEA1C45210CB8FBF5FE1FFA8CF7DD
:1002440005FB1E8341EA03430EFB07F199420BD9D8
:100254001CEB03030EF1FF3080F01E81994240F243
:100264001B81AEF1020E63445B1AA4B2B3FBF5F03A
:1002740005FB103344EA034400FB07F7A7420AD9FD
:100284001CEB040400F1FF3380F00881A74240F224
:10029400058164440238E41B40EA0E4000211EB18B
:1002A400D4400023C6E90043BDE8F0878B4208D957
:1002B400002E00F0EE800021C6E900050846BDE8E6
:1002C400F087B3FA83F100294AD1AB4202D38242C8
:1002D40000F2F980841A65EB030301209846002E8E
:1002E400E2D0C6E90048DFE702B9FFDEB2FA82F2E3
:1002F400002A40F09180A1EB0C054FEA1C471FFA3D
:100304008CFE0121B5FBF7F307FB1350250C45EADE
:1003140000450EFB03F0A84208D91CEB050503F1C8
:10032400FF3802D2A84200F2CB8043462D1AA4B271
:10033400B5FBF7F007FB105544EA05440EFB00FE3D
:10034400A64508D91CEB040400F1FF3502D2A645EA
:1003540000F2BB802846A4EB0E0440EA03409EE76B
:10036400C1F120078B4022FA07FC4CEA030C20FA67
:1003740007F405FA01F31C43FD404FEA1C4900FA57
:1003840001F3B5FBF9F8200C1FFA8CFE09FB185594
:1003940040EA054508FB0EF0A84202FA01F20BD927
:1003A4001CEB050508F1FF3A80F08880A84240F272
:1003B4008580A8F1020865442D1AA4B2B5FBF9F0B2
:1003C40009FB105544EA054500FB0EFEAE4508D96D
:1003D4001CEB050500F1FF346CD2AE456AD9023836
:1003E400654440EA0840A0FB0294A5EB0E05A54233
:1003F400C846A64656D353D05EB1B3EB080265EBAC
:100404000E0505FA07F722FA01F3CD401F43C6E9AA
:1004140000750021BDE8F087C2F1200320FA03F142
:100424000CFA02FC25FA03F395400D434FEA1C47EE
:100434001FFA8CFEB3FBF7F107FB11302B0C43EAD8
:10044400004301FB0EF0984204FA02F408D91CEBB5
:10045400030301F1FF382FD298422DD902396344A6
:100464001B1AADB2B3FBF7F007FB103345EA0345A3
:1004740000FB0EF3AB4208D91CEB050500F1FF3875
:1004840016D2AB4214D902386544ED1A40EA014150
:1004940038E73146304607E78646E5E61846FAE689
:1004A4004B45A9D2B9EB020864EB0C0E0138A3E763
:1004B4004046EAE7204694E74146D1E7D0467BE749
:1004C400023B654432E7084609E76444023842E7E0
:1004D400704700BF00B585B00023009301930293D9
:1004E40003932E482E4A02604FF4803242608360A8
:1004F40001220261037680F82030C36229498162B7
:10050400C3600521C16180F83030426100F03EFCD7
:10051400002831D10323009301230193072302937D
:1005240069461E4800F05EFC48BB04230093022386
:1005340001936946194800F055FC18BB0523009344
:10054400032301936946154800F04CFCE8B90623DF
:100554000093042301936946104800F043FCB8B9A2
:10056400072300930523019369460C4800F03AFCE5
:1005740088B905B05DF804FB00F048F9CAE700F05B
:1005840045F9D2E700F042F9D8E700F03FF9DEE799
:1005940000F03CF9E4E700F039F9EAE75C040020F4
:1005A400002001400100000F30B589B000230393FF
:1005B4000493059306930793026803F1804303F5BC
:1005C40090339A4201D009B030BD0446002501950C
:1005D40003F58C335A6C42F480725A645A6C02F4F8
:1005E40080720192019A02951A6B42F001021A6319
:1005F4001B6B03F001030293029BF8230393032371
:10060400049303A9104800F0E1FE1048104B036066
:1006140045608560C5604FF4806303614FF40063F7
:1006240043614FF4005383614FF48073C3610562E7
:10063400456200F077FD18B9044BA3639C63C2E7DD
:1006440000F0E4F8F8E700BF00000240A404002032
:100654001064024000B583B000210191094B1A6B6C
:1006640042F480021A631B6B03F480030193019B21
:100674000A46382000F094FC382000F0C9FC03B08E
:100684005DF804FB003802402DE9F0438BB00024F0
:100694000594069407940894099401943A4B1A6BB0
:1006A40042F004021A631A6B02F004020192019AE6
:1006B40002941A6B42F080021A631A6B02F08002F1
:1006C4000292029A03941A6B42F001021A631A6BA3
:1006D40002F001020392039A04941A6B42F002029C
:1006E4001A631B6B03F002030493049B274E2246F8
:1006F40042F20121304600F049FF254F224646F2DE
:10070400F011384600F042FFDFF8888022464FF4AB
:10071400C851404600F03AFF42F2012305930125F7
:1007240006950794089405A9304600F04FFE4FF44F
:10073400124305934FF48819CDF81890079405A92E
:10074400384600F043FE46F2F013059306950794ED
:10075400089405A9384600F039FE4FF4E073059378
:10076400CDF81890079405A9304600F02FFE4FF4F9
:10077400C853059306950794089405A9404600F0CC
:1007840025FE0BB0BDE8F0830038024000080240AB
:100794000004024000000240044B1968044A126835
:1007A400506A1B688B42F7D1704700BF10050020C8
:1007B4006C0500200368B3F1804F00D07047024AF3
:1007C400136801331360F9E71005002038B5FFF70B
:1007D400E3FF05460C460A4A1368526809495B1848
:1007E40042F10002AB4272EB040300D338BD4FF474
:1007F4000051054800F0D0FE014B1D605C60F5E738
:100804000805002040420F000008024072B6FEE7CF
:1008140000B595B03022002108A801F097FD00230F
:100824000393049305930693079301931F4A116C52
:1008340041F080511164126C02F080520192019ACD
:1008440002931B490A6822F4404242F400420A60BF
:100854000A6802F440420292029A0222089201219A
:100864000B9110210C910E920F9308231093542393
:10087400119312920423139308A800F097FE80B9F1
:100884000F23039302210491002305934FF4805214
:100894000692079303A801F0D7F820B915B05DF8C4
:1008A40004FBFFF7B3FFFFF7B1FF00BF00380240BE
:1008B4000070004008B500F0A3F9FFF7A9FFFFF7A7
:1008C400E3FEFFF7C7FE00F0A1F8FFF703FE00F018
:1008D4000BF800F0F1F8034801F018FAFFF776FF7F
:1008E400FCE700BF6C05002008B50D480D4B036004
:1008F4004FF48273436000238360C36003614361E8
:100904004FF400728261C3610362436283620A230B
:10091400C36201F06FF900B908BDFFF777FFFBE789
:1009240014050020003C004000B589B00023039367
:1009340004930593069307930268154B9A4202D0D9
:1009440009B05DF804FB0021019103F5FE331A6C34
:1009540042F400421A641A6C02F400420192019AB1
:1009640002911A6B42F004021A631B6B03F0040336
:100974000293029B4FF4E053039302230493032353
:1009840006930623079303A9024800F01FFDD7E747
:10099400003C00400008024082B0002100910B4B53
:1009A4005A6C42F480425A645A6C02F480420092B7
:1009B400009A01911A6C42F080521A641B6C03F085
:1009C40080530193019B02B0704700BF003802407E
:1009D400FEE7FEE7FEE7FEE7FEE770477047704775
:1009E40008B500F027F908BD08B5024801F0CEF9B2
:1009F40008BD00BF6C05002008B5024800F0F8FBF4
:100A040008BD00BFA40400207047000000B587B0F3
:100A140000230293039304930593009301931648D0
:100A24004FF0804202605322426083604FF0FF32F5
:100A3400C26003618023836101F0B4FA90B94FF47A
:100A44008053029302A90C4801F0E4FA68B9002328
:100A5400009301936946084801F05CFB40B907B074
:100A64005DF804FBFFF7D2FEE9E7FFF7CFFEEEE700
:100A7400FFF7CCFEF3E700BF6C0500200368B3F179
:100A8400804F00D0704700B583B00021019103F579
:100A94000E331A6C42F001021A641B6C03F001035A
:100AA4000193019B0A461C2000F07AFA1C2000F0F6
:100AB400AFFA03B05DF804FB08B50A480A4B0360BB
:100AC4004FF4E133436000238360C36003610C226D
:100AD40042618361C36101F0E5FB00B908BDFFF722
:100AE40095FEFBE7B40500200010014000B589B075
:100AF400002303930493059306930793026803F179
:100B0400804303F588339A4202D009B05DF804FBB0
:100B14000021019103F594335A6C42F010025A6497
:100B24005A6C02F010020192019A02911A6B42F07F
:100B340001021A631B6B03F001030293029B4FF43F
:100B4400C0630393022304930323069307230793A9
:100B540003A9024800F03AFCD7E700BF00000240B6
:100B6400DFF834D00D480E490E4A002302E0D45871
:100B7400C4500433C4188C42F9D30B4A0B4C0023E1
:100B840001E013600432A242FBD3FFF73DFF01F002
:100B9400B9FBFFF78FFE7047000001200000002022
:100BA4003C04002024250008400400200006002006
:100BB400FEE7000010B504460E4B18784FF47A7324
:100BC400B3FBF0F30C4A1068B0FBF3F000F02EFA1C
:100BD40068B90F2C01D901200AE0002221464FF008
:100BE400FF3000F0DDF9054B1C60002000E001201F
:100BF40010BD00BF040000200000002008000020F9
:100C040008B50B4B1A6842F400721A601A6842F471
:100C140080621A601A6842F480721A60032000F03D
:100C2400ADF90020FFF7C6FFFFF7B6FE002008BDB0
:100C3400003C0240034A1168034B1B780B441360C9
:100C4400704700BFF805002004000020014B18681D
:100C5400704700BFF80500204A4B5A6822F440321E
:100C64005A605A6841680A435A600268536823F418
:100C74008073536002685368016943EA0123536037
:100C84000268536823F040735360026853688168B4
:100C94000B4353600268936823F400639360026813
:100CA4009368C1680B439360826A374B9A4257D06A
:100CB4000268936823F07063936002689368816AA2
:100CC4000B4393600268936823F040539360026877
:100CD4009368C16A0B4393600268936823F002032C
:100CE400936002689368017E43EA4103936090F83D
:100CF4002030002B3FD00268536843F400635360F4
:100D04000268536823F46043536001684B68426A85
:100D1400013A43EA42334B600268D36A23F4700316
:100D2400D3620168CB6AC269013A43EA0253CB62D7
:100D34000268936823F4007393600268936890F8E0
:100D4400301043EA412393600268936823F480637C
:100D5400936002689368416943EA81239360704712
:100D64000268936823F0706393600268936823F0C9
:100D740040539360B0E70268536823F40063536000
:100D8400CAE700BF002301400100000F38B310B5CB
:100D94000446036C43B1236C13F0100F0BD00120F5
:100DA400002384F83C3010BDFFF7FEFB002363648E
:100DB40084F83C30EFE7236C23F4885323F00203D8
:100DC40043F0020323642046FFF746FF00206064DB
:100DD400236C23F0030343F001032364E0E70120C1
:100DE4007047000030B482B00023019390F83C3087
:100DF400012B00F0BB80012380F83C300B68092BE9
:100E040041D90468E2689BB203EB43031E3B4FF0F5
:100E1400070C0CFA03F322EA0303E3600468E268B4
:100E24000B8803EB43031E3B8D6805FA03F313435E
:100E3400E3604B68062B3DD80468626B03EB8303C5
:100E4400053B4FF01F0C0CFA03F322EA0303636320
:100E54000468626B4B6803EB8303053BB1F800C085
:100E64000CFA03F3134363630268414B9A4251D073
:100E740002683F4B9A4256D0002380F83C30184613
:100E840002B030BC7047046822699BB203EB430391
:100E94004FF0070C0CFA03F322EA030323610468FE
:100EA40022690B8803EB43038D6805FA03F31343AC
:100EB4002361BEE70C2B16D805682A6B03EB83036A
:100EC400233B1F2404FA03F322EA03032B6305687C
:100ED4002A6B4B6803EB8303233B0C8804FA03F36C
:100EE40013432B63C0E70568EA6A03EB8303413BC2
:100EF4001F2404FA03F322EA0303EB620568EA6A97
:100F04004B6803EB8303413B0C8804FA03F313435C
:100F1400EB62A9E70B68122BAAD1164A536843F473
:100F240080035360A4E70B68103B012BA4D8114A3B
:100F3400536843F4000353600B68102B9CD10E4B91
:100F44001B6802F1467202F52E3202F28332A2FBD2
:100F540003239B0C03EB83035B00019302E0019BDF
:100F6400013B0193019B002BF9D185E7022087E720
:100F7400002001400023014000000020074AD368FC
:100F840023F4E0631B041B0C000200F4E060034341
:100F940043F0BF6343F40033D360704700ED00E0D7
:100FA40000B5194BDB68C3F30223C3F1070CBCF192
:100FB400040F28BF4FF0040C03F1040EBEF1060F1A
:100FC40018D9033B4FF0FF3E0EFA0CFC21EA0C014A
:100FD40099400EFA03F322EA0303194300280BDBBA
:100FE4000901C9B200F1604000F5614080F80013C6
:100FF4005DF804FB0023E5E700F00F000901C9B226
:10100400024B1954F4E700BF00ED00E014ED00E0DA
:10101400002807DB00F01F02400901239340024A25
:1010240042F82030704700BF00E100E00138B0F121
:10103400807F0BD24FF0E0235861054AF02182F8FB
:1010440023100020986107221A617047012070471D
:1010540000ED00E010B40368D9B210390B4AA2FBCA
:10106400014212090A4CA25CC2655F2908D923F423
:101074007F7323F0030304338365806D10BC7047D2
:1010840023F47F7323F003038365F6E7ABAAAAAACC
:1010940004250008836A826992B9012B0AD0022BC5
:1010A40002D00BB100207047C36A13F0807F28D1AF
:1010B40000207047C36AB3F1C07F24D0002070477A
:1010C400B2F5005F09D0022B25D9032B25D1C36AC1
:1010D40013F0807F23D100207047032B03D8DFE86F
:1010E40003F01404140A00207047C36A13F0807FCD
:1010F4000DD100207047C36AB3F1C07F09D000202E
:10110400704701207047012070470120704701207B
:10111400704701207047012070470020704701206C
:101124007047000070B50446FFF790FD002C5BD0BB
:101134000546022384F83530002384F834302268CD
:10114400136823F00103136023681A6812F0010F77
:101154000AD0FFF77BFD431B052BF5D920236365DC
:10116400032084F8350070BD1A6820481040616877
:10117400A2680A43E1680A4321690A4361690A4390
:10118400A1690A43E1690A43216A0A430243616A85
:1011940004291ED01A602668756925F00705636A5C
:1011A4001D43042B07D1A36A1D43E36A1BB12046E8
:1011B400FFF770FF90B975612046FFF74BFFE26DB2
:1011C4003F239340836000206065012384F8353019
:1011D400C9E7E16A206B01430A43DBE74023636507
:1011E400012084F83500BEE70120BCE73F8010F001
:1011F400F0B583B0044600230193724B1D68724B13
:10120400A3FB0535AD0A876D3E68C26D0823934084
:10121400334210D003681A6812F0040F0BD01A6816
:1012240022F004021A60C26D08239340BB60436D30
:1012340043F001034365E26D01239340334209D037
:101244002268526912F0800F04D0BB60636D43F0D2
:1012540002036365E26D04239340334209D022689C
:10126400126812F0020F04D0BB60636D43F00403F4
:101274006365E26D10239340334224D022681268E0
:1012840012F0080F1FD0BB6023681A6812F4802F75
:101294000DD01B6813F4002F04D1236C9BB120469E
:1012A400984710E0A36C73B1204698470BE01A6886
:1012B40012F4807F03D11A6822F008021A60236CAA
:1012C4000BB120469847E26D20239340334255D01A
:1012D4002268126812F0100F50D0BB6094F83530B9
:1012E400DBB2052B0ED023681A6812F4802F33D09A
:1012F4001B6813F4002F2AD1636C002B3ED02046C8
:1013040098473BE02268136823F0160313602268B1
:10131400536923F080035361236CA3B122681368DB
:1013240023F008031360E26D3F239340BB60012365
:1013340084F83530002384F83430236D002B3FD0FB
:10134400204698473CE0A36C002BE7D1EBE7E36B26
:10135400A3B12046984711E01A6812F4807F09D19E
:101364001A6822F010021A60012384F83530002331
:1013740084F83430E36B0BB120469847636DFBB1BE
:10138400636D13F0010F17D0052384F835302268FC
:10139400136823F001031360019B01330193AB42F3
:1013A40004D823681B6813F0010FF5D1012384F8D6
:1013B4003530002384F83430E36C0BB12046984771
:1013C40003B0F0BD00000020B5814E1B00230F2B9D
:1013D40000F2D28070B582B060E085685E000324BC
:1013E400B44025EA0405CC68B4402C4384604568C5
:1013F40025EA02054C68C4F300129A402A4342606D
:101404005AE0DC08083450F8246003F00702950021
:101414000F22AA4026EA020E0A69AA4042EA0E02F4
:1014240040F824205CE0042200E0002202FA0EF2DC
:101434002A430234514D45F82420514A14686FEA76
:101444000C0224EA0C054E6816F4803F01D04CEAE5
:1014540004054B4C2560646802EA04054E6816F4E2
:10146400003F01D04CEA0405454C6560A46802EADB
:1014740004054E6816F4801F01D04CEA0405404C64
:10148400A560E46822404D6815F4001F01D04CEAC1
:1014940004023B4CE26001330F2B6BD801229A40CB
:1014A4000C6804EA020C32EA0404F4D14C6804F037
:1014B4000304013C012C90D94A6802F00302032A78
:1014C40009D0C4685D000322AA4024EA02048A68A1
:1014D400AA402243C2604A6802F00302022A90D062
:1014E40004684FEA430E032202FA0EF224EA0204CD
:1014F4004A6802F0030202FA0EF2224302604A68CA
:1015040012F4403FC7D0002201921E4A546C44F4A6
:1015140080445464526C02F480420192019A9C0803
:10152400A51C164A52F8255003F003024FEA820E16
:101534000F2202FA0EF225EA0205134A90423FF402
:1015440074AF02F5806290420ED002F58062904240
:101554000CD002F5806290420AD002F5806290427B
:101564003FF461AF072261E701225FE702225DE7F2
:1015740003225BE702B070BD704700BF0038014032
:10158400003C014000380240000002400AB1816181
:101594007047090481617047436901EA030221EA43
:1015A400030141EA0241816170470000002800F014
:1015B400E08170B582B00446036813F0010F3BD09C
:1015C4009F4B9B6803F00C03042B2CD09C4B9B6813
:1015D40003F00C03082B21D06368B3F5803F4FD090
:1015E400B3F5A02F52D0964B1A6822F480321A60B9
:1015F4001A6822F480221A606368002B50D0FFF727
:1016040025FB05468E4B1B6813F4003F14D1FFF7EE
:101614001DFB401B6428F5D90320B1E1884B5B68AE
:1016240013F4800FD8D0864B1B6813F4003F03D00B
:101634006368002B00F09F81236813F0020F54D0DD
:101644007F4B9B6813F00C0F3ED07D4B9B6803F0DF
:101654000C03082B33D0E368002B68D0794B0122AC
:101664001A60FFF7F3FA0546754B1B6813F0020F77
:1016740054D1FFF7EBFA401B0228F5D903207FE190
:101684006F4A136843F480331360B5E76C4B1A68F0
:1016940042F480221A601A6842F480321A60ABE77E
:1016A400FFF7D4FA0546664B1B6813F4003FC3D01A
:1016B400FFF7CCFA401B6428F5D9032060E1604BA6
:1016C4005B6813F4800FC6D15D4B1B6813F0020FE7
:1016D40003D0E368012B40F05081594A136823F08A
:1016E400F803216943EAC1031360236813F0080F68
:1016F40042D063696BB3534B0122C3F8802EFFF7CA
:10170400A5FA05464E4B5B6F13F0020F34D1FFF779
:101714009DFA401B0228F5D9032031E1484A136899
:1017240023F0F803216943EAC1031360DDE7454B65
:1017340000221A60FFF78AFA0546414B1B6813F032
:10174400020FD2D0FFF782FA401B0228F5D90320FA
:1017540016E13C4B0022C3F8802EFFF777FA0546CA
:10176400374B5B6F13F0020F06D0FFF76FFA401B85
:101774000228F5D9032003E1236813F0040F77D07E
:101784002F4B1B6C13F0805F33D1002301932C4B40
:101794001A6C42F080521A641B6C03F0805301935C
:1017A400019B0125284B1B6813F4807F23D0A36879
:1017B400012B34D0052B38D0214B1A6F22F00102B3
:1017C4001A671A6F22F004021A67A368002B3DD02F
:1017D400FFF73CFA06461A4B1B6F13F0020F46D173
:1017E400FFF734FA801B41F288339842F3D903207F
:1017F400C6E00025D6E7144A136843F480731360E7
:10180400FFF724FA0646104B1B6813F4807FCED1F1
:10181400FFF71CFA801B0228F5D90320B0E0084A20
:10182400136F43F001031367CFE7054B1A6F42F0C0
:1018340004021A671A6F42F001021A67C5E700BF73
:10184400003802400000474200700040FFF7FEF9F4
:101854000646524B1B6F13F0020F08D0FFF7F6F940
:10186400801B41F288339842F3D9032088E0EDB914
:10187400A369002B00F08380484A926802F00C02AE
:10188400082A51D0022B17D0454B00221A66FFF7C5
:10189400DDF90446414B1B6813F0007F42D0FFF78B
:1018A400D5F9001B0228F5D9032069E03B4A136CE3
:1018B40023F080531364DBE7394B00221A66FFF7E9
:1018C400C5F90546354B1B6813F0007F06D0FFF7BA
:1018D400BDF9401B0228F5D9032051E0E369226ACF
:1018E4001343626A43EA8213A26A5208013A43EA42
:1018F4000243E26A43EA0263284A5360284B012206
:101904001A66FFF7A3F90446244B1B6813F0007F03
:1019140006D1FFF79BF9001B0228F5D903202FE01D
:1019240000202DE000202BE0012B2BD01B4B5B680B
:1019340003F48001E269914226D103F03F02216A57
:101944008A4223D1616A47F6C0721A40B2EB811F02
:101954001ED103F44031A26A5208013AB1EB024F9E
:1019640018D103F07063E26AB3EB026F14D1002064
:1019740006E001207047012002E0012000E0002081
:1019840002B070BD0120FBE70120F9E70120F7E771
:101994000120F5E70120F3E70120F1E700380240D8
:1019A4000000474208B5254B9B6803F00C03042B49
:1019B4003FD0082B3FD1214B5A6802F03F025B68AD
:1019C40013F4800F12D01D4B5968C1F388111C48C1
:1019D4000023A1FB0001FEF7FBFB184B5B68C3F37C
:1019E400014301335B00B0FBF3F025E0134B59686E
:1019F400C1F3881C4FEA4C11B1EB0C006EEB0E0ED8
:101A04004FEA8E1343EA90638101091A63EB0E03D4
:101A1400DB0043EA5173C90011EB0C0C43F10003E2
:101A2400990200234FEA8C2041EA9C51FEF7D0FB37
:101A3400D3E7034800E0034808BD00BF0038024074
:101A440040787D010024F400002800F09B8070B5EC
:101A54000D4604464F4B1B6803F007038B4208D224
:101A6400CBB24C4A1370136803F007038B4240F067
:101A74008B80236813F0020F17D013F0040F04D0E7
:101A8400454A936843F4E0539360236813F0080FC6
:101A940004D0414A936843F4604393603E4A936898
:101AA40023F0F003A1680B439360236813F0010F44
:101AB40032D06368012B21D09A1E012A25D9364AD7
:101AC400126812F0020F61D033498A6822F00302CF
:101AD40013438B60FFF7BAF806462F4B9B6803F05D
:101AE4000C036268B3EB820F16D0FFF7AFF8801BCC
:101AF40041F288339842F0D9032042E0264A126822
:101B040012F4003FE0D101203BE0234A126812F0B6
:101B1400007FD9D1012034E01E4B1B6803F007037A
:101B2400AB4207D9EAB21B4B1A701B6803F00703D8
:101B3400AB422DD1236813F0040F06D0164A9368E4
:101B440023F4E053E1680B439360236813F0080F18
:101B540007D0114A936823F46043216943EAC1031F
:101B64009360FFF71FFF0C4B9B68C3F303130B4AEF
:101B7400D35CD8400A4B18600A4B1868FFF71AF870
:101B8400002070BD012070470120FAE70120F8E72A
:101B94000120F6E7003C024000380240EC24000833
:101BA4000000002008000020014B1868704700BFA7
:101BB4000000002008B5FFF7F7FF044B9B68C3F350
:101BC4008223034AD35CD84008BD00BF00380240DA
:101BD400FC24000808B5FFF7E7FF044B9B68C3F338
:101BE4004233034AD35CD84008BD00BF00380240EA
:101BF400FC24000800285AD010B50446436A33B9BF
:101C04004368B3F5827F05D00023C36102E000235B
:101C1400036143610023A36294F85130002B40D048
:101C2400022384F851302268136823F040031360C0
:101C3400636803F48273A26802F404421343E26803
:101C440002F400621343226902F002021343626940
:101C540002F001021343A26902F400721343E26921
:101C640002F038021343226A02F080021343A26A8C
:101C740002F40052216813430B60638B03F00403E6
:101C8400626A02F01002216813434B602268D36930
:101C940023F40063D36100206065012384F851308C
:101CA40010BD84F850302046FEF73EFEB8E7012010
:101CB400704710B4036A046A24F00104046284695E
:101CC40024F0F00C4CEA021223F00A030B43826165
:101CD400036210BC704710B4046A24F01004046258
:101CE4008469036A24F4704C4CEA023223F0A003A2
:101CF40043EA01138261036210BC7047836823F0D6
:101D040070030B4343F007038360704790F83D3042
:101D1400DBB2012B2FD1022380F83D300268D36857
:101D240043F00103D3600368154A934218D0B3F11A
:101D3400804F15D0A2F57C42934211D002F5806207
:101D440093420DD002F58062934209D002F59A3293
:101D5400934205D01A6842F001021A6000207047CD
:101D64009A6802F00702062A07D01A6842F00102B4
:101D74001A6000207047012070470020704700BFA0
:101D840000000140704770477047704710B5044623
:101D940003681A6912F0020F11D0DA6812F0020F08
:101DA4000DD06FF002021A610123037703689B6967
:101DB40013F0030F70D0FFF7E6FF002323772368A7
:101DC4001A6912F0040F12D0DA6812F0040F0ED060
:101DD4006FF004021A610223237723689B6913F4CA
:101DE400407F5FD02046FFF7CEFF00232377236890
:101DF4001A6912F0080F12D0DA6812F0080F0ED028
:101E04006FF008021A61042323772368DB6913F057
:101E1400030F4ED02046FFF7B6FF00232377236835
:101E24001A6912F0100F12D0DA6812F0100F0ED0E7
:101E34006FF010021A61082323772368DB6913F417
:101E4400407F3DD02046FFF79EFF00232377236881
:101E54001A6912F0010F03D0DA6812F0010F36D1BB
:101E640023681A6912F0800F03D0DA6812F0800F29
:101E740034D123681A6912F0400F03D0DA6812F0E3
:101E8400400F32D123681A6912F0200F03D0DA68A8
:101E940012F0200F30D110BDFFF774FF2046FFF77A
:101EA40073FF8AE72046FFF76DFF2046FFF76CFFBC
:101EB4009BE72046FFF766FF2046FFF765FFACE788
:101EC4002046FFF75FFF2046FFF75EFFBDE76FF098
:101ED40001021A612046FEF76DFCC1E76FF0800233
:101EE4001A61204600F055F9C3E76FF040021A6109
:101EF4002046FFF74AFFC5E76FF020021A6120462B
:101F040000F046F9C7E700000368254A90420ED066
:101F1400B0F1804F0BD0A2F57C42904207D002F57D
:101F24008062904203D002F58062904203D123F094
:101F340070034A6813431A4A90421AD0B0F1804F92
:101F440017D0A2F57C42904213D002F580629042F1
:101F54000FD002F5806290420BD002F59A32904283
:101F640007D002F58062904203D002F5806290426D
:101F740003D123F44073CA68134323F080034A69EE
:101F8400134303608B68C3620B688362044B9842FB
:101F940002D00123436170470B690363F9E700BF73
:101FA4000000014040B310B5044690F83D30F3B151
:101FB400022384F83D30214651F8040BFFF7A4FFB7
:101FC400012384F8463084F83E3084F83F3084F8A6
:101FD400403084F8413084F8423084F8433084F847
:101FE400443084F8453084F83D30002010BD80F83A
:101FF4003C30FEF743FDDBE70120704710B48468F2
:1020040024F47F4C42EA03220A4342EA0C0282602F
:1020140010BC704790F83C30012B78D010B50446C2
:10202400012380F83C30022380F83D300268936835
:1020340023F47F4323F0770393600B68602B4CD029
:1020440029D8402B54D00CD9502B22D1CA684968C6
:102054000068FFF72EFE50212068FFF74FFE002096
:1020640005E0202B0DD009D9302B0AD00120012303
:1020740084F83D30002384F83C3010BD0BB1102BA4
:1020840005D119462068FFF739FE0020EFE701204B
:10209400EDE70120EBE7B3F5805F34D0B3F5005FE3
:1020A4000CD1CB684A6889680068FFF7A7FF2268EB
:1020B400936843F4804393600020D8E7702B24D1C5
:1020C400CB684A6889680068FFF798FF22689368BC
:1020D40043F0770393600020C9E7CA684968006841
:1020E400FFF7F9FD60212068FFF708FE0020BEE736
:1020F400CA6849680068FFF7DCFD40212068FFF7E3
:10210400FDFD0020B3E70020B1E70120AFE7022086
:102114007047000090F83C30012B34D010B40123F8
:1021240080F83C30022380F83D3003685A689C688C
:1021340022F0700C0A6842EA0C025A600368134ADF
:10214400934212D0B3F1804F0FD0A2F57C42934258
:102154000BD002F58062934207D002F5806293426D
:1021640003D002F59A32934204D124F080044A68E1
:1021740014439C60012380F83D30002380F83C30F8
:10218400184610BC70470220704700BF0000014091
:102194007047704738B504460268136923F4405306
:1021A400C1680B4313618368026913434269134393
:1021B400C2691A430168CB6823F4164323F00C0365
:1021C4001343CB600268536923F4407381690B4362
:1021D40053610368314A934206D002F58062934208
:1021E40002D0FFF7E7FC01E0FFF7F4FCE369B3F585
:1021F400004F29D00021031849411B1841F1000167
:10220400C90041EA5371DB00181863684FEA83027E
:102214004FEA937341F10001FDF7DAFF204DA5FB6E
:1022240000325109642303FB11031B013233A5FB64
:1022340003235B0903F0F00202EB011203F00F0326
:10224400216813448B6038BD0023021843EB03015B
:10225400121841F10001C90041EA5271D20010186C
:1022640041F10001626892185B41FDF7B1FF0C4D2A
:10227400A5FB00325109642303FB1103DB00323355
:10228400A5FB03235B095A0002F4F87202EB011266
:1022940003F00703216813448B60D4E70010014066
:1022A4001F85EB5158B310B5044690F83D300BB37D
:1022B400242384F83D302268D36823F40053D36088
:1022C4002046FFF767FF2268136923F490431361E4
:1022D4002268536923F02A0353612268D36843F4C4
:1022E4000053D36000202064202384F83D3084F818
:1022F4003E3010BD80F83C30FEF7F8FBD8E70120F3
:102304007047000070B50D4E0D4D761BB61006D00B
:10231400002455F8043B01349847A642F9D1094EEC
:10232400094D761B00F0D4F8B61006D0002455F8F9
:10233400043B01349847A642F9D170BD1825000822
:10234400182500082025000818250008830730B543
:1023540048D0541E002A3FD0CAB2034601E0013CD3
:102364003AD303F8012B9D07F9D1032C2DD9CDB213
:1023740045EA05250F2C45EA054536D9A4F1100296
:1023840022F00F0C03F1200EE6444FEA121C03F175
:10239400100242E9045542E9025510327245F8D15F
:1023A4000CF1010214F00C0F03EB021204F00F0CF9
:1023B40013D0ACF1040323F003030433134442F8B1
:1023C400045B9342FBD10CF003042CB1CAB21C444D
:1023D40003F8012B9C42FBD130BD64461346002C0C
:1023E400F4D1F9E703461446BFE71A46A446E0E7EA
:1023F400024B13B1024800F005B87047000000001A
:1024040015240008002301461A46184600F01AB89D
:1024140038B5084B084D5B1B9C1007D0043B1D448A
:10242400013C55F804399847002CF9D1BDE83840EF
:1024340000F054B82425000820250008704700BF88
:10244400704700BF2DE9F047DFF87CA00646DAF8B4
:10245400000098460F469146FFF7F0FF1B4B1B68A0
:10246400D3F8484124B365681F2D26DC5EB96B1C84
:102474000235DAF80000636044F82570FFF7E0FFE6
:102484000020BDE8F08704EB85010123C1F88890A2
:10249400D4F88821AB401A43022EC4F88821C1F82D
:1024A4000881E4D1D4F88C211343C4F88C31DEE7DD
:1024B40003F5A674C3F84841D5E7DAF80000FFF73E
:1024C400BFFF4FF0FF30DCE7380400200C25000884
:1024D400F8B500BFF8BC08BC9E467047F8B500BF0D
:0824E400F8BC08BC9E467047DD
:1024EC0000000000000000000102030406070809B8
:1024FC00000000000102030400061016000610166E
:04250C00100000209B
:08251000F4DCFF7F0100000074
:08251800F5230008B9010008D9
:042520009501000819
:102524000024F4000100000010000000000000007E
:1025340000000000FC02002064030020CC03002003
:102544000000000000000000000000000000000087
:102554000000000000000000000000000000000077
:102564000000000000000000000000000000000067
:102574000000000000000000000000000000000057
:102584000000000000000000000000000000000047
:102594000000000000000000000000000000000037
:1025A4000000000000000000000000000000000027
:1025B4000000000000000000000000000000000017
:1025C4000000000000000000000000000000000007
:1025D40000000000000000000100000000000000F6
:1025E4000E33CDAB34126DE6ECDE05000B000000BB
:1025F40000000000000000000000000000000000D7
:1026040000000000000000000000000000000000C6
:1026140000000000000000000000000000000000B6
:1026240000000000000000000000000000000000A6
:0C2954000000000000000000FC05002056
:0400000508000B657F
:00000001FF
