:020000040800F2
:1000000000000120215C00083D4500083F45000834
:100010004145000843450008454500080000000030
:10002000000000000000000000000000474500083C
:1000300049450008000000004B4500084D450008F8
:10004000715C0008715C0008715C0008715C00085C
:10005000715C0008715C0008715C0008715C00084C
:10006000715C0008715C0008715C0008715C00083C
:10007000715C0008715C0008715C0008715C00082C
:10008000715C0008715C0008715C000800000000F1
:1000900000000000000000000000000055450008BE
:1000A000715C0008715C0008715C0008715C0008FC
:1000B0007145000881450008715C0008715C00080A
:1000C000715C0008715C0008715C0008715C0008DC
:1000D000715C0008715C0008715C000800000000A1
:1000E00091450008715C0008715C00080000000088
:1000F000000000000000000000000000715C00082B
:1001000000000000715C0008715C0008715C000870
:1001100000000000000000000000000000000000DF
:10012000A5450008715C0008715C0008715C00085E
:10013000715C0008000000000000000000000000EA
:10014000000000000000000000000000715C0008DA
:10015000715C0008715C0008715C0008715C00084B
:10016000715C0008715C00080000000000000000E5
:10017000000000000000000000000000000000007F
:1001800000000000715C000800000000000000009A
:04019000715C000896
:1001C00010B5054C237833B9044B13B10448AFF391
:1001D00000800123237010BDE00900200000000012
:1001E000C4FA000808B5034B1BB103490348AFF339
:1001F000008008BD00000000E4090020C4FA0008E7
:1002000081F0004102E000BF83F0004330B54FEAC7
:1002100041044FEA430594EA050F08BF90EA020F34
:100220001FBF54EA000C55EA020C7FEA645C7FEAC7
:10023000655C00F0E2804FEA5454D4EB5555B8BFEA
:100240006D420CDD2C4480EA020281EA030382EA5B
:10025000000083EA010180EA020281EA0303362DED
:1002600088BF30BD11F0004F4FEA01314FF4801CC0
:100270004CEA113102D0404261EB410113F0004FD2
:100280004FEA03334CEA133302D0524263EB430389
:1002900094EA050F00F0A780A4F10104D5F1200E27
:1002A0000DDB02FA0EFC22FA05F2801841F1000182
:1002B00003FA0EF2801843FA05F359410EE0A5F156
:1002C00020050EF1200E012A03FA0EFC28BF4CF087
:1002D000020C43FA05F3C01851EBE37101F000453D
:1002E00007D54FF0000EDCF1000C7EEB00006EEB4A
:1002F0000101B1F5801F1BD3B1F5001F0CD34908D4
:100300005FEA30004FEA3C0C04F101044FEA44522A
:1003100012F5800F80F09A80BCF1004F08BF5FEAB1
:10032000500C50F1000041EB045141EA050130BD91
:100330005FEA4C0C404141EB0101013C28BFB1F5A3
:10034000801FE9D291F0000F04BF01460020B1FAEE
:1003500081F308BF2033A3F10B03B3F120020CDAC1
:100360000C3208DD02F1140CC2F10C0201FA0CF09F
:1003700021FA02F10CE002F11402D8BFC2F1200C04
:1003800001FA02F120FA0CFCDCBF41EA0C019040BA
:10039000E41AA2BF01EB0451294330BD6FEA040403
:1003A0001F3C1CDA0C340EDC04F11404C4F12002EE
:1003B00020FA04F001FA02F340EA030021FA04F300
:1003C00045EA030130BDC4F10C04C4F1200220FA57
:1003D00002F001FA04F340EA0300294630BD21FA95
:1003E00004F0294630BD94F0000F83F4801306BF5B
:1003F00081F480110134013D4EE77FEA645C18BF4F
:100400007FEA655C29D094EA050F08BF90EA020FE5
:1004100005D054EA000C04BF1946104630BD91EADD
:10042000030F1EBF0021002030BD5FEA545C05D1E0
:100430004000494128BF41F0004130BD14F580041F
:100440003CBF01F5801130BD01F0004545F0FE4193
:1004500041F470014FF0000030BD7FEA645C1ABFC8
:10046000194610467FEA655C1CBF0B46024650EAFF
:10047000013406BF52EA033591EA030F41F400212B
:1004800030BD00BF90F0000F04BF0021704730B5B1
:100490004FF4806404F132044FF000054FF0000186
:1004A00050E700BF90F0000F04BF0021704730B547
:1004B0004FF4806404F1320410F0004548BF40421C
:1004C0004FF000013EE700BF42004FEAE2014FEA71
:1004D00031014FEA02701FBF12F07F4393F07F4F4C
:1004E00081F06051704732F07F4208BF704793F04F
:1004F0007F4F04BF41F40021704730B54FF4607462
:1005000001F0004521F000411CE700BF50EA010264
:1005100008BF704730B54FF000050AE050EA01020D
:1005200008BF704730B511F0004502D5404261EB7D
:1005300041014FF4806404F132045FEA915C3FF4BE
:10054000D8AE4FF003025FEADC0C18BF03325FEA5B
:10055000DC0C18BF033202EBDC02C2F1200300FA0C
:1005600003FC20FA02F001FA03FE40EA0E0021FA31
:1005700002F11444BDE600BF4FF0FF3C06E000BFAF
:100580004FF0010C02E000BF4FF0010C4DF804CD1C
:100590004FEA410C7FEA6C5C4FEA430C18BF7FEADC
:1005A0006C5C1BD001B050EA410C0CBF52EA430C0A
:1005B00091EA030F02BF90EA020F0020704710F18A
:1005C000000F91EA030F58BF994208BF90422CBF19
:1005D000D8176FEAE37040F0010070474FEA410C12
:1005E0007FEA6C5C02D150EA013C07D14FEA430C30
:1005F0007FEA6C5CD6D152EA033CD3D05DF8040BA1
:10060000704700BF8446104662468C4619466346D2
:1006100000E000BF01B5FFF7B7FF002848BF10F1A9
:10062000000F01BD4DF808EDFFF7F4FF0CBF0120EE
:1006300000205DF808FB00BF4DF808EDFFF7EAFF6A
:1006400034BF012000205DF808FB00BF4DF808ED25
:10065000FFF7E0FF94BF012000205DF808FB00BF1A
:100660004DF808EDFFF7CEFF94BF012000205DF8A4
:1006700008FB00BF4DF808EDFFF7C4FF34BF0120B1
:1006800000205DF808FB00BF80F0004002E000BFE2
:1006900081F0004142001FBF5FEA410392EA030F6D
:1006A0007FEA226C7FEA236C6AD04FEA1262D2EBB7
:1006B0001363C1BFD218414048404140B8BF5B42BC
:1006C000192B88BF704710F0004F40F4000020F055
:1006D0007F4018BF404211F0004F41F4000121F06B
:1006E0007F4118BF494292EA030F3FD0A2F10102B5
:1006F00041FA03FC10EB0C00C3F1200301FA03F1F3
:1007000000F0004302D5494260EB4000B0F5000F15
:1007100013D3B0F1807F06D340084FEA310102F1D4
:100720000102FE2A51D2B1F1004F40EBC25008BF86
:1007300020F0010040EA03007047490040EB000050
:10074000013A28BFB0F5000FEDD2B0FA80FCACF151
:10075000080CB2EB0C0200FA0CF0AABF00EBC2507E
:1007600052421843BCBFD0401843704792F0000F6C
:1007700081F4000106BF80F400000132013BB5E7BF
:100780004FEA41037FEA226C18BF7FEA236C21D035
:1007900092EA030F04D092F0000F08BF084670479A
:1007A00090EA010F1CBF0020704712F07F4F04D168
:1007B000400028BF40F00040704712F100723CBF7B
:1007C00000F50000704700F0004343F0FE4040F4A5
:1007D000000070477FEA226216BF08467FEA236363
:1007E0000146420206BF5FEA412390EA010F40F44E
:1007F000800070474FF0000304E000BF10F000439A
:1008000048BF40425FEA000C08BF704743F0964380
:1008100001464FF000001CE050EA010208BF70479B
:100820004FF000030AE000BF50EA010208BF704722
:1008300011F0004302D5404261EB41015FEA010C37
:1008400002BF84460146002043F0B64308BFA3F12F
:100850008053A3F50003BCFA8CF2083AA3EBC25311
:1008600010DB01FA02FC634400FA02FCC2F1200230
:10087000BCF1004F20FA02F243EB020008BF20F067
:100880000100704702F1200201FA02FCC2F12002CD
:1008900050EA4C0021FA02F243EB020008BF20EAC2
:1008A000DC7070474FF0FF0C1CEAD0521EBF1CEAF0
:1008B000D15392EA0C0F93EA0C0F6FD01A4480EADE
:1008C000010C400218BF5FEA41211ED04FF00063C7
:1008D00043EA501043EA5111A0FB01310CF00040F3
:1008E000B1F5000F3EBF490041EAD3715B0040EA19
:1008F000010062F17F02FD2A1DD8B3F1004F40EBE9
:10090000C25008BF20F00100704790F0000F0CF0BB
:10091000004C08BF49024CEA502040EA51207F3A7F
:10092000C2BFD2F1FF0340EAC250704740F400005A
:100930004FF00003013A5DDC12F1190FDCBF00F04B
:1009400000407047C2F10002410021FA02F1C2F1F9
:10095000200200FA02FC5FEA310040F1000053EA95
:100960004C0308BF20EADC70704792F0000F00F0E3
:10097000004C02BF400010F4000F013AF9D040EAE9
:100980000C0093F0000F01F0004C02BF490011F47D
:10099000000F013BF9D041EA0C018FE70CEAD1537B
:1009A00092EA0C0F18BF93EA0C0F0AD030F0004CFB
:1009B00018BF31F0004CD8D180EA010000F00040AF
:1009C000704790F0000F17BF90F0004F084691F06D
:1009D000000F91F0004F14D092EA0C0F01D14202A7
:1009E0000FD193EA0C0F03D14B0218BF084608D170
:1009F00080EA010000F0004040F0FE4040F40000BA
:100A0000704740F0FE4040F4400070474FF0FF0C4C
:100A10001CEAD0521EBF1CEAD15392EA0C0F93EA93
:100A20000C0F69D0A2EB030280EA010C49024FEAE5
:100A3000402037D04FF0805343EA111143EA10139E
:100A40000CF000408B4238BF5B0042F17D024FF456
:100A5000000C8B4224BF5B1A40EA0C00B3EB510F31
:100A600024BFA3EB510340EA5C00B3EB910F24BF1A
:100A7000A3EB910340EA9C00B3EBD10F24BFA3EB9F
:100A8000D10340EADC001B0118BF5FEA1C1CE0D167
:100A9000FD2A3FF650AF8B4240EBC25008BF20F01A
:100AA000010070470CF0004C4CEA50207F32C2BF6E
:100AB000D2F1FF0340EAC250704740F400004FF00B
:100AC0000003013A37E792F0000F00F0004C02BF3C
:100AD000400010F4000F013AF9D040EA0C0093F006
:100AE000000F01F0004C02BF490011F4000F013B60
:100AF000F9D041EA0C0195E70CEAD15392EA0C0FC8
:100B000008D142027FF47DAF93EA0C0F7FF470AFFF
:100B1000084676E793EA0C0F04D14B023FF44CAF42
:100B200008466EE730F0004C18BF31F0004CCAD1D7
:100B300030F000427FF45CAF31F000437FF43CAF13
:100B40005FE700BF4FF0FF3C06E000BF4FF0010C35
:100B500002E000BF4FF0010C4DF804CD4FEA400217
:100B60004FEA41037FEA226C18BF7FEA236C11D061
:100B700001B052EA530C18BF90EA010F58BFB2EB14
:100B8000030088BFC81738BF6FEAE17018BF40F094
:100B9000010070477FEA226C02D15FEA402C05D148
:100BA0007FEA236CE4D15FEA412CE1D05DF8040BCD
:100BB000704700BF844608466146FFE70FB5FFF760
:100BC000C9FF002848BF10F1000F0FBD4DF808ED18
:100BD000FFF7F4FF0CBF012000205DF808FB00BF09
:100BE0004DF808EDFFF7EAFF34BF012000205DF863
:100BF00008FB00BF4DF808EDFFF7E0FF94BF0120B0
:100C000000205DF808FB00BF4DF808EDFFF7D2FFAC
:100C100094BF012000205DF808FB00BF4DF808EDEF
:100C2000FFF7C8FF34BF012000205DF808FB00BFBC
:100C300042000ED2B2F1FE4F0BD34FF09E03B3EB46
:100C4000126209D44FEA002343F0004323FA02F072
:100C500070474FF00000704712F1610F01D142025E
:100C600002D14FF0FF3070474FF00000704700BFD7
:100C700053B94AB9002908BF00281CBF4FF0FF3103
:100C80004FF0FF3000F094B9ADF1080C6DE904CEDF
:100C900000F026F8DDF804E0DDE9022304B0704737
:100CA000D0B5FFF711FC0C4B002206460F4600F0B2
:100CB00001FB00F07FF90446FFF7E4FB074B00223D
:100CC00000F0F8FA02460B4630463946FFF79CFA28
:100CD00000F070F92146D0BD0000F03D0000F04169
:100CE0002DE9F047089E0D4604468846002B4DD15D
:100CF0008A42944668D9B2FA82F252B101FA02F3FA
:100D0000C2F1200120FA01F10CFA02FC41EA0308C9
:100D100094404FEA1C45210CB8FBF5FE1FFA8CF7F6
:100D200005FB1E8341EA03430EFB07F199420BD9F1
:100D30001CEB03030EF1FF3080F01E81994240F25C
:100D40001B81AEF1020E63445B1AA4B2B3FBF5F053
:100D500005FB103344EA034400FB07F7A7420AD916
:100D60001CEB040400F1FF3380F00881A74240F23D
:100D7000058164440238E41B40EA0E4000211EB1A4
:100D8000D4400023C6E90043BDE8F0878B4208D970
:100D9000002E00F0EE800021C6E900050846BDE8FF
:100DA000F087B3FA83F100294AD1AB4202D38242E1
:100DB00000F2F980841A65EB030301209846002EA7
:100DC000E2D0C6E90048DFE702B9FFDEB2FA82F2FC
:100DD000002A40F09180A1EB0C054FEA1C471FFA56
:100DE0008CFE0121B5FBF7F307FB1350250C45EAF8
:100DF00000450EFB03F0A84208D91CEB050503F1E2
:100E0000FF3802D2A84200F2CB8043462D1AA4B28A
:100E1000B5FBF7F007FB105544EA05440EFB00FE56
:100E2000A64508D91CEB040400F1FF3502D2A64503
:100E300000F2BB802846A4EB0E0440EA03409EE784
:100E4000C1F120078B4022FA07FC4CEA030C20FA80
:100E500007F405FA01F31C43FD404FEA1C4900FA70
:100E600001F3B5FBF9F8200C1FFA8CFE09FB1855AD
:100E700040EA054508FB0EF0A84202FA01F20BD940
:100E80001CEB050508F1FF3A80F08880A84240F28B
:100E90008580A8F1020865442D1AA4B2B5FBF9F0CB
:100EA00009FB105544EA054500FB0EFEAE4508D986
:100EB0001CEB050500F1FF346CD2AE456AD902384F
:100EC000654440EA0840A0FB0294A5EB0E05A5424C
:100ED000C846A64656D353D05EB1B3EB080265EBC5
:100EE0000E0505FA07F722FA01F3CD401F43C6E9C4
:100EF00000750021BDE8F087C2F1200320FA03F15C
:100F00000CFA02FC25FA03F395400D434FEA1C4707
:100F10001FFA8CFEB3FBF7F107FB11302B0C43EAF1
:100F2000004301FB0EF0984204FA02F408D91CEBCE
:100F3000030301F1FF382FD298422DD902396344BF
:100F40001B1AADB2B3FBF7F007FB103345EA0345BC
:100F500000FB0EF3AB4208D91CEB050500F1FF388E
:100F600016D2AB4214D902386544ED1A40EA014169
:100F700038E73146304607E78646E5E61846FAE6A2
:100F80004B45A9D2B9EB020864EB0C0E0138A3E77C
:100F90004046EAE7204694E74146D1E7D0467BE762
:100FA000023B654432E7084609E76444023842E7F9
:100FB000704700BF4A0011D212F5001211D20DD5B0
:100FC0006FF47873B3EB62520ED44FEAC12343F04F
:100FD000004343EA505323FA02F070474FF00000F9
:100FE000704750EA013002D14FF0FF3070474FF0A8
:100FF000000070470000000000000000000000003A
:1010000090F800F06DE9024520F007016FF0000C48
:1010100010F0070491F820F040F049804FF00004F0
:101020006FF00700D1E9002391F840F000F10800CB
:1010300082FA4CF2A4FA8CF283FA4CF3A2FA8CF303
:101040004BBBD1E9022382FA4CF200F10800A4FA6A
:101050008CF283FA4CF3A2FA8CF3E3B9D1E90423BE
:1010600082FA4CF200F10800A4FA8CF283FA4CF3F5
:10107000A2FA8CF37BB9D1E9062301F1200182FAAF
:101080004CF200F10800A4FA8CF283FA4CF3A2FAB5
:101090008CF3002BC6D0002A04BF04301A4612BAC3
:1010A000B2FA82F2FDE8024500EBD2007047D1E9C6
:1010B000002304F00305C4F100004FEAC50514F055
:1010C000040F91F840F00CFA05F562EA05021CBF26
:1010D00063EA050362464FF00004A9E70000000040
:1010E00001F0FF01102A2BDB10F0070F08D010F8D9
:1010F000013B013A8B422DD010F0070F42B3F6D1DD
:10110000F0B441EA012141EA014122F007047FF0F5
:1011100000070023F0E80256083C85EA010586EA4C
:10112000010685FA47F5A3FA87F586FA47F6A5FA88
:1011300087F68EB9EED1F0BC01F0FF0102F0070294
:1011400032B110F8013B013A83EA010313B1F8D13F
:101150000020704701387047002D06BF3546033820
:10116000073815F0010F07D1013015F4807F02BF59
:10117000013015F4C03F0130F0BC0138704700BFAA
:10118000844641EA000313F003036DD1403A41D392
:1011900051F8043B40F8043B51F8043B40F8043B51
:1011A00051F8043B40F8043B51F8043B40F8043B41
:1011B00051F8043B40F8043B51F8043B40F8043B31
:1011C00051F8043B40F8043B51F8043B40F8043B21
:1011D00051F8043B40F8043B51F8043B40F8043B11
:1011E00051F8043B40F8043B51F8043B40F8043B01
:1011F00051F8043B40F8043B51F8043B40F8043BF1
:1012000051F8043B40F8043B51F8043B40F8043BE0
:10121000403ABDD2303211D351F8043B40F8043B80
:1012200051F8043B40F8043B51F8043B40F8043BC0
:1012300051F8043B40F8043B103AEDD20C3205D390
:1012400051F8043B40F8043B043AF9D2043208D088
:10125000D2071CBF11F8013B00F8013B01D30B88FA
:1012600003806046704700BF082A13D38B078DD0D8
:1012700010F003038AD0C3F10403D21ADB071CBFAA
:1012800011F8013B00F8013B80D331F8023B20F814
:10129000023B7BE7043AD9D3013A11F8013B00F84D
:1012A000013BF9D20B7803704B7843708B788370D5
:1012B0006046704770B54FF0FF0C4CF4E06C1CEAD0
:1012C00011541DBF1CEA135594EA0C0F95EA0C0F3C
:1012D00000F0DEF82C4481EA030621EA4C5123EAAF
:1012E0004C5350EA013518BF52EA033541F48011DE
:1012F00043F4801338D0A0FB02CE4FF00005E1FB91
:1013000002E506F00042E0FB03E54FF00006E1FBDA
:1013100003569CF0000F18BF4EF0010EA4F1FF041D
:10132000B6F5007F64F5407404D25FEA4E0E6D415D
:1013300046EB060642EAC62141EA55514FEAC5206E
:1013400040EA5E504FEACE2EB4F1FD0C88BFBCF5EA
:10135000E06F1ED8BEF1004F08BF5FEA500E50F19B
:10136000000041EB045170BD06F0004646EA010161
:1013700040EA020081EA0301B4EB5C04C2BFD4EB93
:101380000C0541EA045170BD41F480114FF0000E8C
:10139000013C00F3AB8014F1360FDEBF002001F0FA
:1013A000004170BDC4F10004203C35DA0C341BDC74
:1013B00004F11404C4F1200500FA05F320FA04F046
:1013C00001FA05F240EA020001F0004221F000417A
:1013D00010EBD37021FA04F642EB06015EEA430EED
:1013E00008BF20EAD37070BDC4F10C04C4F120051D
:1013F00000FA04F320FA05F001FA04F240EA0200D0
:1014000001F0004110EBD37041F100015EEA430EA0
:1014100008BF20EAD37070BDC4F1200500FA05F2C0
:101420004EEA020E20FA04F301FA05F243EA02033F
:1014300021FA04F001F0004121FA04F220EA02004E
:1014400000EBD3705EEA430E08BF20EAD37070BD94
:1014500094F0000F0FD101F00046400041EB010174
:1014600011F4801F08BF013CF7D041EA060195F056
:10147000000F18BF704703F00046520043EB030310
:1014800013F4801F08BF013DF7D043EA06037047FD
:1014900094EA0C0F0CEA135518BF95EA0C0F0CD008
:1014A00050EA410618BF52EA4306D1D181EA03014E
:1014B00001F000414FF0000070BD50EA410606BF48
:1014C0001046194652EA430619D094EA0C0F02D18D
:1014D00050EA013613D195EA0C0F05D152EA0336D2
:1014E0001CBF104619460AD181EA030101F00041F0
:1014F00041F0FE4141F470014FF0000070BD41F039
:10150000FE4141F4780170BD70B54FF0FF0C4CF412
:10151000E06C1CEA11541DBF1CEA135594EA0C0F31
:1015200095EA0C0F00F0A7F8A4EB050481EA030E7E
:1015300052EA03354FEA013100F088804FEA033365
:101540004FF0805545EA131343EA12634FEA022233
:1015500045EA111545EA10654FEA00260EF00041F4
:101560009D4208BF964244F1FD0404F5407402D246
:101570005B084FEA3202B61A65EB03055B084FEAD7
:1015800032024FF480104FF4002CB6EB020E75EBD4
:10159000030E22BFB61A754640EA0C005B084FEAFC
:1015A0003202B6EB020E75EB030E22BFB61A754679
:1015B00040EA5C005B084FEA3202B6EB020E75EBC4
:1015C000030E22BFB61A754640EA9C005B084FEA3C
:1015D0003202B6EB020E75EB030E22BFB61A754649
:1015E00040EADC0055EA060E18D04FEA051545EA38
:1015F00016754FEA06164FEAC30343EA52734FEAE1
:10160000C2025FEA1C1CC0D111F4801F0BD141EA59
:1016100000014FF000004FF0004CB6E711F4801FBE
:1016200004BF01430020B4F1FD0C88BFBCF5E06F9E
:101630003FF6AFAEB5EB030C04BFB6EB020C5FEAAE
:10164000500C50F1000041EB045170BD0EF0004E03
:101650004EEA113114EB5C04C2BFD4EB0C0541EA35
:10166000045170BD41F480114FF0000E013C90E632
:1016700045EA060E8DE60CEA135594EA0C0F08BFF6
:1016800095EA0C0F3FF43BAF94EA0C0F0AD150EAF5
:1016900001347FF434AF95EA0C0F7FF425AF104688
:1016A00019462CE795EA0C0F06D152EA03353FF4B0
:1016B000FDAE1046194622E750EA410618BF52EA2D
:1016C00043067FF4C5AE50EA41047FF40DAF52EA01
:1016D00043057FF4EBAE12E74FEA410C7FEA6C5C06
:1016E00002D150EA013C0AD14FEA430C7FEA6C5C1C
:1016F00002D152EA033C02D14FF0000070474FF094
:10170000010070474FEA410212F5001215D211D5BF
:101710006FF47873B3EB625212D94FEAC12343F0EE
:10172000004343EA505311F0004F23FA02F018BF70
:10173000404270474FF00000704750EA013005D139
:1017400011F0004008BF6FF0004070474FF00000FC
:10175000704700BF10B582B08DF807000E4C002214
:101760004FF40061204605F0EEFA00224FF480515C
:10177000204605F0E8FA4FF0FF3301220DF1070192
:10178000064805F01EFF01224FF48051204605F067
:10179000DAFA02B010BD00BF000002405C0B00206E
:1017A00010B582B08DF807000E4C01224FF4006195
:1017B000204605F0C8FA00224FF48051204605F07B
:1017C000C2FA4FF0FF3301220DF10701064805F080
:1017D000F8FE01224FF48051204605F0B4FA02B021
:1017E00010BD00BF000002405C0B002008B5024B9A
:1017F000187AFFF7AFFF08BD000A002010B582B0CD
:10180000030A8DF804308DF805000E4C00224FF4C9
:101810008051204605F097FA01224FF400612046DE
:1018200005F091FA4FF0FF33022201A9064805F0B6
:10183000C8FE01224FF48051204605F084FA02B020
:1018400010BD00BF000002405C0B002070B50546D3
:101850000C460A4EB07AFFF77DFF280AFFF7A0FF7B
:10186000E8B2FFF79DFF307BFFF774FF200AFFF718
:1018700097FFE0B2FFF794FF70BD00BF000A0020A1
:1018800010B50C46C0B2FFF765FF2046FFF7B6FF64
:1018900010BD000008B5FFF7D9FFFFF7A7FF024B07
:1018A0001888FFF7ABFF08BDFC09002010B51446EF
:1018B000FFF7CCFF2146024B1889FFF7E1FF10BD6F
:1018C000000A00202DE9F04F83B0824688461F466B
:1018D0009DF830B0002513F0070318BF012303EB78
:1018E000D703790811FB03F3DBB20093203AD3B29C
:1018F00001934446A94636E0214B019A03EB0213BB
:1019000013F8095036E01F4B1A8821465046FFF75E
:10191000CDFF6D00EDB20134A4B21B4B5B88A34236
:101920002AD9A4EB0803BB4210D00136F6B2072E29
:1019300015D815F0800FE6D1BBF1000FE9D1134B9C
:101940001A8821465046FFF7B1FFE2E70AF1010A83
:101950001FFA8AFA0C4B1B8853450DD9444609F1EE
:1019600001095FFA89F9009B994505D2102FC3D070
:10197000182F01D10026DAE703B0BDE8F08F00BFD1
:10198000280B0108FC090020000A002000000020AC
:101990002DE9F04F83B00746884614461E469DF851
:1019A00030A0814600252278A2B3002DFBD11B4B2D
:1019B0001B884FEA560BA3EB560399452ADC174BBD
:1019C0005B889B1B984525DC802A01D90125EAE725
:1019D0000D2A0DD0172E12D9CDF800A0182341469C
:1019E0004846FFF76FFF09F10C091FFA89F904E077
:1019F000B0441FFA88F80134B9460134D3E7CDF872
:101A000000A0334641464846FFF75CFFD9441FFA21
:101A100089F9F2E703B0BDE8F08F00BF000A0020AB
:101A20000246012002E002FB00F019464B1EDBB229
:101A30000029F8D1704700002DE9F04782B08246B6
:101A4000894690461D469DF8286000273C4619E0CF
:101A5000700800FB04A0002300933346202249466F
:101A600080B2FFF72FFF0BE07008303200FB04A0BC
:101A7000002300933346D2B2494680B2FFF722FFDB
:101A80000134E4B2AC421CD2291BC9B20139C9B23B
:101A90000A20FFF7C5FFB8FBF0F00B4AA2FB003CA1
:101AA0004FEADC0C0CEB8C0CA0EB4C0C5FFA8CF2CC
:101AB000002FD9D16B1E9C42D6DA002AC8D001274C
:101AC000D2E702B0BDE8F087CDCCCCCC70B50646ED
:101AD000094B1A885D8802FB05F500210846FFF7CF
:101AE000B5FEFFF783FE002403E03046FFF786FED5
:101AF0000134AC42F9D370BD000A002010B5714C1E
:101B000001224FF48071204605F01DF9012004F0F8
:101B100003F900224FF48071204605F014F90A20E1
:101B200004F0FAF801224FF48071204605F00BF919
:101B3000782004F0F1F8782004F0EEF81120FFF797
:101B400009FE782004F0E8F8F020FFF703FEC32038
:101B5000FFF726FEF020FFF7FDFD9620FFF720FEA1
:101B60003620FFF7F7FD4820FFF71AFE3A20FFF76F
:101B7000F1FD5520FFF714FEB420FFF7EBFD012027
:101B8000FFF70EFEB720FFF7E5FDC620FFF708FEC2
:101B9000E820FFF7DFFD4020FFF702FE8A20FFF775
:101BA000FFFD0020FFF7FCFD0020FFF7F9FD2920D5
:101BB000FFF7F6FD1920FFF7F3FDA520FFF7F0FD75
:101BC0003320FFF7EDFDC120FFF7C4FD0620FFF72E
:101BD000E7FDC220FFF7BEFDA720FFF7E1FDC5200E
:101BE000FFF7B8FD1820FFF7DBFDE020FFF7B2FD9F
:101BF000F020FFF7D5FD0920FFF7D2FD0B20FFF7FE
:101C0000CFFD0620FFF7CCFD0420FFF7C9FD15200E
:101C1000FFF7C6FD2F20FFF7C3FD5420FFF7C0FDDF
:101C20004220FFF7BDFD3C20FFF7BAFD1720FFF76C
:101C3000B7FD1420FFF7B4FD1820FFF7B1FD1B20FE
:101C4000FFF7AEFDE120FFF785FDF020FFF7A8FDCF
:101C50000920FFF7A5FD0B20FFF7A2FD0620FFF7E7
:101C60009FFD0420FFF79CFD0320FFF799FD2D2029
:101C7000FFF796FD4320FFF793FD4220FFF790FD0D
:101C80003B20FFF78DFD1620FFF78AFD1420FFF79C
:101C900087FD1720FFF784FD1B20FFF781FDF02053
:101CA000FFF758FD3C20FFF77BFDF020FFF752FDCA
:101CB0006920FFF775FD782004F02EF82920FFF742
:101CC00049FD10BD0000024010B501282DD9831E2A
:101CD000DBB2012B47D9334CA07AFFF73BFD002044
:101CE000FFF75EFD0020FFF75BFD20880138C0F3A1
:101CF0000720FFF755FD20780138C0B2FFF750FDEF
:101D0000207BFFF727FD0020FFF74AFD0020FFF7AB
:101D100047FD60880138C0F30720FFF741FDA07838
:101D20000138C0B2FFF73CFD10BD1E4B00229A7176
:101D30004FF4A0721A804FF4F0725A802C221A814C
:101D40002A225A812B229A8130B93620FFF702FDD0
:101D50004820FFF725FDBEE73620FFF7FBFC882073
:101D6000FFF71EFDB7E70F4B01229A714FF4F07297
:101D70001A804FF4A0725A802C221A812A225A818A
:101D80002B229A81022806D03620FFF7E3FC282078
:101D9000FFF706FD9FE73620FFF7DCFCE820FFF7A2
:101DA000FFFC98E7000A002008B501224FF40071FB
:101DB000014804F0C8FF08BD000802402DE9F04FBB
:101DC00083B08046A2EB000A8946A3EB010BBAF16F
:101DD000000F0DDD01220092BBF1000F14DD012385
:101DE0000193DA451CDD564600252F462C461BE0A4
:101DF000BAF1000F05D0A0EB020A4FF0FF320092BB
:101E0000EAE7CDF800A0E7E7BBF1000F05D0A1EBB2
:101E1000030B4FF0FF330193E3E7CDF804B0E0E7A5
:101E20005E46E1E70134A4B2731C9C4212DC1FFA47
:101E300089F11FFA88F0FFF72DFD57445D44BE423B
:101E400002DABF1B009B9844AE42EBDAAD1B019B4C
:101E50009944E7E703B0BDE8F08FF8B507460E46B2
:101E600015461C460B46FFF7A9FF23463A46314666
:101E70003846FFF7A3FF23462A4621463846FFF798
:101E80009DFF23462A4631462846FFF797FFF8BDB7
:101E90002DE9F04383B080460F469946BDF828608F
:101EA000204B998846F60403994205D0A2EB080519
:101EB000ADB20135ADB22BE01A4B9B79012BF5D1B8
:101EC000184C2388991A89B201391B1A9BB2013B1D
:101ED0000022A2712A2565814FF02B08A4F80C80FE
:101EE00000969BB24A4689B23846FFF7D1FF0123DC
:101EF000A371A4F80A80A58103B0BDE8F083304641
:101F0000FFF77CFC0134A4B2AC42F8D30137BFB276
:101F10004F45F1D839464046FFF798FCFFF766FC7D
:101F20000024F1E7000A002070B586B004460D4693
:101F30001E461046FEF7C8FA02460B46074903A89C
:101F400006F036F99DF828300093334603AA294657
:101F50002046FFF71DFD06B070BD00BFE0FA000887
:101F60002DE9F84380468946A2F12E032C2B65D833
:101F7000DFE803F0605E1766191C1E202224262865
:101F8000626464646464642A2C2E30323436383AD5
:101F90003C3E40424446484A4C4E50525456585A91
:101FA0005C00002700E00227002660E00327FBE733
:101FB0000427F9E70527F7E70627F5E70727F3E7FB
:101FC0000827F1E70927EFE70A27EDE70B27EBE7FB
:101FD0000C27E9E70D27E7E70E27E5E70F27E3E7FB
:101FE0001027E1E71127DFE71227DDE71327DBE7FB
:101FF0001427D9E71527D7E71627D5E71727D3E7FB
:102000001827D1E71927CFE71A27CDE71B27CBE7FA
:102010001C27C9E71D27C7E71E27C5E71F27C3E7FA
:102020002027C1E72127BFE72227BDE72327BBE7FA
:102030002427B9E72527B7E72627B5E7FF27B3E722
:102040000127B1E76D080134E4B2092C0DD815F071
:10205000010FF7D009EB060108EB04000F4B1A88BB
:1020600089B280B2FFF722FCECE70136F6B2132EFC
:1020700012D8720001320A4B07EB870103EBC10152
:102080008A5C07EB870103EBC10313F8165005EBDD
:102090000225ADB20024D8E7BDE8F883FC09002092
:1020A000E8FA000870B504460E46154606E03146CB
:1020B0002046FFF755FF0A34A4B201352A78002ADA
:1020C000F5D170BD2DE9F047804689461F46A2F143
:1020D0002E03462B00F29F80DFE803F0918E24A0B0
:1020E000272B2E3134373A3D949D9D9D9D9D9D40DB
:1020F0004346494C4F5255585B5E6164676A6D7048
:102100007376797C7F8285888B9D9D9D9D9D9D9D0D
:102110009D9D9D9D9D9D9D9D9D9D9D9D979D9D9DF5
:102120009D9D9A004FF0000A01E04FF0020A002640
:1021300098E04FF0030AFAE74FF0040AF7E74FF090
:10214000050AF4E74FF0060AF1E74FF0070AEEE759
:102150004FF0080AEBE74FF0090AE8E74FF00A0AE8
:10216000E5E74FF00B0AE2E74FF00C0ADFE74FF02C
:102170000D0ADCE74FF00E0AD9E74FF00F0AD6E759
:102180004FF0100AD3E74FF0110AD0E74FF0120AD0
:10219000CDE74FF0130ACAE74FF0140AC7E74FF034
:1021A000150AC4E74FF0160AC1E74FF0170ABEE759
:1021B0004FF0180ABBE74FF0190AB8E74FF01A0AB8
:1021C000B5E74FF01B0AB2E74FF01C0AAFE74FF03C
:1021D0001D0AACE74FF01E0AA9E74FF01F0AA6E759
:1021E0004FF0200AA3E74FF0210AA0E74FF0220AA0
:1021F0009DE74FF0230A9AE74FF0240A97E74FF044
:10220000250A94E74FF0260A91E74FF0270A8EE758
:102210004FF0280A8BE74FF0FF0A88E74FF0010ADA
:1022200085E709EB060108EB04001A4B1A8889B20E
:1022300080B2FFF73BFB6D080134E4B2092C0FD8E4
:1022400015F0010FEDD1002FF5D009EB060108EBD9
:102250000400114B1A8889B280B2FFF727FBEAE726
:102260000136F6B2132E12D8720001320B4B0AEB74
:102270008A0103EBC1018A5C0AEB8A0103EBC1030B
:1022800013F8165005EB0225ADB20024D6E7BDE8E1
:10229000F08700BFFC09002000000020C0040108F6
:1022A000F8B504460F4615461E4607E03346394644
:1022B0002046FFF707FF0A34A4B201352A78002A26
:1022C000F4D1F8BD2DE9F84307468846312A05D0F8
:1022D000322A06D14FF00109002619E04FF000091B
:1022E000FAE74FF0FF09F7E76D080134E4B2072C75
:1022F0000CD815F0010FF7D008EB060138190A4B7E
:102300001A8889B280B2FFF7D1FAEDE70136F6B24A
:102310000B2E07D809EB4903044A02EB83039D5DAA
:102320000024E4E7BDE8F883FC090020000401086C
:102330002DE9F84307468846A2F12E03282B38D80A
:10234000DFE803F031372E153A181C1F2225282B01
:10235000373737373737373737373737373737370D
:1023600037373737373737373737373734004FF066
:10237000000901E04FF0020900263DE04FF003099B
:10238000FAE74FF00409F7E74FF00509F4E74FF0DB
:102390000609F1E74FF00709EEE74FF00809EBE710
:1023A0004FF00909E8E74FF00A09E5E74FF00B099C
:1023B000E2E74FF0FF09DFE74FF00109DCE708EB48
:1023C00006013819124B1A8889B280B2FFF76EFAEB
:1023D0006D080134E4B2062C0CD815F0010FEED0D4
:1023E00008EB060138190B4B1A8889B280B2FFF747
:1023F0005DFAEDE70136F6B20D2E07D8C9EBC90339
:10240000054A02EB43039D5D0024E4E7BDE8F88341
:1024100000000020FC0900201804010870B50446E3
:102420000E46154606E031462046FFF781FF083488
:10243000A4B201352A78002AF5D170BD2DE9F84300
:1024400007468846A2F12E03282B38D8DFE803F090
:1024500031372E153A181C1F2225282B37373737CE
:1024600037373737373737373737373737373737FC
:10247000373737373737373734004FF0000901E047
:102480004FF00209002634E04FF00309FAE74FF05D
:102490000409F7E74FF00509F4E74FF00609F1E703
:1024A0004FF00709EEE74FF00809EBE74FF0090995
:1024B000E8E74FF00A09E5E74FF00B09E2E74FF0D4
:1024C000FF09DFE74FF00109DCE708EB06013819E7
:1024D000104B1A8889B280B2FFF7E8F96D08013411
:1024E000E4B20D2C03D815F0010FF7D0EDE701365B
:1024F000F6B21B2E0CD872000132074B03EB891386
:102500009A5C13F8165005EB0225ADB20024E8E7FB
:10251000BDE8F883FC0900200001010870B50446FD
:102520000E46154606E031462046FFF787FF0E347B
:10253000A4B201352A78002AF5D170BD00B585B066
:10254000002300930193029303932E482E4A0260C6
:102550004FF480324260836001220261027680F88B
:102560002030C36229498162C3600523C36180F8BA
:102570003020426103F07EFC002831D10323009318
:10258000012301930723029369461E4803F09CFD33
:1025900048BB04230093022301936946194803F0C2
:1025A00093FD18BB05230093032301936946154847
:1025B00003F08AFDE8B906230093042301936946DA
:1025C000104803F081FDB8B9072300930523019358
:1025D00069460C4803F078FD88B905B05DF804FB46
:1025E00001F0F2FDCAE701F0EFFDD2E701F0ECFDEA
:1025F000D8E701F0E9FDDEE701F0E6FDE4E701F0F0
:10260000E3FDEAE7100A0020002001400100000F6E
:1026100030B589B000230393049305930693079381
:10262000026803F1804303F590339A4201D009B068
:1026300030BD04460025019503F58C335A6C42F4F5
:1026400080725A645A6C02F480720192019A029567
:102650001A6B42F001021A631B6B03F00103029331
:10266000029BF82303930323049303A9104804F067
:1026700083FA1048104B036045608560C5604FF4D5
:10268000806303614FF4805343614FF4804383615F
:102690004FF48073C3610562456203F0FFFE18B911
:1026A000044BA3639C63C2E701F08EFDF8E700BF13
:1026B00000000240580A00201064024008B5054896
:1026C000054B036003F038FE00B908BD01F07CFD46
:1026D000FBE700BFB80A0020003002400268094B47
:1026E0009A4200D0704782B000230193064B1A6BC8
:1026F00042F480521A631B6B03F480530193019BD5
:1027000002B07047003002400038024000B583B08C
:1027100000210191094B1A6B42F480021A631B6B72
:1027200003F480030193019B0A46382003F0AAFDBD
:10273000382003F0DFFD03B05DF804FB00380240F1
:10274000002318462C33B3F5003F08D800F100628F
:1027500002F500321168034A9142F2D070474FF4FB
:102760000030FBE72FCB040008B501460A220248DF
:1027700003F0F1FD08BD00BFB80A00202DE9F04FBD
:102780008FB083464FF00008CDF80480464644469B
:1027900015E003A8FFF7E8FF874204D074B9314879
:1027A00005F0BAFC0AE0049BB34207D901941E4627
:1027B0004FF0010802E02C4805F04CFC2C4604F1D7
:1027C0002C05B5F5003F2AD804F1006303F500336A
:1027D0009E460DF10C0C03F1200AE146DEF80000E4
:1027E000DEF80410DEF80820DEF80C30A9E80F004F
:1027F0000EF1100ECC46D645EFD14B46DEF8000068
:10280000DEF80410DEF8082007C3059F00230593B7
:102810000399164B9942BCD0002CCFD1CBE7B8F12D
:10282000000F03D140460FB0BDE8F08F019B03F1CC
:10283000006707F50037584607F120053C687968BE
:10284000BA68FB68046041608260C3601037103072
:10285000AF42F3D139687A68BB6801604260836037
:10286000E0E700BF18110108281101082FCB040070
:1028700010B58CB0044601A8FFF780FF049B2360CD
:10288000059B6360069BA360079BE360089B236135
:10289000099B63610A9BA3610B9BE3610CB010BDB4
:1028A00010B586B0124805F037FC04F01FF800237D
:1028B00001930523039301230493022205920293BB
:1028C000694601A804F00EF9044604F027F854B153
:1028D0002146084805F0BEFB0023074A1360074A5B
:1028E000136006B010BD064805F016FCF4E700BF03
:1028F0003811010854110108C00A0020C40A002040
:102900006811010810B58CB001A8FFF737FF90B12E
:10291000029C0E4B1C60FFF713FF03460C4A10602D
:10292000A0F12C0221460B4805F094FB0A4B012232
:102930001A700CB010BD0023044A1360044A1360DF
:10294000064805F0E9FBFFF7ABFFEFE7C00A002000
:10295000C40A00207C110108C80A0020C81101081F
:1029600084B030B58DB010AC84E80F00354B1B78C7
:10297000002B3DD0344B1B682C33B3F5003F3AD8C5
:10298000324B0193324B1B680133029300230393B4
:10299000109B0493119B0593129B0693139B079323
:1029A000149B0893159B0993169B0A93179B0B93F3
:1029B00001A8FFF7D9FE039003F098FF014600BB82
:1029C000214B1D6805F1006505F5003500240A2C32
:1029D00024D80CAB03EB840353F82C2C002305EB19
:1029E0008401022003F0D4FF024678B90134EEE7F7
:1029F000FFF788FFBEE7174805F08EFBFFF750FF93
:102A0000BEE7154805F026FB002015E021461348D7
:102A100005F020FB03F082FF00200DE003F07EFFB5
:102A20000B4B196801311960074B1A682C321A6078
:102A30000B4805F00FFB01200DB0BDE8304004B09D
:102A4000704700BFC80A0020C40A00202FCB040032
:102A5000C00A0020EC110108081201082412010824
:102A60004C1201082DE9F0438BB000240594069424
:102A70000794089409940194464B1A6B42F004029F
:102A80001A631A6B02F004020192019A02941A6B03
:102A900042F080021A631A6B02F080020292029ADC
:102AA00003941A6B42F001021A631A6B02F00102DE
:102AB0000392039A04941A6B42F002021A631B6B8E
:102AC00003F002030493049B334E224642F2112189
:102AD000304604F038F9314F224646F2F0113846BC
:102AE00004F031F9DFF8B88022464FF4C85140466F
:102AF00004F029F942F21123059301250695079464
:102B0000089405A9304604F037F84FF412430593B2
:102B10004FF40419CDF81890079505A9384604F02C
:102B20002BF846F2F013059306950794089405A92F
:102B3000384604F021F84FF4A0730593CDF81890AF
:102B4000079505A9304604F017F8802305930694ED
:102B5000079505A9304604F00FF84FF4C8530593C4
:102B600006950794089405A9404604F005F8224606
:102B70002146172003F086FB172003F0BBFB2246FB
:102B80002146282003F07EFB282003F0B3FB0BB086
:102B9000BDE8F08300380240000802400004024013
:102BA0000000024000B58DB02449254B1868FDF7A0
:102BB00079FEFEF73DF804902049224B1868FDF796
:102BC00071FEFEF735F805901C491F4B1868FDF79C
:102BD00069FEFEF72DF8069018491C4B1868FDF7A2
:102BE00061FEFEF725F807901449194B1868FDF7A8
:102BF00059FEFEF71DF80890164B1B780993164BEB
:102C00001B680A9343F239030B930CAB13E90F00D3
:102C10008DE80F0004AB0FCBFFF7A2FE0F4B1A6835
:102C200001321A60102300930A2346214FF4B67034
:102C3000FEF702FF0DB05DF804FB00BF000020416D
:102C400004000020180000200800002014000020CC
:102C50000C000020220B0020180B0020E40A0020AA
:102C600000B583B001904FF0FF33012201A9034862
:102C700005F007F9019803B05DF804FB480C00204B
:102C8000044B1968044A1268506A1B688B42F7D1DA
:102C9000704700BF540B0020B80B002008B5024855
:102CA00004F098FD08BD00BF000C002008B50368C3
:102CB000B3F1804F04D002680D4B9A4205D008BD95
:102CC0000C4A136801331360F5E710210A4804F039
:102CD00040F80A4A13780133DBB21370232BEED984
:102CE000134600221A70064804F0B0FDE7E700BF63
:102CF00000040040540B002000080240E00A0020BD
:102D0000000C002010B5FFF7BBFF184A136852688B
:102D1000174C1B1942F10002834272EB010301D3ED
:102D2000002010BD114B18605960124B1A8840F2F8
:102D3000DB539A4207D90F4B1A8840F2A4639A4298
:102D40000AD80120EDE70C4805F0E6F9012211460A
:102D50000A4803F0F8FFEEE7094805F0DDF9002224
:102D60000121064803F0EFFFEBE700BF480B00200E
:102D700040420F00200B002078120108000802409A
:102D800080120108F8B54FF07C512C4B1868FDF704
:102D900089FD2B49FDF786FDFDF74AFF294B188079
:102DA000294B1868FDF726FD2849FDF77BFD4FF0FC
:102DB0006651FDF777FDFDF73BFF254B188000249A
:102DC0001BE0FDF71BFD2349FDF76CFD0746304670
:102DD000FDF714FD2049FDF765FD01463846FDF776
:102DE00059FCFDF725FF1D4B23F814001B4B33F84E
:102DF00014201B4B23F814202C46032C1DDC651CCF
:102E0000114B53F82500FDF7F5FC1649FDF74AFD77
:102E10004FF06651FDF746FD1349FDF743FD0849A4
:102E2000FDF740FDFDF704FF80B20C4B33F8146052
:102E3000002EC6D123F81400D8E7F8BD0400002006
:102E400000007A441E0B0020F80A002000404E4586
:102E5000200B0020CDCCCC3D6666663FEC0A0020FE
:102E6000100B002033335340CDCCCC3F08B5026863
:102E7000054B9A4200D008BD4FF40051034803F0BF
:102E800068FFFFF77FFFF6E70020014000080240DF
:102E90002DE9F04182B0002630464FF6FF743546EA
:102EA000334603E0104480B20133DBB2032B0AD86F
:102EB0008B4A32F81320AA4201D91E461546A24277
:102EC000F0D21446EEE78708864B1B78042B07D810
:102ED000DFE803F003093E87BE00824B01221A702F
:102EE00002B0BDE8F081804C01224FF48071204691
:102EF00003F029FF00221021204603F024FF0022C6
:102F00002021204603F01FFF00224021204603F02D
:102F10001AFF00228021204603F015FF3846FDF7F6
:102F2000C1FA04460D46714B1888FDF7BBFA68A339
:102F3000D3E90023FEF7BEF902460B462046294698
:102F4000FDF798FB0028CBD0664B02221A70C7E72A
:102F500001224FF48071644803F0F5FE00230193D1
:102F6000A8462C1B142C04DD02AB1E44012306F8DA
:102F7000043C5D4C9DF804201021204603F0E3FE44
:102F80009DF805202021204603F0DDFE9DF8062057
:102F90004021204603F0D7FE9DF8072080212046DF
:102FA00003F0D1FE4046FDF77DFA04460D464F4B37
:102FB0001E883046FDF776FA47A3D3E90023FEF7D3
:102FC00079F902460B4620462946FDF735FB10B13C
:102FD000444B01221A70BE4282D2424B03221A7025
:102FE0007EE700224FF480713F4803F0ACFE0023DF
:102FF00001932B1B142B04DD02AB1E44012306F8A6
:10300000043C394E9DF804201021304603F09BFE0D
:103010009DF805202021304603F095FE9DF80620FE
:103020004021304603F08FFE9DF807208021304676
:1030300003F089FE2D4B1B88AB4202D9294A02219D
:103040001170A342BFF44CAF264B04221A7047E71D
:1030500000224FF48071244803F075FE0023019391
:10306000012401E00133DBB2032B11D818461C4ABE
:1030700032F813201D4909888A42F3D3521A142AC0
:10308000F0DD02AA1044012200F8042C0024E9E734
:10309000154D9DF804201021284603F054FE9DF89C
:1030A00005202021284603F04EFE9DF806204021F1
:1030B000284603F048FE9DF807208021284603F0AB
:1030C00042FE002C3FF40CAF064B03221A7007E7B8
:1030D000333333333333D33F9A9999999999E93FED
:1030E000100B00201D0B0020000402401E0B0020CE
:1030F00038B5FFF7C5FD1B4A136852681A4C1B19F7
:1031000042F10002834272EB010300D338BDFFF7A6
:10311000BFFEFFF7B5FD134BC3E90001134C208838
:10312000FDF768FB1249FDF771FC05466088FDF765
:1031300061FB0F49FDF76AFC0146284602F0A2FA3E
:10314000A088FDF757FB0A49FDF760FC0546E088BB
:10315000FDF750FB0649FDF759FC0146284602F0F1
:10316000EBFAD3E7380B0020A0860100100B0020FB
:1031700000007A44F0B583B0A34C4FF61F052580BC
:1031800040237A2223214620FEF767FE2580402334
:103190004FF4E07223214FF4B570FEF75EFE012676
:1031A00000961023994A29214FF49E70FEF7F0FBF8
:1031B00040F2FF73238074234A2219462720FEF72A
:1031C000FDFD64234A2274211046FEF7F7FD6423B7
:1031D0007F2219464A20FEF7F1FD74237F226421E5
:1031E0001046FEF7EBFD74239B2219467F20FEF765
:1031F000E5FD6423A62274219B20FEF7DFFD6423F6
:10320000F5221946A620FEF7D9FD74234FF48072EB
:103210006421F520FEF7D2FD742340F235121946E1
:103220004FF48070FEF7CAFD84234FF4A07274211E
:1032300040F23510FEF7C2FD842340F29512194684
:103240004FF4A070FEF7BAFD74234FF4D0728421BE
:1032500040F29510FEF7B2FD742340F2CD121946EC
:103260004FF4D070FEF7AAFD73234A221946272097
:10327000FEF7A4FD6423492274211046FEF79EFD4B
:1032800063237F2219464A20FEF798FD74237E228D
:1032900064211046FEF792FD73239B2219467F207E
:1032A000FEF78CFD6423A52274219A20FEF786FD8B
:1032B0006323F5221946A620FEF780FD7423FF2222
:1032C0006421F420FEF77AFD732340F2351219468B
:1032D0004FF48070FEF772FD842340F23F12742198
:1032E0004FF49A70FEF76AFD832340F29512194657
:1032F0004FF4A070FEF762FD742340F29F12842108
:103300004FF4CA70FEF75AFD732340F2CD121946EE
:103310004FF4D070FEF752FD00272780009610234F
:103320003B4A96215020FEF733FB2580CB237A229F
:10333000A7214620FEF791FD278000961023354AED
:103340009621C320FEF724FB2580CB23F122A72161
:10335000AA20FEF782FD2780009610232E4A962190
:103360004FF48870FEF714FB2580CB2340F23B120C
:10337000A7214FF48170FEF770FD2780009610237F
:10338000264A962140F26310FEF702FB2580CB23EC
:103390004FF4CA72A7214FF4A670FEF75EFD278096
:1033A000009610231E4AF3213820FEF7F1FA2580FB
:1033B0004FF486737A22E8214620FEF74EFD2780DF
:1033C00000961023174AF3219C20FEF7E1FA25808E
:1033D0004FF48673F722E821B020FEF73EFD2780E8
:1033E00000961023104AF3214FF49C70FEF7D0FA98
:1033F00025804FF486734FF4CA72E8214FF4A6700B
:10340000FEF72BFD03B0F0BDFC0900208C12010873
:10341000941201089C120108A0120108A8120108C8
:10342000AC120108B0120108B412010810B50C4624
:10343000052818D8DFE800F00324426084A89AB178
:10344000604B00221A8040F20D137B22E7214520B9
:10345000FEF703FD5B4B1C804FF486737A22E82154
:103460004620FEF7FAFC10BD564B4FF6FF721A804D
:1034700040F20D137B22E7214520FEF7EEFCE9E741
:103480008AB1504B00221A80CC237B22A6214520F2
:10349000FEF7E3FC4B4B1C80CB237A22A72146206E
:1034A000FEF7DBFCDFE7474B4FF6FF721A80CC23B9
:1034B0007B22A6214520FEF7D0FCEBE78AB1414BE9
:1034C00000221A80CC23F222A621A920FEF7C5FCF7
:1034D0003C4B1C80CB23F122A721AA20FEF7BDFC88
:1034E000C1E7384B4FF6FF721A80CC23F222A62197
:1034F000A920FEF7B2FCEBE7AAB1324B00221A80FA
:10350000CC234FF49E72A62140F20110FEF7A5FCD9
:103510002C4B1C80CB2340F23B12A7214FF481702F
:10352000FEF79BFC9FE7274B4FF6FF721A80CC23D8
:103530004FF49E72A62140F20110FEF78EFCE7E7E1
:10354000AAB1204B00221A80CC2340F29512A6216A
:1035500040F24B10FEF781FC1A4B1C80CB234FF43A
:10356000CA72A7214FF4A670FEF777FC7BE7154BD4
:103570004FF6FF721A80CC2340F29512A62140F23A
:103580004B10FEF76AFCE7E78AB10E4B00221A8067
:1035900041237B2222214520FEF75FFC094B1C8042
:1035A00040237A2223214620FEF757FC5BE7054B98
:1035B0004FF6FF721A8041237B2222214520FEF71D
:1035C0004CFCEBE7FC09002038B50446064D002210
:1035D0004FF61F012878FFF729FF0122002120461E
:1035E000FFF724FF2C7038BD310B002010B50C46BE
:1035F000052818D8DFE800F00324426084A89AB1B7
:10360000604B00221A804FF485737822EA2148200B
:10361000FEF723FC5B4B1C804FF486737A22E82173
:103620004620FEF71AFC10BD564B4FF6FF721A806B
:103630004FF485737822EA214820FEF70EFCE9E773
:103640008AB1504B00221A80C9237822A921482030
:10365000FEF703FC4B4B1C80CB237A22A72146208C
:10366000FEF7FBFBDFE7474B4FF6FF721A80C923DB
:103670007822A9214820FEF7F0FBEBE78AB1414B05
:1036800000221A80C923EF22A921AC20FEF7E5FB16
:103690003C4B1C80CB23F122A721AA20FEF7DDFBA7
:1036A000C1E7384B4FF6FF721A80C923EF22A921D8
:1036B000AC20FEF7D2FBEBE7AAB1324B00221A8016
:1036C000C92340F23912A9214FF48270FEF7C5FBDD
:1036D0002C4B1C80CB2340F23B12A7214FF481706E
:1036E000FEF7BBFB9FE7274B4FF6FF721A80C923FB
:1036F00040F23912A9214FF48270FEF7AEFBE7E7E2
:10370000AAB1204B00221A80C9234FF4C972A92103
:103710004FF4A770FEF7A1FB1A4B1C80CB234FF48C
:10372000CA72A7214FF4A670FEF797FB7BE7154BF3
:103730004FF6FF721A80C9234FF4C972A9214FF4C2
:10374000A770FEF78AFBE7E78AB10E4B00221A80CA
:103750003E23782225214820FEF77FFB094B1C8061
:1037600040237A2223214620FEF777FB5BE7054BB7
:103770004FF6FF721A803E23782225214820FEF75B
:103780006CFBEBE7FC09002038B5044600224FF63D
:103790001F01FFF74BFE074D00224FF61F0128784F
:1037A000FFF724FF012200212046FFF71FFF2C70A6
:1037B00038BD00BF300B002010B5044600224FF684
:1037C0001F01FFF733FE00224FF61F012046FFF7CF
:1037D0000DFF054B1B7803B910BDFFF7E3F9024B52
:1037E00000221A70F8E700BF590B0020000000000B
:1037F00030B583B02E4B00221A802E4B1868FCF790
:1038000063FE29A3D3E90023FCF716FF30B32A4B4C
:103810001B78012B11D0002400941023254A126834
:10382000F2214E20FEF780FB00941023234AF22160
:103830006C20FEF7ADF803B030BD00251E4B1D70A7
:103840001B4C4FF6FF732380009340F2091377223D
:10385000EB214920FEF71CFB2580DCE7164B1B788B
:1038600083B1002400941023124A1268F2214C20E4
:10387000FEF75AFB00941023104AF2216E20FEF747
:1038800087F8D8E70C4B01221A70094C4FF6FF73EA
:103890002380009340F209137722EB214920FEF7A1
:1038A000F7FA00232380DCE77B14AE47E1FA2340DC
:1038B000FC09002004000020F60A0020B8120108CC
:1038C00010B582B00024094B1C8000941023084AD4
:1038D0001268B0214E20FEF727FB00941023054A02
:1038E000B0216820FEF754F802B010BDFC0900209A
:1038F00018000020BC12010830B583B02E4B002206
:103900001A802E4B1868FCF7DFFD29A3D3E90023AA
:10391000FCF792FE28B32A4B1B78012B11D0002410
:1039200000941023254A1268B021B820FEF7FCFA53
:1039300000941023234AB021D420FEF729F803B0C5
:1039400030BD00251E4B1D701B4C4FF6FF732380AE
:103950000093C823EE22AA21AD20FEF799FA258014
:10396000DDE7174B1B7883B1002400941023134A22
:103970001268B021B420FEF7D7FA00941023114A40
:10398000B021D820FEF704F8D9E70D4B01221A70B8
:10399000094C4FF6FF7323800093C823EE22AA211F
:1039A000AD20FEF775FA00232380DDE7AFF300803A
:1039B0007B14AE47E1FA2340FC09002008000020F8
:1039C000F50A0020C012010810B582B000240A4B8D
:1039D0001C8000941023094A1268B0214FF48570AE
:1039E000FEF7A2FA00941023054AB0214FF492701A
:1039F000FDF7CEFF02B010BDFC090020140000202E
:103A0000C01201080000000030B583B0324B002224
:103A10001A80324B1868FCF757FD2DA3D3E9002319
:103A2000FCF70AFE48B32E4B1B78012B13D0002461
:103A300000941023294A1268B0214FF4AD70FEF7AC
:103A400073FA00941023274AB0214FF4BB70FDF79E
:103A50009FFF03B030BD0025214B1D701E4C4FF65B
:103A6000FF7323800093C82340F29112AA2140F2F1
:103A70004F10FEF70DFA2580D9E7194B1B7893B14B
:103A8000002400941023154A1268B0214FF4AB7043
:103A9000FEF74AFA00941023124AB0214FF4BD7089
:103AA000FDF776FFD5E70E4B01221A700A4C4FF650
:103AB000FF7323800093C82340F29112AA2140F2A1
:103AC0004F10FEF7E5F900232380D9E7AFF300801C
:103AD0007B14AE47E1FA2340FC0900200C000020D3
:103AE000F40A0020C012010808B5024B186801F062
:103AF000AFFD08BD180B002010B582B0184B1B7825
:103B0000012B02D0B3B102B010BD164C4FF6FF73BB
:103B1000238000933D23772226214920FEF7B8F920
:103B200000232380009310230F4A29215020FDF702
:103B30002FFFE8E70B4C4FF6FF73238000933D23E4
:103B4000772226214920FEF7A3F900232380009342
:103B50001023064A29215420FDF71AFFD3E700BF9E
:103B6000220B0020FC090020C4120108CC1201081D
:103B700008B5094B00221A80FFF73AFEFFF7A0FEB6
:103B8000FFF7BAFEFFF720FFFFF73EFFFFF7B4FF96
:103B9000FFF7AAFF08BD00BFFC09002008B5094BCC
:103BA0001B78012B03D0074B00221A7008BD064B6F
:103BB0001B78002BF7D0FEF7F5FF034B00221A709D
:103BC000F1E700BF400B0020590B002070B5FFF754
:103BD00057F804460D468B4B1A785AB18A490B6840
:103BE0004968E31A65EB0101884898424FF00003E9
:103BF0008B4114D3864B1968864B1B68CB1A8648B9
:103C0000007801282FD04BB17F480460456081487F
:103C10000160002A4ED17B4B01221A7070BD022A2E
:103C200010D0012AFAD1774B00221A707B4C2078F1
:103C3000FFF7C2FD05232370794B754A1360754A5F
:103C40001360EBE76F4B01221A70744E00224FF69F
:103C50001F013078FFF7CAFC3078FFF7B5FC6A4BDC
:103C60001C605D60DAE76F4804F056FA664B1C6032
:103C70005D60644B1B781BB1012B05D0022B0BD070
:103C8000654B00221A70C9E75E4B02221A70634B23
:103C90001878FFF779FDF3E75A4B01221A705F4C51
:103CA00000224FF61F012078FFF7A0FC2078FFF7D5
:103CB0008BFCE5E7012A0DD0022AAFD1574A1278D2
:103CC000052A4BD8DFE812F02E0055007900C80015
:103CD000ED001101002B0FDD50490A780132524BE3
:103CE00083FB020303EB4303A2EB43030B704B4B39
:103CF0001878FFF769FC91E7484B1B7873B9474B7D
:103D000005221A7045490A78484BA3FB02039B0819
:103D100003EB4303A2EB43030B70E8E7013B3F4A8D
:103D20001370EFE7002B1DDD414C42492068FCF782
:103D3000B1FC206040493E4B1868FCF76FFF10B1A2
:103D40003B4B3D4A1A603D49394B1868FCF748FF28
:103D500010B1374B00221A60FFF74AFD384B0122A1
:103D60001A705BE7324C33492068FCF791FC206005
:103D7000E0E7002B1ADD334C2E492068FCF78AFC63
:103D8000206031492F4B1868FCF748FF10B12D4BCC
:103D90002D4A1A602D492B4B1868FCF721FF10B1F2
:103DA000284B244A1A60FFF78BFDD7E7254C2149A1
:103DB0002068FCF76DFC2060E3E7002B1ADD244C43
:103DC0001C492068FCF766FC20602249204B1868DB
:103DD000FCF724FF10B11E4B1E4A1A601B491C4BF6
:103DE0001868FCF7FDFE10B1194B124A1A60FFF774
:103DF00083FDB3E7164C0F492068FCF749FC2060AF
:103E0000E3E700BFE80A0020280B0020C0C62D0011
:103E1000100000201C0000200C0B002020000020BF
:103E200000943577D0120108ABAAAA2AABAAAAAA95
:103E300004000020CDCCCC3D0000C0400AD7233C7C
:103E4000590B0020180000200000A040AE47E13DC3
:103E5000080000200000C841002B1BDD2B4C2C4922
:103E60002068FCF717FC20602A49284B1868FCF7EB
:103E7000D5FE10B1254B274A1A602749234B1868F5
:103E8000FCF7AEFE18B1214B4FF07E521A60FFF7DF
:103E90009BFD63E71D4C1E492068FCF7F9FB206081
:103EA000E2E7002B1ADD1D4C19492068FCF7F2FBF4
:103EB00020601B49194B1868FCF7B0FE10B1174B76
:103EC000174A1A601749154B1868FCF789FE10B19C
:103ED000124B0F4A1A60FFF797FD3FE70F4C0C4952
:103EE0002068FCF7D5FB2060E3E70F4B00221A8027
:103EF0000E4B1B782BB90D4B01221A70FFF7FCFDFE
:103F00002CE70A4B00221A70F8E700BF14000020CB
:103F1000CDCCCC3D66661E41AE47813F0C000020F3
:103F20000000C841AE47E13DFC090020220B002003
:103F3000F8B5484B1B783BB9474B1B78012B09D090
:103F4000454B00221A70F8BD012BF9D1424B1B786A
:103F5000022BF5D1414B01221A70FEF791FE064665
:103F60000F46FEF78DFE05460C463D493D4B186851
:103F7000FCF798FCFCF794FE831947EB01029D4285
:103F800074EB0203EDD3FEF77BFE06460F460122DB
:103F90004FF40051344802F0D6FEFEF771FE05469C
:103FA0000C463249324B1868FCF77CFCFCF778FE73
:103FB000831947EB01029D4274EB0203EDD300220B
:103FC0004FF40051284802F0BEFEFEF759FE0646A7
:103FD0000F46FEF755FE05460C462449254B18684A
:103FE000FCF760FCFCF75CFE831947EB01029D4285
:103FF00074EB0203EDD3FEF743FE06460F460122A3
:104000004FF48041184802F09EFEFEF739FE054647
:104010000C461649184B1868FCF744FCFCF740FEA8
:10402000831947EB01029D4274EB0203EDD300229A
:104030004FF480410C4802F086FE104A13680133A9
:104040001360FFF751FD0E4B01221A70034B002243
:104050001A7075E7220B0020580B00201C0B002063
:1040600000247449180000200004024000007A4433
:1040700008000020140000200C000020180B002075
:10408000590B002038B5444B1B78002B7ED1B0F57E
:10409000007F7CD01BD9B0F5805F74D0B0F5004FA5
:1040A00074D1FEF7EDFD3D4A136852683C4C1B1974
:1040B00042F10002834272EB010367D2394B0122C5
:1040C0001A70FEF7DDFD354BC3E900015EE04028C4
:1040D0001AD0B0F5807F59D1FEF7D2FD324A13686D
:1040E0005268324C1B1942F10002834272EB010309
:1040F0004CD2FEF7D3FD2E4B01221A70FEF7C0FD05
:10410000294BC3E9000141E02A4D4021284602F035
:1041100013FE04468021284602F00EFE05460246A4
:104120002146254803F096FF012C18D0234B1B682D
:104130000A2B1AD01CB915B9204B0B221A601F4B41
:104140001B680B2B22D10CBB05BBFEF7A7FD1C4A3D
:104150001368013B1360194B00221A6016E0002D12
:10416000E4D1164B0A221A60E0E7002CE2D1012DBF
:10417000E0D1FEF793FD124A1368013313600F4B31
:1041800000221A60D6E7074B02221A7038BD0D4B89
:1041900001221A70FAE700BF1C0B0020D00A002091
:1041A00040420F00580B0020D80A002020A1070031
:1041B0000C0B002000080240D8120108500B002010
:1041C00010000020400B002072B6FEE700B595B04D
:1041D0003022002108A803F0EBFE00230393049390
:1041E00005930693079301931F4A116C41F0805188
:1041F0001164126C02F080520192019A02931B49E1
:104200000A6822F4404242F400420A600A6802F45A
:1042100040420292029A0222089201210B9110213F
:104220000C910E920F930823109354231193129222
:104230000423139308A802F0A3FD80B90F2303936E
:1042400002210491002305934FF4805206920793B4
:1042500003A802F0E3FF20B915B05DF804FBFFF7F7
:10426000B3FFFFF7B1FF00BF00380240007000400D
:10427000F0B58DB001F024FDFFF7A8FFFEF7F2FBCB
:10428000FEF744FA00F0F6F9FEF758F900F0E2F80C
:1042900001F072FCFEF712FA00F024FA05225649EA
:1042A000564801F013FE564803F094FAFEF72AFB35
:1042B000544C00224FF48071204602F044FD00224D
:1042C0001021204602F03FFD00222021204602F06E
:1042D0003AFD00224021204602F035FD00228021D7
:1042E000204602F030FD04A8FEF7C2FA002855D09F
:1042F0000498FCF77FFA4449FCF788FB434B1860AD
:104300000598FCF777FA4049FCF780FB404B1860B2
:104310000698FCF76FFA3C49FCF778FB3D4B1860B8
:104320000798FCF767FA3849FCF770FB3A4B1860BE
:104330000898FCF75FFA3449FCF768FB374B1860C4
:104340009DF82420364B1A700A9A364B1A60FDF7F6
:10435000D5FB0220FDF7B8FC4FF6FF70FDF7B6FB6A
:10436000FDF722FDFEF706FFFFF702FC01F0F6FA6B
:104370002D4801F03BFA2D4801F062FA2C4801F07B
:104380007DFA2C4801F098FA2B4801F0B3FA41F27B
:10439000D71001F0CFFA002637461EE0FEF702FCE8
:1043A000D5E7264B5A889988D888254E36780396C3
:1043B0000290019100921B88224A128822490988A2
:1043C000224803F047FE2E462746FFF7FFFBFFF784
:1043D000AFFDFEF78DFEFFF7E1FBFEF793FCFEF766
:1043E0004FFC05460C461A4BF31847F10002834276
:1043F00072EB0103D5D3E8E7F80A0020100A002089
:10440000B80B0020000402400000204104000020FE
:104410001800002008000020140000200C000020DC
:10442000220B0020180B00206666D6406666064008
:104430006666A63F000060406666B640100B00202E
:104440001D0B0020200B00201E0B0020E81201088D
:10445000A086010008B50D480D4B03604FF4827330
:10446000436000238360C360036143614FF40072C3
:104470008261C3610362436283620A23C36203F001
:1044800041F800B908BDFFF79FFEFBE75C0B002079
:10449000003C004000B589B00023039304930593CA
:1044A000069307930268154B9A4202D009B05DF853
:1044B00004FB0021019103F5FE331A6C42F4004223
:1044C0001A641A6C02F400420192019A02911A6B6A
:1044D00042F004021A631B6B03F004030293029B75
:1044E0004FF4E0530393022304930323069306231C
:1044F000079303A9024802F03FFBD7E7003C0040C6
:104500000008024082B0002100910B4B5A6C42F42B
:1045100080425A645A6C02F480420092009A0191DF
:104520001A6C42F080521A641B6C03F080530193A2
:10453000019B02B0704700BF00380240FEE7FEE773
:10454000FEE7FEE7FEE770477047704708B501F0E9
:10455000D1FB08BD08B5402002F004FC4FF4807088
:1045600002F000FC4FF4007002F0FCFB08BD0000FC
:1045700008B5024803F087F908BD00BFB80B00205A
:1045800008B5024803F07FF908BD00BF000C002009
:1045900008B54FF4805002F0E5FB4FF4004002F004
:1045A000E1FB08BD08B5024802F014F808BD00BFE1
:1045B000580A00200120704708B503F0CFFC1623ED
:1045C00003604FF0FF3008BD08B54FF0FF31FFF733
:1045D000F3FFFEE770B50C461646002506E0AFF384
:1045E0000080214601F8010B01350C46B542F6DB8F
:1045F000304670BD70B50C461646002504E014F830
:10460000010BFEF72DFB0135B542F8DB304670BDDE
:104610004FF0FF3070474FF400534B60002070475D
:10462000012070470020704710B503460C4A0D4921
:104630000D48006840B10C4800680344521A934288
:1046400006D8094A136010BD0748084C0460F2E719
:1046500003F084FC0C2303604FF0FF30F3E700BF4E
:104660000000012000040000B40B0020F80C002022
:104670007047000000B587B00023029303930493B2
:1046800005930093019316484FF080420260532235
:10469000426083604FF0FF32C26003618023836118
:1046A00003F0FCF990B94FF48053029302A90C482F
:1046B00003F02CFA68B90023009301936946084877
:1046C00003F0A4FA40B907B05DF804FBFFF77CFDE6
:1046D000E9E7FFF779FDEEE7FFF776FDF3E700BFC7
:1046E000B80B002000B587B0002302930393049316
:1046F0000593009301931548154A026053224260C6
:104700008360F922C26003618023836103F0C6F9EC
:1047100090B94FF48053029302A90C4803F0F6F9C4
:1047200068B90023009301936946084803F06EFAC4
:1047300040B907B05DF804FBFFF746FDE9E7FFF776
:1047400043FDEEE7FFF740FDF3E700BF000C00205C
:104750000004004000B583B00368B3F1804F05D07A
:10476000174A934217D003B05DF804FB0022009271
:1047700003F50E33196C41F0010119641B6C03F051
:1047800001030093009B01211C2001F07BFD1C20F4
:1047900001F0B0FDE7E7002101910A4B1A6C42F0ED
:1047A00002021A641B6C03F002030193019B0A4688
:1047B0001D2001F067FD1D2001F09CFDD3E700BF27
:1047C00000040040003802402DE9F04F97B08046C9
:1047D0000D4600F10C031FFA83F901F1030A1FFAD9
:1047E0008AFA00F151031FFA83FB01F130039BB2F7
:1047F0004BF2AB44009405935A4651464846FDF7A8
:1048000047FB08F1030398B205F10C06B6B205F1B7
:1048100027039FB200943B464A4631460690FDF777
:1048200037FB08F15A039AB2009402973B4607926D
:1048300031465846FDF72CFB08F106031FFA83FCAE
:10484000AB1D99B2009433464A460491CDF80CC092
:104850006046FDF71DFB6F1DBFB208F107031FFA8D
:1048600083FE00943B46CDF824E072463946039817
:10487000FDF70EFB08F108031FFA83FC2B1D1FFA3E
:1048800083FE08F1090399B200943B460C910A4655
:10489000CDF82CE07146CDF828C06046FDF7F8FA57
:1048A00008F10A031FFA83FC00943B46CDF82090E0
:1048B0004A465146CDF834C06046FDF7E9FA08F1A2
:1048C00005031FFA83F9EB1D1FFA83FC0094CDF852
:1048D0003CC063464A4604994846FDF7D9FA08F1B8
:1048E00004031FFA83FE05F108031FFA83FC05F198
:1048F000090399B2009412910B464A46CDF844C080
:104900006146CDF840E07046FDF7C2FA05F10A03B2
:104910001FFA83FE00943346CDF838904A46CDF80E
:104920004CE071460698FDF7B3FA08F157091FFAF3
:1049300089F9009433464A4604995846FDF7A8FA87
:1049400008F153031FFA83FE00943B46CDF850E074
:10495000724651465846FDF79BFA08F154031FFA78
:1049600083FA08F155031FFA83FC00943B46CDF807
:1049700054C062460B99CDF82CA05046FDF788FA3A
:1049800008F1560A1FFA8AFA00943B464A4639460D
:104990005046FDF77DFA08F15807BFB200940F9B0F
:1049A0003A4604993846FDF773FA08F159081FFA98
:1049B00088F80094129BCDF8108042461199384631
:1049C000FDF766FA00943346079A13993846FDF7C7
:1049D0005FFA05F12D081FFA88F8009443464A460D
:1049E00002995846FDF754FA05F12E06B6B2009426
:1049F000059B149A31465846FDF74AFA05F12F03F4
:104A00001FFA83FB0094CDF83CB05B46159A314603
:104A10000B98FDF73DFA009433464A46314650461E
:104A2000FDF736FA05F12C091FFA89F9009443467F
:104A30003A4649463846FDF72BFA05F12A0A1FFA8D
:104A40008AFA05F12B0B1FFA8BFB00945B46049A44
:104A500051463846FDF71CFA2935ADB200942B4675
:104A6000079A02993846FDF713FA00944346089FC7
:104A70003A4602990398FDF70BFA00942B460E9DD7
:104A80002A4602990698FDF703FA00945B462A46E7
:104A900051461098FDF7FCF9009443462A464946D2
:104AA0002846FDF7F5F900943346099A31460398F4
:104AB000FDF7EEF900940F9B0C9A31460A98FDF72A
:104AC000E7F90094059B3A4631460D98FDF7E0F969
:104AD00017B0BDE8F08F2DE9F04F9DB006460D46AA
:104AE00000F10C031FFA83F900F150081FFA88F84F
:104AF00001F1020B1FFA8BFB43F2082400945B4682
:104B000042464846FDF7C4F905F10C0399B2B31CBF
:104B10001FFA83FA05F12607BFB200943B465246BE
:104B200003913046FDF7B4F905F131031FFA83FC18
:104B300005F133039BB200940A934246CDF810C0AE
:104B40006146CDF824904846FDF7A2F906F15B03D3
:104B50001FFA83F906F15D039AB200943B460B926B
:104B6000039F3946CDF814904846FDF791F905F1B9
:104B70000A031FFA83FE009403973B465246CDF882
:104B800038E071463046FDF783F9731C1FFA83FC49
:104B9000EB1D1FFA83F8F31C9FB205F109031FFAFE
:104BA00083FE0094CDF844E0734606973A464146AA
:104BB000CDF83CC06046FDF76BF905F105091FFA19
:104BC00089F9331D9FB2AB1D1FFA83FC0094CDF809
:104BD0004CC063463A464946CDF834A05046FDF7EE
:104BE00057F9009443463A46CDF840804146B846CE
:104BF0003846FDF74DF92F1DBFB200943B464246A3
:104C000039460698FDF744F905F1030A1FFA8AFAB6
:104C10000094534642465146CDF848804046FDF741
:104C200037F9731D1FFA83FCE04600944B46624639
:104C300049466046FDF72CF9B31D9AB200943B46F5
:104C400015925946CDF850804046FDF721F9F31DE5
:104C50001FFA83FC00943B4662463946CDF830C0CB
:104C60006046FDF715F905F101081FFA88F806F10D
:104C700009031FFA83FE00945346CDF858E07246AC
:104C800041460C98FDF704F906F10A031FFA83FC6C
:104C900000945B46099A2946CDF85CC06046FDF752
:104CA000F7F806F151031FFA83FE06F1530399B298
:104CB00000945B4618910A462946CDF86CE0704690
:104CC000FDF7E6F806F154031FFA83FE06F15603DA
:104CD0001FFA83FC00945346CDF81CC0624641463F
:104CE000CDF864E07046FDF7D3F800943B46DDF85C
:104CF0001CC0624639466046FDF7CAF806F1570304
:104D00001FFA83F8C44606F158031FFA83FEF046E3
:104D100000943B4672465946CDF868C06046FDF7A0
:104D2000B7F800944B4642464946CDF820804046AD
:104D3000FDF7AEF806F159081FFA88F800943B46D3
:104D4000424651464046FDF7A3F80094139BDDF818
:104D500014A0524649464046FDF79AF806F15A0B10
:104D60001FFA8BFB00943B465A4639465846FDF7DE
:104D70008FF80094DDF840904B4642464946404645
:104D8000FDF786F806F15C07BFB20094119B3A4626
:104D900049465846FDF77CF80094039B0B9A0E9900
:104DA000D1465046FDF774F805F127031FFA83FA40
:104DB00005F129039BB2009403930B9ACDF838A018
:104DC0005146CDF814904846FDF762F805F12A03E4
:104DD0001FFA83F905F12C0A1FFA8AFA0094534648
:104DE0003A46CDF82C9049465846FDF751F80094C4
:104DF0005346424651464046FDF74AF805F12D0319
:104E00009FB205F12E091FFA89F900944B46059AC5
:104E1000059739464046FDF73BF800944B46089FFE
:104E20003A4649463846FDF733F805F12F07BFB239
:104E300000943B465A4639464046FDF729F805F1AD
:104E4000300B1FFA8BFB00945B46424659464046A6
:104E5000FDF71EF80094049B089A39461A98FDF74E
:104E600017F800943B46DDF81C8042463946404620
:104E7000FDF70EF83235ADB200942B464246594646
:104E80001998FDF705F800940A9B189A04991B9845
:104E9000FCF7FEFF0094039BDDF8348042460E9938
:104EA0003046FCF7F5FF00945346069A0B990F988D
:104EB000FCF7EEFF00945346129E324651463046B0
:104EC000FCF7E6FF00944B46324605994046FCF756
:104ED000DFFF00944B46DDF850804246494640468D
:104EE000FCF7D6FF00943B46DDF818C06246394611
:104EF0006046FCF7CDFF00945B46324639463046AB
:104F0000FCF7C6FF0094DDF810904B46159A394621
:104F10004046FCF7BDFF00943B460C9E32463946A6
:104F20003046FCF7B5FF00942B46169A594630469A
:104F3000FCF7AEFF00940A9B099A49461798FCF7C4
:104F4000A7FF1DB0BDE8F08F2DE9F04F89B00646F0
:104F50000C464F1CBFB201F1090B1FFA8BFB4BF63D
:104F6000F75500955B4602463946FCF791FF731CE6
:104F70009AB204F106081FFA88F8009543462146C4
:104F800003921046FCF784FF06F102091FFA89F923
:104F900006F109039BB21A46009523460492214666
:104FA0004846FCF775FFB31D99B200953B46059145
:104FB0000A4639464846FCF76BFF06F154031FFAD0
:104FC00083FC06F15C0A1FFA8AFA009523465246D2
:104FD0002146CDF818C06046FCF75AFF06F157038A
:104FE0001FFA83FE06F15D091FFA89F900953B4619
:104FF0004A463946CDF81CE07046FCF749FFA71C2D
:10500000BFB200954346524639465046FCF740FF32
:1050100000955B464A4639464846FCF739FF04F19D
:105020003307BFB206F15B0B1FFA8BFB00953B46C3
:105030005A4639460698FCF72BFF04F132081FFA4E
:1050400088F8009543465A4641460798FCF720FFEA
:1050500004F12D0B1FFA8BFB00953B465246594637
:105060005046FCF715FF04F12A0A1FFA8AFA009548
:1050700043464A4651464846FCF70AFF3134A4B23B
:1050800000952346324651463046FCF701FF009515
:105090002346039C224659462046FCF7F9FE00951C
:1050A0004346059A41463046FCF7F2FE00953B46E2
:1050B000049A39462046FCF7EBFE09B0BDE8F08FB4
:1050C00038B504460D46FFF706FD29462046FFF792
:1050D0007BFB29462046FFF737FF38BD10B582B06D
:1050E00047F27C1400949923B92298216420FCF79C
:1050F000CFFE00949A23632299216220FCF7C8FE18
:1051000000949A23BB229921BA20FCF7C1FE009497
:105110009B2361229A216020FCF7BAFE00949A2317
:10512000642219461046FCF7B3FE00949A23B92274
:1051300019461046FCF7ACFE00949C23BC229A2131
:105140001046FCF7A5FE00949E235F229B2110468B
:10515000FCF79EFE00949B23622219461046FCF742
:1051600097FE00949B23BB2219461046FCF790FE45
:1051700000949E23BD229B211046FCF789FE0094DB
:105180009D2360229C211046FCF782FE0094A123FF
:10519000BE229C211046FCF77BFE0094A1235E22D8
:1051A0009D211046FCF774FE0094AF235D229E21E2
:1051B0001046FCF76DFE0094AE23BF229E211046E0
:1051C000FCF766FE0094B023C022A0211046FCF735
:1051D0005FFE0094B0235C22A1211046FCF758FE2C
:1051E0000094AB235E22A3211046FCF751FE0094ED
:1051F000B123C122AD211046FCF74AFE0094B12331
:105200005B22AF211046FCF743FE0094B82340F226
:105210007712AF214FF4BA70FCF73AFE0094B8232E
:105220000D22B0210820FCF733FE0094B2235A224D
:10523000B0211046FCF72CFE0094B223C222B0210C
:105240001046FCF725FE0094B72340F27312B021FC
:105250004FF4B970FCF71CFE0094B7234FF4BC72F6
:10526000B0211046FCF714FE0094B7230722B121A9
:105270001046FCF70DFE0094B7230E22B121104614
:10528000FCF706FE0094B3235922B1211046FCF727
:10529000FFFD0094B323C322B1211046FCF7F8FDB3
:1052A0000094B62340F27112B1211046FCF7F0FDD4
:1052B0000094B72340F27912B1211046FCF7E8FDC3
:1052C0000094B3235822B2211046FCF7E1FD00946C
:1052D000B423C522B221C420FCF7DAFD0094B52323
:1052E0004FF4BD72B2211046FCF7D2FD0094B723F3
:1052F0000622B3211046FCF7CBFD0094B6230F2203
:10530000B3211046FCF7C4FD0094B4235722B32107
:105310005520FCF7BDFD0094B423C722B321C6205D
:10532000FCF7B6FD0094B5235422B4211020FCF7FD
:10533000AFFD0094B5234FF48C72B421C820FCF764
:10534000A7FD0094B523562219465520FCF7A0FD71
:105350000094B523C72219461046FCF799FD009426
:10536000B6234FF48D72B52140F21910FCF790FD71
:105370000094B6234FF48C7219461046FCF788FD52
:105380000094B8234FF48E72B62140F21B10FCF744
:105390007FFD0094B7234FF48D7219461046FCF739
:1053A00077FD0094BB2340F21D12B7211046FCF795
:1053B0006FFD0094B9230C2219460920FCF768FD03
:1053C0000094B9234FF48E7219461046FCF760FD25
:1053D0000094C0234FF48F72B9211046FCF758FD9A
:1053E0000094C2234FF4BB72B92140F27510FCF750
:1053F0004FFD0094C42340F21F12BA211046FCF75F
:1054000047FD0094C5234FF49072BF211046FCF76E
:105410003FFD0094C5234FF4BA72C0211046FCF73B
:1054200037FD0094C62340F22112C3211046FCF739
:105430002FFD0094C62340F27312C3211046FCF7DF
:1054400027FD0094C42340F27512C3211046FCF7D7
:105450001FFD0094C7234FF49172C5211046FCF73D
:1054600017FD0094C7234FF4B972C5211046FCF70D
:105470000FFD0094C82340F22312C6211046FCF70A
:1054800007FD0094C82340F27112C6211046FCF7B4
:10549000FFFC0094C8234FF49372C7214FF492701D
:1054A000FCF7F6FC0094C8234FF4B872C72140F211
:1054B0006F10FCF7EDFC0094C9234FF4B772C821BC
:1054C00040F22710FCF7E4FC0094C9234FF49372D8
:1054D000194640F22510FCF7DBFC0094C92340F28A
:1054E0006F1219461046FCF7D3FC02B010BD000045
:1054F00070B50024434B1C802346434A05211420E9
:10550000FCF7CEFE2346414A05214FF4AA70FCF772
:10551000C7FE3F4A29210A20FCF7C4FD3D4A2E213F
:105520004620FCF7BFFD3C4D2A462E216420FCF7A7
:10553000B9FD3A4A2E21AA20FCF7B4FD384A2E21A3
:105540004FF48C70FCF7AEFD364E234632464821B0
:1055500040F28310FCF7A4FE31224F2140F28F105D
:10556000FCF7B0FE23463246842140F28310FCF75C
:1055700097FE32228B2140F28F10FCF7A3FE2346C8
:10558000294AC0214FF4C370FCF78AFE274AE42160
:105590002320FCF787FD264AE4218220FCF782FDC8
:1055A000244AE421DC20FCF77DFD234AE4214FF46A
:1055B000A070FCF777FD214AE42140F29F10FCF730
:1055C00071FD1F4A40F21B112120FCF76BFD1D4AA3
:1055D00040F21B118220FCF765FD2A4640F21B11A8
:1055E000DB20FCF75FFD184A40F21B114FF49B7063
:1055F000FCF758FD154A40F21B114FF4CD70FCF733
:1056000051FD70BDFC0900202C130108381301085E
:105610004013010844130108C4120108481301088B
:105620004C13010850130108B81201085413010863
:1056300058130108A01201085C1301086013010847
:1056400064130108681301086C130108741301083E
:1056500000B583B00346094A4FF6FF711180084A2E
:105660000821684602F060FD01236A4605214FF4D7
:10567000C370FCF715FE03B05DF804FB00000020CA
:105680007C130108F0B585B007460C46274B4BF25A
:105690005F621A80264EFAF717FFCDE90001324605
:1056A00008210DEB010002F03FFD02AA26214FF474
:1056B000D270FCF7B3FE1F4D2A4626214FF4E4704A
:1056C000FCF7ACFE2046FAF7FFFECDE900013246BA
:1056D00008210DEB010002F027FD02AA36214FF44C
:1056E000D270FCF79BFE2A4636214FF4E470FCF79B
:1056F00095FE21463846FAF7CDFFFAF7E5FECDE9EB
:105700000001324608210DEB010002F00DFD02AA56
:1057100046214FF4D270FCF781FE2A4646214FF411
:10572000E470FCF77BFE05B0F0BD00BF0000002078
:1057300084130108B8120108F0B585B007460C467D
:10574000274B4EF671721A80264EFAF7BDFECDE950
:105750000001324608210DEB010002F0E5FC02AA2F
:1057600062214FF4D270FCF759FE1F4D2A46622188
:105770004FF4E470FCF752FE2046FAF7A5FECDE99F
:105780000001324608210DEB010002F0CDFC02AA17
:1057900072214FF4D270FCF741FE2A4672214FF479
:1057A000E470FCF73BFE21463846FAF773FFFAF740
:1057B0008BFECDE90001324608210DEB010002F01D
:1057C000B3FC02AA82214FF4D270FCF727FE2A46CE
:1057D00082214FF4E470FCF721FE05B0F0BD00BF5C
:1057E0000000002084130108B812010800B585B03C
:1057F000104B45F69D721A80FAF766FECDE900015E
:105800000D4A08210DEB010002F08EFC02AA2E21A8
:10581000D220FCF747FC02AAA4214FF4C870FCF781
:105820007DFE064AA4214FF4E670FCF777FE05B032
:105830005DF804FB0000002084130108B812010881
:1058400000B585B0FAF740FECDE90001094A08210C
:105850000DEB010002F068FC02AA78210E20FCF793
:105860005DFE054A80214020FCF71CFC05B05DF878
:1058700004FB00BFE0FA0008C012010800B585B0C3
:10588000FAF722FECDE90001094A08210DEB0100DB
:1058900002F04AFC02AA78216A20FCF73FFE054A82
:1058A00080219C20FCF7FEFB05B05DF804FB00BFE7
:1058B000E0FA0008C012010800B585B0FAF704FE4E
:1058C000CDE90001094A08210DEB010002F02CFC92
:1058D00002AA7821C820FCF721FE054A8021FA207F
:1058E000FCF7E0FB05B05DF804FB00BFE0FA000840
:1058F000C012010800B585B0FAF7E6FDCDE9000158
:105900000A4A08210DEB010002F00EFC02AA7821E0
:105910004FF49470FCF702FE054A80214FF4AD70FD
:10592000FCF7C0FB05B05DF804FB00BFE0FA00081F
:10593000C012010800B585B00346074A1021684629
:1059400002F0F2FB6A462E214FF4A070FCF7AAFB8E
:1059500005B05DF804FB00BF8C13010870B582B080
:105960004FF485710020FFF7ABFB4FF48571602089
:10597000FFF7A6FB4FF48571C020FFF7A1FB4FF4A2
:1059800085714FF49070FFF79BFB4FF485714FF4D6
:10599000C070FFF795FBD4210020FFF791FBD421C5
:1059A0006020FFF78DFBD421C020FFF789FBD421B5
:1059B0004FF49070FFF784FBD4214FF4C070FFF7D1
:1059C0007FFB4AF63F730093D2234FF4C0721E212F
:1059D0000020FCF75DFA674D40F2DF142C80D223E3
:1059E0004FF4C0721E210020FCF737FAD12340F299
:1059F0007F121F210120FCF730FAD0234FF4BF7231
:105A000020210220FCF729FA0094462336221E2189
:105A10000020FCF73DFA46F652332B809A234FF4D0
:105A2000BE7219460320FCF7C9F9A8234FF4BE72D1
:105A300019460320FCF7C2F9B5234FF4BE7219468C
:105A40000320FCF7BBF9C2234FF4BE7219460320B2
:105A5000FCF7B4F94BF25F6300935A234FF4F072F2
:105A60001E214FF4C070FCF713FA4BF67F460096E8
:105A70005A234FF4CB724A214FF4C070FCF708FA56
:105A80002E805A234FF4F0721E214FF4C070FCF7A1
:105A9000E4F9592322461F2140F28110FCF7DDF979
:105AA00058234FF4EF7220214FF4C170FCF7D5F961
:105AB0004EF67173009396234FF4F0725A214FF40F
:105AC000C070FCF7E5F94FF6AD56009696234FF4FB
:105AD000CB7286214FF4C070FCF7DAF92E80962342
:105AE0004FF4F0725A214FF4C070FCF7B6F99523C9
:105AF00022465B2140F28110FCF7AFF994234FF46A
