:020000040800F2
:1000000000000120E14E0008AD4B0008AF4B000896
:10001000B14B0008B34B0008B54B000800000000CE
:10002000000000000000000000000000B74B0008C6
:10003000B94B000800000000BB4B0008BD4B000896
:10004000314F0008314F0008314F0008314F000890
:10005000314F0008314F0008314F0008314F000880
:10006000314F0008314F0008314F0008314F000870
:10007000314F0008314F0008314F0008314F000860
:10008000314F0008314F0008314F000800000000D8
:10009000000000000000000000000000C54B000848
:1000A000314F0008314F0008314F0008314F000830
:1000B000E14B0008F14B0008314F0008314F0008B8
:1000C000314F0008314F0008314F0008314F000810
:1000D000314F0008314F0008314F00080000000088
:1000E000014C0008314F0008314F000800000000AB
:1000F000000000000000000000000000314F000878
:1001000000000000314F0008314F0008314F000857
:1001100000000000000000000000000000000000DF
:10012000154C0008314F0008314F0008314F0008CE
:10013000314F000800000000000000000000000037
:10014000000000000000000000000000314F000827
:10015000314F0008314F0008314F0008314F00087F
:10016000314F0008314F000800000000000000007F
:10017000000000000000000000000000000000007F
:1001800000000000314F00080000000000000000E7
:04019000314F0008E3
:1001C00010B5054C237833B9044B13B10448AFF391
:1001D00000800123237010BDE00900200000000012
:1001E000FCEC000808B5034B1BB103490348AFF30F
:1001F000008008BD00000000E4090020FCEC0008BD
:1002000081F0004102E000BF83F0004330B54FEAC7
:1002100041044FEA430594EA050F08BF90EA020F34
:100220001FBF54EA000C55EA020C7FEA645C7FEAC7
:10023000655C00F0E2804FEA5454D4EB5555B8BFEA
:100240006D420CDD2C4480EA020281EA030382EA5B
:10025000000083EA010180EA020281EA0303362DED
:1002600088BF30BD11F0004F4FEA01314FF4801CC0
:100270004CEA113102D0404261EB410113F0004FD2
:100280004FEA03334CEA133302D0524263EB430389
:1002900094EA050F00F0A780A4F10104D5F1200E27
:1002A0000DDB02FA0EFC22FA05F2801841F1000182
:1002B00003FA0EF2801843FA05F359410EE0A5F156
:1002C00020050EF1200E012A03FA0EFC28BF4CF087
:1002D000020C43FA05F3C01851EBE37101F000453D
:1002E00007D54FF0000EDCF1000C7EEB00006EEB4A
:1002F0000101B1F5801F1BD3B1F5001F0CD34908D4
:100300005FEA30004FEA3C0C04F101044FEA44522A
:1003100012F5800F80F09A80BCF1004F08BF5FEAB1
:10032000500C50F1000041EB045141EA050130BD91
:100330005FEA4C0C404141EB0101013C28BFB1F5A3
:10034000801FE9D291F0000F04BF01460020B1FAEE
:1003500081F308BF2033A3F10B03B3F120020CDAC1
:100360000C3208DD02F1140CC2F10C0201FA0CF09F
:1003700021FA02F10CE002F11402D8BFC2F1200C04
:1003800001FA02F120FA0CFCDCBF41EA0C019040BA
:10039000E41AA2BF01EB0451294330BD6FEA040403
:1003A0001F3C1CDA0C340EDC04F11404C4F12002EE
:1003B00020FA04F001FA02F340EA030021FA04F300
:1003C00045EA030130BDC4F10C04C4F1200220FA57
:1003D00002F001FA04F340EA0300294630BD21FA95
:1003E00004F0294630BD94F0000F83F4801306BF5B
:1003F00081F480110134013D4EE77FEA645C18BF4F
:100400007FEA655C29D094EA050F08BF90EA020FE5
:1004100005D054EA000C04BF1946104630BD91EADD
:10042000030F1EBF0021002030BD5FEA545C05D1E0
:100430004000494128BF41F0004130BD14F580041F
:100440003CBF01F5801130BD01F0004545F0FE4193
:1004500041F470014FF0000030BD7FEA645C1ABFC8
:10046000194610467FEA655C1CBF0B46024650EAFF
:10047000013406BF52EA033591EA030F41F400212B
:1004800030BD00BF90F0000F04BF0021704730B5B1
:100490004FF4806404F132044FF000054FF0000186
:1004A00050E700BF90F0000F04BF0021704730B547
:1004B0004FF4806404F1320410F0004548BF40421C
:1004C0004FF000013EE700BF42004FEAE2014FEA71
:1004D00031014FEA02701FBF12F07F4393F07F4F4C
:1004E00081F06051704732F07F4208BF704793F04F
:1004F0007F4F04BF41F40021704730B54FF4607462
:1005000001F0004521F000411CE700BF50EA010264
:1005100008BF704730B54FF000050AE050EA01020D
:1005200008BF704730B511F0004502D5404261EB7D
:1005300041014FF4806404F132045FEA915C3FF4BE
:10054000D8AE4FF003025FEADC0C18BF03325FEA5B
:10055000DC0C18BF033202EBDC02C2F1200300FA0C
:1005600003FC20FA02F001FA03FE40EA0E0021FA31
:1005700002F11444BDE600BF4FF0FF3C06E000BFAF
:100580004FF0010C02E000BF4FF0010C4DF804CD1C
:100590004FEA410C7FEA6C5C4FEA430C18BF7FEADC
:1005A0006C5C1BD001B050EA410C0CBF52EA430C0A
:1005B00091EA030F02BF90EA020F0020704710F18A
:1005C000000F91EA030F58BF994208BF90422CBF19
:1005D000D8176FEAE37040F0010070474FEA410C12
:1005E0007FEA6C5C02D150EA013C07D14FEA430C30
:1005F0007FEA6C5CD6D152EA033CD3D05DF8040BA1
:10060000704700BF8446104662468C4619466346D2
:1006100000E000BF01B5FFF7B7FF002848BF10F1A9
:10062000000F01BD4DF808EDFFF7F4FF0CBF0120EE
:1006300000205DF808FB00BF4DF808EDFFF7EAFF6A
:1006400034BF012000205DF808FB00BF4DF808ED25
:10065000FFF7E0FF94BF012000205DF808FB00BF1A
:100660004DF808EDFFF7CEFF94BF012000205DF8A4
:1006700008FB00BF4DF808EDFFF7C4FF34BF0120B1
:1006800000205DF808FB00BF80F0004002E000BFE2
:1006900081F0004142001FBF5FEA410392EA030F6D
:1006A0007FEA226C7FEA236C6AD04FEA1262D2EBB7
:1006B0001363C1BFD218414048404140B8BF5B42BC
:1006C000192B88BF704710F0004F40F4000020F055
:1006D0007F4018BF404211F0004F41F4000121F06B
:1006E0007F4118BF494292EA030F3FD0A2F10102B5
:1006F00041FA03FC10EB0C00C3F1200301FA03F1F3
:1007000000F0004302D5494260EB4000B0F5000F15
:1007100013D3B0F1807F06D340084FEA310102F1D4
:100720000102FE2A51D2B1F1004F40EBC25008BF86
:1007300020F0010040EA03007047490040EB000050
:10074000013A28BFB0F5000FEDD2B0FA80FCACF151
:10075000080CB2EB0C0200FA0CF0AABF00EBC2507E
:1007600052421843BCBFD0401843704792F0000F6C
:1007700081F4000106BF80F400000132013BB5E7BF
:100780004FEA41037FEA226C18BF7FEA236C21D035
:1007900092EA030F04D092F0000F08BF084670479A
:1007A00090EA010F1CBF0020704712F07F4F04D168
:1007B000400028BF40F00040704712F100723CBF7B
:1007C00000F50000704700F0004343F0FE4040F4A5
:1007D000000070477FEA226216BF08467FEA236363
:1007E0000146420206BF5FEA412390EA010F40F44E
:1007F000800070474FF0000304E000BF10F000439A
:1008000048BF40425FEA000C08BF704743F0964380
:1008100001464FF000001CE050EA010208BF70479B
:100820004FF000030AE000BF50EA010208BF704722
:1008300011F0004302D5404261EB41015FEA010C37
:1008400002BF84460146002043F0B64308BFA3F12F
:100850008053A3F50003BCFA8CF2083AA3EBC25311
:1008600010DB01FA02FC634400FA02FCC2F1200230
:10087000BCF1004F20FA02F243EB020008BF20F067
:100880000100704702F1200201FA02FCC2F12002CD
:1008900050EA4C0021FA02F243EB020008BF20EAC2
:1008A000DC7070474FF0FF0C1CEAD0521EBF1CEAF0
:1008B000D15392EA0C0F93EA0C0F6FD01A4480EADE
:1008C000010C400218BF5FEA41211ED04FF00063C7
:1008D00043EA501043EA5111A0FB01310CF00040F3
:1008E000B1F5000F3EBF490041EAD3715B0040EA19
:1008F000010062F17F02FD2A1DD8B3F1004F40EBE9
:10090000C25008BF20F00100704790F0000F0CF0BB
:10091000004C08BF49024CEA502040EA51207F3A7F
:10092000C2BFD2F1FF0340EAC250704740F400005A
:100930004FF00003013A5DDC12F1190FDCBF00F04B
:1009400000407047C2F10002410021FA02F1C2F1F9
:10095000200200FA02FC5FEA310040F1000053EA95
:100960004C0308BF20EADC70704792F0000F00F0E3
:10097000004C02BF400010F4000F013AF9D040EAE9
:100980000C0093F0000F01F0004C02BF490011F47D
:10099000000F013BF9D041EA0C018FE70CEAD1537B
:1009A00092EA0C0F18BF93EA0C0F0AD030F0004CFB
:1009B00018BF31F0004CD8D180EA010000F00040AF
:1009C000704790F0000F17BF90F0004F084691F06D
:1009D000000F91F0004F14D092EA0C0F01D14202A7
:1009E0000FD193EA0C0F03D14B0218BF084608D170
:1009F00080EA010000F0004040F0FE4040F40000BA
:100A0000704740F0FE4040F4400070474FF0FF0C4C
:100A10001CEAD0521EBF1CEAD15392EA0C0F93EA93
:100A20000C0F69D0A2EB030280EA010C49024FEAE5
:100A3000402037D04FF0805343EA111143EA10139E
:100A40000CF000408B4238BF5B0042F17D024FF456
:100A5000000C8B4224BF5B1A40EA0C00B3EB510F31
:100A600024BFA3EB510340EA5C00B3EB910F24BF1A
:100A7000A3EB910340EA9C00B3EBD10F24BFA3EB9F
:100A8000D10340EADC001B0118BF5FEA1C1CE0D167
:100A9000FD2A3FF650AF8B4240EBC25008BF20F01A
:100AA000010070470CF0004C4CEA50207F32C2BF6E
:100AB000D2F1FF0340EAC250704740F400004FF00B
:100AC0000003013A37E792F0000F00F0004C02BF3C
:100AD000400010F4000F013AF9D040EA0C0093F006
:100AE000000F01F0004C02BF490011F4000F013B60
:100AF000F9D041EA0C0195E70CEAD15392EA0C0FC8
:100B000008D142027FF47DAF93EA0C0F7FF470AFFF
:100B1000084676E793EA0C0F04D14B023FF44CAF42
:100B200008466EE730F0004C18BF31F0004CCAD1D7
:100B300030F000427FF45CAF31F000437FF43CAF13
:100B40005FE700BF4FF0FF3C06E000BF4FF0010C35
:100B500002E000BF4FF0010C4DF804CD4FEA400217
:100B60004FEA41037FEA226C18BF7FEA236C11D061
:100B700001B052EA530C18BF90EA010F58BFB2EB14
:100B8000030088BFC81738BF6FEAE17018BF40F094
:100B9000010070477FEA226C02D15FEA402C05D148
:100BA0007FEA236CE4D15FEA412CE1D05DF8040BCD
:100BB000704700BF844608466146FFE70FB5FFF760
:100BC000C9FF002848BF10F1000F0FBD4DF808ED18
:100BD000FFF7F4FF0CBF012000205DF808FB00BF09
:100BE0004DF808EDFFF7EAFF34BF012000205DF863
:100BF00008FB00BF4DF808EDFFF7E0FF94BF0120B0
:100C000000205DF808FB00BF4DF808EDFFF7D2FFAC
:100C100094BF012000205DF808FB00BF4DF808EDEF
:100C2000FFF7C8FF34BF012000205DF808FB00BFBC
:100C300042000ED2B2F1FE4F0BD34FF09E03B3EB46
:100C4000126209D44FEA002343F0004323FA02F072
:100C500070474FF00000704712F1610F01D142025E
:100C600002D14FF0FF3070474FF00000704700BFD7
:100C700053B94AB9002908BF00281CBF4FF0FF3103
:100C80004FF0FF3000F094B9ADF1080C6DE904CEDF
:100C900000F026F8DDF804E0DDE9022304B0704737
:100CA000D0B5FFF711FC0C4B002206460F4600F0B2
:100CB00001FB00F07FF90446FFF7E4FB074B00223D
:100CC00000F0F8FA02460B4630463946FFF79CFA28
:100CD00000F070F92146D0BD0000F03D0000F04169
:100CE0002DE9F047089E0D4604468846002B4DD15D
:100CF0008A42944668D9B2FA82F252B101FA02F3FA
:100D0000C2F1200120FA01F10CFA02FC41EA0308C9
:100D100094404FEA1C45210CB8FBF5FE1FFA8CF7F6
:100D200005FB1E8341EA03430EFB07F199420BD9F1
:100D30001CEB03030EF1FF3080F01E81994240F25C
:100D40001B81AEF1020E63445B1AA4B2B3FBF5F053
:100D500005FB103344EA034400FB07F7A7420AD916
:100D60001CEB040400F1FF3380F00881A74240F23D
:100D7000058164440238E41B40EA0E4000211EB1A4
:100D8000D4400023C6E90043BDE8F0878B4208D970
:100D9000002E00F0EE800021C6E900050846BDE8FF
:100DA000F087B3FA83F100294AD1AB4202D38242E1
:100DB00000F2F980841A65EB030301209846002EA7
:100DC000E2D0C6E90048DFE702B9FFDEB2FA82F2FC
:100DD000002A40F09180A1EB0C054FEA1C471FFA56
:100DE0008CFE0121B5FBF7F307FB1350250C45EAF8
:100DF00000450EFB03F0A84208D91CEB050503F1E2
:100E0000FF3802D2A84200F2CB8043462D1AA4B28A
:100E1000B5FBF7F007FB105544EA05440EFB00FE56
:100E2000A64508D91CEB040400F1FF3502D2A64503
:100E300000F2BB802846A4EB0E0440EA03409EE784
:100E4000C1F120078B4022FA07FC4CEA030C20FA80
:100E500007F405FA01F31C43FD404FEA1C4900FA70
:100E600001F3B5FBF9F8200C1FFA8CFE09FB1855AD
:100E700040EA054508FB0EF0A84202FA01F20BD940
:100E80001CEB050508F1FF3A80F08880A84240F28B
:100E90008580A8F1020865442D1AA4B2B5FBF9F0CB
:100EA00009FB105544EA054500FB0EFEAE4508D986
:100EB0001CEB050500F1FF346CD2AE456AD902384F
:100EC000654440EA0840A0FB0294A5EB0E05A5424C
:100ED000C846A64656D353D05EB1B3EB080265EBC5
:100EE0000E0505FA07F722FA01F3CD401F43C6E9C4
:100EF00000750021BDE8F087C2F1200320FA03F15C
:100F00000CFA02FC25FA03F395400D434FEA1C4707
:100F10001FFA8CFEB3FBF7F107FB11302B0C43EAF1
:100F2000004301FB0EF0984204FA02F408D91CEBCE
:100F3000030301F1FF382FD298422DD902396344BF
:100F40001B1AADB2B3FBF7F007FB103345EA0345BC
:100F500000FB0EF3AB4208D91CEB050500F1FF388E
:100F600016D2AB4214D902386544ED1A40EA014169
:100F700038E73146304607E78646E5E61846FAE6A2
:100F80004B45A9D2B9EB020864EB0C0E0138A3E77C
:100F90004046EAE7204694E74146D1E7D0467BE762
:100FA000023B654432E7084609E76444023842E7F9
:100FB000704700BF4A0011D212F5001211D20DD5B0
:100FC0006FF47873B3EB62520ED44FEAC12343F04F
:100FD000004343EA505323FA02F070474FF00000F9
:100FE000704750EA013002D14FF0FF3070474FF0A8
:100FF000000070470000000000000000000000003A
:1010000090F800F06DE9024520F007016FF0000C48
:1010100010F0070491F820F040F049804FF00004F0
:101020006FF00700D1E9002391F840F000F10800CB
:1010300082FA4CF2A4FA8CF283FA4CF3A2FA8CF303
:101040004BBBD1E9022382FA4CF200F10800A4FA6A
:101050008CF283FA4CF3A2FA8CF3E3B9D1E90423BE
:1010600082FA4CF200F10800A4FA8CF283FA4CF3F5
:10107000A2FA8CF37BB9D1E9062301F1200182FAAF
:101080004CF200F10800A4FA8CF283FA4CF3A2FAB5
:101090008CF3002BC6D0002A04BF04301A4612BAC3
:1010A000B2FA82F2FDE8024500EBD2007047D1E9C6
:1010B000002304F00305C4F100004FEAC50514F055
:1010C000040F91F840F00CFA05F562EA05021CBF26
:1010D00063EA050362464FF00004A9E70000000040
:1010E00001F0FF01102A2BDB10F0070F08D010F8D9
:1010F000013B013A8B422DD010F0070F42B3F6D1DD
:10110000F0B441EA012141EA014122F007047FF0F5
:1011100000070023F0E80256083C85EA010586EA4C
:10112000010685FA47F5A3FA87F586FA47F6A5FA88
:1011300087F68EB9EED1F0BC01F0FF0102F0070294
:1011400032B110F8013B013A83EA010313B1F8D13F
:101150000020704701387047002D06BF3546033820
:10116000073815F0010F07D1013015F4807F02BF59
:10117000013015F4C03F0130F0BC0138704700BFAA
:10118000844641EA000313F003036DD1403A41D392
:1011900051F8043B40F8043B51F8043B40F8043B51
:1011A00051F8043B40F8043B51F8043B40F8043B41
:1011B00051F8043B40F8043B51F8043B40F8043B31
:1011C00051F8043B40F8043B51F8043B40F8043B21
:1011D00051F8043B40F8043B51F8043B40F8043B11
:1011E00051F8043B40F8043B51F8043B40F8043B01
:1011F00051F8043B40F8043B51F8043B40F8043BF1
:1012000051F8043B40F8043B51F8043B40F8043BE0
:10121000403ABDD2303211D351F8043B40F8043B80
:1012200051F8043B40F8043B51F8043B40F8043BC0
:1012300051F8043B40F8043B103AEDD20C3205D390
:1012400051F8043B40F8043B043AF9D2043208D088
:10125000D2071CBF11F8013B00F8013B01D30B88FA
:1012600003806046704700BF082A13D38B078DD0D8
:1012700010F003038AD0C3F10403D21ADB071CBFAA
:1012800011F8013B00F8013B80D331F8023B20F814
:10129000023B7BE7043AD9D3013A11F8013B00F84D
:1012A000013BF9D20B7803704B7843708B788370D5
:1012B0006046704770B54FF0FF0C4CF4E06C1CEAD0
:1012C00011541DBF1CEA135594EA0C0F95EA0C0F3C
:1012D00000F0DEF82C4481EA030621EA4C5123EAAF
:1012E0004C5350EA013518BF52EA033541F48011DE
:1012F00043F4801338D0A0FB02CE4FF00005E1FB91
:1013000002E506F00042E0FB03E54FF00006E1FBDA
:1013100003569CF0000F18BF4EF0010EA4F1FF041D
:10132000B6F5007F64F5407404D25FEA4E0E6D415D
:1013300046EB060642EAC62141EA55514FEAC5206E
:1013400040EA5E504FEACE2EB4F1FD0C88BFBCF5EA
:10135000E06F1ED8BEF1004F08BF5FEA500E50F19B
:10136000000041EB045170BD06F0004646EA010161
:1013700040EA020081EA0301B4EB5C04C2BFD4EB93
:101380000C0541EA045170BD41F480114FF0000E8C
:10139000013C00F3AB8014F1360FDEBF002001F0FA
:1013A000004170BDC4F10004203C35DA0C341BDC74
:1013B00004F11404C4F1200500FA05F320FA04F046
:1013C00001FA05F240EA020001F0004221F000417A
:1013D00010EBD37021FA04F642EB06015EEA430EED
:1013E00008BF20EAD37070BDC4F10C04C4F120051D
:1013F00000FA04F320FA05F001FA04F240EA0200D0
:1014000001F0004110EBD37041F100015EEA430EA0
:1014100008BF20EAD37070BDC4F1200500FA05F2C0
:101420004EEA020E20FA04F301FA05F243EA02033F
:1014300021FA04F001F0004121FA04F220EA02004E
:1014400000EBD3705EEA430E08BF20EAD37070BD94
:1014500094F0000F0FD101F00046400041EB010174
:1014600011F4801F08BF013CF7D041EA060195F056
:10147000000F18BF704703F00046520043EB030310
:1014800013F4801F08BF013DF7D043EA06037047FD
:1014900094EA0C0F0CEA135518BF95EA0C0F0CD008
:1014A00050EA410618BF52EA4306D1D181EA03014E
:1014B00001F000414FF0000070BD50EA410606BF48
:1014C0001046194652EA430619D094EA0C0F02D18D
:1014D00050EA013613D195EA0C0F05D152EA0336D2
:1014E0001CBF104619460AD181EA030101F00041F0
:1014F00041F0FE4141F470014FF0000070BD41F039
:10150000FE4141F4780170BD70B54FF0FF0C4CF412
:10151000E06C1CEA11541DBF1CEA135594EA0C0F31
:1015200095EA0C0F00F0A7F8A4EB050481EA030E7E
:1015300052EA03354FEA013100F088804FEA033365
:101540004FF0805545EA131343EA12634FEA022233
:1015500045EA111545EA10654FEA00260EF00041F4
:101560009D4208BF964244F1FD0404F5407402D246
:101570005B084FEA3202B61A65EB03055B084FEAD7
:1015800032024FF480104FF4002CB6EB020E75EBD4
:10159000030E22BFB61A754640EA0C005B084FEAFC
:1015A0003202B6EB020E75EB030E22BFB61A754679
:1015B00040EA5C005B084FEA3202B6EB020E75EBC4
:1015C000030E22BFB61A754640EA9C005B084FEA3C
:1015D0003202B6EB020E75EB030E22BFB61A754649
:1015E00040EADC0055EA060E18D04FEA051545EA38
:1015F00016754FEA06164FEAC30343EA52734FEAE1
:10160000C2025FEA1C1CC0D111F4801F0BD141EA59
:1016100000014FF000004FF0004CB6E711F4801FBE
:1016200004BF01430020B4F1FD0C88BFBCF5E06F9E
:101630003FF6AFAEB5EB030C04BFB6EB020C5FEAAE
:10164000500C50F1000041EB045170BD0EF0004E03
:101650004EEA113114EB5C04C2BFD4EB0C0541EA35
:10166000045170BD41F480114FF0000E013C90E632
:1016700045EA060E8DE60CEA135594EA0C0F08BFF6
:1016800095EA0C0F3FF43BAF94EA0C0F0AD150EAF5
:1016900001347FF434AF95EA0C0F7FF425AF104688
:1016A00019462CE795EA0C0F06D152EA03353FF4B0
:1016B000FDAE1046194622E750EA410618BF52EA2D
:1016C00043067FF4C5AE50EA41047FF40DAF52EA01
:1016D00043057FF4EBAE12E74FEA410C7FEA6C5C06
:1016E00002D150EA013C0AD14FEA430C7FEA6C5C1C
:1016F00002D152EA033C02D14FF0000070474FF094
:10170000010070474FEA410212F5001215D211D5BF
:101710006FF47873B3EB625212D94FEAC12343F0EE
:10172000004343EA505311F0004F23FA02F018BF70
:10173000404270474FF00000704750EA013005D139
:1017400011F0004008BF6FF0004070474FF00000FC
:10175000704700BF10B582B08DF807000E4C002214
:101760004FF40061204604F04EFC00224FF48051FB
:10177000204604F048FC4FF0FF3301220DF1070131
:10178000064805F07EF801224FF48051204604F00F
:101790003AFC02B010BD00BF000002405C0B00200C
:1017A00010B582B08DF807000E4C01224FF4006195
:1017B000204604F028FC00224FF48051204604F01B
:1017C00022FC4FF0FF3301220DF10701064805F01E
:1017D00058F801224FF48051204604F014FC02B066
:1017E00010BD00BF000002405C0B002008B5024B9A
:1017F000187AFFF7AFFF08BD000A002010B582B0CD
:10180000030A8DF804308DF805000E4C00224FF4C9
:101810008051204604F0F7FB01224FF4006120467E
:1018200004F0F1FB4FF0FF33022201A9064805F056
:1018300028F801224FF48051204604F0E4FB02B066
:1018400010BD00BF000002405C0B002070B50546D3
:101850000C460A4EB07AFFF77DFF280AFFF7A0FF7B
:10186000E8B2FFF79DFF307BFFF774FF200AFFF718
:1018700097FFE0B2FFF794FF70BD00BF000A0020A1
:1018800010B50C46C0B2FFF765FF2046FFF7B6FF64
:1018900010BD000008B5FFF7D9FFFFF7A7FF024B07
:1018A0001888FFF7ABFF08BDFC09002010B51446EF
:1018B000FFF7CCFF2146024B1889FFF7E1FF10BD6F
:1018C000000A00202DE9F04F83B0824688461F466B
:1018D0009DF830B0002513F0070318BF012303EB78
:1018E000D703790811FB03F3DBB20093203AD3B29C
:1018F00001934446A94636E0214B019A03EB0213BB
:1019000013F8095036E01F4B1A8821465046FFF75E
:10191000CDFF6D00EDB20134A4B21B4B5B88A34236
:101920002AD9A4EB0803BB4210D00136F6B2072E29
:1019300015D815F0800FE6D1BBF1000FE9D1134B9C
:101940001A8821465046FFF7B1FFE2E70AF1010A83
:101950001FFA8AFA0C4B1B8853450DD9444609F1EE
:1019600001095FFA89F9009B994505D2102FC3D070
:10197000182F01D10026DAE703B0BDE8F08F00BFD1
:1019800028ED0008FC090020000A002000000020CB
:101990002DE9F04F83B00746884614461E469DF851
:1019A00030A0814600252278A2B3002DFBD11B4B2D
:1019B0001B884FEA560BA3EB560399452ADC174BBD
:1019C0005B889B1B984525DC802A01D90125EAE725
:1019D0000D2A0DD0172E12D9CDF800A0182341469C
:1019E0004846FFF76FFF09F10C091FFA89F904E077
:1019F000B0441FFA88F80134B9460134D3E7CDF872
:101A000000A0334641464846FFF75CFFD9441FFA21
:101A100089F9F2E703B0BDE8F08F00BF000A0020AB
:101A20000246012002E002FB00F019464B1EDBB229
:101A30000029F8D1704700002DE9F04782B08246B6
:101A4000894690461D469DF8286000273C4619E0CF
:101A5000700800FB04A0002300933346202249466F
:101A600080B2FFF72FFF0BE07008303200FB04A0BC
:101A7000002300933346D2B2494680B2FFF722FFDB
:101A80000134E4B2AC421CD2291BC9B20139C9B23B
:101A90000A20FFF7C5FFB8FBF0F00B4AA2FB003CA1
:101AA0004FEADC0C0CEB8C0CA0EB4C0C5FFA8CF2CC
:101AB000002FD9D16B1E9C42D6DA002AC8D001274C
:101AC000D2E702B0BDE8F087CDCCCCCC70B50646ED
:101AD000094B1A885D8802FB05F500210846FFF7CF
:101AE000B5FEFFF783FE002403E03046FFF786FED5
:101AF0000134AC42F9D370BD000A002010B5714C1E
:101B000001224FF48071204604F07DFA012003F099
:101B100063FA00224FF48071204604F074FA0A2020
:101B200003F05AFA01224FF48071204604F06BFA58
:101B3000782003F051FA782003F04EFA1120FFF7D5
:101B400009FE782003F048FAF020FFF703FEC320D7
:101B5000FFF726FEF020FFF7FDFD9620FFF720FEA1
:101B60003620FFF7F7FD4820FFF71AFE3A20FFF76F
:101B7000F1FD5520FFF714FEB420FFF7EBFD012027
:101B8000FFF70EFEB720FFF7E5FDC620FFF708FEC2
:101B9000E820FFF7DFFD4020FFF702FE8A20FFF775
:101BA000FFFD0020FFF7FCFD0020FFF7F9FD2920D5
:101BB000FFF7F6FD1920FFF7F3FDA520FFF7F0FD75
:101BC0003320FFF7EDFDC120FFF7C4FD0620FFF72E
:101BD000E7FDC220FFF7BEFDA720FFF7E1FDC5200E
:101BE000FFF7B8FD1820FFF7DBFDE020FFF7B2FD9F
:101BF000F020FFF7D5FD0920FFF7D2FD0B20FFF7FE
:101C0000CFFD0620FFF7CCFD0420FFF7C9FD15200E
:101C1000FFF7C6FD2F20FFF7C3FD5420FFF7C0FDDF
:101C20004220FFF7BDFD3C20FFF7BAFD1720FFF76C
:101C3000B7FD1420FFF7B4FD1820FFF7B1FD1B20FE
:101C4000FFF7AEFDE120FFF785FDF020FFF7A8FDCF
:101C50000920FFF7A5FD0B20FFF7A2FD0620FFF7E7
:101C60009FFD0420FFF79CFD0320FFF799FD2D2029
:101C7000FFF796FD4320FFF793FD4220FFF790FD0D
:101C80003B20FFF78DFD1620FFF78AFD1420FFF79C
:101C900087FD1720FFF784FD1B20FFF781FDF02053
:101CA000FFF758FD3C20FFF77BFDF020FFF752FDCA
:101CB0006920FFF775FD782003F08EF92920FFF7E2
:101CC00049FD10BD0000024010B501282DD9831E2A
:101CD000DBB2012B47D9334CA07AFFF73BFD002044
:101CE000FFF75EFD0020FFF75BFD20880138C0F3A1
:101CF0000720FFF755FD20780138C0B2FFF750FDEF
:101D0000207BFFF727FD0020FFF74AFD0020FFF7AB
:101D100047FD60880138C0F30720FFF741FDA07838
:101D20000138C0B2FFF73CFD10BD1E4B00229A7176
:101D30004FF4A0721A804FF4F0725A802C221A814C
:101D40002A225A812B229A8130B93620FFF702FDD0
:101D50004820FFF725FDBEE73620FFF7FBFC882073
:101D6000FFF71EFDB7E70F4B01229A714FF4F07297
:101D70001A804FF4A0725A802C221A812A225A818A
:101D80002B229A81022806D03620FFF7E3FC282078
:101D9000FFF706FD9FE73620FFF7DCFCE820FFF7A2
:101DA000FFFC98E7000A002008B501224FF40071FB
:101DB000014804F028F908BD000802402DE9F04F61
:101DC00083B08046A2EB000A8946A3EB010BBAF16F
:101DD000000F0DDD01220092BBF1000F14DD012385
:101DE0000193DA451CDD564600252F462C461BE0A4
:101DF000BAF1000F05D0A0EB020A4FF0FF320092BB
:101E0000EAE7CDF800A0E7E7BBF1000F05D0A1EBB2
:101E1000030B4FF0FF330193E3E7CDF804B0E0E7A5
:101E20005E46E1E70134A4B2731C9C4212DC1FFA47
:101E300089F11FFA88F0FFF72DFD57445D44BE423B
:101E400002DABF1B009B9844AE42EBDAAD1B019B4C
:101E50009944E7E703B0BDE8F08FF8B507460E46B2
:101E600015461C460B46FFF7A9FF23463A46314666
:101E70003846FFF7A3FF23462A4621463846FFF798
:101E80009DFF23462A4631462846FFF797FFF8BDB7
:101E90002DE9F04383B080460F469946BDF828608F
:101EA000204B998846F60403994205D0A2EB080519
:101EB000ADB20135ADB22BE01A4B9B79012BF5D1B8
:101EC000184C2388991A89B201391B1A9BB2013B1D
:101ED0000022A2712A2565814FF02B08A4F80C80FE
:101EE00000969BB24A4689B23846FFF7D1FF0123DC
:101EF000A371A4F80A80A58103B0BDE8F083304641
:101F0000FFF77CFC0134A4B2AC42F8D30137BFB276
:101F10004F45F1D839464046FFF798FCFFF766FC7D
:101F20000024F1E7000A002070B586B004460D4693
:101F30001E461046FEF7C8FA02460B46074903A89C
:101F400005F052FA9DF828300093334603AA29463B
:101F50002046FFF71DFD06B070BD00BF18ED00085C
:101F600070B586B004460D461E461046FEF7ACFA24
:101F700002460B46074903A805F036FA9DF82830BB
:101F80000093334603AA29462046FFF701FD06B019
:101F900070BD00BF20ED00082DE9F04F83B08246F0
:101FA0008946174640F2C32B0BFB02FB2D4BA3FBCC
:101FB0000B3B4FEA9B1B0BF1010B530802FB023357
:101FC00001930244C01B0B4692B280B2FFF7F6FEAB
:101FD000012619E0013FBDB2AAEB05081FFA88F8F7
:101FE000B4B204EB090189B25544ADB20B462A469E
:101FF0004046FFF7E3FEA9EB040189B20B462A46EF
:102000004046FFF7DBFE01365E4527D807FB07F3A6
:1020100006FB0633019A9342DDD95F45DAD9AAEB74
:10202000060292B202F101081FFA88F8BDB205EB70
:10203000090189B2741E02EB4404A4B20134A4B2B3
:102040000B4622464046FFF7B9FEA9EB050189B2CF
:102050000B4622464046FFF7B1FEBBE703B0BDE8A2
:10206000F08F00BFD34D621000B585B00023009300
:102070000193029303932E482E4A02604FF480325C
:102080004260836001220261027680F82030C362E0
:1020900029498162C3600523C36180F83020426111
:1020A00003F048F8002831D1032300930123019362
:1020B0000723029369461E4803F066F948BB0423D0
:1020C0000093022301936946194803F05DF918BB98
:1020D00005230093032301936946154803F054F93F
:1020E000E8B906230093042301936946104803F0DE
:1020F0004BF9B8B9072300930523019369460C48AF
:1021000003F042F988B905B05DF804FB02F046FA25
:10211000CAE702F043FAD2E702F040FAD8E702F049
:102120003DFADEE702F03AFAE4E702F037FAEAE7CE
:10213000100A0020002001400100000F30B589B0D6
:10214000002303930493059306930793026803F116
:10215000804303F590339A4201D009B030BD044664
:102160000025019503F58C335A6C42F480725A6451
:102170005A6C02F480720192019A02951A6B42F035
:1021800001021A631B6B03F001030293029BF82305
:1021900003930323049303A9104803F04DFE104852
:1021A000104B036045608560C5604FF48063036138
:1021B0004FF4805343614FF4804383614FF4807345
:1021C000C3610562456203F0C9FA18B9044BA36301
:1021D0009C63C2E702F0E2F9F8E700BF00000240AA
:1021E000580A00201064024008B50548054B0360FA
:1021F00003F002FA00B908BD02F0D0F9FBE700BF16
:10220000B80A0020003002400268094B9A4200D010
:10221000704782B000230193064B1A6B42F4805240
:102220001A631B6B03F480530193019B02B0704748
:10223000003002400038024000B583B00021019117
:10224000094B1A6B42F480021A631B6B03F4800380
:102250000193019B0A46382003F074F9382003F0FB
:10226000A9F903B05DF804FB0038024000231846CA
:102270002C33B3F5003F08D800F1006202F50032BC
:102280001168034A9142F2D070474FF40030FBE7E7
:102290002FCB040008B501460A22024803F0BBF91F
:1022A00008BD00BFB80A00202DE9F04F8FB083466B
:1022B0004FF00008CDF804804646444615E003A8D8
:1022C000FFF7E8FF874204D074B9314805F084F87D
:1022D0000AE0049BB34207D901941E464FF001085F
:1022E00002E02C4805F016F82C4604F12C05B5F553
:1022F000003F2AD804F1006303F500339E460DF138
:102300000C0C03F1200AE146DEF80000DEF80410B0
:10231000DEF80820DEF80C30A9E80F000EF1100EF0
:10232000CC46D645EFD14B46DEF80000DEF804106F
:10233000DEF8082007C3059F002305930399164B79
:102340009942BCD0002CCFD1CBE7B8F1000F03D11C
:1023500040460FB0BDE8F08F019B03F1006707F521
:102360000037584607F120053C687968BA68FB6871
:10237000046041608260C36010371030AF42F3D117
:1023800039687A68BB68016042608360E0E700BF3B
:1023900018F3000828F300082FCB040010B58CB008
:1023A000044601A8FFF780FF049B2360059B636040
:1023B000069BA360079BE360089B2361099B636105
:1023C0000A9BA3610B9BE3610CB010BD10B586B0F6
:1023D000124805F001F803F0E9FB002301930523FF
:1023E000039301230493022205920293694601A8F4
:1023F00003F0D8FC044603F0F1FB54B12146084831
:1024000004F088FF0023074A1360074A136006B0F0
:1024100010BD064804F0E0FFF4E700BF38F3000801
:1024200054F30008C00A0020C40A002068F3000822
:1024300010B58CB001A8FFF737FF90B1029C0E4B8E
:102440001C60FFF713FF03460C4A1060A0F12C023A
:1024500021460B4804F05EFF0A4B01221A700CB0B3
:1024600010BD0023044A1360044A1360064804F0B8
:10247000B3FFFFF7ABFFEFE7C00A0020C40A00205C
:102480007CF30008C80A0020C8F3000884B030B507
:102490008DB010AC84E80F00354B1B78002B3DD07D
:1024A000344B1B682C33B3F5003F3AD8324B0193C1
:1024B000324B1B680133029300230393109B049358
:1024C000119B0593129B0693139B0793149B0893F0
:1024D000159B0993169B0A93179B0B9301A8FFF773
:1024E000D9FE039003F062FB014600BB214B1D683F
:1024F00005F1006505F5003500240A2C24D80CAB45
:1025000003EB840353F82C2C002305EB84010220F9
:1025100003F09EFB024678B90134EEE7FFF788FF2F
:10252000BEE7174804F058FFFFF750FFBEE7154815
:1025300004F0F0FE002015E02146134804F0EAFE06
:1025400003F04CFB00200DE003F048FB0B4B196837
:1025500001311960074B1A682C321A600B4804F0DD
:10256000D9FE01200DB0BDE8304004B0704700BF77
:10257000C80A0020C40A00202FCB0400C00A002093
:10258000ECF3000808F4000824F400084CF40008F8
:102590002DE9F0438BB00024059406940794089429
:1025A00009940194464B1A6B42F004021A631A6BA9
:1025B00002F004020192019A02941A6B42F0800226
:1025C0001A631A6B02F080020292029A03941A6B49
:1025D00042F001021A631A6B02F001020392039A9D
:1025E00004941A6B42F002021A631B6B03F002039D
:1025F0000493049B334E224642F21121304603F0ED
:1026000002FD314F224646F2F011384603F0FBFC42
:10261000DFF8B88022464FF4C851404603F0F3FC7F
:1026200042F211230593012506950794089405A904
:10263000304603F001FC4FF4124305934FF40419A4
:10264000CDF81890079505A9384603F0F5FB46F23A
:10265000F013059306950794089405A9384603F0EE
:10266000EBFB4FF4A0730593CDF81890079505A9DF
:10267000304603F0E1FB802305930694079505A9F6
:10268000304603F0D9FB4FF4C853059306950794E1
:10269000089405A9404603F0CFFB224621461720A7
:1026A00002F050FF172002F085FF22462146282025
:1026B00002F048FF282002F07DFF0BB0BDE8F08358
:1026C00000380240000802400004024000000240BE
:1026D00000B58DB02449254B1868FEF7E3F8FEF7E6
:1026E000A7FA04902049224B1868FEF7DBF8FEF7A2
:1026F0009FFA05901C491F4B1868FEF7D3F8FEF7A8
:1027000097FA069018491C4B1868FEF7CBF8FEF7AD
:102710008FFA07901449194B1868FEF7C3F8FEF7B3
:1027200087FA0890164B1B780993164B1B680A937F
:1027300043F239030B930CAB13E90F008DE80F0044
:1027400004AB0FCBFFF7A2FE0F4B1A6801321A60E1
:10275000102300930A2346214FF4B670FFF76CF95B
:102760000DB05DF804FB00BF000020410400002014
:102770001800002008000020140000200C00002099
:10278000220B0020180B0020E40A002000B583B0C3
:1027900001904FF0FF33012201A9034804F0D1FC5E
:1027A000019803B05DF804FB480C0020044B196845
:1027B000044A1268506A1B688B42F7D1704700BF09
:1027C000540B0020B80B002008B5024804F062F951
:1027D00008BD00BF000C002008B50368B3F1804FAE
:1027E00004D002680D4B9A4205D008BD0C4A13680C
:1027F00001331360F5E710210A4803F00AFC0A4A86
:1028000013780133DBB21370232BEED91346002269
:102810001A70064804F07AF9E7E700BF00040040A8
:10282000540B002000080240E00A0020000C0020A9
:1028300010B5FFF7BBFF184A13685268174C1B19F5
:1028400042F10002834272EB010301D3002010BD6C
:10285000114B18605960124B1A8840F2DB539A42B0
:1028600007D90F4B1A8840F2A4639A420AD8012074
:10287000EDE70C4804F0B0FD012211460A4803F0D0
:10288000C2FBEEE7094804F0A7FD0022012106483B
:1028900003F0B9FBEBE700BF480B002040420F00FC
:1028A000200B002078F400080008024080F40008A3
:1028B000F8B54FF07C512C4B1868FDF7F3FF2B490E
:1028C000FDF7F0FFFEF7B4F9294B1880294B186883
:1028D000FDF790FF2849FDF7E5FF4FF06651FDF742
:1028E000E1FFFEF7A5F9254B188000241BE0FDF75A
:1028F00085FF2349FDF7D6FF07463046FDF77EFFEB
:102900002049FDF7CFFF01463846FDF7C3FEFEF72D
:102910008FF91D4B23F814001B4B33F814201B4B6D
:1029200023F814202C46032C1DDC651C114B53F896
:102930002500FDF75FFF1649FDF7B4FF4FF0665124
:10294000FDF7B0FF1349FDF7ADFF0849FDF7AAFFFA
:10295000FEF76EF980B20C4B33F81460002EC6D12E
:1029600023F81400D8E7F8BD0400002000007A44E2
:102970001E0B0020F80A002000404E45200B0020CE
:10298000CDCCCC3D6666663FEC0A0020100B0020E3
:1029900033335340CDCCCC3F08B50268054B9A4247
:1029A00000D008BD4FF40051034803F032FBFFF79D
:1029B0007FFFF6E700200140000802400000000011
:1029C0002DE9F04182B0002630464FF6FF743546BF
:1029D000334603E0104480B20133DBB2032B0AD844
:1029E0008B4A32F81320AA4201D91E461546A2424C
:1029F000F0D21446EEE78708864B1B78042B07D8E5
:102A0000DFE803F003093E87BE00824B01221A7003
:102A100002B0BDE8F081804C01224FF48071204665
:102A200003F0F1FA00221021204603F0ECFA002214
:102A30002021204603F0E7FA00224021204603F03F
:102A4000E2FA00228021204603F0DDFA3846FDF745
:102A500029FD04460D46714B1888FDF723FD68A338
:102A6000D3E90023FEF726FC02460B462046294602
:102A7000FDF700FE0028CBD0664B02221A70C7E794
:102A800001224FF48071644803F0BDFA00230193E2
:102A9000A8462C1B142C04DD02AB1E44012306F8AF
:102AA000043C5D4C9DF804201021204603F0ABFA55
:102AB0009DF805202021204603F0A5FA9DF8062068
:102AC0004021204603F09FFA9DF8072080212046F0
:102AD00003F099FA4046FDF7E5FC04460D464F4BDE
:102AE0001E883046FDF7DEFC47A3D3E90023FEF73E
:102AF000E1FB02460B4620462946FDF79DFD10B13D
:102B0000444B01221A70BE4282D2424B03221A70F9
:102B10007EE700224FF480713F4803F074FA0023EF
:102B200001932B1B142B04DD02AB1E44012306F87A
:102B3000043C394E9DF804201021304603F063FA1E
:102B40009DF805202021304603F05DFA9DF806200F
:102B50004021304603F057FA9DF807208021304687
:102B600003F051FA2D4B1B88AB4202D9294A0221AE
:102B70001170A342BFF44CAF264B04221A7047E7F2
:102B800000224FF48071244803F03DFA00230193A2
:102B9000012401E00133DBB2032B11D818461C4A93
:102BA00032F813201D4909888A42F3D3521A142A95
:102BB000F0DD02AA1044012200F8042C0024E9E709
:102BC000154D9DF804201021284603F01CFA9DF8AD
:102BD00005202021284603F016FA9DF80620402102
:102BE000284603F010FA9DF807208021284603F0BC
:102BF0000AFA002C3FF40CAF064B03221A7007E7C9
:102C0000333333333333D33F9A9999999999E93FC1
:102C1000100B00201D0B0020000402401E0B0020A2
:102C20002DE9F04182B0FFF7C1FD424A13685268B6
:102C3000414C1B1942F10002834272EB010302D3A3
:102C400002B0BDE8F081FFF7BBFEFFF7AFFD394BE7
:102C5000C3E90001394D2F886C883819FDF7CEFD86
:102C60003749FDF7D3FE06463846FDF7C3FD344924
:102C7000FDF7CCFE80462046FDF7BCFD3049FDF750
:102C8000C5FE07460024009410234246D221AA2004
:102C9000FFF766F9009410233A46D221DA20FFF7B5
:102CA0005FF9009410233246F221BC20FFF758F957
:102CB000DFF89080009410234246F221DE20FEF7D8
:102CC00067FEAF88EE88B819FDF798FD1C49FDF73F
:102CD0009DFE05463846FDF78DFD1949FDF796FE28
:102CE00007463046FDF786FD1549FDF78FFE06467F
:102CF000009410233A46D2214FF4A370FFF730F925
:102D0000009410233246D2214FF4BB70FFF728F90C
:102D1000009410232A46F2214FF4AC70FFF720F9FB
:102D2000009410234246F2214FF4BD70FEF730FEAE
:102D300086E700BF380B0020A0860100100B0020A2
:102D400000007A448CF40008F0B583B0A34C4FF631
:102D50001F05258040237A2223214620FFF77DF896
:102D6000258040234FF4E07223214FF4B570FFF724
:102D700074F8012600961023994A29214FF49E7079
:102D8000FEF706FE40F2FF73238074234A221946A1
:102D90002720FFF713F864234A2274211046FFF717
:102DA0000DF864237F2219464A20FFF707F87423A1
:102DB0007F2264211046FFF701F874239B221946F5
:102DC0007F20FEF7FBFF6423A62274219B20FEF7E1
:102DD000F5FF6423F5221946A620FEF7EFFF7423C2
:102DE0004FF480726421F520FEF7E8FF742340F26F
:102DF000351219464FF48070FEF7E0FF84234FF43C
:102E0000A072742140F23510FEF7D8FF842340F2FF
:102E1000951219464FF4A070FEF7D0FF74234FF4BB
:102E2000D072842140F29510FEF7C8FF742340F25F
:102E3000CD1219464FF4D070FEF7C0FF73234A221B
:102E400019462720FEF7BAFF642349227421104651
:102E5000FEF7B4FF63237F2219464A20FEF7AEFF38
:102E600074237E2264211046FEF7A8FF73239B2261
:102E700019467F20FEF7A2FF6423A52274219A2021
:102E8000FEF79CFF6323F5221946A620FEF796FF66
:102E90007423FF226421F420FEF790FF732340F295
:102EA000351219464FF48070FEF788FF842340F2F4
:102EB0003F1274214FF49A70FEF780FF832340F293
:102EC000951219464FF4A070FEF778FF742340F274
:102ED0009F1284214FF4CA70FEF770FF732340F2F3
:102EE000CD1219464FF4D070FEF768FF00272780F7
:102EF000009610233B4A96215020FEF749FD25807D
:102F0000CB237A22A7214620FEF7A7FF2780009631
:102F10001023354A9621C320FEF73AFD2580CB23A6
:102F2000F122A721AA20FEF798FF27800096102300
:102F30002E4A96214FF48870FEF72AFD2580CB2378
:102F400040F23B12A7214FF48170FEF786FF2780E5
:102F500000961023264A962140F26310FEF718FDD2
:102F60002580CB234FF4CA72A7214FF4A670FEF739
:102F700074FF2780009610231E4AF3213820FEF7A5
:102F800007FD25804FF486737A22E8214620FEF75C
:102F900064FF278000961023174AF3219C20FEF738
:102FA000F7FC25804FF48673F722E821B020FEF766
:102FB00054FF278000961023104AF3214FF49C7091
:102FC000FEF7E6FC25804FF486734FF4CA72E821C1
:102FD0004FF4A670FEF741FF03B0F0BDFC090020DE
:102FE00090F4000898F40008A0F40008A4F4000885
:102FF000ACF40008B0F40008B4F40008B8F4000819
:1030000010B50C46052818D8DFE800F0032442600C
:1030100084A89AB1604B00221A8040F20D137B22E3
:10302000E7214520FEF719FF5B4B1C804FF48673A8
:103030007A22E8214620FEF710FF10BD564B4FF6CE
:10304000FF721A8040F20D137B22E7214520FEF724
:1030500004FFE9E78AB1504B00221A80CC237B227F
:10306000A6214520FEF7F9FE4B4B1C80CB237A228C
:10307000A7214620FEF7F1FEDFE7474B4FF6FF7230
:103080001A80CC237B22A6214520FEF7E6FEEBE743
:103090008AB1414B00221A80CC23F222A621A9201A
:1030A000FEF7DBFE3C4B1C80CB23F122A721AA209C
:1030B000FEF7D3FEC1E7384B4FF6FF721A80CC23E0
:1030C000F222A621A920FEF7C8FEEBE7AAB1324BF7
:1030D00000221A80CC234FF49E72A62140F20110E8
:1030E000FEF7BBFE2C4B1C80CB2340F23B12A721EA
:1030F0004FF48170FEF7B1FE9FE7274B4FF6FF724A
:103100001A80CC234FF49E72A62140F20110FEF7E4
:10311000A4FEE7E7AAB1204B00221A80CC2340F29C
:103120009512A62140F24B10FEF797FE1A4B1C8019
:10313000CB234FF4CA72A7214FF4A670FEF78DFE81
:103140007BE7154B4FF6FF721A80CC2340F29512A5
:10315000A62140F24B10FEF780FEE7E78AB10E4B46
:1031600000221A8041237B2222214520FEF775FE92
:10317000094B1C8040237A2223214620FEF76DFE56
:103180005BE7054B4FF6FF721A8041237B22222119
:103190004520FEF762FEEBE7FC09002038B5044647
:1031A000064D00224FF61F012878FFF729FF012264
:1031B00000212046FFF724FF2C7038BD310B002082
:1031C00010B50C46052818D8DFE800F0032442604B
:1031D00084A89AB1604B00221A804FF4857378223C
:1031E000EA214820FEF739FE5B4B1C804FF48673C2
:1031F0007A22E8214620FEF730FE10BD564B4FF6EE
:10320000FF721A804FF485737822EA214820FEF776
:1032100024FEE9E78AB1504B00221A80C9237822A4
:10322000A9214820FEF719FE4B4B1C80CB237A22A4
:10323000A7214620FEF711FEDFE7474B4FF6FF724E
:103240001A80C9237822A9214820FEF706FEEBE761
:103250008AB1414B00221A80C923EF22A921AC2058
:10326000FEF7FBFD3C4B1C80CB23F122A721AA20BB
:10327000FEF7F3FDC1E7384B4FF6FF721A80C92302
:10328000EF22A921AC20FEF7E8FDEBE7AAB1324B13
:1032900000221A80C92340F23912A9214FF482700A
:1032A000FEF7DBFD2C4B1C80CB2340F23B12A72109
:1032B0004FF48170FEF7D1FD9FE7274B4FF6FF7269
:1032C0001A80C92340F23912A9214FF48270FEF707
:1032D000C4FDE7E7AAB1204B00221A80C9234FF4AE
:1032E000C972A9214FF4A770FEF7B7FD1A4B1C80D5
:1032F000CB234FF4CA72A7214FF4A670FEF7ADFDA1
:103300007BE7154B4FF6FF721A80C9234FF4C97241
:10331000A9214FF4A770FEF7A0FDE7E78AB10E4B95
:1033200000221A803E23782225214820FEF795FDB1
:10333000094B1C8040237A2223214620FEF78DFD75
:103340005BE7054B4FF6FF721A803E23782225215A
:103350004820FEF782FDEBE7FC09002038B5044663
:1033600000224FF61F01FFF74BFE074D00224FF6DC
:103370001F012878FFF724FF012200212046FFF7D4
:103380001FFF2C7038BD00BF300B002010B5044665
:1033900000224FF61F01FFF733FE00224FF61F01F8
:1033A0002046FFF70DFF054B1B7803B910BDFFF753
:1033B0008FF9024B00221A70F8E700BF590B00206A
:1033C00030B583B02E4B00221A802E4B1868FDF7C3
:1033D0007BF829A3D3E90023FDF72EF930B32A4B5C
:1033E0001B78012B11D0002400941023254A126869
:1033F000F2214E20FEF798FD00941023234AF2217B
:103400006C20FEF7C5FA03B030BD00251E4B1D70C1
:103410001B4C4FF6FF732380009340F20913772271
:10342000EB214920FEF734FD2580DCE7164B1B78A5
:1034300083B1002400941023124A1268F2214C2018
:10344000FEF772FD00941023104AF2216E20FEF761
:103450009FFAD8E70C4B01221A70094C4FF6FF7304
:103460002380009340F209137722EB214920FEF7D5
:103470000FFD00232380DCE77B14AE47E1FA2340F5
:10348000FC09002004000020F60A00208CF400084B
:1034900010B582B00024094B1C8000941023084A08
:1034A0001268B0214E20FEF73FFD00941023054A1C
:1034B000B0216820FEF76CFA02B010BDFC090020B4
:1034C00018000020BCF4000830B583B02E4B002259
:1034D0001A802E4B1868FCF7F7FF29A3D3E90023C5
:1034E000FDF7AAF828B32A4B1B78012B11D0002432
:1034F00000941023254A1268B021B820FEF714FD6D
:1035000000941023234AB021D420FEF741FA03B0DF
:1035100030BD00251E4B1D701B4C4FF6FF732380E2
:103520000093C823EE22AA21AD20FEF7B1FC25802E
:10353000DDE7174B1B7883B1002400941023134A56
:103540001268B021B420FEF7EFFC00941023114A5A
:10355000B021D820FEF71CFAD9E70D4B01221A70D2
:10356000094C4FF6FF7323800093C823EE22AA2153
:10357000AD20FEF78DFC00232380DDE7AFF3008054
:103580007B14AE47E1FA2340FC090020080000202C
:10359000F50A0020C0F4000810B582B000240A4BE0
:1035A0001C8000941023094A1268B0214FF48570E2
:1035B000FEF7BAFC00941023054AB0214FF4927034
:1035C000FEF7E6F902B010BDFC090020140000204F
:1035D000C0F400080000000030B583B0324B002278
:1035E0001A80324B1868FCF76FFF2DA3D3E9002334
:1035F000FDF722F848B32E4B1B78012B13D0002483
:1036000000941023294A1268B0214FF4AD70FEF7E0
:103610008BFC00941023274AB0214FF4BB70FEF7B7
:10362000B7F903B030BD0025214B1D701E4C4FF67D
:10363000FF7323800093C82340F29112AA2140F225
:103640004F10FEF725FC2580D9E7194B1B7893B165
:10365000002400941023154A1268B0214FF4AB7077
:10366000FEF762FC00941023124AB0214FF4BD70A3
:10367000FEF78EF9D5E70E4B01221A700A4C4FF671
:10368000FF7323800093C82340F29112AA2140F2D5
:103690004F10FEF7FDFB00232380D9E7AFF3008036
:1036A0007B14AE47E1FA2340FC0900200C00002007
:1036B000F40A0020C0F40008034648B1002004E0EA
:1036C0000130044AA2FB0323DB08002BF8D170472A
:1036D00001207047CDCCCCCC10B582B00B4B4FF64F
:1036E0001F021A800A4B1C682046FFF7E5FF4FEACD
:1036F000800CCCF5CB7C10230093C3B22246292149
:103700001FFA8CF0FEF798F902B010BDFC090020FA
:10371000180B002010B582B0184B1B78012B02D07B
:10372000B3B102B010BD164C4FF6FF732380009367
:103730003D23772226214920FEF7AAFB0023238080
:10374000009310230F4A29215020FEF721F9E8E7C2
:103750000B4C4FF6FF73238000933D2377222621E5
:103760004920FEF795FB0023238000931023064A8F
:1037700029215420FEF70CF9D3E700BF220B0020CB
:10378000FC090020C4F40008CCF4000808B5094B7B
:1037900000221A80FFF714FEFFF77AFEFFF794FE6F
:1037A000FFF7FAFEFFF718FFFFF7B4FFFFF794FFEC
:1037B00008BD00BFFC09002008B5094B1B78012B90
:1037C00003D0074B00221A7008BD064B1B78002B54
:1037D000F7D0FEF77DFF034B00221A70F1E700BF20
:1037E000400B0020590B002070B5FEF7DFFF0446A8
:1037F0000D468B4B1A785AB18A490B684968E31A0F
:1038000065EB0101884898424FF000038B4114D3C7
:10381000864B1968864B1B68CB1A864800780128AE
:103820002FD04BB17F480460456081480160002A79
:103830004ED17B4B01221A7070BD022A10D0012A92
:10384000FAD1774B00221A707B4C2078FFF79EFD4F
:1038500005232370794B754A1360754A1360EBE7B3
:103860006F4B01221A70744E00224FF61F01307800
:10387000FFF7A6FC3078FFF791FC6A4B1C605D6097
:10388000DAE76F4803F0A8FD664B1C605D60644B8F
:103890001B781BB1012B05D0022B0BD0654B0022EE
:1038A0001A70C9E75E4B02221A70634B1878FFF753
:1038B00055FDF3E75A4B01221A705F4C00224FF678
:1038C0001F012078FFF77CFC2078FFF767FCE5E715
:1038D000012A0DD0022AAFD1574A1278052A4BD8B7
:1038E000DFE812F02E0055007900C800ED0011014C
:1038F000002B0FDD50490A780132524B83FB020343
:1039000003EB4303A2EB43030B704B4B1878FFF719
:1039100045FC91E7484B1B7873B9474B05221A7059
:1039200045490A78484BA3FB02039B0803EB43037A
:10393000A2EB43030B70E8E7013B3F4A1370EFE74C
:10394000002B1DDD414C42492068FCF7A3FE20609E
:1039500040493E4B1868FDF761F910B13B4B3D4AB9
:103960001A603D49394B1868FDF73AF910B1374BE9
:1039700000221A60FFF724FD384B01221A705BE722
:10398000324C33492068FCF783FE2060E0E7002BCF
:103990001ADD334C2E492068FCF77CFE206031494B
:1039A0002F4B1868FDF73AF910B12D4B2D4A1A60CC
:1039B0002D492B4B1868FDF713F910B1284B244AF9
:1039C0001A60FFF765FDD7E7254C21492068FCF711
:1039D0005FFE2060E3E7002B1ADD244C1C492068C1
:1039E000FCF758FE20602249204B1868FDF716F9B5
:1039F00010B11E4B1E4A1A601B491C4B1868FDF77C
:103A0000EFF810B1194B124A1A60FFF75DFDB3E7EA
:103A1000164C0F492068FCF73BFE2060E3E700BF2F
:103A2000E80A0020280B0020C0C62D00100000204E
:103A30001C0000200C0B0020200000200094357793
:103A4000D0F40008ABAAAA2AABAAAAAA04000020B4
:103A5000CDCCCC3D0000C0400AD7233C590B002000
:103A6000180000200000A040AE47E13D0800002003
:103A70000000C841002B1BDD2B4C2C492068FCF7B3
:103A800009FE20602A49284B1868FDF7C7F810B1D5
:103A9000254B274A1A602749234B1868FDF7A0F8E1
:103AA00018B1214B4FF07E521A60FFF775FD63E7A6
:103AB0001D4C1E492068FCF7EBFD2060E2E7002B5F
:103AC0001ADD1D4C19492068FCF7E4FD20601B49F4
:103AD000194B1868FDF7A2F810B1174B174A1A6076
:103AE0001749154B1868FDF77BF810B1124B0F4AB8
:103AF0001A60FFF771FD3FE70F4C0C492068FCF797
:103B0000C7FD2060E3E70F4B00221A800E4B1B78A5
:103B10002BB90D4B01221A70FFF7FCFD2CE70A4B65
:103B200000221A70F8E700BF14000020CDCCCC3D75
:103B300066661E41AE47813F0C0000200000C84170
:103B4000AE47E13DFC090020220B0020F8B5484BB0
:103B50001B783BB9474B1B78012B09D0454B002202
:103B60001A70F8BD012BF9D1424B1B78022BF5D10D
:103B7000414B01221A70FEF719FE06460F46FEF76A
:103B800015FE05460C463D493D4B1868FCF78AFE7C
:103B9000FDF786F8831947EB01029D4274EB02039F
:103BA000EDD3FEF703FE06460F4601224FF4005107
:103BB000344802F028FAFEF7F9FD05460C46324972
:103BC000324B1868FCF76EFEFDF76AF8831947EB75
:103BD00001029D4274EB0203EDD300224FF4005129
:103BE000284802F010FAFEF7E1FD06460F46FEF700
:103BF000DDFD05460C462449254B1868FCF752FEAE
:103C0000FDF74EF8831947EB01029D4274EB020366
:103C1000EDD3FEF7CBFD06460F4601224FF480415F
:103C2000184802F0F0F9FEF7C1FD05460C461649AA
:103C3000184B1868FCF736FEFDF732F8831947EB8E
:103C400001029D4274EB0203EDD300224FF4804148
:103C50000C4802F0D8F9104A136801331360FFF7DB
:103C60003BFD0E4B01221A70034B00221A7075E7C0
:103C7000220B0020580B00201C0B0020002474494C
:103C8000180000200004024000007A4408000020D0
:103C9000140000200C000020180B0020590B0020FD
:103CA0002DE9F04FABB004460D4600F10C031FFAAE
:103CB00083F900F150081FFA88F88B1C9BB243F27D
:103CC00008260096109342464846FEF7E1F805F1B3
:103CD0000C031FFA83FAA31C1FFA83FB05F12607C6
:103CE000BFB200963B465A4651462046FEF7D0F8F2
:103CF00005F1310398B205F1330399B200961E9194
:103D00000B46424611900146CDF80C904846FEF70E
:103D1000BFF804F15B031FFA83FE04F15D031FFA91
:103D200083FC00963B46CDF87CC062465146CDF8F8
:103D300048E07046FEF7ACF805F10A039FB2009622
:103D4000CDF810A05346D9465A462097394620460A
:103D5000FEF79EF8631C1FFA83FCEB1D1FFA83FB22
:103D6000E31C9FB2BA4605F109031FFA83F80096D7
:103D7000CDF84C8043463A465946CDF868C0604677
:103D8000FEF786F86B1D9FB2231D1FFA83F8AB1D4B
:103D90001FFA83FC0096CDF82CC063464246394694
:103DA000CDF874904846FEF773F800965B4642469D
:103DB000CDF86CB059464046FEF76AF82B1D1FFA45
:103DC00083F900964B4642464946CDF828A0504616
:103DD000FEF75EF805F1030A1FFA8AFA00965346C9
:103DE00042465146CDF818804046FEF751F8631D13
:103DF0001FFA83FB00963B465A4639465846FEF763
:103E000047F8A31D1FFA83F800964B46CDF8508063
:103E1000424610995846FEF73BF8E31D9AB20096C9
:103E2000C8464B46494691461046FEF731F86B1C92
:103E30001FFA83FE04F109039AB2009653461692C4
:103E4000CDF894E07146CDF854904846FEF720F83E
:103E500004F10A031FFA83FE0096DDF840904B46FA
:103E6000039A2946CDF884E07046FEF711F804F174
:103E700051031FFA83FE04F153031FFA83FC0096DB
:103E8000CDF840904B46CDF888C062462946CDF823
:103E900020E07046FDF7FCFF04F154031FFA83FC99
:103EA00004F156031FFA83FEF1460096534672460C
:103EB0002599CDF85CC06046FDF7EAFF00964346C1
:103EC000CE464A46C1464146CDF860E07046FDF711
:103ED000DFFF04F157031FFA83F8C44604F15808C2
:103EE0001FFA88F800964B4642461099CDF830C02C
:103EF0006046FDF7CDFF00963B46424639464046B8
:103F0000FDF7C6FF04F159031FFA83FE00964B46E6
:103F100072465146CDF81CE07046FDF7B9FF009699
:103F20000B9B129A05973946079F3846FDF7B0FF5D
:103F300004F15A031FFA83FC00964B466246CDF803
:103F400090904946CDF834C06046FDF7A1FF009639
:103F5000DDF86C904B463A4649463846FDF798FFE7
:103F600004F15C031FFA83FE0096139BCDF898E0E2
:103F70007246CDF86C9049460D98FDF789FF009682
:103F8000049BDDF87C904A4620991298FDF780FF4B
:103F900005F127031FFA83FE05F129039BB2009662
:103FA0002393CDF87C904A46CDF824E071461298D0
:103FB000FDF76EFF05F12A031FFA83FE05F12C03BE
:103FC0001FFA83FCE14600966346269ACDF870E01E
:103FD00071460D98FDF75CFF00964B463A46CDF8CA
:103FE00064904946B9463846FDF752FF05F12D0366
:103FF0009FB2BC4605F12E07BFB200963B46129A0F
:10400000CDF838C06146CDF81C904846FDF740FF1A
:1040100000963B46424639464046FDF739FF05F1DA
:104020002F091FFA89F900964B460D9A49460798C1
:10403000FDF72EFF05F130039BB20096DDF81CE082
:1040400072460F9319467046FDF722FF0096119BAA
:10405000424649460C98FDF71BFF00964B46DDF89B
:1040600060E0724649467046FDF712FF05F13203E3
:104070001FFA83FE0096CDF89CE07346189A0F99BC
:104080001798FDF705FF00961E9B229A1199089834
:10409000FDF7FEFE0096239B1D9A09992046FDF729
:1040A000F7FE0096199B0A9A1C991A98FDF7F0FEE4
:1040B0000096DDF864E07346DDF818C0624671468C
:1040C0006046FDF7E5FE00963B46069A0E991D9860
:1040D000FDF7DEFE00963B465A4639465846FDF748
:1040E000D7FE00964B46DDF828E0724649467046FA
:1040F000FDF7CEFE00960F9BDDF818C062464946DC
:104100006046FDF7C5FE0096119B149A4946584635
:10411000FDF7BEFE00964B46DDF854C062464946A8
:104120006046FDF7B5FE0096279B169A0F991598E5
:10413000FDF7AEFE00961E9B039A11992198FDF79C
:10414000A7FE4BF2AB4600960F9B089A5146039888
:10415000FDF79EFE0096099B039A04990A98FDF7C5
:1041600097FE0096099B0D9A04990898FDF790FE1A
:104170000096049B039A0B991498FDF789FE00960C
:10418000DDF814C06346159A61461498FDF780FE69
:1041900004F108031FFA83FE0096059B169A2499E2
:1041A000CDF8A0E07046FDF773FE0096059B039ADC
:1041B00051462198FDF76CFE00961B9B5A460B99C1
:1041C0005846FDF765FE05F108031FFA83FE0096C9
:1041D000139B5A46CDF8A4E071460698FDF758FEA9
:1041E0000096049B5A4620990A98FDF751FE0096C6
:1041F000049B0C9A0B990898FDF74AFE0096059BC4
:10420000229A51460898FDF743FE04F1550A1FFA19
:104210008AFA0096059B524624991798FDF738FEB6
:104220000096DDF814C063460C9A61461898FDF7B5
:104230002FFE00961B9B42460B994046FDF728FE39
:104240000096139B079A29994046FDF721FE009698
:10425000049B0D9A20994046FDF71AFE00960E9B8E
:104260000C9A09990898FDF713FE00960F9B229A65
:1042700039460898FDF70CFE00964B4652463946E3
:104280001798FDF705FE00963B460C9A394618989C
:10429000FDF7FEFD00960E9B424619994046FDF73C
:1042A000F7FD05F12B0A1FFA8AFA00965346079A82
:1042B0001C994046FDF7ECFD0096239B0D9A099949
:1042C0004046FDF7E5FD00960E9BDDF80C8042466A
:1042D00009991498FDF7DCFD0096239B5A4609992D
:1042E0000A98FDF7D5FD009653465A461C99069844
:1042F000FDF7CEFD00960E9B5A4619995846FDF7DC
:10430000C7FD00963B46159A3946DDF850A0504649
:10431000FDF7BEFD00964B46DDF858B05A463946CB
:104320002898FDF7B5FD00960F9B42463946219827
:10433000FDF7AEFD4BF6F7560096139B2246DDF8CF
:10434000949049462046FDF7A3FD0096DDF82C80A9
:104350004346DDF868C0624629466046FDF798FD91
:1043600000962B46CDF858B05A4629461D9F384630
:10437000FDF78EFD00964B46524649463846FDF7FE
:1043800087FD00962B46DDF898B05A4629461798C7
:10439000FDF77EFD00964B461F9F3A464946DDF8E5
:1043A00030904846FDF774FD00964346D8465A467D
:1043B000DDF840B059464046FDF76AFD0096139B74
:1043C0003A4659463846FDF763FD00961E9D2B463A
:1043D000DDF848B05A4629461798FDF759FD009672
:1043E000279B5A469B4619464846FDF751FD0096C5
:1043F0002B4640464246DDF838804146FDF748FDF1
:104400000096D9465B463A46DDF870B059463846C4
:10441000FDF73EFD0096119F3B4622465946204639
:10442000FDF736FD00963B461A9F3A464146384610
:10443000FDF72EFD00964B46524649462046FDF7B5
:1044400027FD00962B46169A29463846FDF720FD93
:104450002BB0BDE8F08F000038B5444B1B78002B23
:104460007ED1B0F5007F7CD01BD9B0F5805F74D0D1
:10447000B0F5004F74D1FEF799F93D4A13685268C0
:104480003C4C1B1942F10002834272EB010367D2DC
:10449000394B01221A70FEF789F9354BC3E9000147
:1044A0005EE040281AD0B0F5807F59D1FEF77EF942
:1044B000324A13685268324C1B1942F1000283429F
:1044C00072EB01034CD2FEF77FF92E4B01221A70DA
:1044D000FEF76CF9294BC3E9000141E02A4D402168
:1044E000284601F089FD04468021284601F084FD1C
:1044F000054602462146254802F00CFF012C18D043
:10450000234B1B680A2B1AD01CB915B9204B0B2260
:104510001A601F4B1B680B2B22D10CBB05BBFEF78F
:1045200053F91C4A1368013B1360194B00221A60AF
:1045300016E0002DE4D1164B0A221A60E0E7002CA9
:10454000E2D1012DE0D1FEF73FF9124A13680133A1
:1045500013600F4B00221A60D6E7074B02221A7035
:1045600038BD0D4B01221A70FAE700BF1C0B00206A
:10457000D00A002040420F00580B0020D80A00202B
:1045800020A107000C0B002000080240D8F400080E
:10459000500B002010000020400B002072B6FEE7F8
:1045A00000B595B03022002108A802F061FE00237A
:1045B0000393049305930693079301931F4A116C89
:1045C00041F080511164126C02F080520192019A04
:1045D00002931B490A6822F4404242F400420A60F6
:1045E0000A6802F440420292029A022208920121D1
:1045F0000B9110210C910E920F93082310935423CA
:10460000119312920423139308A801F019FD80B9A5
:104610000F23039302210491002305934FF480524A
:104620000692079303A801F059FF20B915B05DF871
:1046300004FBFFF7B3FFFFF7B1FF00BF00380240F4
:1046400000700040F0B58DB000F09AFCFFF7A8FFB5
:10465000FDF79EFFFDF7F0FD00F044FBFDF704FDC4
:1046600000F030FA00F0E8FBFDF7BEFD00F072FB51
:104670000522E249E24800F089FDE24802F00AFA28
:10468000FDF7D6FEE04C00224FF48071204601F089
:10469000BAFC00221021204601F0B5FC00222021A6
:1046A000204601F0B0FC00224021204601F0ABFC86
:1046B00000228021204601F0A6FC04A8FDF76EFE32
:1046C000002800F0C4810498FCF794F8CF49FCF767
:1046D0009DF9CF4B18600598FCF78CF8CB49FCF797
:1046E00095F9CC4B18600698FCF784F8C749FCF79D
:1046F0008DF9C94B18600798FCF77CF8C349FCF7A3
:1047000085F9C64B18600898FCF774F8BF49FCF7A8
:104710007DF9C34B18609DF82420C24B1A700A9A89
:10472000C14B1A60FDF7EAF90220FDF7CDFA4FF60A
:10473000FF70FDF7CBF9FDF737FBFEF705FBFFF741
:1047400025F84FF485710020FFF7AAFA4FF4857120
:104750006020FFF7A5FA4FF48571C020FFF7A0FA9B
:104760004FF485714FF49070FFF79AFA4FF485710A
:104770004FF4C070FFF794FAD4210020FFF790FAAD
:10478000D4216020FFF78CFAD421C020FFF788FAEB
:10479000D4214FF49070FFF783FAD4214FF4C07006
:1047A000FFF77EFA4AF63F730093D2234FF4C072AC
:1047B0001E210020FDF76CFB9C4D40F2DF142C8085
:1047C000D2234FF4C0721E210020FDF746FBD123F7
:1047D00040F27F121F210120FDF73FFBD0234FF451
:1047E000BF7220210220FDF738FB009446233622B9
:1047F0001E210020FDF74CFB4BF25F6300935A2310
:104800004FF4F0721E214FF4C070FDF741FB4BF6E0
:104810007F4600965A234FF4CB724A214FF4C07062
:10482000FDF736FB2E805A234FF4F0721E214FF411
:10483000C070FDF712FB592322461F2140F2811060
:10484000FDF70BFB58234FF4EF7220214FF4C1709A
:10485000FDF703FB4EF67173009396234FF4F0724D
:104860005A214FF4C070FDF713FB4FF6AD5600967A
:1048700096234FF4CB7286214FF4C070FDF708FBEE
:104880002E8096234FF4F0725A214FF4C070FDF73A
:10489000E4FA952322465B2140F28110FDF7DDFA10
:1048A00094234FF4EF725C214FF4C170FDF7D5FAF9
:1048B00045F69D730093D2234FF4F07296214FF486
:1048C000C070FDF7E5FA40F291460096D2234FF40E
:1048D000CB72C2214FF4C070FDF7DAFA2E80D223DA
:1048E0004FF4F07296214FF4C070FDF7B6FAD12361
:1048F0002246972140F28110FDF7AFFAD0234FF402
:10490000EF7298214FF4C170FDF7A7FA46F65233C3
:104910002B809A234FF4BE7219460320FDF74EFAFE
:10492000A8234FF4BE7219460320FDF747FAB523BA
:104930004FF4BE7219460320FDF740FAC2234FF42C
:10494000BE7219460320FDF739FA47F27C142C8019
:104950000522B5210C20FDF71FFB0094B5235A2238
:10496000B4210C20FDF794FA0094AC235B22B5210E
:104970001046FDF78DFA0094B423602219465B209F
:10498000FDF786FA0094B323612219465E20FDF7F5
:104990007FFA0094B223622219466020FDF778FA6C
:1049A0000094B123632219466220FDF771FA009446
:1049B000B023642219466320FDF76AFA0094AF23FE
:1049C000652219466320FDF763FA0094AE23652241
:1049D00019466420FDF75CFA0094AD236522194660
:1049E0006420FDF755FA0094AC2366221946652031
:1049F000FDF74EFA0094AB231AE000BFF80A00203E
:104A0000100A0020B80B00200004024000002041E2
:104A100004000020180000200800002014000020DE
:104A20000C000020220B0020180B0020FC090020A5
:104A3000662219466520FDF72BFA0094AA23662208
:104A400019466520FDF724FA002637461EE0FDF7DB
:104A50003FFE67E6154B5A889988D888144E3678F9
:104A600003960290019100921B88124A1288124903
:104A70000988124802F04EFC2E462746FEF7B4FE87
:104A8000FFF764F8FEF7CCF8FEF796FEFDF7D0FED0
:104A9000FDF78CFE05460C46094BF31847F1000262
:104AA000834272EB0103D5D3E8E700BF100B00206F
:104AB0001D0B0020200B00201E0B0020E8F4000836
:104AC000A086010008B50D480D4B03604FF48273BA
:104AD000436000238360C360036143614FF400724D
:104AE0008261C3610362436283620A23C36201F08D
:104AF00069FE00B908BDFFF751FDFBE75C0B002024
:104B0000003C004000B589B0002303930493059353
:104B1000069307930268154B9A4202D009B05DF8DC
:104B200004FB0021019103F5FE331A6C42F40042AC
:104B30001A641A6C02F400420192019A02911A6BF3
:104B400042F004021A631B6B03F004030293029BFE
:104B50004FF4E053039302230493032306930623A5
:104B6000079303A9024801F067F9D7E7003C00402A
:104B70000008024082B0002100910B4B5A6C42F4B5
:104B800080425A645A6C02F480420092009A019169
:104B90001A6C42F080521A641B6C03F0805301932C
:104BA000019B02B0704700BF00380240FEE7FEE7FD
:104BB000FEE7FEE7FEE770477047704708B500F074
:104BC000F9F908BD08B5402001F02CFA4FF48070C7
:104BD00001F028FA4FF4007001F024FA08BD00003B
:104BE00008B5024801F0AFFF08BD00BFB80B0020B8
:104BF00008B5024801F0A7FF08BD00BF000C002067
:104C000008B54FF4805001F00DFA4FF4004001F068
:104C100009FA08BD08B5024800F03CFE08BD00BF17
:104C2000580A00200120704708B502F0F7FA162351
:104C300003604FF0FF3008BD08B54FF0FF31FFF7BC
:104C4000F3FFFEE770B50C461646002506E0AFF30D
:104C50000080214601F8010B01350C46B542F6DB18
:104C6000304670BD70B50C461646002504E014F8B9
:104C7000010BFDF78BFD0135B542F8DB304670BD09
:104C80004FF0FF3070474FF400534B6000207047E7
:104C9000012070470020704710B503460C4A0D49AB
:104CA0000D48006840B10C4800680344521A934212
:104CB00006D8094A136010BD0748084C0460F2E7A3
:104CC00002F0ACFA0C2303604FF0FF30F3E700BFB3
:104CD0000000012000040000B40B0020F80C0020AC
:104CE0007047000000B587B000230293039304933C
:104CF00005930093019316484FF0804202605322BF
:104D0000426083604FF0FF32C260036180238361A1
:104D100002F024F890B94FF48053029302A90C4892
:104D200002F054F868B900230093019369460848DB
:104D300002F0CCF840B907B05DF804FBFFF72EFC99
:104D4000E9E7FFF72BFCEEE7FFF728FCF3E700BFEE
:104D5000B80B002000B587B000230293039304939F
:104D60000593009301931548154A0260532242604F
:104D70008360F922C26003618023836101F0EEFF4A
:104D800090B94FF48053029302A90C4802F01EF828
:104D900068B90023009301936946084802F096F829
:104DA00040B907B05DF804FBFFF7F8FBE9E7FFF750
:104DB000F5FBEEE7FFF7F2FBF3E700BF000C002086
:104DC0000004004000B583B00368B3F1804F05D004
:104DD000174A934217D003B05DF804FB00220092FB
:104DE00003F50E33196C41F0010119641B6C03F0DB
:104DF00001030093009B01211C2000F0A3FB1C2059
:104E000000F0D8FBE7E7002101910A4B1A6C42F051
:104E100002021A641B6C03F002030193019B0A4611
:104E20001D2000F08FFB1D2000F0C4FBD3E700BF66
:104E3000000400400038024008B50A480A4B0360ED
:104E40004FF4E133436000238360C36003610C22AD
:104E500042618361C36102F045F900B908BDFFF703
:104E60009DFBFBE7480C00200010014000B589B015
:104E7000002303930493059306930793026803F1B9
:104E8000804303F588339A4202D009B05DF804FBF1
:104E90000021019103F594335A6C42F010025A64D8
:104EA0005A6C02F010020192019A02911A6B42F0C0
:104EB00001021A631B6B03F001030293029B4FF480
:104EC000C0630393022304930323069307230793EA
:104ED00003A9024800F0B0FFD7E700BF000002407E
:104EE000DFF834D00D480E490E4A002302E0D458B2
:104EF000C4500433C4188C42F9D30B4A0B4C002322
:104F000001E013600432A242FBD3FFF7E9FE02F096
:104F10008BF9FFF797FB704700000120000000208D
:104F2000E009002064F90008E0090020F80C0020E6
:104F3000FEE7000010B504460E4B18784FF47A7364
:104F4000B3FBF0F30C4A1068B0FBF3F000F040FB49
:104F500068B90F2C01D901200AE0002221464FF048
:104F6000FF3000F0EFFA054B1C60002000E001204C
:104F700010BD00BF28000020240000202C000020CD
:104F800008B50B4B1A6842F400721A601A6842F4B2
:104F900080621A601A6842F480721A60032000F07E
:104FA000BFFA0020FFF7C6FFFFF7E4FD002008BDB1
:104FB000003C0240034A1168034B1B780B4413600A
:104FC000704700BF8C0C002028000020014B18689F
:104FD000704700BF8C0C002038B50446FFF7F6FF81
:104FE0000546B4F1FF3F02D0044B1B781C44FFF789
:104FF000EDFF401BA042FAD338BD00BF28000020BF
:105000004A4B5A6822F440325A605A6841680A434F
:105010005A600268536823F48073536002685368CF
:10502000016943EA012353600268536823F0407327
:1050300053600268536881680B4353600268936849
:1050400023F40063936002689368C1680B43936024
:10505000826A374B9A4257D00268936823F0706394
:10506000936002689368816A0B4393600268936857
:1050700023F04053936002689368C16A0B439360C6
:105080000268936823F00203936002689368017ECC
:1050900043EA4103936090F82030002B3FD0026830
:1050A000536843F4006353600268536823F4604319
:1050B000536001684B68426A013A43EA42334B60ED
:1050C0000268D36A23F47003D3620168CB6AC269B1
:1050D000013A43EA0253CB620268936823F40073F7
:1050E00093600268936890F8301043EA412393601C
:1050F0000268936823F4806393600268936841694F
:1051000043EA8123936070470268936823F07063D9
:1051100093600268936823F040539360B0E702689D
:10512000536823F400635360CAE700BF00230140C3
:105130000100000F38B310B50446036C43B1236C73
:1051400013F0100F0BD00120002384F83C3010BD69
:10515000FCF7F4FF0023636484F83C30EFE7236C32
:1051600023F4885323F0020343F002032364204610
:10517000FFF746FF00206064236C23F0030343F035
:1051800001032364E0E701207047000010B582B0FE
:1051900013460022019290F83C20012A00F09480EE
:1051A0000446012280F83C200268906810F0010F4C
:1051B00013D1906840F001009060464A1068464A5A
:1051C000A2FB0020800C00EB4000019002E001985F
:1051D0000138019001980028F9D12268906810F4F4
:1051E000807F03D0906820F480709060226890687F
:1051F00010F0010F5DD0206C20F4E06020F0010081
:1052000040F480702064526812F4806F05D0226CE4
:1052100022F4405242F480522264226C12F4805FE5
:1052200034D0626C22F006026264002284F83C20D2
:10523000A26B2A48D063A26B29481064A26B29484C
:10524000D06422686FF0220010602068426842F04B
:10525000806242602068826842F4807282602068C6
:105260000A4600F14C01A06B00F0DEFA1E4B5B68B1
:1052700013F01F0F0DD123689A6812F0405F25D1FB
:105280009A6842F080429A6000201BE0002262642B
:10529000CBE72368154A934201D0002012E09A68B8
:1052A00012F0405F14D19A6842F080429A60002068
:1052B00008E0236C43F010032364636C43F00103A4
:1052C0006364002002B010BD0220FBE70020F9E774
:1052D0000020F7E72400002083DE1B43155300085D
:1052E000F3520008FF520008002301400020014053
:1052F000704708B5806BFFF7FBFF08BD704708B526
:10530000806B40230364436C43F004034364FFF762
:10531000F5FF08BD08B50346806B026C12F0500F14
:1053200025D1036C43F40073036403689A6812F098
:10533000405F19D1027EBAB9DA6A12F4700F03D055
:105340009A6812F4806F0FD15A6822F020025A60D6
:10535000036C23F480730364036C13F4805F03D144
:10536000036C43F001030364FDF716FB08BD026CF8
:1053700012F0100F04D1826BD26C18469047F5E7FB
:10538000FFF7BCFFF2E7000030B482B000230193C6
:1053900090F83C30012B00F0BB80012380F83C30BA
:1053A0000B68092B41D90468E2689BB203EB430305
:1053B0001E3B4FF0070C0CFA03F322EA0303E360F1
:1053C0000468E2680B8803EB43031E3B8D6805FA13
:1053D00003F31343E3604B68062B3DD80468626B0C
:1053E00003EB8303053B4FF01F0C0CFA03F322EA97
:1053F000030363630468626B4B6803EB8303053B41
:10540000B1F800C00CFA03F3134363630268414B25
:105410009A4251D002683F4B9A4256D0002380F8FE
:105420003C30184602B030BC7047046822699BB219
:1054300003EB43034FF0070C0CFA03F322EA0303D8
:105440002361046822690B8803EB43038D6805FA26
:1054500003F313432361BEE70C2B16D805682A6BB0
:1054600003EB8303233B1F2404FA03F322EA030321
:105470002B6305682A6B4B6803EB8303233B0C8883
:1054800004FA03F313432B63C0E70568EA6A03EBEE
:105490008303413B1F2404FA03F322EA0303EB6274
:1054A0000568EA6A4B6803EB8303413B0C8804FA06
:1054B00003F31343EB62A9E70B68122BAAD1164A38
:1054C000536843F480035360A4E70B68103B012B3F
:1054D000A4D8114A536843F4000353600B68102B9F
:1054E0009CD10E4B1B6802F1467202F52E3202F27D
:1054F0008332A2FB03239B0C03EB83035B0001932A
:1055000002E0019B013B0193019B002BF9D185E750
:10551000022087E7002001400023014024000020F2
:10552000074AD36823F4E0631B041B0C000200F459
:10553000E060034343F0BF6343F40033D36070473C
:1055400000ED00E000B5194BDB68C3F30223C3F1A3
:10555000070CBCF1040F28BF4FF0040C03F1040E3C
:10556000BEF1060F18D9033B4FF0FF3E0EFA0CFCBC
:1055700021EA0C0199400EFA03F322EA03031943CE
:1055800000280BDB0901C9B200F1604000F5614061
:1055900080F800135DF804FB0023E5E700F00F003E
:1055A0000901C9B2024B1954F4E700BF00ED00E055
:1055B00014ED00E0002807DB00F01F024009012382
:1055C0009340024A42F82030704700BF00E100E0FB
:1055D0000138B0F1807F0BD24FF0E0235861054ACB
:1055E000F02182F823100020986107221A61704789
:1055F0000120704700ED00E058B110B50446437932
:105600001BB101236371002010BD0371FCF7FCFD89
:10561000F7E70120704784460223437100688368DE
:1056200043F0010383600023934211D200B5DCF8FC
:10563000000051F823E0C0F800E001339342F6D3B4
:10564000DCF80030186801238CF805305DF804FBA5
:10565000DCF80030186801238CF80530704730B44E
:1056600005682C6824F480242C60046863608368D7
:10567000402B05D0036899600368DA6030BC70473E
:1056800003689A600368D960F8E7000010B4036803
:10569000D9B210390B4AA2FB014212090A4CA25C92
:1056A000C2655F2908D923F47F7323F00303043311
:1056B0008365806D10BC704723F47F7323F0030370
:1056C0008365F6E7ABAAAAAA2CF50008836A82696B
:1056D00092B9012B0AD0022B02D00BB100207047E7
:1056E000C36A13F0807F28D100207047C36AB3F1EA
:1056F000C07F24D000207047B2F5005F09D0022B94
:1057000025D9032B25D1C36A13F0807F23D1002034
:105710007047032B03D8DFE803F01404140A0020B9
:105720007047C36A13F0807F0DD100207047C36AB1
:10573000B3F1C07F09D000207047012070470120DD
:1057400070470120704701207047012070470120F9
:1057500070470020704701207047000070B5044674
:10576000FFF734FC002C5BD00546022384F835306B
:10577000002384F834302268136823F00103136097
:1057800023681A6812F0010F0AD0FFF71FFC431BB1
:10579000052BF5D920236365032084F8350070BDFF
:1057A0001A68204810406168A2680A43E1680A4309
:1057B00021690A4361690A43A1690A43E1690A430D
:1057C000216A0A430243616A04291ED01A602668CE
:1057D000756925F00705636A1D43042B07D1A36A89
:1057E0001D43E36A1BB12046FFF770FF90B9756156
:1057F0002046FFF74BFFE26D3F239340836000207C
:105800006065012384F83530C9E7E16A206B014304
:105810000A43DBE740236365012084F83500BEE7D7
:105820000120BCE73F8010F038B50446856D90F844
:10583000340001282BD0012084F8340094F835007E
:10584000C0B2012804D0002384F83430022038BDCF
:10585000022084F83500002060652046FFF7FFFE37
:10586000E26D3F239340AB602268136843F0160358
:105870001360236C23B12268136843F0080313609C
:105880002268136843F0010313600020DFE7022061
:10589000DDE70000F0B583B0044600230193724BAE
:1058A0001D68724BA3FB0535AD0A876D3E68C26D5E
:1058B00008239340334210D003681A6812F0040F93
:1058C0000BD01A6822F004021A60C26D08239340BC
:1058D000BB60436D43F001034365E26D01239340D8
:1058E000334209D02268526912F0800F04D0BB60A5
:1058F000636D43F002036365E26D0423934033421A
:1059000009D02268126812F0020F04D0BB60636DE8
:1059100043F004036365E26D10239340334224D0C7
:105920002268126812F0080F1FD0BB6023681A6843
:1059300012F4802F0DD01B6813F4002F04D1236CB8
:105940009BB12046984710E0A36C73B1204698475E
:105950000BE01A6812F4807F03D11A6822F0080263
:105960001A60236C0BB120469847E26D20239340C8
:10597000334255D02268126812F0100F50D0BB602D
:1059800094F83530DBB2052B0ED023681A6812F478
:10599000802F33D01B6813F4002F2AD1636C002BA7
:1059A0003ED0204698473BE02268136823F0160358
:1059B00013602268536923F080035361236CA3B101
:1059C0002268136823F008031360E26D3F239340BD
:1059D000BB60012384F83530002384F83430236D14
:1059E000002B3FD0204698473CE0A36C002BE7D12A
:1059F000EBE7E36BA3B12046984711E01A6812F475
:105A0000807F09D11A6822F010021A60012384F8FD
:105A10003530002384F83430E36B0BB120469847CF
:105A2000636DFBB1636D13F0010F17D0052384F88C
:105A300035302268136823F001031360019B0133A2
:105A40000193AB4204D823681B6813F0010FF5D112
:105A5000012384F83530002384F83430E36C0BB133
:105A60002046984703B0F0BD24000020B5814E1BAE
:105A700010B409490C6924F440740C610C6944F4B5
:105A800040740C610C6944F001040C610260BFF3C6
:105A90006F8F436010BC7047003C0240074B1A698F
:105AA00022F440721A611A6942F400721A611A698A
:105AB00042F001021A610160704700BF003C0240E1
:105AC000074B1A6922F440721A611A6942F4807213
:105AD0001A611A6942F001021A610180704700BF21
:105AE000003C0240064B1A6922F440721A611A699E
:105AF0001A611A6942F001021A610170704700BF11
