:020000040800F2
:1000000000000120615A0008793F00087B3F00088A
:100010007D3F00087F3F0008813F0008000000008E
:10002000000000000000000000000000833F000806
:10003000853F000800000000873F0008893F000856
:10004000B15A0008B15A0008B15A0008B15A000864
:10005000B15A0008B15A0008B15A0008B15A000854
:10006000B15A0008B15A0008B15A0008B15A000844
:10007000B15A0008B15A0008B15A0008B15A000834
:10008000B15A0008B15A0008B15A00080000000037
:10009000000000000000000000000000B15A00084D
:1000A000B15A0008B15A0008B15A0008B15A000804
:1000B000913F0008A13F0008B13F0008B15A000875
:1000C000B15A0008B15A0008B15A0008B15A0008E4
:1000D000B15A0008B15A0008B15A000800000000E7
:1000E000B15A0008B15A0008B15A000800000000D7
:1000F000000000000000000000000000B15A0008ED
:1001000000000000B15A0008B15A0008B15A0008B6
:1001100000000000000000000000000000000000DF
:10012000C13F0008B15A0008B15A0008B15A00088E
:10013000B15A0008000000000000000000000000AC
:10014000000000000000000000000000B15A00089C
:10015000B15A0008B15A0008B15A0008B15A000853
:10016000B15A0008B15A0008000000000000000069
:10017000000000000000000000000000000000007F
:1001800000000000B15A000800000000000000005C
:04019000B15A000858
:1001C00010B5054C237833B9044B13B10448AFF391
:1001D00000800123237010BDF00900200000000002
:1001E000ACF8000808B5034B1BB103490348AFF353
:1001F000008008BD00000000F4090020ACF80008F1
:1002000081F0004102E000BF83F0004330B54FEAC7
:1002100041044FEA430594EA050F08BF90EA020F34
:100220001FBF54EA000C55EA020C7FEA645C7FEAC7
:10023000655C00F0E2804FEA5454D4EB5555B8BFEA
:100240006D420CDD2C4480EA020281EA030382EA5B
:10025000000083EA010180EA020281EA0303362DED
:1002600088BF30BD11F0004F4FEA01314FF4801CC0
:100270004CEA113102D0404261EB410113F0004FD2
:100280004FEA03334CEA133302D0524263EB430389
:1002900094EA050F00F0A780A4F10104D5F1200E27
:1002A0000DDB02FA0EFC22FA05F2801841F1000182
:1002B00003FA0EF2801843FA05F359410EE0A5F156
:1002C00020050EF1200E012A03FA0EFC28BF4CF087
:1002D000020C43FA05F3C01851EBE37101F000453D
:1002E00007D54FF0000EDCF1000C7EEB00006EEB4A
:1002F0000101B1F5801F1BD3B1F5001F0CD34908D4
:100300005FEA30004FEA3C0C04F101044FEA44522A
:1003100012F5800F80F09A80BCF1004F08BF5FEAB1
:10032000500C50F1000041EB045141EA050130BD91
:100330005FEA4C0C404141EB0101013C28BFB1F5A3
:10034000801FE9D291F0000F04BF01460020B1FAEE
:1003500081F308BF2033A3F10B03B3F120020CDAC1
:100360000C3208DD02F1140CC2F10C0201FA0CF09F
:1003700021FA02F10CE002F11402D8BFC2F1200C04
:1003800001FA02F120FA0CFCDCBF41EA0C019040BA
:10039000E41AA2BF01EB0451294330BD6FEA040403
:1003A0001F3C1CDA0C340EDC04F11404C4F12002EE
:1003B00020FA04F001FA02F340EA030021FA04F300
:1003C00045EA030130BDC4F10C04C4F1200220FA57
:1003D00002F001FA04F340EA0300294630BD21FA95
:1003E00004F0294630BD94F0000F83F4801306BF5B
:1003F00081F480110134013D4EE77FEA645C18BF4F
:100400007FEA655C29D094EA050F08BF90EA020FE5
:1004100005D054EA000C04BF1946104630BD91EADD
:10042000030F1EBF0021002030BD5FEA545C05D1E0
:100430004000494128BF41F0004130BD14F580041F
:100440003CBF01F5801130BD01F0004545F0FE4193
:1004500041F470014FF0000030BD7FEA645C1ABFC8
:10046000194610467FEA655C1CBF0B46024650EAFF
:10047000013406BF52EA033591EA030F41F400212B
:1004800030BD00BF90F0000F04BF0021704730B5B1
:100490004FF4806404F132044FF000054FF0000186
:1004A00050E700BF90F0000F04BF0021704730B547
:1004B0004FF4806404F1320410F0004548BF40421C
:1004C0004FF000013EE700BF42004FEAE2014FEA71
:1004D00031014FEA02701FBF12F07F4393F07F4F4C
:1004E00081F06051704732F07F4208BF704793F04F
:1004F0007F4F04BF41F40021704730B54FF4607462
:1005000001F0004521F000411CE700BF50EA010264
:1005100008BF704730B54FF000050AE050EA01020D
:1005200008BF704730B511F0004502D5404261EB7D
:1005300041014FF4806404F132045FEA915C3FF4BE
:10054000D8AE4FF003025FEADC0C18BF03325FEA5B
:10055000DC0C18BF033202EBDC02C2F1200300FA0C
:1005600003FC20FA02F001FA03FE40EA0E0021FA31
:1005700002F11444BDE600BF4FF0FF3C06E000BFAF
:100580004FF0010C02E000BF4FF0010C4DF804CD1C
:100590004FEA410C7FEA6C5C4FEA430C18BF7FEADC
:1005A0006C5C1BD001B050EA410C0CBF52EA430C0A
:1005B00091EA030F02BF90EA020F0020704710F18A
:1005C000000F91EA030F58BF994208BF90422CBF19
:1005D000D8176FEAE37040F0010070474FEA410C12
:1005E0007FEA6C5C02D150EA013C07D14FEA430C30
:1005F0007FEA6C5CD6D152EA033CD3D05DF8040BA1
:10060000704700BF8446104662468C4619466346D2
:1006100000E000BF01B5FFF7B7FF002848BF10F1A9
:10062000000F01BD4DF808EDFFF7F4FF0CBF0120EE
:1006300000205DF808FB00BF4DF808EDFFF7EAFF6A
:1006400034BF012000205DF808FB00BF4DF808ED25
:10065000FFF7E0FF94BF012000205DF808FB00BF1A
:100660004DF808EDFFF7CEFF94BF012000205DF8A4
:1006700008FB00BF4DF808EDFFF7C4FF34BF0120B1
:1006800000205DF808FB00BF80F0004002E000BFE2
:1006900081F0004142001FBF5FEA410392EA030F6D
:1006A0007FEA226C7FEA236C6AD04FEA1262D2EBB7
:1006B0001363C1BFD218414048404140B8BF5B42BC
:1006C000192B88BF704710F0004F40F4000020F055
:1006D0007F4018BF404211F0004F41F4000121F06B
:1006E0007F4118BF494292EA030F3FD0A2F10102B5
:1006F00041FA03FC10EB0C00C3F1200301FA03F1F3
:1007000000F0004302D5494260EB4000B0F5000F15
:1007100013D3B0F1807F06D340084FEA310102F1D4
:100720000102FE2A51D2B1F1004F40EBC25008BF86
:1007300020F0010040EA03007047490040EB000050
:10074000013A28BFB0F5000FEDD2B0FA80FCACF151
:10075000080CB2EB0C0200FA0CF0AABF00EBC2507E
:1007600052421843BCBFD0401843704792F0000F6C
:1007700081F4000106BF80F400000132013BB5E7BF
:100780004FEA41037FEA226C18BF7FEA236C21D035
:1007900092EA030F04D092F0000F08BF084670479A
:1007A00090EA010F1CBF0020704712F07F4F04D168
:1007B000400028BF40F00040704712F100723CBF7B
:1007C00000F50000704700F0004343F0FE4040F4A5
:1007D000000070477FEA226216BF08467FEA236363
:1007E0000146420206BF5FEA412390EA010F40F44E
:1007F000800070474FF0000304E000BF10F000439A
:1008000048BF40425FEA000C08BF704743F0964380
:1008100001464FF000001CE050EA010208BF70479B
:100820004FF000030AE000BF50EA010208BF704722
:1008300011F0004302D5404261EB41015FEA010C37
:1008400002BF84460146002043F0B64308BFA3F12F
:100850008053A3F50003BCFA8CF2083AA3EBC25311
:1008600010DB01FA02FC634400FA02FCC2F1200230
:10087000BCF1004F20FA02F243EB020008BF20F067
:100880000100704702F1200201FA02FCC2F12002CD
:1008900050EA4C0021FA02F243EB020008BF20EAC2
:1008A000DC7070474FF0FF0C1CEAD0521EBF1CEAF0
:1008B000D15392EA0C0F93EA0C0F6FD01A4480EADE
:1008C000010C400218BF5FEA41211ED04FF00063C7
:1008D00043EA501043EA5111A0FB01310CF00040F3
:1008E000B1F5000F3EBF490041EAD3715B0040EA19
:1008F000010062F17F02FD2A1DD8B3F1004F40EBE9
:10090000C25008BF20F00100704790F0000F0CF0BB
:10091000004C08BF49024CEA502040EA51207F3A7F
:10092000C2BFD2F1FF0340EAC250704740F400005A
:100930004FF00003013A5DDC12F1190FDCBF00F04B
:1009400000407047C2F10002410021FA02F1C2F1F9
:10095000200200FA02FC5FEA310040F1000053EA95
:100960004C0308BF20EADC70704792F0000F00F0E3
:10097000004C02BF400010F4000F013AF9D040EAE9
:100980000C0093F0000F01F0004C02BF490011F47D
:10099000000F013BF9D041EA0C018FE70CEAD1537B
:1009A00092EA0C0F18BF93EA0C0F0AD030F0004CFB
:1009B00018BF31F0004CD8D180EA010000F00040AF
:1009C000704790F0000F17BF90F0004F084691F06D
:1009D000000F91F0004F14D092EA0C0F01D14202A7
:1009E0000FD193EA0C0F03D14B0218BF084608D170
:1009F00080EA010000F0004040F0FE4040F40000BA
:100A0000704740F0FE4040F4400070474FF0FF0C4C
:100A10001CEAD0521EBF1CEAD15392EA0C0F93EA93
:100A20000C0F69D0A2EB030280EA010C49024FEAE5
:100A3000402037D04FF0805343EA111143EA10139E
:100A40000CF000408B4238BF5B0042F17D024FF456
:100A5000000C8B4224BF5B1A40EA0C00B3EB510F31
:100A600024BFA3EB510340EA5C00B3EB910F24BF1A
:100A7000A3EB910340EA9C00B3EBD10F24BFA3EB9F
:100A8000D10340EADC001B0118BF5FEA1C1CE0D167
:100A9000FD2A3FF650AF8B4240EBC25008BF20F01A
:100AA000010070470CF0004C4CEA50207F32C2BF6E
:100AB000D2F1FF0340EAC250704740F400004FF00B
:100AC0000003013A37E792F0000F00F0004C02BF3C
:100AD000400010F4000F013AF9D040EA0C0093F006
:100AE000000F01F0004C02BF490011F4000F013B60
:100AF000F9D041EA0C0195E70CEAD15392EA0C0FC8
:100B000008D142027FF47DAF93EA0C0F7FF470AFFF
:100B1000084676E793EA0C0F04D14B023FF44CAF42
:100B200008466EE730F0004C18BF31F0004CCAD1D7
:100B300030F000427FF45CAF31F000437FF43CAF13
:100B40005FE700BF4FF0FF3C06E000BF4FF0010C35
:100B500002E000BF4FF0010C4DF804CD4FEA400217
:100B60004FEA41037FEA226C18BF7FEA236C11D061
:100B700001B052EA530C18BF90EA010F58BFB2EB14
:100B8000030088BFC81738BF6FEAE17018BF40F094
:100B9000010070477FEA226C02D15FEA402C05D148
:100BA0007FEA236CE4D15FEA412CE1D05DF8040BCD
:100BB000704700BF844608466146FFE70FB5FFF760
:100BC000C9FF002848BF10F1000F0FBD4DF808ED18
:100BD000FFF7F4FF0CBF012000205DF808FB00BF09
:100BE0004DF808EDFFF7EAFF34BF012000205DF863
:100BF00008FB00BF4DF808EDFFF7E0FF94BF0120B0
:100C000000205DF808FB00BF4DF808EDFFF7D2FFAC
:100C100094BF012000205DF808FB00BF4DF808EDEF
:100C2000FFF7C8FF34BF012000205DF808FB00BFBC
:100C300042000ED2B2F1FE4F0BD34FF09E03B3EB46
:100C4000126209D44FEA002343F0004323FA02F072
:100C500070474FF00000704712F1610F01D142025E
:100C600002D14FF0FF3070474FF00000704700BFD7
:100C700053B94AB9002908BF00281CBF4FF0FF3103
:100C80004FF0FF3000F094B9ADF1080C6DE904CEDF
:100C900000F026F8DDF804E0DDE9022304B0704737
:100CA000D0B5FFF711FC0C4B002206460F4600F0B2
:100CB00007FB00F07FF90446FFF7E4FB074B002237
:100CC00000F0FEFA02460B4630463946FFF79CFA22
:100CD00000F070F92146D0BD0000F03D0000F04169
:100CE0002DE9F047089E0D4604468846002B4DD15D
:100CF0008A42944668D9B2FA82F252B101FA02F3FA
:100D0000C2F1200120FA01F10CFA02FC41EA0308C9
:100D100094404FEA1C45210CB8FBF5FE1FFA8CF7F6
:100D200005FB1E8341EA03430EFB07F199420BD9F1
:100D30001CEB03030EF1FF3080F01E81994240F25C
:100D40001B81AEF1020E63445B1AA4B2B3FBF5F053
:100D500005FB103344EA034400FB07F7A7420AD916
:100D60001CEB040400F1FF3380F00881A74240F23D
:100D7000058164440238E41B40EA0E4000211EB1A4
:100D8000D4400023C6E90043BDE8F0878B4208D970
:100D9000002E00F0EE800021C6E900050846BDE8FF
:100DA000F087B3FA83F100294AD1AB4202D38242E1
:100DB00000F2F980841A65EB030301209846002EA7
:100DC000E2D0C6E90048DFE702B9FFDEB2FA82F2FC
:100DD000002A40F09180A1EB0C054FEA1C471FFA56
:100DE0008CFE0121B5FBF7F307FB1350250C45EAF8
:100DF00000450EFB03F0A84208D91CEB050503F1E2
:100E0000FF3802D2A84200F2CB8043462D1AA4B28A
:100E1000B5FBF7F007FB105544EA05440EFB00FE56
:100E2000A64508D91CEB040400F1FF3502D2A64503
:100E300000F2BB802846A4EB0E0440EA03409EE784
:100E4000C1F120078B4022FA07FC4CEA030C20FA80
:100E500007F405FA01F31C43FD404FEA1C4900FA70
:100E600001F3B5FBF9F8200C1FFA8CFE09FB1855AD
:100E700040EA054508FB0EF0A84202FA01F20BD940
:100E80001CEB050508F1FF3A80F08880A84240F28B
:100E90008580A8F1020865442D1AA4B2B5FBF9F0CB
:100EA00009FB105544EA054500FB0EFEAE4508D986
:100EB0001CEB050500F1FF346CD2AE456AD902384F
:100EC000654440EA0840A0FB0294A5EB0E05A5424C
:100ED000C846A64656D353D05EB1B3EB080265EBC5
:100EE0000E0505FA07F722FA01F3CD401F43C6E9C4
:100EF00000750021BDE8F087C2F1200320FA03F15C
:100F00000CFA02FC25FA03F395400D434FEA1C4707
:100F10001FFA8CFEB3FBF7F107FB11302B0C43EAF1
:100F2000004301FB0EF0984204FA02F408D91CEBCE
:100F3000030301F1FF382FD298422DD902396344BF
:100F40001B1AADB2B3FBF7F007FB103345EA0345BC
:100F500000FB0EF3AB4208D91CEB050500F1FF388E
:100F600016D2AB4214D902386544ED1A40EA014169
:100F700038E73146304607E78646E5E61846FAE6A2
:100F80004B45A9D2B9EB020864EB0C0E0138A3E77C
:100F90004046EAE7204694E74146D1E7D0467BE762
:100FA000023B654432E7084609E76444023842E7F9
:100FB000704700BF4A0011D212F5001211D20DD5B0
:100FC0006FF47873B3EB62520ED44FEAC12343F04F
:100FD000004343EA505323FA02F070474FF00000F9
:100FE000704750EA013002D14FF0FF3070474FF0A8
:100FF00000007047844641EA000313F003036DD1FB
:10100000403A41D351F8043B40F8043B51F8043BCB
:1010100040F8043B51F8043B40F8043B51F8043BD2
:1010200040F8043B51F8043B40F8043B51F8043BC2
:1010300040F8043B51F8043B40F8043B51F8043BB2
:1010400040F8043B51F8043B40F8043B51F8043BA2
:1010500040F8043B51F8043B40F8043B51F8043B92
:1010600040F8043B51F8043B40F8043B51F8043B82
:1010700040F8043B51F8043B40F8043B51F8043B72
:1010800040F8043B403ABDD2303211D351F8043B12
:1010900040F8043B51F8043B40F8043B51F8043B52
:1010A00040F8043B51F8043B40F8043B103AEDD2C1
:1010B0000C3205D351F8043B40F8043B043AF9D212
:1010C000043208D0D2071CBF11F8013B00F8013BE5
:1010D00001D30B8803806046704700BF082A13D3F2
:1010E0008B078DD010F003038AD0C3F10403D21A0A
:1010F000DB071CBF11F8013B00F8013B80D331F83E
:10110000023B20F8023B7BE7043AD9D3013A11F8BD
:10111000013B00F8013BF9D20B7803704B78437028
:101120008B7883706046704700000000000000006C
:1011300000000000000000000000000000000000AF
:1011400090F800F06DE9024520F007016FF0000C07
:1011500010F0070491F820F040F049804FF00004AF
:101160006FF00700D1E9002391F840F000F108008A
:1011700082FA4CF2A4FA8CF283FA4CF3A2FA8CF3C2
:101180004BBBD1E9022382FA4CF200F10800A4FA29
:101190008CF283FA4CF3A2FA8CF3E3B9D1E904237D
:1011A00082FA4CF200F10800A4FA8CF283FA4CF3B4
:1011B000A2FA8CF37BB9D1E9062301F1200182FA6E
:1011C0004CF200F10800A4FA8CF283FA4CF3A2FA74
:1011D0008CF3002BC6D0002A04BF04301A4612BA82
:1011E000B2FA82F2FDE8024500EBD2007047D1E985
:1011F000002304F00305C4F100004FEAC50514F014
:10120000040F91F840F00CFA05F562EA05021CBFE4
:1012100063EA050362464FF00004A9E700000000FE
:1012200001F0FF01102A2BDB10F0070F08D010F897
:10123000013B013A8B422DD010F0070F42B3F6D19B
:10124000F0B441EA012141EA014122F007047FF0B4
:1012500000070023F0E80256083C85EA010586EA0B
:10126000010685FA47F5A3FA87F586FA47F6A5FA47
:1012700087F68EB9EED1F0BC01F0FF0102F0070253
:1012800032B110F8013B013A83EA010313B1F8D1FE
:101290000020704701387047002D06BF35460338DF
:1012A000073815F0010F07D1013015F4807F02BF18
:1012B000013015F4C03F0130F0BC0138704700BF69
:1012C00070B54FF0FF0C4CF4E06C1CEA11541DBFDC
:1012D0001CEA135594EA0C0F95EA0C0F00F0DEF8A7
:1012E0002C4481EA030621EA4C5123EA4C5350EA8C
:1012F000013518BF52EA033541F4801143F48013DD
:1013000038D0A0FB02CE4FF00005E1FB02E506F06D
:101310000042E0FB03E54FF00006E1FB03569CF0C2
:10132000000F18BF4EF0010EA4F1FF04B6F5007FC8
:1013300064F5407404D25FEA4E0E6D4146EB06063A
:1013400042EAC62141EA55514FEAC52040EA5E50C3
:101350004FEACE2EB4F1FD0C88BFBCF5E06F1ED86D
:10136000BEF1004F08BF5FEA500E50F1000041EBA4
:10137000045170BD06F0004646EA010140EA020051
:1013800081EA0301B4EB5C04C2BFD4EB0C0541EA73
:10139000045170BD41F480114FF0000E013C00F388
:1013A000AB8014F1360FDEBF002001F0004170BDAC
:1013B000C4F10004203C35DA0C341BDC04F11404C5
:1013C000C4F1200500FA05F320FA04F001FA05F251
:1013D00040EA020001F0004221F0004110EBD3701E
:1013E00021FA04F642EB06015EEA430E08BF20EA4A
:1013F000D37070BDC4F10C04C4F1200500FA04F3ED
:1014000020FA05F001FA04F240EA020001F000417E
:1014100010EBD37041F100015EEA430E08BF20EAF1
:10142000D37070BDC4F1200500FA05F24EEA020E39
:1014300020FA04F301FA05F243EA020321FA04F068
:1014400001F0004121FA04F220EA020000EBD3701F
:101450005EEA430E08BF20EAD37070BD94F0000F1F
:101460000FD101F00046400041EB010111F4801F53
:1014700008BF013CF7D041EA060195F0000F18BF04
:10148000704703F00046520043EB030313F4801F40
:1014900008BF013DF7D043EA0603704794EA0C0FFA
:1014A0000CEA135518BF95EA0C0F0CD050EA410610
:1014B00018BF52EA4306D1D181EA030101F000418D
:1014C0004FF0000070BD50EA410606BF10461946B5
:1014D00052EA430619D094EA0C0F02D150EA0136C1
:1014E00013D195EA0C0F05D152EA03361CBF104602
:1014F00019460AD181EA030101F0004141F0FE41A1
:1015000041F470014FF0000070BD41F0FE4141F424
:10151000780170BD70B54FF0FF0C4CF4E06C1CEA24
:1015200011541DBF1CEA135594EA0C0F95EA0C0FD9
:1015300000F0A7F8A4EB050481EA030E52EA033594
:101540004FEA013100F088804FEA03334FF08055B5
:1015500045EA131343EA12634FEA022245EA1115E2
:1015600045EA10654FEA00260EF000419D4208BF93
:10157000964244F1FD0404F5407402D25B084FEA40
:101580003202B61A65EB03055B084FEA32024FF4EC
:1015900080104FF4002CB6EB020E75EB030E22BF49
:1015A000B61A754640EA0C005B084FEA3202B6EB09
:1015B000020E75EB030E22BFB61A754640EA5C00B8
:1015C0005B084FEA3202B6EB020E75EB030E22BF48
:1015D000B61A754640EA9C005B084FEA3202B6EB49
:1015E000020E75EB030E22BFB61A754640EADC0008
:1015F00055EA060E18D04FEA051545EA16754FEA6A
:1016000006164FEAC30343EA52734FEAC2025FEA87
:101610001C1CC0D111F4801F0BD141EA00014FF016
:1016200000004FF0004CB6E711F4801F04BF0143E7
:101630000020B4F1FD0C88BFBCF5E06F3FF6AFAE03
:10164000B5EB030C04BFB6EB020C5FEA500C50F193
:10165000000041EB045170BD0EF0004E4EEA113116
:1016600014EB5C04C2BFD4EB0C0541EA045170BD1D
:1016700041F480114FF0000E013C90E645EA060E61
:101680008DE60CEA135594EA0C0F08BF95EA0C0F8F
:101690003FF43BAF94EA0C0F0AD150EA01347FF4D7
:1016A00034AF95EA0C0F7FF425AF104619462CE7AE
:1016B00095EA0C0F06D152EA03353FF4FDAE104611
:1016C000194622E750EA410618BF52EA43067FF462
:1016D000C5AE50EA41047FF40DAF52EA43057FF4F2
:1016E000EBAE12E74FEA410C7FEA6C5C02D150EAA4
:1016F000013C0AD14FEA430C7FEA6C5C02D152EA0A
:10170000033C02D14FF0000070474FF001007047DA
:101710004FEA410212F5001215D211D56FF4787319
:10172000B3EB625212D94FEAC12343F0004343EABC
:10173000505311F0004F23FA02F018BF4042704797
:101740004FF00000704750EA013005D111F0004021
:1017500008BF6FF0004070474FF00000704700BFB7
:1017600010B582B08DF807000E4C00224FF40061D6
:10177000204605F008FA00224FF48051204605F07B
:1017800002FA4FF0FF3301220DF10701064805F080
:101790002AFE01224FF48051204605F0F4F902B0F0
:1017A00010BD00BF00000240F059002010B582B00B
:1017B0008DF807000E4C01224FF40061204605F021
:1017C000E2F900224FF48051204605F0DCF94FF099
:1017D000FF3301220DF10701064805F004FE012246
:1017E0004FF48051204605F0CEF902B010BD00BF85
:1017F00000000240F059002070B505460E460D4C21
:1018000001224FF40061204605F0BDF900224FF49B
:101810008051204605F0B7F94FF0FF33B2B22946A8
:10182000054805F0E0FD01224FF48051204605F007
:10183000AAF970BD00000240F059002008B5024B23
:10184000187AFFF78DFF08BD3058002010B582B020
:10185000030A8DF804308DF805000E4C00224FF479
:101860008051204605F08FF901224FF40061204697
:1018700005F089F94FF0FF33022201A9064805F06F
:10188000B2FD01224FF48051204605F07CF902B0F0
:1018900010BD00BF00000240F059002070B50546A1
:1018A0000C460A4EB07AFFF75BFF280AFFF77EFF6F
:1018B000E8B2FFF77BFF307BFFF752FF200AFFF70C
:1018C00075FFE0B2FFF772FF70BD00BF3058002017
:1018D00010B50C46C0B2FFF743FF2046FFF7B6FF36
:1018E00010BD000008B5FFF7D9FFFFF7A7FF024BB7
:1018F0001888FFF7ABFF08BD0C0A002010B514468E
:10190000FFF7CCFF2146024B1889FFF7E1FF10BD1E
:10191000305800202DE9F04107460E468518ADB23B
:10192000013DADB2CC18A4B2013CA4B2DFF84480B2
:1019300098F80A00FFF714FF380AFFF737FFF8B2EC
:10194000FFF734FF280AFFF731FFE8B2FFF72EFF59
:1019500098F80C00FFF704FF300AFFF727FFF0B2FA
:10196000FFF724FF200AFFF721FFE0B2FFF71EFF79
:10197000BDE8F0813058002010B56D4C01224FF4C5
:101980008071204605F0FFF800224FF48071204658
:1019900005F0F9F80A2004F0DFF801224FF4807115
:1019A000204605F0F0F8782004F0D6F81120FFF773
:1019B000D7FE782004F0D0F8F020FFF7D1FEC32046
:1019C000FFF7F4FEF020FFF7CBFE9620FFF7EEFEC8
:1019D0003620FFF7C5FE4820FFF7E8FE3A20FFF764
:1019E000BFFE5520FFF7E2FEB420FFF7B9FE01204D
:1019F000FFF7DCFEB720FFF7B3FEC620FFF7D6FEE9
:101A0000E820FFF7ADFE4020FFF7D0FE8A20FFF769
:101A1000CDFE0020FFF7CAFE0020FFF7C7FE2920F9
:101A2000FFF7C4FE1920FFF7C1FEA520FFF7BEFE99
:101A30003320FFF7BBFEC120FFF792FE0620FFF721
:101A4000B5FEC220FFF78CFEA720FFF7AFFEC52032
:101A5000FFF786FE1820FFF7A9FEE020FFF780FEC3
:101A6000F020FFF7A3FE0920FFF7A0FE0B20FFF7F1
:101A70009DFE0620FFF79AFE0420FFF797FE152033
:101A8000FFF794FE2F20FFF791FE5420FFF78EFE04
:101A90004220FFF78BFE3C20FFF788FE1720FFF760
:101AA00085FE1420FFF782FE1820FFF77FFE1B2023
:101AB000FFF77CFEE120FFF753FEF020FFF776FEF4
:101AC0000920FFF773FE0B20FFF770FE0620FFF7DB
:101AD0006DFE0420FFF76AFE0320FFF767FE2D204E
:101AE000FFF764FE4320FFF761FE4220FFF75EFE32
:101AF0003B20FFF75BFE1620FFF758FE1420FFF790
:101B000055FE1720FFF752FE1B20FFF74FFEF02077
:101B1000FFF726FE3C20FFF749FEF020FFF720FEEE
:101B20006920FFF743FE2820FFF71AFE10BD00BF13
:101B30000000024008B52920FFF712FE08BD000092
:101B400010B501282DD9831EDBB2012B47D9334CA8
:101B5000A07AFFF705FE0020FFF728FE0020FFF720
:101B600025FE20880138C0F30720FFF71FFE2078EC
:101B70000138C0B2FFF71AFE207BFFF7F1FD00200D
:101B8000FFF714FE0020FFF711FE60880138C0F354
:101B90000720FFF70BFEA0780138C0B2FFF706FE62
:101BA00010BD1E4B00229A714FF4A0721A804FF4A0
:101BB000F0725A802C221A812A225A812B229A8171
:101BC00030B93620FFF7CCFD4820FFF7EFFDBEE728
:101BD0003620FFF7C5FD8820FFF7E8FDB7E70F4B7C
:101BE00001229A714FF4F0721A804FF4A0725A8059
:101BF0002C221A812A225A812B229A81022806D06D
:101C00003620FFF7ADFD2820FFF7D0FD9FE73620F7
:101C1000FFF7A6FDE820FFF7C9FD98E73058002040
:101C200008B501224FF40071014804F0ACFF08BD73
:101C3000000802402DE9F04F83B08046A2EB000A75
:101C40008946A3EB010BBAF1000F0DDD01220092D2
:101C5000BBF1000F14DD01230193DA451CDD56466C
:101C600000252F462C461BE0BAF1000F05D0A0EB53
:101C7000020A4FF0FF320092EAE7CDF800A0E7E752
:101C8000BBF1000F05D0A1EB030B4FF0FF33019325
:101C9000E3E7CDF804B0E0E75E46E1E70134A4B243
:101CA000731C9C4212DC1FFA89F11FFA88F0FFF7BF
:101CB00019FE57445D44BE4202DABF1B009B9844A4
:101CC000AE42EBDAAD1B019B9944E7E703B0BDE8F8
:101CD000F08FF8B507460E4615461C460B46FFF733
:101CE000A9FF23463A4631463846FFF7A3FF23466D
:101CF0002A4621463846FFF79DFF23462A463146AD
:101D00002846FFF797FFF8BDF8B516461F46BDF801
:101D10001820331A7D1A013503FB055542F2107362
:101D20009D4239D94FF0000C44E04FEA440C354B4A
:101D30004FEA122E03F814E00CF1010C03F80C200A
:101D40000134AC42F1D3321A92B27B1A9BB2013306
:101D500001329BB292B2FFF7DDFD2B4B187AFFF7F1
:101D6000FFFC2A4C01224FF40061204604F00BFFD7
:101D700000224FF48051204604F005FF42F2107318
:101D80009D421CD9224EA6FB0536760B42F21073FB
:101D900003FB1655002424E00024D2E74FEA4C0E42
:101DA000184B140A03F81C400EF1010E03F80E2024
:101DB0000CF1010C42F20F7EF445EFD9C3E76A0043
:101DC00092B24FF0FF330F49124805F00CFB12E0BE
:101DD0004FF0FF3344F620620A490E4805F003FB3A
:101DE0000134B442F4D36D00AAB24FF0FF33054979
:101DF000084805F0F8FA01224FF48051034804F036
:101E0000C2FEF8BD100A0020305800200000024039
:101E10005917B7D1F059002010B582B004460021FF
:101E20000846FFF73BFDFFF709FD054A009453887C
:101E3000128800210846FFF767FF02B010BD00BFFF
:101E40003058002030B5E5B0A2F12E032C2B00F263
:101E5000A280DFE803F01925176B69676563615F8E
:101E60005D5B6DA0A0A0A0A0A059575553514F4D48
:101E70004B49474543413F3D3B39373533312F2DA2
:101E80002B292700002400E0252414230A22FFF731
:101E900041FD424B187AFFF763FC0025294662E0BA
:101EA0002424F2E72324F0E72224EEE72124ECE7C0
:101EB0002024EAE71F24E8E71E24E6E71D24E4E7E0
:101EC0001C24E2E71B24E0E71A24DEE71924DCE700
:101ED0001824DAE71724D8E71624D6E71524D4E720
:101EE0001424D2E71324D0E71224CEE71124CCE740
:101EF0001024CAE70F24C8E70E24C6E70D24C4E760
:101F00000C24C2E70B24C0E70A24BEE70924BCE77F
:101F10000824BAE70724B8E70624B6E70524B4E79F
:101F20000424B2E70324B0E70224AEE70124ACE7BF
:101F30002624AAE71A4AB2F800C04A1C4FEA1C2E0F
:101F40000DF801E00DF802C0023140080133DBB2A8
:101F5000092B06D810F0010FECD0124AB2F800C0DD
:101F6000EBE70135EDB2132D12D86A0001320E4BAA
:101F700004EB840003EBC000825C04EB840003EB01
:101F8000C00313F8150000EB022080B20023DFE746
:101F90006846FFF731FC65B030BD00BF3058002007
:101FA000000000200C0A0020C8F8000870B50446A4
:101FB0000E46154606E031462046FFF743FF0A3439
:101FC000A4B201352A78002AF5D170BD2DE9F04779
:101FD000804689461F46A2F12E03462B00F29F80C1
:101FE000DFE803F0918E24A0272B2E3134373A3DC1
:101FF000949D9D9D9D9D9D404346494C4F525558F3
:102000005B5E6164676A6D707376797C7F828588B8
:102010008B9D9D9D9D9D9D9D9D9D9D9D9D9D9D9D02
:102020009D9D9D9D979D9D9D9D9D9A004FF0000AB1
:1020300001E04FF0020A002698E04FF0030AFAE7A9
:102040004FF0040AF7E74FF0050AF4E74FF0060AED
:10205000F1E74FF0070AEEE74FF0080AEBE74FF021
:10206000090AE8E74FF00A0AE5E74FF00B0AE2E752
:102070004FF00C0ADFE74FF00D0ADCE74FF00E0AD5
:10208000D9E74FF00F0AD6E74FF0100AD3E74FF029
:10209000110AD0E74FF0120ACDE74FF0130ACAE752
:1020A0004FF0140AC7E74FF0150AC4E74FF0160ABD
:1020B000C1E74FF0170ABEE74FF0180ABBE74FF031
:1020C000190AB8E74FF01A0AB5E74FF01B0AB2E752
:1020D0004FF01C0AAFE74FF01D0AACE74FF01E0AA5
:1020E000A9E74FF01F0AA6E74FF0200AA3E74FF039
:1020F000210AA0E74FF0220A9DE74FF0230A9AE752
:102100004FF0240A97E74FF0250A94E74FF0260A8C
:1021100091E74FF0270A8EE74FF0280A8BE74FF040
:10212000FF0A88E74FF0010A85E709EB060108EB93
:1021300004001A4B1A8889B280B2FFF7DFFB6D08E2
:102140000134E4B2092C0FD815F0010FEDD1002FA6
:10215000F5D009EB060108EB0400114B1A8889B28F
:1021600080B2FFF7CBFBEAE70136F6B2132E12D8A6
:10217000720001320B4B0AEB8A0103EBC1018A5C4E
:102180000AEB8A0103EBC10313F8165005EB022595
:10219000ADB20024D6E7BDE8F08700BF0C0A0020EE
:1021A00000000020A0020108F8B504460F461546BD
:1021B0001E4607E0334639462046FFF707FF0A343C
:1021C000A4B201352A78002AF4D1F8BD2DE9F843EC
:1021D00007468846312A05D0322A06D14FF0010938
:1021E000002619E04FF00009FAE74FF0FF09F7E782
:1021F0006D080134E4B2072C0CD815F0010FF7D0AC
:1022000008EB060138190A4B1A8889B280B2FFF729
:1022100075FBEDE70136F6B20B2E07D809EB490343
:10222000044A02EB83039D5D0024E4E7BDE8F883E4
:102230000C0A0020E00101082DE9F8430746884612
:10224000A2F12E03282B38D8DFE803F031372E1502
:102250003A181C1F2225282B37373737373737379F
:1022600037373737373737373737373737373737FE
:102270003737373734004FF0000901E04FF00209DB
:1022800000263DE04FF00309FAE74FF00409F7E7B5
:102290004FF00509F4E74FF00609F1E74FF00709A1
:1022A000EEE74FF00809EBE74FF00909E8E74FF0D8
:1022B0000A09E5E74FF00B09E2E74FF0FF09DFE716
:1022C0004FF00109DCE708EB06013819124B1A88B8
:1022D00089B280B2FFF712FB6D080134E4B2062C1C
:1022E0000CD815F0010FEED008EB060138190B4B96
:1022F0001A8889B280B2FFF701FBEDE70136F6B22A
:102300000D2E07D8C9EBC903054A02EB43039D5DB7
:102310000024E4E7BDE8F883000000200C0A002058
:10232000F801010870B504460E46154606E0314630
:102330002046FFF781FF0834A4B201352A78002A2D
:10234000F5D170BD2DE9F84307468846A2F1200378
:10235000362B42D8DFE803F03E4141414141414143
:102360004141414141413841351C441F2326292C1C
:102370002F3241414141414141414141414141416E
:1023800041414141414141414141414141413B0084
:102390004FF0000901E04FF00209002640E04FF045
:1023A0000309FAE74FF00409F7E74FF00509F4E7EE
:1023B0004FF00609F1E74FF00709EEE74FF0080983
:1023C000EBE74FF00909E8E74FF00A09E5E74FF0BE
:1023D0000B09E2E74FF00C09DFE74FF0FF09DCE7FC
:1023E0004FF00109D9E708EB06013819154B1A8897
:1023F00089B280B2FFF782FA6D080134E4B20D2C85
:102400000CD815F0010FEED008EB060138190E4B71
:102410001A8889B280B2FFF771FAEDE70136F6B299
:102420001B2E0CD872000132084B03EB89139A5C07
:1024300013F8165005EB0225ADB20024DFE7BDE826
:10244000F88300BF000000200C0A0020E0FE000816
:1024500070B504460E46154606E031462046FFF7A5
:1024600071FF0E34A4B201352A78002AF5D170BD6F
:1024700000B585B0002300930193029303932E4887
:102480002E4A02604FF48032426083600122026172
:10249000027680F82030C36229498162C360052337
:1024A000C36180F83020426103F004FC002831D180
:1024B00003230093012301930723029369461E48D7
:1024C00003F022FD48BB04230093022301936946D5
:1024D000194803F019FD18BB05230093032301934A
:1024E0006946154803F010FDE8B90623009304235C
:1024F00001936946104803F007FDB8B9072300931C
:102500000523019369460C4803F0FEFC88B905B029
:102510005DF804FB01F008FBCAE701F005FBD2E718
:1025200001F002FBD8E701F0FFFADEE701F0FCFA68
:10253000E4E701F0F9FAEAE7405800200020014002
:102540000100000F30B589B0002303930493059375
:1025500006930793026803F1804303F590339A4290
:1025600001D009B030BD04460025019503F58C3338
:102570005A6C42F480725A645A6C02F4807201926E
:10258000019A02951A6B42F001021A631B6B03F069
:1025900001030293029BF82303930323049303A9EB
:1025A000104804F009FA1048104B0360456085603C
:1025B000C5604FF4806303614FF4805343614FF46F
:1025C000804383614FF48073C3610562456203F009
:1025D00085FE18B9044BA3639C63C2E701F0A4FA1B
:1025E000F8E700BF00000240885800201064024055
:1025F00008B50548054B036003F0BEFD00B908BDF2
:1026000001F092FAFBE700BFE858002000300240DA
:102610000268094B9A4200D0704782B000230193B0
:10262000064B1A6B42F480521A631B6B03F48053FF
:102630000193019B02B07047003002400038024015
:1026400000B583B000210191094B1A6B42F480025E
:102650001A631B6B03F480030193019B0A46382025
:1026600003F030FD382003F065FD03B05DF804FB96
:1026700000380240002318468C33B3F5003F08D8D9
:1026800000F1006202F500321168034A9142F2D073
:1026900070474FF40030FBE72FCB040008B501462C
:1026A0002222024803F077FD08BD00BFE858002051
:1026B0002DE9F047A4B082464FF00008C1464746D6
:1026C000444615E001A8FFF7E9FF864204D074B93B
:1026D0001B4805F033FC0AE0029BBB4207D9A14628
:1026E0001F464FF0010802E0164805F0C5FB2C46D6
:1026F00004F18C05B5F5003F11D88C2204F100617E
:1027000001F5003101A8FEF775FC039E0023039339
:1027100001990D4B9942D5D0002CE8D1E4E7B8F1EE
:10272000000F03D1404624B0BDE8F0878C2209F1A8
:10273000006101F500315046FEF75CFCF2E700BF96
:1027400008090108180901082FCB040010B5A4B02E
:10275000044601A8FFF7ACFF0146002848D01D9BA6
:1027600063661E9BA366002340E09A1C24A800EB2E
:10277000820252F8882C44F8232003F1080200EB6F
:10278000820252F88C0C1A1D04EB8202506003F195
:102790000C0224A800EB820252F8880C03F10A0212
:1027A00044F8220003F1120224A800EB820252F83E
:1027B0008C0C03F10E0204EB8202506003F116024E
:1027C00024A800EB820252F8880C03F1140244F8AA
:1027D000220003F11E0224A800EB820252F88C0CA6
:1027E00003F11A0204EB820250600133042BBCDDBA
:1027F000084624B010BD000010B586B0124805F0A0
:102800009DFB03F093FF0023019305230393012312
:102810000493022205920293694601A804F082F80B
:10282000044603F09BFF54B12146084805F024FB01
:102830000023074A1360074A136006B010BD06481C
:1028400005F07CFBF4E700BF2809010844090108F2
:10285000F0580020F45800205809010810B5A4B021
:1028600001A8FFF725FF90B1029C0E4B1C60FFF7FB
:1028700001FF03460C4A1060A0F18C0221460B4870
:1028800005F0FAFA0A4B01221A7024B010BD002399
:10289000044A1360044A1360064805F04FFBFFF733
:1028A000ABFFEFE7F0580020F45800206C09010856
:1028B000F8580020B809010884B030B5A5B028AC9C
:1028C00084E80F00514B1B7893B1514B1B688C333C
:1028D000B3F5003F0FD84F4B01934F4B1B680133AB
:1028E000029300230393419A1D92429A1E924BE059
:1028F000FFF7B4FFE9E7494805F020FBFFF77CFF4D
:10290000E9E728AA52F823109A1C24A800EB8202B7
:1029100042F8881C1A1D28A901EB8202516803F1B4
:10292000080200EB820242F88C1C03F10A0228A97B
:1029300051F8221003F10C0200EB820242F8881CCD
:1029400003F10E0228A901EB8202516803F1120281
:1029500000EB820242F88C1C03F1140228A951F802
:10296000221003F1160200EB820242F8881C03F1E8
:102970001A0228A901EB8202516803F11E0200EB42
:10298000820242F88C1C0133042BBADD01A8FFF748
:1029900085FE039003F0CAFE0146B8B91C4B1D68C2
:1029A00005F1006505F500350024222C1FD824AB65
:1029B00003EB840353F88C2C002305EB84010220E5
:1029C00003F006FF024630B90134EEE7144805F083
:1029D00053FA002006E02146124805F04DFA03F0B4
:1029E000BDFE002025B0BDE8304004B0704703F0C4
:1029F000B5FE094B196801311960054B1A688C3214
:102A00001A60094805F038FA0120EBE7F858002071
:102A1000F45800202FCB0400F0580020DC090108F6
:102A2000F8090108140A01083C0A01082DE9F041DF
:102A30008AB000240594069407940894099401949C
:102A4000384B1A6B42F004021A631A6B02F004024C
:102A50000192019A02941A6B42F080021A631A6B77
:102A600002F080020292029A03941A6B42F0010271
:102A70001A631A6B02F001020392039A04941A6B10
:102A800042F002021A631B6B03F002030493049BDF
:102A9000254E224642F21121304604F074F8234FAD
:102AA000224646F2F111384604F06DF8DFF88080D6
:102AB00022464FF4C851404604F065F842F2112313
:102AC0000593012506950794089405A9304603F05F
:102AD00073FF46F2F113059306950794089405A930
:102AE000384603F069FF4FF41243059306940795A7
:102AF00005A9384603F060FF4FF4E0730593069490
:102B0000079505A9304603F057FF4FF4C8530593C6
:102B100006950794089405A9404603F04DFF0AB0B6
:102B2000BDE8F08100380240000802400004024085
:102B30000000024030B59DB03349344B1868FDF7B2
:102B4000B1FE4FF07C51FDF7A5FD314B1D68FEF73E
:102B50006FF8304C44F825002F49304B1868FDF7CA
:102B6000A1FE4FF07C51FDF795FDFEF761F82B1D9E
:102B700004EB830358602849294B1868FDF792FE3F
:102B80004FF07C51FDF786FDFEF752F805F10A0380
:102B900044F823002049234B1868FDF783FE4FF0CB
:102BA0007C51FDF777FDFEF743F805F10E0304EBCA
:102BB0008303586018491C4B1868FDF773FE4FF0EB
:102BC0007C51FDF767FDFEF733F805F1140344F877
:102BD00023006566154B1B68A3661A3504EB850553
:102BE00043F239036B60702204F110016846FEF76E
:102BF00001FA94E80F00FFF75FFE0D4A13680133F6
:102C000013601DB030BD00BF0000C84208000020A6
:102C1000B459002034590020000020411C0000203D
:102C20000C00002018000020100000203059002067
:102C3000FC58002000B583B001904FF0FF33012213
:102C400001A9034805F02FF8019803B05DF804FBD3
:102C5000245B0020044B1968044A1268506A1B6800
:102C60008B42F7D1704700BFE85900204C5A002032
:102C700008B5024804F0C0FC08BD00BF945A00200B
:102C800038B504460368B3F1804F08D022689E4BE4
:102C90009A4209D022689D4B9A4217D038BD9C4A6F
:102CA000136801331360F1E710219A4803F071FFB4
:102CB000994A13780133DBB21370232BEAD91346F8
:102CC00000221A70954804F0D3FCE3E74FF400416A
:102CD000934803F051FF002800F0D8804FF0FF31F7
:102CE000904A13780B4413704FF480518C4803F0D2
:102CF00043FF002800F0CC804FF0FF318A4A137860
:102D00000B4413704FF40071854803F035FF002821
:102D100000F0C0804FF0FF31844A13780B441370E9
:102D20004FF480717B4803F027FF002800F0B48047
:102D30004FF0FF317E4A13780B44137080217548A1
:102D400003F01AFF002800F0A9800121794A1378C6
:102D50000B44137040216F4803F00EFF002800F071
:102D6000A0800121744A13780B445BB213706D4A42
:102D700092F900C0BCF1000FC0F29680BCF1140FB4
:102D8000A8BF4FF0140C674A82F800C0664A92F957
:102D90000040002CC0F28B80142CA8BF1424624A7F
:102DA0001470624A92F900000028C0F28280142850
:102DB000A8BF14205D4A10705D4A92F900100029E6
:102DC00079DB1429A8BF1421594A1170594A92F984
:102DD0000020002A71DB142AA8BF1422554D2A7046
:102DE000002B6CDB142BA8BF1423534A1370534BD6
:102DF0001B78022B65D0524A1368013B136042F2E4
:102E0000107293426DDC23EAE3734D4A13604D4A1E
:102E1000127852B94C4D2A68013A2A604B4DAA42A9
:102E200062DC22EAE272484D2A60BCF10A0F09DD39
:102E3000474A126832B9414A00251570444A42F2A5
:102E4000107515600A2C09DD414A126832B93B4AF7
:102E5000012414703E4A42F2107414600A2808DDFE
:102E6000394A12682AB9374A01201070364A374861
:102E700010600A2901DD002B38D02E4B93F9003069
:102E80000A2B6BDD334B01221A7007E7012127E77C
:102E9000012133E701213FE701214BE74FF0FF31EB
:102EA00054E74FF0FF315DE74FF0000C6BE7002473
:102EB00075E700207EE7002186E700228EE70023E9
:102EC00093E7234A1368013B136042F21072934266
:102ED00002DC23EAE37301E042F210731C4A136040
:102EE00089E742F2107390E7184A9CE7FFF7C0FEAB
:102EF000194B01221A700E4B00221A70104B42F22D
:102F000010721A60B9E700BF0004004000080040DA
:102F1000E859002000080240F9580020945A002087
:102F200000040240015900200259002005590020E8
:102F300004590020005900200359002030000020CF
:102F400004000020D959002020000020A0860100A4
:102F50002C000020D8590020245900200C4B93F954
:102F6000003053B10B4B93F900300A2B09DDFFF70A
:102F70007FFE094A1368013B1360054B00221A705B
:102F80008CE6FFF775FE044A136801331360F4E71B
:102F9000D8590020035900201400002010B5FFF775
:102FA00059FE144A13685268134C1B1942F100026F
:102FB000834272EB010301D3002010BD0D4B18605A
:102FC00059600E4B1A8840F2DB539A4206D90B4BDC
:102FD0001B88B3F5E16F07D80120EEE70122114607
:102FE000074803F0D0FDF2E700220121044803F076
:102FF000CAFDF1E7E059002040420F00BC59002013
:10300000000802402DE9F84304462B4D55F82000F6
:10301000FDF7F0FB2949FDF7F9FC294E3060231D2F
:1030200005EB83035868FDF7E5FB2649FDF7EEFC49
:10303000DFF89480C8F8000004F10A0355F8230073
:10304000FDF7D8FB1F49FDF7E1FC204F386004F184
:103050000E0305EB83035868FDF7CCFB1949FDF718
:10306000D5FCDFF86C90C9F80000143455F8240042
:10307000FDF7C0FB1349FDF7C9FC164C2060002189
:10308000154B187802F0E2FA0021306802F026F9B8
:103090000021D8F8000002F069F90021386802F038
:1030A000A3F90021D9F8000002F0EEF90021206810
:1030B00002F026FABDE8F883345900200000C84227
:1030C00008000020000020411C0000200C0000200F
:1030D0001800002010000020B4590020F8B54FF06F
:1030E0007C512C4B1868FDF7DDFB2B49FDF7DAFB13
:1030F000FDF79EFD294B1880294B1868FDF77AFBD8
:103100002849FDF7CFFB4FF06651FDF7CBFBFDF7EC
:103110008FFD254B188000241BE0FDF76FFB234932
:10312000FDF7C0FB07463046FDF768FB2049FDF779
:10313000B9FB01463846FDF7ADFAFDF779FD1D4BA9
:1031400023F814001B4B33F814201B4B23F81420D6
:103150002C46032C1DDC651C114B53F82500FDF794
:1031600049FB1649FDF79EFB4FF06651FDF79AFBB0
:103170001349FDF797FB0849FDF794FBFDF758FD50
:1031800080B20C4B33F81460002EC6D123F8140023
:10319000D8E7F8BD0800002000007A44BA590020A2
:1031A0001059002000404E45BC590020CDCCCC3DEC
:1031B0006666663F08590020285900203333534083
:1031C000CDCCCC3F08B50268034B9A4200D008BD75
:1031D000FFF784FFFBE700BF002001400000000074
:1031E0002DE9F04182B0002630464FF6FF74354697
:1031F000334603E0104480B20133DBB2032B0AD81C
:103200008B4A32F81320AA4201D91E461546A24223
:10321000F0D21446EEE78708864B1B78042B07D8BC
:10322000DFE803F003093E87BE00824B01221A70DB
:1032300002B0BDE8F081804C01224FF4807120463D
:1032400003F0A1FC00221021204603F09CFC002288
:103250002021204603F097FC00224021204603F065
:1032600092FC00228021204603F08DFC3846FDF7B9
:1032700019F904460D46714B1888FDF713F968A338
:10328000D3E90023FEF71CF802460B4620462946E8
:10329000FDF7F0F90028CBD0664B02221A70C7E781
:1032A00001224FF48071644803F06DFC0023019308
:1032B000A8462C1B142C04DD02AB1E44012306F887
:1032C000043C5D4C9DF804201021204603F05BFC7B
:1032D0009DF805202021204603F055FC9DF806208E
:1032E0004021204603F04FFC9DF807208021204616
:1032F00003F049FC4046FDF7D5F804460D464F4B18
:103300001E883046FDF7CEF847A3D3E90023FDF72A
:10331000D7FF02460B4620462946FDF78DF910B12E
:10332000444B01221A70BE4282D2424B03221A70D1
:103330007EE700224FF480713F4803F024FC002315
:1033400001932B1B142B04DD02AB1E44012306F852
:10335000043C394E9DF804201021304603F013FC44
:103360009DF805202021304603F00DFC9DF8062035
:103370004021304603F007FC9DF8072080213046AD
:1033800003F001FC2D4B1B88AB4202D9294A0221D4
:103390001170A342BFF44CAF264B04221A7047E7CA
:1033A00000224FF48071244803F0EDFB00230193C9
:1033B000012401E00133DBB2032B11D818461C4A6B
:1033C00032F813201D4909888A42F3D3521A142A6D
:1033D000F0DD02AA1044012200F8042C0024E9E7E1
:1033E000154D9DF804201021284603F0CCFB9DF8D4
:1033F00005202021284603F0C6FB9DF80620402129
:10340000284603F0C0FB9DF807208021284603F0E2
:10341000BAFB002C3FF40CAF064B03221A7007E7EF
:10342000333333333333D33F9A9999999999E93F99
:1034300028590020B859002000040240BA59002041
:1034400038B5FFF707FC1B4A136852681A4C1B1962
:1034500042F10002834272EB010300D338BDFFF753
:10346000BFFEFFF7F7FB134BC3E90001134C2088A5
:10347000FDF7C0F91249FDF7C9FA05466088FDF766
:10348000B9F90F49FDF7C2FA0146284601F06AFE74
:10349000A088FDF7AFF90A49FDF7B8FA0546E088BC
:1034A000FDF7A8F90649FDF7B1FA0146284601F0F3
:1034B000B7FED3E7D0590020A0860100285900208C
:1034C00000007A4408B5034804F038FDFF2002F0FC
:1034D0001BFA08BD680A0108164B1B78012B03D0A4
:1034E000144B00221A70704710B59CB0124804F0BB
:1034F00025FD124B1B7823B90E4B00221A701CB00D
:1035000010BD0F4804F01AFD0E4C0F4B1B6863668C
:103510000E4B1B68A366702204F110016846FDF78C
:1035200069FD94E80F00FFF7C7F9044B00221A70F9
:10353000E2E700BFD9590020780A0108EC590020C1
:10354000840A010834590020B45900203059002061
:1035500008B508280AD8DFE800F0050A0F14190991
:103560001E232800134B186801F000FF08BD124B02
:10357000186801F039FFF9E7104B186801F084FF73
:10358000F4E70F4B186801F0BBFFEFE70D4B18682D
:1035900001F0A4FEEAE70C4B187802F057F8E5E7D3
:1035A0000A4B187802F01CF8E0E7084B187802F094
:1035B00017F8DBE71C0000200C000020180000209A
:1035C0001000002008000020B4590020BE5900203F
:1035D00070B5FFF73FFB04460D46954A13685268E5
:1035E00053EA020108D0E31A65EB020291499942BD
:1035F0004FF00003934123D38F4B1A785AB18F4970
:103600000B684968E31A65EB01018D4898424FF059
:1036100000038B411DD38B4B19688B4B1B68CB1A56
:103620008A480078012835D04BB184480460456051
:1036300085480160002A7CD17F4B01221A7070BD41
:10364000002002F035F87A4B00200021C3E9000188
:10365000D2E7022A0FD0012AF1D1774B00221A704B
:10366000FFF730FF7A4B09221A707A4B754A1360C4
:10367000754A1360E3E7764E00213078FFF768FF64
:103680006D4B01221A70307802F03EF96B4B1C60D2
:103690005D60D4E7704804F051FC684B1C605D60CD
:1036A000654B1B781BB1012B05D0022B35D0674B26
:1036B00000221A70C3E7604B02221A70644B1B7819
:1036C000082B09D0072B0ED0052B13D00121604BFE
:1036D0001878FFF73DFFEAE7604804F02FFC604BE5
:1036E00000221A70F2E75F4804F028FC5C4B0122CC
:1036F0001A70EBE7012001F0DBFFFFF71BFA002156
:10370000594B187801F0A2FF4B4B01221A70FFF7BA
:10371000A1FA474BC3E90001D8E7474B01221A70D1
:103720004B4C00212078FFF713FF207802F0ECF8D3
:10373000BDE7012A10D0022A81D1454A1278082A11
:1037400051D8DFE812F034005600A500C500E400AF
:103750005000030124012B01002B12DD3C480378AB
:10376000013302F1663282FB031202F0FC0101EB2D
:10377000A202A3EB42030370354B187802F0C4F8A1
:103780005DE7334B1B7873B9314B09221A7030490E
:103790000A78364BA3FB0203DB0803EB8303A2EB9F
:1037A00043030B70E8E7013B294A1370EFE7002B56
:1037B0001DDD2F482F4D2968FCF76CFF044628605B
:1037C0002D49FDF72BFA00B12B4C2A4B1C602B49DD
:1037D0002046FDF705FA00B1254C264B1C6001215F
:1037E000204601F0C3FD264B01221A7027E7254829
:1037F000E0E7002B1ADD1E48234D2968FCF74AFF3D
:10380000044628602149FDF709FA00B11F4C1E4B00
:103810001C601A492046FDF7E3F900B1144C1A4B1D
:103820001C600121204601F0DFFDDCE71548E3E7DD
:10383000C859002040420F0006590020C0590020FE
:10384000C0C62D00140000202400002024590020B0
:103850002800002000943577980A0108A00A010882
:10386000BE590020B00A0108B4590020CDCCCCCC00
:10387000CDCCCC3D1C0000200000A040AE47E13D77
:10388000EC590020CDCCCCBD0C0000200000C8417C
:10389000002B1BDD4548464D2968FCF7FBFE04461E
:1038A00028604449FDF7BAF900B1424C404B1C6016
:1038B00041492046FDF794F908B14FF07E543C4B46
:1038C0001C600121204601F0DFFD8CE73B48E2E768
:1038D000002B1ADD35483A4D2968FCF7DBFE04461B
:1038E00028603849FDF79AF900B1364C344B1C601A
:1038F00035492046FDF774F900B12C4C304B1C6063
:103900000121204601F0FCFD6DE72C48E3E7002B88
:103910001ADD2E482E4D2968FCF7BCFE04462860AF
:103920002C49FDF77BF900B12A4C294B1C602A4930
:103930002046FDF755F900B10024254B1C600121FC
:10394000204601F0CBFC4EE72448E3E7002B11DDD5
:10395000234A136801331360042B00D90023204A43
:1039600013601F4C2068FFF74DFB0121207801F008
:103970006DFE38E7002BF4DA194B1B681BB1013BD5
:10398000174A1360EDE7164B04221A60E9E701209D
:10399000144B1870014601F023FE24E70020114B60
:1039A0001870012101F01CFE1DE700BFCDCCCC3DFD
:1039B0001800002066661E41AE47813FCDCCCCBDCD
:1039C000100000200000C841AE47E13D0AD7A33CEB
:1039D000080000200000C0400AD7233C0AD7A3BC3F
:1039E000B4590020BE590020F8B5434B1A78434B18
:1039F0001B789A4203D0414B02221A70F8BD40480E
:103A000004F09CFAFFF726F906460F46FFF722F965
:103A100005460C463B493C4B1868FCF743FFFDF755
:103A20003FF9831947EB01029D4274EB0203EDD38A
:103A3000FFF710F906460F4601224FF400513348B4
:103A400003F0A1F8FFF706F905460C463049314B63
:103A50001868FCF727FFFDF723F9831947EB0102EC
:103A60009D4274EB0203EDD300224FF4005127482E
:103A700003F089F8FFF7EEF806460F46FFF7EAF87D
:103A800005460C462249244B1868FCF70BFFFDF74E
:103A900007F9831947EB01029D4274EB0203EDD352
:103AA000FFF7D8F806460F4601224FF48041174829
:103AB00003F069F8FFF7CEF805460C461449174B9A
:103AC0001868FCF7EFFEFDF7EBF8831947EB0102EE
:103AD0009D4274EB0203EDD300224FF480410B486A
:103AE00003F051F80E4B18680130186001F01AFB12
:103AF0000C4B01221A707EE7BE59002030000020D6
:103B0000BC0A0108002474491C0000200004024083
:103B100000007A440C000020180000201000002053
:103B200030590020EC59002072B6FEE700B595B080
:103B30003022002108A804F04DF9002303930493D8
:103B400005930693079301931F4A116C41F080512E
:103B50001164126C02F080520192019A02931B4987
:103B60000A6822F4404242F400420A600A6802F401
:103B700040420292029A0222089201210B911021E6
:103B80000C910E920F9308231093542311931292C9
:103B90000423139308A803F005F880B90F230393B7
:103BA00002210491002305934FF48052069207935B
:103BB00003A803F045FA20B915B05DF804FBFFF740
:103BC000B3FFFFF7B1FF00BF0038024000700040B4
:103BD000F8B501F095FFFFF7A9FFFEF727FFFEF705
:103BE0002FFD00F055FAFEF743FC00F051F901F00B
:103BF000E3FEFEF7FDFC00F083FA00F0B9FA0522BF
:103C00008D498E4802F082F88D4803F0F5FC8D480E
:103C100003F0F2FCFEF722FE8B4C00224FF4807181
:103C2000204602F0B0FF00221021204602F0ABFF38
:103C300000222021204602F0A6FF0022402120463B
:103C400002F0A1FF00228021204602F09CFFFDF738
:103C5000E7FFFDF791FE0220FDF772FF4FF6FF70C0
:103C6000FEF7DAF801F044FDFDF764FF7748FEF750
:103C70006DFD002800F08480744B5C6E744B1C60FA
:103C8000002300E00133042B0ADC704A52F82320A1
:103C900012F0010FF6D001326C4941F82320F1E710
:103CA0006A4D55F82400FCF7A5FD6A49FCF7AEFE05
:103CB000694B1860231D05EB83035868FCF79AFDD8
:103CC0006649FCF7A3FE664B186004F10A0355F839
:103CD0002300FCF78FFD6149FCF798FE614B1860EB
:103CE00004F10E0305EB83035868FCF783FD5B4981
:103CF000FCF78CFE5C4B1860143455F82400FCF77C
:103D000079FD5649FCF782FE584B1860AA6E584B55
:103D10001A60584B00221A70574804F00FF9544BA0
:103D2000186801F0FFF90021494B187801F08EFC6A
:103D30000021504B187801F053FC0021464B1868C5
:103D400001F0CCFA0021464B186801F00FFB00216E
:103D5000444B186801F048FB0021434B186801F000
:103D600093FB0021414B186801F0CAFB41F21D1082
:103D700001F01CFCFF2001F0C7FD002637464AE099
:103D80003E4804F0DBF8344B3D4A1A60344B3D4A60
:103D90001A603D4B334A1360334A4FF08241116041
:103DA000324A136000232A4A1360314A13601FE02D
:103DB000264A7B2142F82310191D02EB81010820BD
:103DC000486003F10A015F2042F8210003F10E016F
:103DD00002EB810150244C6003F1140142F82100F0
:103DE00003F11A0102EB810243F239015160013300
:103DF000042BDDDD154B00225A669A66FEF79AFE0B
:103E00008DE7FFF7E5FBFFF7EFFDFFF719FBFFF786
:103E100063FB2E462746FFF7C1F8FEF71BFF05465A
:103E20000C461A4BF31847F10002834272EB010370
:103E3000E7D335463C46E4E71059002040580020BF
:103E40004C5A0020DC5A0020000402403459002063
:103E5000B45900200000C8420800002000002041A2
:103E60001C0000200C000020180000201000002082
:103E700030590020BE590020C80A0108E40A010890
:103E8000A4709D3FCDCC4C3F00001841A08601009E
:103E900008B50D480D4B03604FF482734360002357
:103EA0008360C360036143614FF400728261C36148
:103EB0000362436283620A23C36203F035FA00B9E6
:103EC00008BDFFF731FEFBE7F0590020003C004041
:103ED00000B589B0002303930493059306930793D9
:103EE0000268154B9A4202D009B05DF804FB00212C
:103EF000019103F5FE331A6C42F400421A641A6C05
:103F000002F400420192019A02911A6B42F00402FB
:103F10001A631B6B03F004030293029B4FF4E053FC
:103F2000039302230493032306930623079303A911
:103F3000024802F041FDD7E7003C00400008024083
:103F400082B0002100910B4B5A6C42F480425A64BB
:103F50005A6C02F480420092009A01911A6C42F06D
:103F600080521A641B6C03F080530193019B02B0D2
:103F7000704700BF00380240FEE7FEE7FEE7FEE7BD
:103F8000FEE770477047704708B501F0D3FD08BDE4
:103F900008B5024803F089FB08BD00BF4C5A002059
:103FA00008B5024803F081FB08BD00BF945A002009
:103FB00008B5024803F079FB08BD00BFDC5A0020B9
:103FC00008B5024802F026FA08BD00BF8858002054
:103FD0000120704708B503F0D3FE162303604FF0AD
:103FE000FF3008BD08B54FF0FF31FFF7F3FFFEE7E4
:103FF00070B50C461646002506E0AFF3008021465A
:1040000001F8010B01350C46B542F6DB304670BDB8
:1040100070B50C461646002504E014F8010BFEF7B7
:1040200009FE0135B542F8DB304670BD4FF0FF3078
:1040300070474FF400534B600020704701207047D9
:104040000020704710B503460C4A0D490D48006822
:1040500040B10C4800680344521A934206D8094AFA
:10406000136010BD0748084C0460F2E703F088FEB7
:104070000C2303604FF0FF30F3E700BF0000012086
:1040800000040000485A0020D85B00207047000060
:1040900000B587B000230293039304930593009324
:1040A000019316484FF080420260532242608360C1
:1040B0004FF0FF32C26003618023836103F000FC94
:1040C00090B94FF48053029302A90C4803F030FCDE
:1040D00068B90023009301936946084803F0A8FCDF
:1040E00040B907B05DF804FBFFF71EFDE9E7FFF7F5
:1040F0001BFDEEE7FFF718FDF3E700BF4C5A002069
:1041000000B587B0002302930393049305930093B3
:1041100001931548154A0260532242608360F922D8
:10412000C26003618023836103F0CAFB90B94FF43E
:104130008053029302A90C4803F0FAFB68B90023EC
:10414000009301936946084803F072FC40B907B038
:104150005DF804FBFFF7E8FCE9E7FFF7E5FCEEE7B5
:10416000FFF7E2FCF3E700BF945A00200004004090
:1041700000B587B000230293039304930593009343
:1041800001931548154A0260532242608360312230
:10419000C26003618023836103F092FB90B94FF406
:1041A0008053029302A90C4803F0C2FB68B90023B4
:1041B000009301936946084803F03AFC40B907B000
:1041C0005DF804FBFFF7B0FCE9E7FFF7ADFCEEE7B5
:1041D000FFF7AAFCF3E700BFDC5A0020000800400C
:1041E00000B585B00368B3F1804F08D0224A9342EE
:1041F0001AD0224A93422BD005B05DF804FB00216F
:10420000019103F50E331A6C42F001021A641B6C23
:1042100003F001030193019B0A461C2001F052FFA9
:104220001C2001F087FFE7E700210291144B1A6C74
:1042300042F002021A641B6C03F002030293029B19
:104240000A461D2001F03EFF1D2001F073FFD3E759
:10425000002103910A4B1A6C42F004021A641B6C91
:1042600003F004030393039B0A461E2001F02AFF78
:104270001E2001F05FFFBFE700040040000800407F
:10428000003802402DE9F04F97B080460D4600F10E
:104290000C031FFA83F901F1030A1FFA8AFA00F1ED
:1042A00051031FFA83FB01F130039BB24BF2AB4485
:1042B000009405935A4651464846FDF725FD08F1FE
:1042C000030398B205F10C06B6B205F127039FB2BD
:1042D00000943B464A4631460690FDF715FD08F12D
:1042E0005A039AB2009402973B46079231465846C9
:1042F000FDF70AFD08F106031FFA83FCAB1D99B216
:10430000009433464A460491CDF80CC06046FDF750
:10431000FBFC6F1DBFB208F107031FFA83FE009478
:104320003B46CDF824E0724639460398FDF7ECFC95
:1043300008F108031FFA83FC2B1D1FFA83FE08F106
:10434000090399B200943B460C910A46CDF82CE043
:104350007146CDF828C06046FDF7D6FC08F10A0387
:104360001FFA83FC00943B46CDF820904A46514604
:10437000CDF834C06046FDF7C7FC08F105031FFA0D
:1043800083F9EB1D1FFA83FC0094CDF83CC0634613
:104390004A4604994846FDF7B7FC08F104031FFAA2
:1043A00083FE05F108031FFA83FC05F1090399B2A6
:1043B000009412910B464A46CDF844C06146CDF8B0
:1043C00040E07046FDF7A0FC05F10A031FFA83FEEA
:1043D00000943346CDF838904A46CDF84CE071460B
:1043E0000698FDF791FC08F157091FFA89F9009426
:1043F00033464A4604995846FDF786FC08F15303B4
:104400001FFA83FE00943B46CDF850E072465146B9
:104410005846FDF779FC08F154031FFA83FA08F1B6
:1044200055031FFA83FC00943B46CDF854C0624606
:104430000B99CDF82CA05046FDF766FC08F1560A02
:104440001FFA8AFA00943B464A4639465046FDF721
:104450005BFC08F15807BFB200940F9B3A460499E1
:104460003846FDF751FC08F159081FFA88F8009406
:10447000129BCDF81080424611993846FDF744FC56
:1044800000943346079A13993846FDF73DFC05F131
:104490002D081FFA88F8009443464A460299584668
:1044A000FDF732FC05F12E06B6B20094059B149A76
:1044B00031465846FDF728FC05F12F031FFA83FB10
:1044C0000094CDF83CB05B46159A31460B98FDF749
:1044D0001BFC009433464A4631465046FDF714FC17
:1044E00005F12C091FFA89F9009443463A464946DA
:1044F0003846FDF709FC05F12A0A1FFA8AFA05F188
:104500002B0B1FFA8BFB00945B46049A51463846EE
:10451000FDF7FAFB2935ADB200942B46079A0299B4
:104520003846FDF7F1FB00944346089F3A4602994E
:104530000398FDF7E9FB00942B460E9D2A4602994D
:104540000698FDF7E1FB00945B462A465146109819
:10455000FDF7DAFB009443462A4649462846FDF714
:10456000D3FB00943346099A31460398FDF7CCFB00
:1045700000940F9B0C9A31460A98FDF7C5FB0094F6
:10458000059B3A4631460D98FDF7BEFB17B0BDE8D6
:10459000F08F2DE9F04F9DB006460D46144600F110
:1045A0000C031FFA83F900F150081FFA88F801F193
:1045B000020B1FFA8BFB00925B4642464846FDF712
:1045C000A3FB05F10C0399B2B31C1FFA83FA05F1A2
:1045D0002607BFB200943B46524603913046FDF792
:1045E00093FB05F131031FFA83FC05F133039BB202
:1045F00000940A934246CDF810C06146CDF824904D
:104600004846FDF781FB06F15B031FFA83F906F1CB
:104610005D039AB200943B460B92039F3946CDF856
:1046200014904846FDF770FB05F10A031FFA83FE5C
:10463000009403973B465246CDF838E07146304629
:10464000FDF762FB731C1FFA83FCEB1D1FFA83F856
:10465000F31C9FB205F109031FFA83FE0094CDF805
:1046600044E0734606973A464146CDF83CC0604662
:10467000FDF74AFB05F105091FFA89F9331D9FB2C1
:10468000AB1D1FFA83FC0094CDF84CC063463A463C
:104690004946CDF834A05046FDF736FB009443461A
:1046A0003A46CDF840804146B8463846FDF72CFBE7
:1046B0002F1DBFB200943B46424639460698FDF78F
:1046C00023FB05F1030A1FFA8AFA00945346424677
:1046D0005146CDF848804046FDF716FB731D1FFA82
:1046E00083FCE04600944B46624649466046FDF72F
:1046F0000BFBB31D9AB200943B4615925946CDF878
:1047000050804046FDF700FBF31D1FFA83FC009428
:104710003B4662463946CDF830C06046FDF7F4FAB4
:1047200005F101081FFA88F806F109031FFA83FE54
:1047300000945346CDF858E0724641460C98FDF778
:10474000E3FA06F10A031FFA83FC00945B46099A18
:104750002946CDF85CC06046FDF7D6FA06F1510354
:104760001FFA83FE06F1530399B200945B46189139
:104770000A462946CDF86CE07046FDF7C5FA06F109
:1047800054031FFA83FE06F156031FFA83FC0094BC
:104790005346CDF81CC062464146CDF864E07046F1
:1047A000FDF7B2FA00943B46DDF81CC0624639467C
:1047B0006046FDF7A9FA06F157031FFA83F8C446CD
:1047C00006F158031FFA83FEF04600943B467246FA
:1047D0005946CDF868C06046FDF796FA00944B46FE
:1047E00042464946CDF820804046FDF78DFA06F155
:1047F00059081FFA88F800943B4642465146404605
:10480000FDF782FA0094139BDDF814A05246494646
:104810004046FDF779FA06F15A0B1FFA8BFB00941C
:104820003B465A4639465846FDF76EFA0094DDF885
:1048300040904B46424649464046FDF765FA06F130
:104840005C07BFB20094119B3A4649465846FDF7B3
:104850005BFA0094039B0B9A0E99D1465046FDF7E4
:1048600053FA05F127031FFA83FA05F129039BB2D6
:10487000009403930B9ACDF838A05146CDF81490CC
:104880004846FDF741FA05F12A031FFA83F905F1BD
:104890002C0A1FFA8AFA009453463A46CDF82C9017
:1048A00049465846FDF730FA009453464246514671
:1048B0004046FDF729FA05F12D039FB205F12E09B7
:1048C0001FFA89F900944B46059A059739464046E8
:1048D000FDF71AFA00944B46089F3A464946384677
:1048E000FDF712FA05F12F07BFB200943B465A4676
:1048F00039464046FDF708FA05F1300B1FFA8BFBED
:1049000000945B46424659464046FDF7FDF9009447
:10491000049B089A39461A98FDF7F6F900943B462D
:10492000DDF81C80424639464046FDF7EDF9323548
:10493000ADB200942B46424659461998FDF7E4F96A
:1049400000940A9B189A04991B98FDF7DDF90094CE
:10495000039BDDF8348042460E993046FDF7D4F9CA
:1049600000945346069A0B990F98FDF7CDF90094E1
:104970005346129E324651463046FDF7C5F9009423
:104980004B46324605994046FDF7BEF900944B462A
:10499000DDF85080424649464046FDF7B5F900949F
:1049A0003B46DDF818C0624639466046FDF7ACF973
:1049B00000945B46324639463046FDF7A5F900942F
:1049C000DDF810904B46159A39464046FDF79CF9A4
:1049D00000943B460C9E324639463046FDF794F92A
:1049E00000942B46169A59463046FDF78DF90094EF
:1049F0000A9B099A49461798FDF786F91DB0BDE84C
:104A0000F08F2DE9F04F89B006460C4615464F1C35
:104A1000BFB201F1090B1FFA8BFB00925B46024605
:104A20003946FDF771F9731C9AB204F106081FFAB2
:104A300088F800954346214603921046FDF764F935
:104A400006F102091FFA89F906F109039BB21A4619
:104A500000952346049221464846FDF755F9B31DBB
:104A600099B200953B4605910A4639464846FDF7FE
:104A70004BF906F154031FFA83FC06F15C0A1FFA96
:104A80008AFA0095234652462146CDF818C0604662
:104A9000FDF73AF906F157031FFA83FE06F15D09A7
:104AA0001FFA89F900953B464A463946CDF81CE085
:104AB0007046FDF729F9A71CBFB200954346524640
:104AC00039465046FDF720F900955B464A4639467F
:104AD0004846FDF719F904F13307BFB206F15B0B45
:104AE0001FFA8BFB00953B465A4639460698FDF760
:104AF0000BF904F132081FFA88F8009543465A462C
:104B000041460798FDF700F904F12D0B1FFA8BFBC6
:104B100000953B46524659465046FDF7F5F804F1DC
:104B20002A0A1FFA8AFA009543464A4651464846E1
:104B3000FDF7EAF83134A4B20095234632465146D7
:104B40003046FDF7E1F800952346039C224659467E
:104B50002046FDF7D9F800954346059A4146304670
:104B6000FDF7D2F800953B46049A39462046FDF7FA
:104B7000CBF809B0BDE8F08F38B504460D4643F2D6
:104B80000822FFF706FD29462046FFF77BFB4BF680
:104B9000F75229462046FFF734FF38BD10B582B0E2
:104BA00047F27C1400949923B92298216420FDF7E0
:104BB000ABF800949A23632299216220FDF7A4F8B0
:104BC00000949A23BB229921BA20FDF79DF8009406
:104BD0009B2361229A216020FDF796F800949A2386
:104BE000642219461046FDF78FF800949A23B922E3
:104BF00019461046FDF788F800949C23BC229A21A0
:104C00001046FDF781F800949E235F229B211046F9
:104C1000FDF77AF800949B23622219461046FDF7AF
:104C200073F800949B23BB2219461046FDF76CF8DD
:104C300000949E23BD229B211046FDF765F8009449
:104C40009D2360229C211046FDF75EF80094A1236D
:104C5000BE229C211046FDF757F80094A1235E2246
:104C60009D211046FDF750F80094AF235D229E2150
:104C70001046FDF749F80094AE23BF229E2110464E
:104C8000FDF742F80094B023C022A0211046FDF7A2
:104C90003BF80094B0235C22A1211046FDF734F8C4
:104CA0000094AB235E22A3211046FDF72DF800945B
:104CB000B123C122AD211046FDF726F80094B1239F
:104CC0005B22AF211046FDF71FF80094B82340F295
:104CD0007712AF214FF4BA70FDF716F80094B8239D
:104CE0000D22B0210820FDF70FF80094B2235A22BC
:104CF000B0211046FDF708F80094B223C222B0217B
:104D00001046FDF701F80094B72340F27312B0216A
:104D10004FF4B970FCF7F8FF0094B7234FF4BC725E
:104D2000B0211046FCF7F0FF0094B7230722B12111
:104D30001046FCF7E9FF0094B7230E22B12110467C
:104D4000FCF7E2FF0094B3235922B1211046FCF78F
:104D5000DBFF0094B323C322B1211046FCF7D4FF3C
:104D60000094B62340F27112B1211046FCF7CCFF3B
:104D70000094B72340F27912B1211046FCF7C4FF2A
:104D80000094B3235822B2211046FCF7BDFF0094D3
:104D9000B423C522B221C420FCF7B6FF0094B5238A
:104DA0004FF4BD72B2211046FCF7AEFF0094B7235A
:104DB0000622B3211046FCF7A7FF0094B6230F226A
:104DC000B3211046FCF7A0FF0094B4235722B3216F
:104DD0005520FCF799FF0094B423C722B321C620C5
:104DE000FCF792FF0094B5235422B4211020FCF765
:104DF0008BFF0094B5234FF48C72B421C820FCF7CC
:104E000083FF0094B523562219465520FCF77CFFFA
:104E10000094B523C72219461046FCF775FF00948D
:104E2000B6234FF48D72B52140F21910FCF76CFFD8
:104E30000094B6234FF48C7219461046FCF764FFB9
:104E40000094B8234FF48E72B62140F21B10FCF789
:104E50005BFF0094B7234FF48D7219461046FCF7A0
:104E600053FF0094BB2340F21D12B7211046FCF7FC
:104E70004BFF0094B9230C2219460920FCF744FF8C
:104E80000094B9234FF48E7219461046FCF73CFF8C
:104E90000094C0234FF48F72B9211046FCF734FF01
:104EA0000094C2234FF4BB72B92140F27510FCF795
:104EB0002BFF0094C42340F21F12BA211046FCF7C6
:104EC00023FF0094C5234FF49072BF211046FCF7D6
:104ED0001BFF0094C5234FF4BA72C0211046FCF7A3
:104EE00013FF0094C62340F22112C3211046FCF7A1
:104EF0000BFF0094C62340F27312C3211046FCF747
:104F000003FF0094C42340F27512C3211046FCF73E
:104F1000FBFE0094C7234FF49172C5211046FCF7A5
:104F2000F3FE0094C7234FF4B972C5211046FCF775
:104F3000EBFE0094C82340F22312C6211046FCF772
:104F4000E3FE0094C82340F27112C6211046FCF71C
:104F5000DBFE0094C8234FF49372C7214FF4927084
:104F6000FCF7D2FE0094C8234FF4B872C72140F278
:104F70006F10FCF7C9FE0094C9234FF4B772C82123
:104F800040F22710FCF7C0FE0094C9234FF493723F
:104F9000194640F22510FCF7B7FE0094C92340F2F1
:104FA0006F1219461046FCF7AFFE02B010BD0000AC
:104FB00070B50024474B1C80474D4FF6FF732B8084
:104FC0002346464A05211420FDF7EEF82346444ABD
:104FD00005214FF4AA70FDF7E7F840F2DF132B80AC
:104FE000404A29210A20FCF7E1FF4AF63F732B8053
:104FF0003D4A2E214620FCF7D9FF3C4A2E21AA200B
:10500000FCF7D4FF3A4A2E214FF48C70FCF7CEFF08
:10501000384E23463246482140F28310FDF7C4F84B
:1050200031224F2140F28F10FDF7D0F8234632464F
:10503000842140F28310FDF7B7F832228B2140F231
:105040008F10FDF7C3F823462B4AC0214FF4C370DD
:10505000FDF7AAF84BF2AB432B80284AE42123202A
:10506000FCF7A4FF264AE4218220FCF79FFF254A93
:10507000E421DC20FCF79AFF234AE4214FF4A070DE
:10508000FCF794FF214AE42140F29F10FCF78EFFC9
:105090001F4A40F21B111720FCF788FF1D4A40F2FF
:1050A0001B118220FCF782FF1B4A40F21B11DB2000
:1050B000FCF77CFF194A40F21B114FF4A070FCF77B
:1050C00075FF174A40F21B114FF4CD70FCF76EFFCD
:1050D00070BD00BF0C0A0020000000202C0B01084E
:1050E000380B0108400B0108440B0108480B01086C
:1050F0004C0B0108500B0108540B0108580B010818
:105100005C0B0108600B0108680B01086C0B0108BF
:10511000700B0108780B01087C0B0108840B010857
:10512000880B010800B583B003460B4A00211180AB
:105130000A4A4FF6FF711180094A0821684602F0B9
:1051400005FF01236A4605214FF4C370FDF72CF8D3
:1051500003B05DF804FB00BF0C0A00200000002033
:10516000900B0108F0B585B007460C46284B00228D
:105170001A80284B4BF25F621A80274EFBF7A4F986
:10518000CDE90001324608210DEB010002F0DEFE00
:1051900002AA26214FF4D270FDF7C4F81F4D2A460B
:1051A00026214FF4E470FDF7BDF82046FBF78CF99B
:1051B000CDE90001324608210DEB010002F0C6FEE8
:1051C00002AA36214FF4D270FDF7ACF82A463621F8
:1051D0004FF4E470FDF7A6F821463846FBF75AFA7B
:1051E000FBF772F9CDE90001324608210DEB010011
:1051F00002F0ACFE02AA46214FF4D270FDF792F8FD
:105200002A4646214FF4E470FDF78CF805B0F0BD56
:105210000C0A002000000020980B0108540B010824
:10522000F0B585B007460C46284B00221A80284B63
:105230004EF671721A80274EFBF746F9CDE9000150
:10524000324608210DEB010002F080FE02AA622125
:105250004FF4D270FDF766F81F4D2A4662214FF4D5
:10526000E470FDF75FF82046FBF72EF9CDE9000169
:10527000324608210DEB010002F068FE02AA7221FD
:105280004FF4D270FDF74EF82A4672214FF4E470C5
:10529000FDF748F821463846FBF7FCF9FBF714F90F
:1052A000CDE90001324608210DEB010002F04EFE6F
:1052B00002AA82214FF4D270FDF734F82A468221E7
:1052C0004FF4E470FDF72EF805B0F0BD0C0A002095
:1052D00000000020980B0108540B010830B585B080
:1052E0000C46FBF7F1F8CDE900011C4A08210DEB53
:1052F000010002F02BFE1A4D4AF63F732B8002AAE2
:105300002E21D220FCF752FE45F69D732B80C4B1AE
:10531000C2234FF4E472A2214FF4C770FCF7D9FC0A
:10532000104B00221A8002AAA4214FF4C870FDF786
:105330008FF80D4AA4214FF4E670FDF789F805B007
:1053400030BD084B45F69D721A80C2234FF4E472BB
:10535000A2214FF4C770FCF7BCFCE1E7980B0108F1
:10536000000000200C0A0020540B010810B584B086
:105370000446194B00221A80184B4AF63F721A80D5
:10538000F9B19623382276210C20FCF7A2FC124BAF
:1053900000221A802046FBF797F8CDE90001104A59
:1053A00008210DEB010002F0D1FD02AA78210E20A8
:1053B000FDF74EF80B4A80213C20FCF7F7FD04B0C6
:1053C00010BD054B4AF63F721A809623382276218B
:1053D0000C20FCF77EFCDAE70C0A0020000000201D
:1053E000A00B0108A80B010810B584B00446204B9F
:1053F0004AF63F721A8021B396239C2276216220BE
:10540000FCF767FC1B4B00221A801B492046FBF768
:10541000FBFB08B32046FBF757F8CDE90001174A1C
:1054200008210DEB010002F091FD02AA7821642011
:10543000FDF70EF8124A8021A020FCF7B7FD04B05A
:1054400010BD0C4B4AF63F721A8096239C2276219F
:105450006220FCF73EFCD5E72046FBF735F8CDE9A6
:105460000001084A08210DEB010002F06FFDDCE7A6
:10547000000000200C0A002000002041A00B0108C1
:10548000AC0B0108980B010810B584B00446184B0A
:105490004AF63F721A80F9B19623F2227621C6208D
:1054A000FCF717FC134B00221A802046FBF70CF880
:1054B000CDE90001104A08210DEB010002F046FD84
:1054C00002AA7821C820FCF7C3FF0C4A8021F620ED
:1054D000FCF76CFD04B010BD064B4AF63F721A8013
:1054E0009623F2227621C620FCF7F3FBDAE700BF11
:1054F000000000200C0A0020A00B0108AC0B0108E2
:1055000010B584B00446234B4AF63F721A8041B36B
:1055100096234FF4AE7276214FF49070FCF7D9FBCE
:105520001D4B00221A801D492046FBF76DFB28B356
:105530002046FAF7C9FFCDE90001194A08210DEB11
:10554000010002F003FD02AA78214FF49170FCF7EC
:105550007FFF144A80214FF4AF70FCF727FD04B0A1
:1055600010BD0D4B4AF63F721A8096234FF4AE726F
:1055700076214FF49070FCF7ACFBD1E72046FAF7A8
:10558000A3FFCDE90001084A08210DEB010002F05C
:10559000DDFCD8E7000000200C0A002000002041BC
:1055A000A00B0108AC0B0108980B010800B585B0F1
:1055B0000346094A4AF63F711180084A102168469D
:1055C00002F0C4FC6A462E214FF4A070FCF7EEFCFA
:1055D00005B05DF804FB00BF00000020B00B01081F
:1055E00010B50446154B00221A80154B4AF63F723F
:1055F0001A8061B142238C222C216220FCF769FBC6
:105600000E4B00221A806CB1012C11D010BD0B4B37
:105610004AF63F721A8042238C222C216220FCF72A
:1056200058FBEDE7074A2E216420FCF7BFFCEDE7AD
:10563000054A2E216420FCF7B9FCE7E70C0A00209C
:1056400000000020B80B01087C0B010810B584B0E5
:105650000446144B00221A80134B40F2DF121A80CA
:10566000A9B13F232C2227211E20FCF732FB0D4B32
:1056700000221A80631C0D4A1021684602F066FC65
:105680006A4629212020FCF791FC04B010BD054B8F
:1056900040F2DF121A803F232C2227211E20FCF724
:1056A00018FBE4E70C0A002000000020C00B0108F2
:1056B00008B50C4B4AF63F721A8048B10A4B40F2CB
:1056C000FF721A80094A5021A020FCF76FFC08BD28
:1056D000054B4AF63F721A80044A5021A020FCF77D
:1056E00065FCF4E7000000200C0A0020C40B010850
:1056F00070B582B04FF485710020FFF73DFA4FF48A
:1057000085716020FFF738FA4FF48571C020FFF7EC
:1057100033FA4FF485714FF49070FFF72DFA4FF480
:1057200085714FF4C070FFF727FAD4210020FFF7EE
:1057300023FAD4216020FFF71FFAD421C020FFF7FD
:105740001BFAD4214FF49070FFF716FAD4214FF4CE
:10575000C070FFF711FA4AF63F730093D2234FF45B
:10576000C0721E210020FCF7CFFA664D40F2DF1414
:105770002C80D2234FF4C0721E210020FCF7A9FA1E
:10578000D12340F27F121F210120FCF7A2FAD0237F
:105790004FF4BF7220210220FCF79BFA00944623AD
:1057A00036221E210020FCF7AFFA46F652332B803A
:1057B0009A234FF4BE7219460320FCF73BFAA82344
:1057C0004FF4BE7219460320FCF734FAB5234FF4A8
:1057D000BE7219460320FCF72DFAC2234FF4BE72A5
:1057E00019460320FCF726FA4BF25F6300935A2315
:1057F0004FF4F0721E214FF4C070FCF785FA4BF69F
:105800007F4600965A234FF4CB724A214FF4C07062
:10581000FCF77AFA2E805A2322461E214FF4C070DC
:10582000FCF757FA592322461F2140F28110FCF75A
:1058300050FA58234FF4EF7220214FF4C170FCF757
:1058400048FA4EF67173009396234FF4F0725A2182
:105850004FF4C070FCF758FA4FF6AD5600969623F9
:105860004FF4CB7286214FF4C070FCF74DFA2E80B6
:10587000962322465A214FF4C070FCF72AFA95234A
:1058800022465B2140F28110FCF723FA94234FF467
:10589000EF725C214FF4C170FCF71BFA45F69D7363
:1058A0000093D2234FF4F07296214FF4C070FCF7AE
:1058B0002BFA40F291460096D2234FF4CB72C221CC
:1058C0004FF4C070FCF720FA2E80D2232246962196
:1058D0004FF4C070FCF7FDF9D1232246972140F226
:1058E0008110FCF7F6F9D0234FF4EF7298214FF4B2
:1058F000C170FCF7EEF9FFF751F9FFF759FB02B061
:1059000070BD00BF0C0A002010B50446FF2834D03B
:10591000284B1878A04214D0FF2809D0042813D8A7
:1059200000EB400043F20822D4214001FEF731FE93
:10593000042C16D804EB44000022D4214001FEF7C9
:1059400028FE1C4B1C7010BDC0F1090000EB40008C
:10595000400180B243F208224FF48571FEF719FE30
:10596000E6E7C4F1090000EB4000400180B20022EC
:105970004FF48571FEF70DFEE3E70E4B1878FF2814
:10598000DFD0042808D800EB400043F20822D421DD
:105990004001FEF7FEFDD4E7C0F1090000EB400036
:1059A000400180B243F208224FF48571FEF7F1FD09
:1059B000C7E700BF3800002008B50A480A4B03605B
:1059C0004FF4E133436000238360C36003610C2222
:1059D00042618361C36102F037F900B908BDFEF787
:1059E000A3F8FBE7245B00200010014000B589B05C
:1059F000002303930493059306930793026803F12E
:105A0000804303F588339A4202D009B05DF804FB65
:105A10000021019103F594335A6C42F010025A644C
:105A20005A6C02F010020192019A02911A6B42F034
:105A300001021A631B6B03F001030293029B4FF4F4
:105A4000C06303930223049303230693072307935E
:105A500003A9024800F0B0FFD7E700BF00000240F2
:105A6000DFF834D00D480E490E4A002302E0D45826
:105A7000C4500433C4188C42F9D30B4A0B4C002396
:105A800001E013600432A242FBD3FEF7FFFA02F0FA
:105A90007DF9FEF79DF8704700000120000000200E
:105AA000F009002004100108F0090020D45B002058
:105AB000FEE7000010B504460E4B18784FF47A73D9
:105AC000B3FBF0F30C4A1068B0FBF3F000F040FBBE
:105AD00068B90F2C01D901200AE0002221464FF0BD
:105AE000FF3000F0EFFA054B1C60002000E00120C1
:105AF00010BD00BF39000020340000203C00002011
